:020000040100F9
:100000008056002161290101CDAF01014D29010177
:100010004D2901014D2901014D2901010000000078
:10002000000000000000000000000000312A010173
:100030004D290101000000000D2C01014D29010195
:10004000852C0101852C0101852C0101852C0101E4
:10005000852C0101852C0101852C0101852C0101D4
:10006000A7B40101852C0101852C0101852C01011A
:10007000BDB40101852C0101852C0101852C0101F4
:10008000852C0101D3B40101852C0101852C0101CE
:10009000852C0101852C0101852C0101852C010194
:1000A000852C0101852C0101852C0101852C010184
:0800B000852C0101852C0101E2
:1000B800064A074B02604FF44272DB7882800822BE
:1000C800C371002382710372704700BF711101016F
:1000D800E0020021064A074B02604FF4B072DB7A57
:1000E80082800822C371FF2382710372704700BFA8
:1000F8004B0A0101E00200212DE9F341C41D00284B
:10010800064624F007040CBF0020204600F028FC17
:10011800071E04DA6FF00B0002B0BDE8F081374D1E
:10012800E988A88803316B7A03302A7A89B280B2C9
:100138000DF0BBFB0028EDDB3C44A978EB78002EE2
:1001480004F10304194424F0030400FB01F10CBF7B
:100158000020204600F094FD20440EB90028D9DB89
:10016800EA7A0446B2B1EB7B697C13441944FF294F
:10017800D0D80330002EAA89C9B220F003040CBFDE
:100188000020204600F0EEFD0028C3DB04440EB931
:10019800002CBFDB012000F0D9FBB0B1A97BA1B1D5
:1001A80095F82A3033B340234FF481720734002E78
:1001B80024F007040CBF0020204601F037FF002878
:1001C800A8DB04440EB9002CA4DBAB7AFBB1EB7AB4
:1001D800B3B10734002EA97A24F007040CBF00201D
:1001E800204604F0EDFA002894DB04447EB9002C84
:1001F8000DDA8FE725232822D8E700BFE002002187
:10020800012000F0A3FB10B1AB7B002BE1D1734BB5
:100218001B6893B1A97D81B10334002EEA7D24F0D7
:1002280003040CBF0020204698470028FFF672AF51
:10023800044416B9002CFFF66DAF694B1B688BB1EF
:10024800297C79B10334002E24F003040CBF00206C
:10025800204698470028FFF65DAF044416B9002CE5
:10026800FFF658AF5F4B1F68B7B1697CA1B1033483
:10027800002E2B7D24F0030408BF0020009318BF34
:100288002046EB7CAA7CB8470028FFF643AF04441D
:1002980016B9002CFFF63EAF072000F057FB98B1C7
:1002A800A97D89B10334002E2A7E24F003040CBFF3
:1002B8000020204600F044FE0028FFF62BAF04443F
:1002C80016B9002CFFF626AFB6FA86F795F8230084
:1002D8007F09A0B103346B7FA97E24F00704194479
:1002E8003B4644F00404C9B2224600F069FE0028E7
:1002F800FFF610AF044416B9002CFFF60BAF95F8C3
:10030800241000294CD004F10708002EEA8C28F0AC
:1003180007080CBF002040460DF0DBFA041EFFF66C
:10032800F9AE4444002E3ED1002CFFF6F3AEA97F6F
:10033800002945D095F82230002B41D02A8C07346B
:10034800002E02F1240224F007080CBF00204046CA
:1003580092B20DF0BEFA0028FFF6DCAE404416B9A2
:100368000028FFF6D7AE03302B7FA97E20F00700C8
:1003780019443B4640F0040495F82200C9B22246CD
:1003880000F010FE0028FFF6C5AE044486B9002C24
:10039800FFF6C0AEEB6AF3B1C6B1EC620020BBE673
:1003A800002EC4D08846E98C404609F0D5FEBEE749
:1003B8002A8C4046A97F083292B209F0D3FEE9E7B9
:1003C800002EE7D0002211461046F6E728343FF504
:1003D800A1AE2046A0E6002EE0D1FAE7C40F002126
:1003E800C80F0021CC0F00211FB572B6194B1C6B2A
:1003F800ECB9BFF34F8F1849184BCA6802F4E06292
:100408001343CB60BFF34F8F00BFFDE7B2FBF6F29B
:100418002B465D1C002AF9D1DBB203F110056D44AF
:1004280005F80C2C0A2233B901A8A047E1E70246D7
:1004380000230A26EDE7013BDBB203F110050DEBC3
:100448000506B0FBF2F502FB1500303006F80C0C7F
:100458002846E8E7E002002100ED00E00400FA0584
:1004680013B5124C68462389ADF80030E388ADF81F
:100478000430A388ADF8023002F072FB18B1FB21FA
:100488009C20FFF7B1FF207D02F09AFB08B1FE2106
:10049800F6E7E07C02F08EFB08B1FF21F0E794F864
:1004A800280008F0B9F802B010BD00BFE002002132
:1004B80038B5054600283DD00CF086FA10B94FF043
:1004C800FF3038BD0AF00EFAB0F5FA7FF7D81B4CAA
:1004D800002125631B2504F10F0084F834102A46F7
:1004E800217084F82A10E1620CF0BAFC0123032180
:1004F80008200222A370E370E372A3742376F72323
:1005080021722384FB23A0721F20A1734921E38455
:100518000A23A580E5806272A081E174E27584F8FF
:100528002830EFF3108472B600F05AFD04B962B6B1
:100538000020C6E76FF01500C3E700BFE002002106
:1005480038B51446002840F0C480634D95F834301F
:10055800032B00F0BB80B9B112B96FF0150038BD9C
:100568000139172900F2B580DFE801F00C1D2036AB
:100578006069873C6C6F814248565B8D909FA2A54D
:1005880096B3B3A81378AB700020FFF7B5FD002829
:10059800B7BF012302236FF00B0085F83430A8BFE2
:1005A80085F83430DBE71378EB70EDE71379002B2F
:1005B800D3D05379002BD0D01288FB2ACDD86388AA
:1005C8001B3B9BB2E02BC8D81A2AC6D92368A2883D
:1005D8006B60424B9A80D7E71378EA7B9342BCD38F
:1005E800EB72D1E71378EA7A9342B6D8EB73CBE78C
:1005F8001378EA7A9342B0D86B74C5E71378002B66
:10060800ABD05378013BDBB2F82BA6D8138892788D
:100618006B82334B9A70B7E71078687507F0A8FFBC
:10062800B2E71378002B98D02B76ADE7012000F0C5
:100638008DF9237808B1012B8FD9AB73A4E7138800
:10064800AB81A1E71378AB759EE7072000F07EF930
:1006580010B92378012B80D9072000F077F918B159
:100668002378002B3FF479AF2378EB758CE7137868
:10067800082B3FF672AF2B7486E71388FF2B3FF6E3
:100688006CAFAB7280E713786B767DE713780E2B2F
:100698003FF663AFAB7677E72368124AC5F81E309A
:1006A80063685360238913816EE71378EB766BE7F1
:1006B80013786B7768E713782B7765E713785A1EFA
:1006C800092A3FF64AAF85F828305DE74FF0FF303A
:1006D80045E76FF02C0042E7E0020021E402002128
:1006E800F2020021FE020021F8B50D46064630B39D
:1006F80029B311F0070422D1124F97F83430012B97
:1007080002D16FF00B00F8BD032B02D14FF0FF3080
:10071800F9E700F0A1FC0028F8D02846FFF7ECFC28
:100728000028EEDB07F07EFF3046F96A02F0B0FAE7
:10073800FFF796FE0323204687F83430E3E76FF08F
:100748001500E0E7E002002110B5074C94F83430BA
:10075800032B03D102F0B4FA03F060F90DF0E6F9C7
:10076800002084F8340010BDE002002108B502F032
:1007780053FA03490320BDE8084000F0DFB800BF82
:10078800DD00000108B502F061FA03490220BDE866
:10079800084000F0D3B800BFB9000001074B4FF084
:1007A800FF3141F6FF72C3E9001205490022C1E991
:1007B80000221F21C3E90212704700BF0000002178
:1007C800180300213F280CD801380B4BC0F3421204
:1007D80000F01F0053F8223023FA00F000F0010067
:1007E8007047FF2806D04038044BC0F3421200F08F
:1007F8001F00EFE7012070470000002118030021C7
:10080800074B0146006849681A4603C240F48C2227
:1008180000201A6041F0107242F4FF625A6070477B
:10082800000000210246034B0068516803C3002002
:10083800704700BF180300210246034B0068516847
:1008480003C30020704700BF080000210138064B91
:10085800C0F3421200F01F0003EB82039B6823FAE7
:1008680000F000F001007047000000210A8870B510
:1008780095B2C67CC2F30E020488023602F1180350
:100888003444C35AA4B233442344013BB3FBF4F3C6
:1008980003FB0422438892B29342044B8BBF2B4044
:1008A800AB4313439BB20B8070BD00BF0080FFFFBA
:1008B8004A1E062A08B50346084604D84FF4D171E3
:1008C8001520FFF791FD094A914202D940F2A31180
:1008D800F6E711B903B1196008BD2BB11B680022F6
:1008E800C3E901211A1D1A600430F5E7FAFFFF7FFA
:1008F80010B5114B00EB41041A786389B3FBF2F38E
:1009080003FB0223013A1A44B2F5706F027980782A
:1009180028BF00231A440B18B2FBF0F100FB112189
:100928005B1AB3FBF0F100FB113313446FEA434346
:100938006FEA5343638110BD20030021024B03EB90
:1009480080035960704700BF20030021034B03EB6D
:1009580080035868003818BF012070472003002121
:100968002DE9F04F10F0070A85B0054604D040F293
:100978006F111720FFF738FD534F04464FF0010B56
:1009880007F14C06B146B04657F8043B8DF80BA06A
:100998003BB101A898479DF80A30082B01D9F521E9
:1009A800E7E79DF80B1041BB05B131604F4506F1F3
:1009B8000406E9D1002D6FD00022DFF8109112272C
:1009C800964689F8002058F827A0013FBAF1000F91
:1009D80055D09AF804609AF802C0FF2E60D03946C4
:1009E8000023481C38D19C44BCF1FF0F3FD90AB101
:1009F80089F800E04FF49A71BBE79DF80AC04B1DD7
:100A080060465A0004EB4303022838BF0220441E04
:100A180040422344BDF808406444CCF1000C034034
:100A2800013C04EA0C04B4F5803F02D340F20511FE
:100A38009FE775B19A1A32609170148082F803B0FA
:100A48009DF80C00107101984FEA104C1081A2F823
:100A580006C004FB0134A9E758F8210028B190F832
:100A680004B0B34504BF80781B180139B9E7DBB27D
:100A7800E6458AF804303CBF5FFA8CFE01227B1CF5
:100A8800A1D10AB189F800E0122640F6FF6A58F8A9
:100A98002670B7B9013EFAD2601B05B0BDE8F08FE9
:100AA8000023E5E707EB410309F101093846A3F8FC
:100AB8000AA0FFF71DFF5FFA89F1BB788B42F1D8D6
:100AC800E8E74FF00009F6E724030021200300219E
:100AD800034B03EB8003186D00B18078704700BFAB
:100AE8002003002138B54FF6FF7302460380184BE8
:100AF80003EB8103186DA8B184780379B3FBF4F193
:100B080004FB1133DBB2194600EB4105B5F90A5075
:100B1800002D0EDB0131B1FBF4F504FB1511C9B250
:100B28008B42F1D1002038BD6381BDE838400CF01C
:100B380098BE00EB41046389C3F30E031380C278A7
:100B4800002AF1D14FF4E5711720FFF74DFC00BFE3
:100B5800200300211C4B03EB810370B51C6D054677
:100B680044B3030404D54FF4EC711720FFF73CFCA1
:100B7800014620460CF058FEFF28014604D02046C6
:100B8800BDE870400CF06DBEA078B5FBF0F300FB3B
:100B98001353DBB219460A1D04EB4206B6F902608C
:100BA800002E09DB0131B1FBF0F200FB1211C9B2D2
:100BB8008B42F0D1002070BD8B4201D00023E3703E
:100BC80004EB42025580DAE720030021094B03EBCE
:100BD8008103014610B51C6D20460CF025FEFF2848
:100BE800014604D02046BDE810400CF03ABE002073
:100BF80010BD00BF20030021F8B5104B074603EBDA
:100C0800810301461C6D20460CF00EFEFF280546A8
:100C180011D0E288238953EA024606D001462046CD
:100C28000CF01FFE01463846B04720462946FFF71C
:100C38005FFE0020F8BD0520FCE700BF200300216F
:100C480038B50E4B0446827903EB8203186D08B958
:100C5800052038BD8278E1799142F9D24B1CE371C5
:100C680000EB41035D89B3F90A30002BF3DBA58063
:100C78000CF0F7FD20600020EBE700BF2003002107
:100C880070B5044610F003000E4603D04E2118201C
:100C9800FFF7AAFBFFF70CFE054624B103483146CF
:100CA8000460FFF705FE284670BD00BFBC030021A5
:100CB8002DE9F14FDFF870B01E4607460D46DBF808
:100CC800003090469DF828A09DF82C901BB9602113
:100CD8001820FFF789FB5246092140460CF028FCF2
:100CE8004A4684B2092130460CF022FC81B2DBF876
:100CF800000021440CF06CFD386018B9286001B080
:100D0800BDE8F08F04445346414609222C603868F8
:100D18000CF0D1FB4B4609223146286801B0BDE8EA
:100D2800F04F0CF0C8BB00BFBC03002170B50E46E5
:100D380004460CF010FC054630460CF00CFC044B45
:100D48002A1821461868BDE870400CF066BD00BF3F
:100D5800BC030021024B186808B10CF02DBD704788
:100D6800BC0300211F2AF8B5044613460ED892008A
:100D7800033222F00303B3F5803F2DD2184DACB1F6
:100D8800A00710D068210920FFF72EFBFF2B4FEAA0
:100D9800420204D9FF339A42A8BF1A46E8E77C2AE0
:100DA800B8BF7C22E4E729706C602B8122F0030233
:100DB80028230127120403FB01F06B680025120C9D
:100DC800EEB2B14200D8F8BD14B126181F705E60AB
:100DD800104401352833F3E74FF0FF30F3E700BF45
:100DE800C0030021154A002170B553681578C8B2B0
:100DF800854203D8BA210920FFF7F6FA1C4618469F
:100E0800013114F8286B0EB92346F0E700219970D8
:100E180001241289996103F126055C709208D96151
:100E280003F11E04596824F8022FA54243F8041F51
:100E38001144F8D100234361037070BDC003002141
:100E48000A4B1B89B3F5FF7F4FEA930006D25A0875
:100E58009B1A9BB2984238BF18467047B3F5EE6F9D
:100E680001D8FF22F4E740F27263F3E7C0030021E0
:100E78004B782DE9F04106460C4602F0040702F0D3
:100E8800FB05E3B1A5BBFF23A3707B0804EB570761
:100E98003A7D032A02D1022D18BF0133E21801213D
:100EA800117503F10C01002204EB830324F81120CF
:100EB8005B68A27030463360B280BDE8F081002DD7
:100EC800E1D1012301F11E028D6120464B7004F12E
:100ED800260C1A4BCD611B8949689B0822F8023FF2
:100EE800944540F8041F1944F8D100236361CAE708
:100EF800D1F8048014220021A01861700BF0B0FF13
:100F08000E4B1B89B3F5FF7F0FD25A089B1A9BB271
:100F180008EB0301C4F804802384A1606284C4F848
:100F28000C80A3842161E284ADE7B3F5EE6F4FF046
:100F3800FF02EBD940F27263EAE700BFC003002169
:100F48002DE9F84305460C46F720052191460CF09B
:100F5800EFFA061E21DB1DB906FB04F0BDE8F88395
:100F680015F0030703D098211920FFF73DFADFF8A1
:100F78003080C8F81050A8F81460BBB29C42EBD976
:100F8800B8F814504B46D8F810000522F72107FB93
:100F9800050001370CF08FFAEFE74FF0FF30DDE77F
:100FA800D403002107B5CDE900230B4603490246C7
:100FB800081D0CF095FD03B05DF804FBEC0300215F
:100FC80013B5064CCDE900230B46024604F108018F
:100FD80004F10C000CF084FD02B010BDEC030021FC
:100FE800144B012200214FF0FF309A60C3F8001221
:100FF800C3F80803C3F80015C3F804259A60C3F8BA
:1010080008034FF48040C3F80015C3F8042503F51E
:10101800805341F6F8720849C3F80825C1F88000E2
:10102800BFF34F8FBFF36F8FC1F88001C3F8082556
:10103800704700BF00E0004100E100E002680020C6
:10104800014B1A60704700BFFC030021014B1B686D
:10105800184700BFFC030021024B1868003818BF6E
:1010680001207047FC0300218C469B22064B00B5EB
:101078000CF8032B8E4607CBCEF80300CCF80410EF
:10108800CCF808205DF804FB0C0400212DE9F041A0
:101098001C4E044600F00107736A93F8A850B5F196
:1010A800000818BF4FF001081DB117B1338D1A079A
:1010B80014D4012916D8F36A2046984790B196F8B7
:1010C80030307BB98DB987B1308D58B996F8313049
:1010D8004BB996F8320080F0010004E096F82A3007
:1010E800002BE6D00120BDE8F08184F0010010EA71
:1010F8000800F8D0308D8307E7D596F82A0080F0ED
:101108000100F0E70004002110B5154C08F0AEFB13
:1011180008F0C2FE0021A36BA08E9847237E93B9E6
:10112800A18E606A03F0DAFB636AB3F8AA0003F0E1
:10113800FDFA236C94F8301094F83C00984700238B
:1011480084F8443010BD94E8070004F10C0383E8E8
:101158000700044904F119000EF001FCE0E700BFA4
:101168000004002171100001034B93F8443003B9C7
:101178007047FFF7C9BF00BF0004002108B5094B3D
:1011880093F84420022A07D1DA7A42F00102DA728F
:10119800BDE80840FFF7B8BF40F257312720FFF7F6
:1011A80023F900BF000400211E4910B48C6C42785A
:1011B8002378D20003F0F30302F008021343827885
:1011C800920002F004021343C278120103F0EC0308
:1011D80002F010021343027802F0030213430222C2
:1011E8002370B1F854306370A1F84C208C6C0079EE
:1011F80023784201012823F0200302F0200243EA69
:10120800020323700CD14B6A93F8BA2093F8BB30D1
:10121800032A03F01F0308BF002243EA8213A370C6
:1012280010BC704700040021F0B5194C83B0A56DBF
:101238004DB3636E3BB3B4F8683001F003012F4639
:1012480006466B702B7823F003030B4307F8033B28
:101258003846B4F86820616E0BF06CFE0DF102029E
:1012680001A9E06EE56567660CF09CFA01980CF040
:1012780087FA0346B4F868100122E06E33600CF078
:101288002AFA03B0F0BD40F6C6012720FFF7ACF8F4
:1012980000040021F8B5244C4FF481730646656AB2
:1012A800A4F860302A7D94F87430276F03EB82002D
:1012B80095F82111E765FF2804D11EB995F820316A
:1012C8008B4216D007F0ACFD2B7D3BB3A06F08F026
:1012D80057F9A16FE06D08F0A5FD8EB1B5F8E000F3
:1012E80007F056FD002008F083FA022384F8443002
:1012F800F8BD002AEAD1384608F042F908F0CCFDDA
:1013080095F82131B5F8E420033B012B8CBF002070
:101318002820104480B208F09BF9DFE7E06D08F060
:101328002FF908F0B9FDD8E7000400212DE9F04FA6
:10133800C44C87B0666A94F87430327D96F82011F0
:1013480003EB8203FF2B05D120B996F821318B429C
:1013580000F0F380FF2007F063FD676A00233A7A04
:1013680004938DF80930ADF80A308DF81430062A48
:1013780000F21781DFE812F07B00E30061006100F2
:101388001501070007000DF10A0103A801F0B6FED8
:10139800002800F0F280039D002D00F0EE8001226D
:1013A800062384F87D20BDF80A203B72002A5CD011
:1013B800E91CA4F85420022B2165B7F80920A5647C
:1013C800ADF811206DD0053B012B69D80B780322AD
:1013D800022B8DF8102000F0A380D4F880000CF0C8
:1013E80039F90546002840F0C380236D1B781B2B74
:1013F80000F0E78000238DF8143004A8F37C84F80B
:10140800315023B1B4F85430002B40F08C80FFF7F2
:10141800CBFEA06C08F0B4F808F03EFDB6F8E20088
:1014280007F0B6FC012008F0E3F9012384F88730BF
:1014380084F8443007B0BDE8F08FB7F810310DF1EB
:1014480009020DF10A01D4F88000ADF80A300CF059
:10145800A9F80546002800F003810123BDF80A20F9
:1014680084F87D303B7A002AA2D11146A1E70023F7
:1014780003A80DF10A01A7F8443094F87C30A7F8C6
:101488001031ADF80A3001F039FEE0B1039DD5B155
:101498000122052384F87D203B72BDF80A2085E7E8
:1014A80001238DF81030D4F880000CF0D3F80546ED
:1014B800002858D101F03CFE2B4680F00105EDB222
:1014C8008DF8135097E7636A93F85580B8F1000FC9
:1014D80058D10DF10A010DF10902D4F880000CF081
:1014E80061F8054600284DD09DF809A0BAF1000F13
:1014F8006ED1BDF80A30002B58D10123A5643B7288
:1015080084F87D300023A4F854302365B7F80930F7
:10151800ADF8113001238DF81030B8F1000FC2D0AA
:1015280000252B4667E7FFF73FFEA06F08F028F875
:10153800A16CA06F08F03AFC70E737460EE7424B03
:101548000122D4F88000A36400238DF81020A4F8A9
:1015580054302365B7F80930ADF811300CF07AF83B
:1015680005460028A6D001238DF81330002342E752
:1015780001238DF81330236D38E740F2D35127202B
:10158800FEF732FF4FF00008012200233A722E4A7C
:10159800ADF80A30A4F854302365A264B7F80930CE
:1015A800B6E740F2DD512720FEF71EFF0023012297
:1015B8002B80AB70032384F87D203B72BDF80A2092
:1015C800F4E607F1BA00012107F06CFC012312E7E9
:1015D8000146D4F880000CF0CFF80CF0D1F803687D
:1015E800D0F804B0814653EA0B022FD10023BDF88E
:1015F8000A2089F8003089F8013089F8023089F822
:10160800033089F8043089F8053089F8063089F8FC
:101618000730002A3FF471AF9DF809100029C5D0A2
:10162800297801F00301012906D00121BB750223A5
:1016380084F87D103B72BBE6032384F87D103B726F
:10164800B6E600BF0004002184040021019309F0DC
:1016580017FB019B83427BEB0101C7D2D04693E77E
:1016680040F2C4512720FEF7BFFE00BF2DE9F04F1E
:101678000023B14C8BB0656ACDE9083394F8443047
:10168800022B40F05982E36D03220E46074693F879
:10169800009005F1A80A5978134409EA020B4FEAA9
:1016A8002918A4F860206366A4F86810002800F0E0
:1016B800C880002940F080816B7AA28E0133A16531
:1016C80042F40072DBB2A28683EA990111F00101AB
:1016D80040F0F1802A7A002A00F06981032A6B72AF
:1016E80000F2B381012A00F06281B5F8443008A9FC
:1016F800D4F88000A5F846300BF076FF002800F0FB
:1017080025822B6F01332B676B6F43F100036B67E7
:101718000021636A297293F8A8304BB16B793BB109
:10172800238D1020697143F010032385A36B98471C
:10173800A38EC9F3C00943F40063A386002307936B
:101748002B7D002B40F0BE80AB7A03F0010291455F
:1017580000F01781A36D002B00F0C78008F0010886
:1017680084F83280002E40F0F680079E4FF0000982
:1017780094F88A100120FFF789FC8046002840F081
:10178800D781EB7C002B40F03281002095F8202196
:10179800B5F8E01007F038FD0020FFF7C7FDB8F1F5
:1017A800000F03D0594609A8FFF73EFDA38E5A063D
:1017B80007D4A36B002140209847A38E43F0400331
:1017C800A38666B1EB882BB9636A93F8A830002B1F
:1017D80040F0CF80B4F809300133A4F80930002F65
:1017E80000F0C180B4F805300022013384F88A2063
:1017F800A4F80530514802F087FF089830B10BF083
:10180800BFFF00220272514602F028FA099B33B149
:1018180000221A720C225146099802F0EDF9B9F12A
:10182800000F40F08380A38E1B0607D4A36B4946A4
:1018380080209847A38E43F08003A3860BB0BDE8B1
:10184800F08F2B7D002B40F0BC8094F88A30013358
:1018580084F88A30A38E43F48063A38695F82131F7
:10186800033B012B16D902F031FA98B9A36D002B6E
:1018780000F0008108F0010884F83280002E3FF45F
:1018880075AF07F0F3FFA38E5B066AD400264FF00E
:1018980001098EE707F092FA0328A36D00F09480FF
:1018A800002B00F0E78008F0010884F83280002E51
:1018B800E7D1B1465CE72B7DC9F3C0090797002B38
:1018C8003FF442AFB4F86830F3B9AB7A03F00102E1
:1018D80091457FF43FAF0133BBF1030FAB7200F0CA
:1018E800CE80A26D002A7FF439AF4FF00009B4F81A
:1018F8006830002B14BF4FF0000808F0010884F886
:10190800328046BB079E33E708F0EEFA0328FBD087
:1019180002280BD000287FF417AFAB7A03F001033D
:1019280099457FF417AF012384F83C30FFF7ECFBAF
:101938000BB0BDE8F08F00BF000400212404002193
:10194800002A14BF4FF0000808F0010884F832801C
:10195800002E3FF40AAF07F089FF079E4FF00109F8
:1019680024E74FF00109B4F807300133A4F8073031
:1019780040E7B4F80530B4F8072013433FF42FAF1D
:1019880028E7B4F86820002AA5D00BF1FF32012A15
:1019980040F285800133BBF1030FAB726FD0AB6FA0
:1019A8000133AB67EB6F43F10003EB67D2E6B5F8A1
:1019B8004430A5F84630ABE6E06E0BF06CFE01460D
:1019C8007AE608F0D1FA40E7B4F86890B9F11B0F4D
:1019D80094BF4FF000094FF00109002B5DD008F0CB
:1019E800010884F83280002E3FF4C2AE49E7636AEA
:1019F80005F1800195F82A0105F1900C93F8A820CB
:101A080095F820318000B2FA82F20791013B5FFA23
:101A180080FE5209DBB2032BD5E91C0100F2AB8032
:101A280003930B4605F18001CDE9002C02464FF0E7
:101A3800000C70464FF0010ECDE904CE4FF0FB0CC0
:101A4800CDF808C008F022F99FE6053A012A78D8AF
:101A5800B5F844300791A5F8463001F05DFB0799C9
:101A6800002878D0238D082043F008032385A36B32
:101A7800984746E64FF00009CDF81C9037E7A38E4B
:101A880001203F4943F480532871A386238D43F0F6
:101A980001032385A36B984781E7079327E7A38E64
:101AA80095F8149043F48053A38607F087F9032828
:101AB80094F8883007D1B9F1000F0CBF1F221B2200
:101AC800934228BF1346B4F86820A16D9A421CD8E7
:101AD80000293FF435AF94F8893003BBAB6F08F0A9
:101AE8000108013384F83280AB67AB7A03F1010354
:101AF800AB72EB6F43F10003EB678EB307F0B6FEF2
:101B0800594609A8FFF790FB27E794F8303043F0CF
:101B1800100384F8303000297FF420AEE5E6A36B8B
:101B2800002120209847A36D002B7FF417AEDCE638
:101B380007F09CFE079610E740F6AF112720FEF746
:101B480053FC40F2B4712720FEF74EFC40F2D671E8
:101B58002720FEF749FC4FF4FC612720FEF744FCE0
:101B680094F88A100120FFF791FA81460028C5D120
:101B7800079EB84605E640F225410620FEF734FCEC
:101B8800640400212DE9F041404C86B094F84430BB
:101B9800012B70D1666A5FFA83F805460F463379E0
:101BA80003BB337A052B30D0012F16D1ADB92946A6
:101BB8002846FFF76BFA80B9337D676A002B3BD163
:101BC80097F821210120B7F8E21007F01DFB00204B
:101BD80006B0BDE8F041FFF75DBB06B0BDE8F041D7
:101BE800FFF792BA238D0021042043F004033171DA
:101BF8002385A36B9847636A93F8A830002BD0D04D
:101C0800337A86F80580052BCED1238D0220204912
:101C180043F002032385A36B9847636A93F8A830BF
:101C2800002BC1D0236D1B78A3F10203B3FA83F311
:101C38005B0984F82A30B7E797F8213106F1800C60
:101C480094F874209036013B97F8A840DBB2003C2A
:101C580018BF0124032B56E9060111D80094CDE9D9
:101C6800016202460120CDE9033505900B46614625
:101C780008F00CF8A4E740F60E112720FEF7B4FB95
:101C880040F225410620FEF7AFFB00BF000400210B
:101C98005004002110B50C4C0C4A0D4994F84430FE
:101CA800116023B14FF4B1712720FEF79DFB03F0BB
:101CB800FF02227602F00AFE01F01AF8206701F00E
:101CC8001BF8A06710BD00BF00040021D00F002141
:101CD800C81F0001074A10B592F8443013B10C240C
:101CE800204610BD03F0FF04147602F0EFFD2046F5
:101CF80010BD00BF000400212DE9F0439A4C87B0C5
:101D0800054694F844009DF83860002840F0218189
:101D1800002A18BF002900F01C81B3FA83F040099B
:101D2800002B00F016812364A163E26284F830007E
:101D380084F88A0084F83C0084F887002085A0860F
:101D480084F8310084F8320084F87D0084F82A0091
:101D5800A0642065A4F85400E0656066A4F86800F3
:101D680084F88960656207F0CFF808F095F895F96E
:101D7800280107F02DF9D5F8D460D5F8CC0007F084
:101D88002DF9304607F0E0FB95F8250007F030F90B
:101D9800B5F8E030702B03D9B5F8E230702B01D8D4
:101DA80006F0FCFF636A93F8A860002E72D00EF06C
:101DB800D9FA014695F821210120AF3107F00EFA32
:101DC8006A4B186807F0C6FBAB7B243BD5E9301299
:101DD800072BC4F88010E2667BD9EB7B243B072BEA
:101DE80077D9B5F8F230B5F8F80095F8201198428F
:101DF80028BF1846042908BF03210DF080F90246C0
:101E080095F8F40095F8F030904228BF104680B25B
:101E1800984200D3C3B295F8211105F1E80084F87F
:101E28007C300DF01AFE95F821112F7D0329B5F8A5
:101E3800FC6008BF04210DF062F90FB9043080B2CC
:101E4800864228BF0646F6B284F8886001F03EFF55
:101E5800002840D1636A84F8746093F8A8306BBB9B
:101E6800EA7C002A3ED10120FFF760FA0023B5F88A
:101E7800AA0095F82520A360C4E90033D5F82431D9
:101E8800E9882080618022710BB101221A6007B0B5
:101E9800BDE8F0830EF066FA95F82021344B014630
:101EA8003046344E33F8123003F5FA73A6FB036359
:101EB80001EB9311913107F091F981E72B7D73BB09
:101EC8000120FFF7E7F9636AD3F8E80107F08EFB12
:101ED800CCE71B239FE701F0FFFEB04238BF304636
:101EE800C6B2B7E795F8206105F1800195F82A0197
:101EF80005F19002013E8000F6B2C0B2032ED5E98A
:101F08001C892BD801924246CDE9036301264B4632
:101F180005960096FB26029607F0B8FEA3E795F80B
:101F2800213105F1800705F19002013BDBB2032B5B
:101F3800D5E91E0112D8019202460120CDE90263BB
:101F480000260B46059039460090049607F09EFE41
:101F5800B6E74FF420712720FEF746FA40F22541F4
:101F68000620FEF741FA00BF00040021D00F00212F
:101F7800E0CA0101D34D6210FFF7C6B8014B93F8D0
:101F88008700704700040021054B9A8E12F4C06F39
:101F980003D093F87D0000B17047C2F3003070475A
:101FA80000040021024B93F83500C0F3C0007047CD
:101FB80000040021014B93F88A00704700040021B7
:101FC80085110001751600018D1B000171110001BA
:101FD80090F854305A070ED413F0030301D1184671
:101FE800704790F8550000F0FD00A0F10100B0FA2C
:101FF80080F04009704790F85600A0F10100B0FA4F
:1020080080F04009704700BF08B501210020FEF7A5
:10201800DDFD28B190F89400003818BF012008BDF4
:1020280040F64A313220FEF7DFF900BF343270B58E
:10203800044692B21E460D460BF04BFC24B1034BEE
:102048001C601D745E741D7170BD00BFA404002166
:1020580090F86C00003818BF01207047304BF0B57D
:10206800B0F86C700C461146DA88B0F86A6085B032
:1020780097421D8928BF1746964228BF16461B2E31
:102088002ED0B5F5A47F2DD040F6480301AA9D4275
:1020980028BF1D460BF052FDBDF80A30BB4228BFD1
:1020A8003B46E380BDF80C30AB4228BF2B4623816A
:1020B800BDF80630B34228BF33466380BDF8083008
:1020C800AB4228BF2B46A380FF232370E3881B3B2A
:1020D8009BB2E02B08D940F202513920FEF784F96F
:1020E8001B2FCED105B0F0BD63881B3B9BB2E02B04
:1020F80002D940F20451F0E7238940F64812A3F5CB
:10210800A4739BB2934202D940F20651E5E7A38833
:10211800A3F5A4739BB29342E4D94FF4A161DCE721
:102128004C050021F7B5002506462C463278ABB29F
:102138009A4207D80F4B0020B3F864201444A3F840
:1021480064400EE006EB850701A9B7F801000DF021
:102158003CF860B90199B7F80330CA8C934202D9A8
:10216800122003B0F0BDD21A23449CB2CA840135B0
:10217800DCE700BF4C050021F7B5002304460E46F6
:102188001746CDE900336846FEF75AFD08B100202E
:102198001AE0009DA542F6D0304605F1AD030BF0DC
:1021A800C7FC394695F8AC200CF00BFF0028EAD0A4
:1021B80005F1B40395F8B32004F1B40194F8B30021
:1021C8000CF0FFFE0028DED003B0F0BD054A516ACE
:1021D80002F11D03127F11F8030BC0F380100CF0FD
:1021E800F0BE00BF880A00210138C0B2032808B534
:1021F80004D94FF43F710620FEF7F6F8014B185C3E
:1022080008BD00BFACC801010138C0B2032808B539
:1022180004D94FF43F710620FEF7E6F8014B185C2D
:1022280008BD00BF04C901010138C0B2032808B5C0
:1022380004D94FF43F710620FEF7D6F8014B185C1D
:1022480008BD00BFE0C9010107B50D4AB2F8643006
:102258009BB1013B01A9A2F864300CF0B6FF20B194
:1022680040F223513920FEF7BFF8019A0120D38CA0
:102278000133D38403B05DF804FB1846FAE700BFC6
:102288004C05002110B503210020FEF79FFC0446F1
:1022980070B90321FEF75EFC044620B940F21E31F6
:1022A8003920FEF7A1F8034B93F96C100EF08DFB63
:1022B800204610BD4C050021014B5888704700BFCF
:1022C8004C050021044BD87BC0F3400080F001008E
:1022D80000F00100704700BF4C05002110B50CF05C
:1022E8006FFE204C01F0C2F800F066FD0DF00FFB08
:1022F80002F078FA01F0BAFA06F07AF9012000F053
:10230800FFFC0021184B194A19604FF01B13A4F861
:102318006410A18184F83210E173C4E900234FF4FA
:10232800A4731022A3604FF479432361104B5868BB
:102338001B89606304F13C0023870AF091FD0123A7
:1023480042F2107204F15A0084F83C306375C4E913
:1023580010220EF0BAFF04F14C00BDE810400EF058
:10236800DABF00BF4C050021D40F002103021B0077
:10237800ACC80101044B41F64C521B211A629973F7
:10238800C3E90622FFF7AABF4C050021F7B53A4D6D
:1023980000F1A8070446AB69C0F8E8302B7C003B85
:1023A80018BF012380F82931344BC0F8C8303846AB
:1023B8000EF0E4F8064600F0E7FC8306A97B53BF5D
:1023C8001B236B88AA881A46A4F812312C4BA4F850
:1023D80014211B6884F8F010A4F8F26023B194F972
:1023E8002811B4F8AA009847264B1B681BB1264948
:1023F800B4F8AA009847254938460CF051FC012347
:10240800A4F8DE30224B1B681BB10021B4F8AA00E7
:102418009847204B1B681BB10021B4F8AA009847C5
:102428001D4B1B6813B1B4F8AA0098471B4B1B68D7
:1024380013B1B4F8AA009847AB8804F1C0006A88C1
:1024480069780333033201919BB2297892B20091E3
:1024580004F1C401FEF72CFCD4F8C03023B940F2D3
:10246800DB413920FDF7C0FFD4F8C43013B940F27E
:10247800DC41F6E703B0F0BD4C05002100093D0042
:10248800E80F0021DC0F002170050021560500210E
:10249800F80F0021EC0F0021F00F0021F40F0021AC
:1024A8002DE9F34104460E460EF0D0FA002800F05C
:1024B800968020460EF044FC40B1B6F80130013B4E
:1024C8007F2B03D9122002B0BDE8F08120460EF020
:1024D8003BFC08B90C20F6E720460EF023F900284B
:1024E800F8D120460EF05BFA80460028F2D120464B
:1024F80004F07AFC0028E5D042F21073B6F80170B7
:10250800F17820465F430EF006FC04213078FEF790
:102518005DFB054606213078FEF758FB2DB140B12A
:1025280041F678213920FDF75FFF18B3054690F88A
:10253800E5802C4E3368EBB1403528460DF0FBFEA4
:10254800C0B128460DF0E8FEA0B9B8F1000F07D0D9
:10255800254B28461B68984760B141F68C21E1E776
:102568002249424633682846096A984710B141F61D
:102578009121D7E720460EF0DBFB014638B93A46F1
:10258800204602F04DFE40B341F69A21CAE70221E7
:102598000DF10600FEF7A6FA054608B90D2092E7E8
:1025A800BDF806100CF042FE294620460EF0F3FB5B
:1025B8002846FFF7EBFE3A462946204602F030FE51
:1025C800024610B141F6B621ACE7084B9B6E23B129
:1025D80005F5977105F1A8009847002073E7422098
:1025E80071E700BFD80F0021E00F00214C05002142
:1025F80008B50378032B0ED803F0FD03012B074B16
:1026080006D1074A07481A6001F0F0FA002008BD11
:1026180000201860F8E71120F9E700BFD40F002167
:102628002D21000151220001074B01889A8891420F
:1026380007D3B0F8032091B219B10020A3F86420A1
:1026480070471120704700BF4C050021024B1B68E2
:1026580003B118470C207047D40F0021B0F90020AF
:1026680011B292B2F8B502F5A0639BB2B3F5206F30
:1026780037D8B0F902301DB29BB203F5A06080B222
:10268800B0F5206F2DD802F2F64040F2BE5480B269
:10269800A04228D803F2F64080B2A04223D80029ED
:1026A8004FF00A04C4BF093211B2002DC8BF093364
:1026B80091FBF4F4C8BF1DB205F0A2FF0A2367B26C
:1026C800064695FBF3F1384649B205F08BFF074BF8
:1026D8001B6813B1A01B40B208B90020F8BD984789
:1026E800FBE73020FAE71120F8E700BFE40F0021EC
:1026F800034B5A8802801B7883700020704700BF04
:102708004C05002173B5837806461A2B08D8042B8C
:1027180004D9334A22FA03F3DB0705D412251AE059
:10272800292B01D03B2BF9D13088B0F5706FF5D249
:1027380069460CF04AFD88B9009B93F82C2102F0F9
:10274800FF05C2B9B27883F82D21FF2283F82C2126
:1027580068460BF018FC284602B070BD0921308885
:10276800FEF734FA0446002837D001A9B0F8AC01C6
:102778000CF02BFD08B10C25EDE70821B4F8AE01EB
:10278800FEF724FA20B940F639013920FDF72CFE6E
:1027980003781BB994F8C831032BECD1019B93F84B
:1027A8004221002AE7D194F8F02102F0FF05002A1F
:1027B800E1D1B4F8B021A3F8442194F8B82183F802
:1027C8004621027D83F84721B27883F8482184F8AE
:1027D800F021FF2283F84221BDE70225BBE700BFB5
:1027E800200038040188A1F11B039BB2E02B0CD810
:1027F800428844F24810A2F5A4739BB2834204D8DD
:10280800034B0020D9801A8170471220704700BFFF
:102818004C050021034BDA881B8902804380002085
:10282800704700BF4C05002138B50278447802F0A3
:10283800010302F0020254EA030101D1112038BD5C
:10284800BAB98578002DF9D0002B18BF002400E014
:102858001D4620460BF03AFA0028EFD028460BF028
:1028680035FA0028EAD0054B00209C72DD72988169
:10287800E5E7002BECD000242546EAE74C050021CB
:1028880013B5008801A90CF0C2FC044620B90198D0
:1028980090F83E311BB13A24204602B010BD90F8A2
:1028A800603003F0FF04002BF5D190F857309B07F8
:1028B80006D1FF2380F83E3101A80BF064FBEBE75B
:1028C800024958300DF04BF8E6E700BF83020101DA
:1028D800F7B5067804460F46EF2E03D91226304680
:1028E80003B0F0BD90F901204378002AF6DB827826
:1028F8009207F3D113F010001DD19D0603F00302D7
:1029080016D5002AEAD11907E8D42179E278E579C1
:1029180042EA0122617942EA0142A17941EA0521AC
:10292800257A41EA05418A42D8D81F2A12D8D5E724
:10293800032AE8D1D2E713F0600FCFD103F00702E2
:10294800052A05D003F00F010D22CA40D207C5D5CC
:102958001D07DAD5627A013A062ABFD8A27A032A75
:10296800BCD813F0040302D1023A012A03D8E27A50
:10297800012AB3D813B9A37C032BAFD8237DF8B1B0
:10298800012BABD1237E012BA8D818B36378D907C4
:1029980002D500F077F920B36378227D03F018039D
:1029A800082B2ED1022A1CD103213046FEF70EF93E
:1029B800054660B30DF0B6FE002834D00C268EE72D
:1029C800022B8BD0A37D013B022B87D8E37D0F2BF5
:1029D800D8D983E700F0E2F9820707D4237D022BD8
:1029E80001D111267BE7A37D022BFAD000F0D6F99E
:1029F8004307CBD4237D032BF3D0A37D032BC5D171
:102A0800EFE7022AD0D0237F002BCDD0E9E70321BE
:102A18003046FEF79FF80546002843D0224B93F92D
:102A28006C100DF0D2FF002130460EF01AFC28BBC6
:102A380028460EF07AF921463870E07428460EF0E0
:102A48005CF8E37E0646002B3FF449AF00287FF48C
:102A580046AF0246E96C6846FEF70AFA3246E86C69
:102A680001210AF08BFFE96C68460422FEF700FAA0
:102A780032463146E86C0AF081FF30E740300DF00D
:102A88005AFC0028D4D0637813F0330F7FF426AFB4
:102A9800A67D2846296A0EF06AF9FFF7A5FB86424B
:102AA800C6D08BE707261AE74C05002130B5027916
:102AB8008BB00346042A4FD84088B0F5804F4BD8D6
:102AC800264900241144ADF800408DF808408A7C5E
:102AD8004D7B42F010028DF8244042EA4502CD7D3C
:102AE800097F42EA850242EAC102694602F01F02F2
:102AF8008DF80020BDF80020ADF809201A888DF85F
:102B08000E00000A8DF80B20120A8DF80D408DF882
:102B18000C208DF80F008DF810405A7BD3F8070071
:102B28008DF811205A79059002A88DF812209A790B
:102B38008DF81320B3F80B209B7BADF818208DF887
:102B48001A307F238DF81B304FF00113CDE907347D
:102B5800FFF7BEFE0BB030BD1220FBE7ACC8010189
:102B68000278034672B1427862B142881A2A09D9BA
:102B780082881A2A06D90068034A106000209B88B8
:102B880093807047122070474C050021026800208E
:102B9800014B9A61704700BF4C0500210378A3F1EF
:102BA8000A02112A9BBF024A002012209373704721
:102BB8004C050021014B5874002070474C0500213A
:102BC800014B9874002070474C050021024B1B688C
:102BD80003B1184711207047FC0F002108B50520E4
:102BE80000F09AF805F0B2FC014B024A9A6608BD5B
:102BF8004C0500216520000108B50122054B1A711A
:102C080004F0DCF804F0AEFE0CF030F8BDE8084043
:102C180000F014BFBC05002110B50C20084C00F0D2
:102C28007BF8282000F078F804F1080005490BF03B
:102C3800D4FF04F10C000449BDE810400BF0CDBFEF
:102C4800BC050021600000216800002110B5094C76
:102C5800094904F108000BF0C0FF04F10C00074912
:102C68000BF0BBFF04F110000549BDE810400BF064
:102C7800B4BF00BFBC05002170000021780000210E
:102C880080000021014B1879704700BFBC05002166
:102C980038B5074C0D4600F0ADFEA06825600BF076
:102CA80094FFFFF767FB01F04DF80123237538BD4A
:102CB800BC050021014B187D704700BFBC050021F1
:102CC80010B50A4CE0680BF080FF20690BF07DFF1F
:102CD800FFF704FB202000F033F8262000F030F83E
:102CE800292000F02DF80023237510BDBC05002114
:102CF80000487047D105002100487047D3060021DD
:102D0800014B83F819027047BC050021014B93F869
:102D180019027047BC050021C208074900F00700E6
:102D280001238340885C03438B5404490B78934206
:102D380038BF13460B70704718000021D6070021D2
:102D48000F4B012110B503EBD002C40800F00700B7
:102D580001FA00F0195D21EA0001195509490B78BB
:102D6800A34205D1002012F8014914B100B10B703B
:102D780010BD002BFAD0013B0120DBB2F3E700BF06
:102D880018000021D6070021014BD3E90001704744
:102D9800180000210048704720000021054B1868E2
:102DA800C0F3C022C0F30020400040EA820040F097
:102DB800010070471800002108B507F093FD0023B3
:102DC800074A32F82310814205D302EB8302937835
:102DD800044A137008BD01330C2BF2D10023F7E726
:102DE800D4C80101D7070021024B1878072828BF4B
:102DF80007207047D70700212DE9F04F046898464F
:102E08000F4685B094F86730164604F1A80994F87F
:102E18000FA043EAD303D90702D4BAF1260F5FD132
:102E280094F8A850002F55D1FFF7B8FF8DF80B0084
:102E3800002E51D1FFF7B2FF2B4B8DF80C00D3F8C1
:102E480000B0BBF1000F0CD0AAF126022846494673
:102E5800534253410DF10B02009303ABD84705468B
:102E680030B99DF80B3013B19DF80C0028B909252D
:102E7800BAF1260F2AD10020034694F8292132B14D
:102E88009B0700F002002DD560B302200346FF2205
:102E980084F8392194F8382102F0FF05F2B99DF839
:102EA800382003A984F83B01484684F8382184F87F
:102EB8003A31A4F83C818DF80C708DF80D60ADF8AE
:102EC8000E800BF0EDFE002384F83931284605B05A
:102ED800BDE8F08F3846A9E73046ADE73A25F2E776
:102EE8001A25F3E70925F1E70010002110B5046859
:102EF800B4F8AA3084F87E11A4F87F3194F8200140
:102F0800FFF782F984F8810194F82101FFF77CF931
:102F1800044984F8820104F27510BDE810400CF0F1
:102F28001EBD00BF93EC00012DE9FF4704688946E8
:102F3800054694F80EA0AAF1250359425941052ADD
:102F480035D1E37B272B37D104F10F0799F801809E
:102F580099F8026008F0070806F0070608F1FF3341
:102F6800721E03EA0803324013431FD130460BF0A8
:102F78002FFF60B394F82031984228D094F83A2172
:102F8800164213D0BAF1250F21D094F81921164210
:102F98001DD10138013B474AC0B2DBB21044032BB4
:102FA80000790FD81A441379834210D9284604B0FF
:102FB800BDE8F0470BF0D4BEBAF1250F77D104F184
:102FC8000E07C3E74FF4DD710620FDF70DFA404602
:102FD8000BF0FEFE40B194F82131834204D094F8FE
:102FE8003B3118EA030FE1D0B9F8039003AB204650
:102FF8003246009341464B460BF0F7FE2C6878BBEF
:1030080094F83831012B28D1E38804F5347294F808
:103018002011B4F83C010BF049FF0646D0B901462F
:103028002846FFF763FF2B6883F838613E702B68EA
:1030380003F10F02974201D10022DA732B6803F1E2
:103048000F0297422FD128460CF05FFE002004B0F3
:10305800BDE8F0872C23A373E9E784F83801E6E795
:10306800E388A4F8D09209F1FF39A9EB030947F6E0
:10307800FD731FFA89F9994506D92823284684F84B
:10308800313001F0FFF8D9E7E37B0D2B02D00A3B82
:10309800012B01D82A23F1E7BDF80C30A4F8D2326D
:1030A80029233B70CAE7002283F84E20CEE702208E
:1030B800CDE700BF04C90101024B002283F832208A
:1030C8009A867047DA070021044B93F83220012AC8
:1030D8001ABF036001200020704700BFDA070021F3
:1030E800054B024693F8321001291BBF01209A862E
:1030F800002083F832007047DA070021054B0246AA
:1031080093F8320020B1136009B19B8E0B80012027
:10311800704700BFDA070021044B002293F8320001
:103128009A8610B1012083F832207047DA0700210F
:10313800034B93F83200B0FA80F04009704700BFA3
:10314800DA07002150B90A4A0120134603F8010B97
:103158000868C2F801008A889A807047012805D15A
:10316800034B0A68D8719A608A889A81704700BFB1
:103178001008002150B90B4B187888B1D3F80120FA
:10318800B3F805300A6001208B807047012806D10A
:10319800044BD87920B19A689B890A60F3E700202C
:1031A800704700BF1008002110B9044B1878704709
:1031B800012806BF014BD87900207047100800216C
:1031C800F7B58A8800238DF80600ADF80420086852
:1031D8000B4A8DF807300146147802F5A872019D54
:1031E800D8B2844201D8082007E052F8087F01339A
:1031F8005668AE4208BF8F42F2D103B0F0BD00BF9F
:1032080020080021084B0146002230B51C7903F242
:103218000713D0B2844201D8082004E013F8015FF4
:1032280001328D42F5D130BD200800212DE9F84347
:103238002B4C0746257904EB000E013D9EF80861EA
:10324800EDB2854225712BD04FEA05184FEA001CD4
:1032580008F108030CF108090CF1880C2344A14477
:10326800A4440FCB89E80F0008F1880323440FCB4F
:103278008CE80F00631993F808218EF808210622BC
:103288005543574305F5887507F5887760596219DE
:10329800E119E05192888A8093F840318EF84031E4
:1032A8003046FFF7AFFF082818D12378013BDBB27F
:1032B8009E42237012D02B3306F12B0204EBC3037A
:1032C80004EBC20293E8030082E803002078FFF7CA
:1032D80099FF08281CBF241884F80861BDE8F88302
:1032E80020080021F0B5254D89B095F8984105F2E0
:1032F80099116846224609F01DFE214668460BF0E2
:103308007EFE0446B8B300EB400102A8C9B2FDF73F
:103318009DFE631E95F8A1610124DBB295F8981112
:1033280005E0721CB2FBF1F001FB1022D6B206F1E7
:1033380020020DEB020010F8202C002AF1D103EB3B
:10334800430100F8204C06EB460220312A44694428
:1033580011F8187C82F8A27111F8177C11F8161C64
:1033680082F8A37182F8A411013BAA19DBB282F892
:103378009941FF2BD2D109B0F0BD00BF2008002130
:1033880070B5064688B00C46002A4ED0294A92F8F5
:10339800A131D01890F8991119B9FF212820FDF70B
:1033A80023F803EB43010133114491F8A251E5706E
:1033B80091F8A35191F8A41125716171002180F849
:1033C800991192F89811B3FBF1F001FB103382F8D0
:1033D800A13192F8C23123B9174902F5DD700CF01A
:1033E800BBFA65790D220021684605F03F0545F0D6
:1033F8004005657109F034FDE37804AA69468DF843
:103408000F30304623798DF80D508DF80E30042397
:1034180009F09EFB9DF81F3023709DF81E306370E5
:103428009DF81D30A37008B070BD03216018FDF72A
:103438000DFED6E720080021ED320001044B1A7971
:10344800824286BF1B1893F850010020704700BFC6
:1034580020080021044B1A79824286BF1B1893F872
:1034680048010020704700BF20080021074B0022B8
:103478004FF461711A701A7183F8C32183F8C4215B
:10348800A3F8C61183F8C221704700BF20080021A5
:10349800014B83F8C4017047200800212DE9F0474B
:1034A8008246894617469846FFF78AFE0828054649
:1034B800064603D0FFF7A6FE082860D1324C2379D0
:1034C800072B5ED8082D15D12678731C072E23707C
:1034D80003D96C212820FCF787FF06F12B02D9F8C5
:1034E800000004EBC20344F83200B9F8042083F862
:1034F80006A09A80257907F110026B1C2901237117
:10350800CB1D234412F8010DBA4203F8010FF9D17B
:10351800873108F11003214413F8012D984501F86B
:10352800012FF9D12544102140460BF0AEFD1021A2
:1035380085F8480138460BF0A8FD85F8086126791A
:10354800002385F850013146104885F840310BF0CA
:1035580056FD0128054607D831460D480BF04FFDAA
:10356800002818BF0135EDB284F898510025284687
:1035780084F8A151FFF7B6FE2846BDE8F08712206F
:10358800FBE70720F9E700BF2008002168090021B0
:1035980070090021064B10B51879013840B200288F
:1035A80000DA10BDC4B22046FFF740FE601EF5E702
:1035B80020080021014B83F8C3017047200800212F
:1035C800014B93F8C301704720080021431E4AF2BB
:1035D800B7129BB293429DBF024BA3F8C6010120CC
:1035E8000020704720080021014BB3F8C60170473E
:1035F800200800210A4B30B51C7984420ED91844A2
:1036080090F808012B3003EBC004A5790D7053F82E
:10361800300010600120A388938030BD0020FCE7B3
:10362800200800210246074810B590F8C34124B18C
:10363800017921B1083005F00BF8204610BD0C4681
:10364800FBE700BF200800212DE9F74F2F4C9A46D1
:10365800804689462379834256D9231893F84851DE
:1036680085F00105F9B193F85031E3B945F0020747
:103678000135BAF1000F18D1FA070AD5062104EB73
:103688000810524601FB0841883001F58871FFF7A0
:1036980077FEBB0734D504EB08105246494608307C
:1036A800FFF76EFE2CE02F46E3E794F8A1614FF098
:1036B800010B002DE0D0A31993F89911019399B942
:1036C8000092DAB100F00EFB019B06EB4601009A6E
:1036D8004FEA102C83F899B1214481F8A201000C1B
:1036E80081F8A3C181F8A401013694F89831013D0D
:1036F800B6FBF3F103FB1166F6B2DAE747F004070D
:10370800384603B0BDE8F08F0027F9E7200800210C
:10371800074B1A79824209D91A1892F848212AB90E
:10372800062202FB003000F58870704700207047C1
:1037380020080021064B1A79824281BF1B1893F892
:103748004001B0FA80F0400998BF0020704700BFE0
:1037580020080021F8B50E460746062115463046D2
:103768000BF093FC044670B10C4B0022187903F25D
:103778003F13D1B2884202D801242046F8BD013255
:1037880003F8015FF5E7314638460BF054FC08288A
:10379800F3D0024B034483F84051EDE720080021A1
:1037A800034B80F880101B680BB14088184770479E
:1037B800041000210B2808B504D940F2291129204A
:1037C800FCF712FE014B33F8100008BD0CC90101CB
:1037D800036830B50024D3F8C80042F21075A3F886
:1037E8004040A3F84640B3F848404443B4FBF1F4E2
:1037F800A3F848404C1E05FB0242B2FBF1F2A3F8C5
:103808004220094AB2FBF1F20132A3F84C209A8F08
:1038180005FB02445A6B5043B4FBF1F4B0FBF1F0E2
:103828009C63586330BD00BF005A6202054B1B7889
:1038380033B9054B1A681B79026003710120704780
:1038480000207047E809002128000021054BFF22CD
:103858001A70054A016811600179117100221A7005
:10386800704700BFE80900212800002107B5064A73
:1038780010681279009068468DF80420FFF7E6FF7B
:1038880003B05DF804FB00BF3CEC010103460846A9
:1038980071B13F2B0BD8074AD35C03F07F029142EA
:1038A80005D08CBF0120002000EAD310704701200A
:1038B800704700BF24C90101FF230B7002234B701E
:1038C80083238B70014B1B78CB707047EC09002168
:1038D8002DE9F84FD0F804800C46D8F81C60304623
:1038E80009F038FF054620B94FF4AA711020FCF7FB
:1038F8007BFD0146304609F03BFFB5F800B0824633
:103908001FFA8BF717B94FF4AC71EFE7224B00F1B0
:1039180003091B68D3B998F8023098F8032023707C
:10392800637802F00F02A4F802B023F00F031343E8
:1039380023F0C00363709AF8003003F00303012BEF
:103948000FD0022B0DD04FF4BB71CFE73A46494652
:10395800B8F80200984705460028DCD12846BDE89B
:10396800F88F6278304663F30512627009F00AFF37
:10397800054610B94FF4C071B8E7FB2F02D940F2E1
:103988008F11B3E73A464946201D09F0D3FA30466D
:1039980009F04FFEE2E700BF0810002138B5134CCC
:1039A80010220021201D09F05BFA0125257404F17D
:1039B80008031022002104F11400C4E9013309F0BE
:1039C8004FFA84F8205004F11803094AC4E9053372
:1039D80000236362A36284F82C30C4F82D30C4F845
:1039E800313084F835301360A36338BDEC09002109
:1039F8000810002110B5084C2378FF2B04D040F2A2
:103A080099111020FCF7F0FC09F0E8F82070BDE8E7
:103A18001040FFF7C3BF00BF2D00002110B5034CB5
:103A2800207809F0F5F8FF23237010BD2D00002140
:103A3800014B187809F0FCB82D000021014B024A0F
:103A48001A60704710100021D93800012DE9F341A0
:103A5800DFF88881054608F11407D8F80830D8F847
:103A68001840227A012A22D1D8F8382052B1137A84
:103A78001BB9BF211020FCF7B7FCD8F83840C4B9EF
:103A8800002093E01A7A012AFAD01C46544AEFF330
:103A9800108172B650680068506001B962B6A342DE
:103AA80008BFC8F83840237A1BB9EE21E2E73A4646
:103AB800EDE7267AF6B205232372731E0B2B7ED808
:103AC800DFE803F07A062336773F4E3F3F3F3F6BF0
:103AD800636813B94FF40371CCE720462946984729
:103AE8000420EFF3108272B6237A052BD9B24FF077
:103AF800000369D12372D8F83810A14201D1C8F85F
:103B08003830002A45D162B643E0636813B940F201
:103B18001521AFE72946204698470346ADF804002B
:103B2800C0B2C3F30723012B3ED0022BD9D129E021
:103B3800636813B940F21D219CE72046984700208E
:103B4800CFE7284B1B68002BF9D03246606829461E
:103B58009847A6F10A020420534253415B00E4E768
:103B680063680BB9FE2185E786222A7001225988ED
:103B7800AA706A7100229869A5F80310AA7109F061
:103B880058FD0420D8F83830A34202D10023C8F8E1
:103B9800383000283FF461AF08E0134B294620462F
:103BA8001B689847034668B9267298B102B0BDE809
:103BB800F0814FF415715DE740F257215AE740F262
:103BC8005A2157E70220DDE711B940F27B2151E77E
:103BD800184696E7002B7FF440AF51E7EC09002127
:103BE800F00900210C10002110100021014B186071
:103BF800704700BF08100021134610B5027A22B1A1
:103C080040F202311020FCF7EFFB0A460146024859
:103C1800BDE810400BF07DBEF0090021044890F883
:103C28002C301BB9034924300BF090BE704700BFFD
:103C3800EC0900210BF900010346064890F83C20E6
:103C48003AB190F8352022B9034900F82D3B0BF022
:103C58007DBE7047EC090021C13800010A4610B545
:103C6800037A23B140F20A311020FCF7BDFB01466C
:103C780007230248BDE810400BF04BBE000A0021A4
:103C88001346027A0AB1037270470A460146014890
:103C98000BF03FBEF009002101490BF060BE00BFE8
:103CA8006DF900010B8BA2F809001046A2F80B3041
:103CB8004B8BA2F80D308B8BA2F80F30CB8B0249BF
:103CC800A2F811300BF045BECBF90001014B187872
:103CD800704700BF290A0021014B1878704700BFC0
:103CE8002E000021094AD2E90003434083EAB011BB
:103CF80081EA43214FEAF34311605360044B584370
:103D08004FEAF06000EB8000704700BF2C0A0021EA
:103D1800BB79379E094AD2E90003434083EAB011D0
:103D280081EA43214FEAF34311605360044B58433F
:103D38004FEAF06000EB8000704700BF30000021C0
:103D4800BB79379E10B50A4C08210948FDF77EF962
:103D5800D4E900321343F7D0064CFFF7DBFF2060AD
:103D6800FFF7D8FF236860601843F6D010BD00BF86
:103D7800300000212C0A0021174B184A9A60184A73
:103D88005A60184A1A60184A9A62184ADA62184A37
:103D9800DA60184A9A61184A1A63184A1A62184A65
:103DA800DA64184A9A64184A5A62184B184A9A6090
:103DB800184A5A62184ADA62184A1A61184A5A6145
:103DC800184A9A61184A1A63184A9A64184ADA64AF
:103DD800184A9A63704700BF14100021BBFD000108
:103DE800E1FD00010DFF000199000101F50001014D
:103DF800B5430001070101016D460001C5440001FA
:103E0800D9010101FF01010121450001141100211F
:103E1800D1FD00019F01010125010101D50001012A
:103E28004501010155440001A502010143020101B8
:103E38002F02010189010101044B054A5A65054B0E
:103E4800054A1A65054A5A65704700BF14100021D3
:103E5800F503010114110021DF0301011F04010111
:103E6800054B064A9A65064A1A66064B064A9A653B
:103E7800064ADA65704700BF1410002167EF000199
:103E8800312F000114110021C1ED0001A9EF00013B
:103E9800F7B5054601A80F46FFF716F920B94FF404
:103EA800AA615120FCF7A0FA32220021019808F0FB
:103EB800D7FF019C3F2F264606F8037F43D83F2FA4
:103EC80044D8DFE817F046004C006C0075008D0000
:103ED8005C015C019A00B3009E005C015C01A300D8
:103EE800AF00B30043004300B7005C015C01CC00A5
:103EF800CC00E300E300EA00430043005C01EF006C
:103F0800FC00000104010B010D010F0111011B014F
:103F180025013C013E01430043002D0146014401B7
:103F28004300430043004300430043004300430071
:103F380043004300430043004300430048014A0153
:103F4800430040014201FF2F00F00D8140F244512F
:103F5800A7E7294630460CF039F8C0B9BBE02E680F
:103F6800D6F83032636096F834322372286890F8B5
:103F78009F3033B90BF00AFF2B68DB881844A6F88A
:103F88003602B6F83632082063721B0AA372FFF7AE
:103F9800A7F8002840F0F58040F2575181E72B68D8
:103FA80093F8A82052BB93F82D3102202371EEE735
:103FB8002B681720D3F878226260D3F87C22A2609D
:103FC800B3F88022A281D3F85822C4F80E20D3F87F
:103FD8005C22C4F81220D3F89030C4F81630D6E723
:103FE8002A680D20D2F8F6316360D2F8FA31A3605E
:103FF8002B68D3F89430E360C9E72B6893F8A030B6
:10400800D3E73146284600F0F3FAA6E71123062045
:104018002371592363710023A3718023E371202343
:104028002372B4E72B6893F89A30BEE7304600F065
:10403800CDFA92E72B6893F8A82052B993F8A020FC
:104048003AB193F89D20227193F89C300320637154
:104058009DE793F89B20227193F89A30F6E72B6836
:104068000920B3F80C212271120A6271B3F8A22058
:10407800A271120AE271B3F808212272120A62725E
:10408800B3F8A030A3721B0AE37280E72B6893F899
:104098003A21227193F83B31D8E7294630460AF095
:1040A80021FF5AE72B680F21B3F8AA00FCF78EFD11
:1040B80000F15B0130460BF077FB232067E73046C1
:1040C8000DF0F1F849E730460DF0F6F845E72E4BCC
:1040D8001B68002B43D140F24951E2E62B4BF7E72E
:1040E8002B4BF5E72B4BF3E72B4B1B68002BF2D040
:1040F80023202A4631469847042048E7264B1B6868
:10410800002BE8D02A4631462420984705203EE770
:10411800214B1B68002BDED02A4631462520F4E7C8
:104128002B680F21B3F8AA00FCF750FD00F17D02BF
:1041380000F15B0130460BF043FB2B2027E7174BC0
:10414800C6E7174BC4E7174BC2E7174BC0E7174B37
:10415800BEE7174BBCE7174BBAE7174BB8E729463A
:1041680030469847F9E62B68304693F8C722D3F8CB
:10417800C8120BF0E6FA2B6893F8C702EDE60120A7
:1041880005E703B0F0BD00BF141200211C12002186
:1041980018120021201200212412002130120021BF
:1041A80034120021381200213C120021281200216B
:1041B8002C12002140120021441200213F289ABFEE
:1041C800024B53F820000020704700BF1410002154
:1041D8003F289ABF024B53F820000020704700BFC9
:1041E8001411002130F8023CF7B504460D46B0F82A
:1041F800826073B101226846ADF801608DF8002035
:10420800ADF80330FEF722FA18B195216320FCF7C8
:10421800EBF8194B1B6813B1A4F128009847174B0A
:104228001B680BB13046984783230027A5F8036025
:104238002B70AF70637AD4F89C006B7109F003FAA5
:1042480008B9BA21E2E739463046FCF7D5FC022125
:104258003046FCF7D1FC18B9094B1B6803B19847E5
:104268004FF40173002003F004021B0A62F30700F5
:1042780063F30F2003B0F0BD481200214C12002157
:1042880050120021F7B5056804464FF6FF77D5F8B8
:10429800C0600DF102010DF101023046ADF8027067
:1042A80009F080F901A9304609F09EF948B1019852
:1042B80009F066FA2168A83100220272FFF7CEFCE5
:1042C800E7E7044905F1280003B0BDE8F0400BF02A
:1042D80040BB00BFED410001F0B5044685B00D4676
:1042E800FF2600F8E96C10F8EA3CF3B1174F3B7869
:1042F8001BB162211F20FCF777F80C21381DFCF751
:10430800A5FE3E70002304F8E93C8A232A4602F8F9
:10431800033BD4F80930C5F80330D4F80D305360A6
:10432800D4F81130936005B0F0BD01A80C21FCF75A
:104338008DFEA4F51573039A1A6001AB03CB44F8FC
:10434800F20C44F8EE1C04F8EA6CDBE7340A0021AE
:1043580010B5054C23782BB90C21201DFCF776FEEF
:10436800FF23237010BD00BF340A0021024690F8D5
:10437800FE31BBB990F8FF3103F0FF010BB100200B
:104388007047094B18780028F9D01970D968043398
:10439800C2F8941003CBC2F8F601C2F8FA11FF2351
:1043A80082F8FE3101207047340A0021026838B5CE
:1043B800D37B04460D463BB1132B05D0113B0F2B85
:1043C8008CBF0120082038BDD2F8A430ABBB92F8CE
:1043D800563013B920460BF086FCD5F80B3022680E
:1043E800C2F8EE31D5F80F30C2F8F2312368D5F8AB
:1043F8001320C3F89020B3F8AA20A3F8F122D5F827
:104408000120C3F8F322D5F80520C3F8F722236862
:10441800B5F809200025A3F8FB22236883F8B851D2
:1044280083F8FE512068084900F53A700BF08EFABF
:10443800236816222846DA73C5E720460C22032192
:10444800BDE838400BF075BCE1420001036810B5C7
:10445800DA7B0446202A04D040F29D211F20FBF776
:10446800C3FF002193F85620B3F8AA0083F855102B
:1044780082B1C3F8C31183F85610A3F8C711A3F883
:10448800C40103F5DD700B490BF060FA23680022C4
:10449800DA7310BD0121A3F8B30183F8B22103F246
:1044A800A91083F8B51183F8B9210349A3F8B621F7
:1044B800EAE700BF810001016900010138B504681D
:1044C80094F8A8501DB9E37B23B101201AE02368B2
:1044D800DB07FAD4D1F801200D4BD1F805101340B1
:1044E8000C4AC4F86630C3F307630A4043F0080374
:1044F800C4F86A2084F869300BF0F5FB1DB9042371
:10450800E373002038BD236843F001032360F8E714
:104518002FC904F76FDB008038B503689A7B042A3B
:1045280034D1D1F801204C1CD1F80550C3F86620CD
:10453800C2F30762C3F86A5042F0080283F86920A0
:10454800002283F84E209A73026892F8A8200AB9CC
:1045580083F83F2193F84021B2B993F88B2102F0F8
:10456800FF008AB9B3F8AA2083F88C0103F28310FC
:10457800A3F88D21D1F801200549C3F88F2162687D
:10458800C3F893210BF0E2F9002038BD0120FCE7C5
:104598005F010101036893F8402112B1094B1B68C0
:1045A800184793F88B215AB9B3F8AA2003F283105D
:1045B8000549A3F88D211A2283F88C210BF0C6B97E
:1045C800704700BF541200215F01010110B5044675
:1045D800FEF7DAFB044A054B024009200B40C4F8F9
:1045E8000120C4F8053010BD2FC904F76FDB008027
:1045F80037B50C460568FEF7C7FB0A4B0A4A034065
:104608000A4095F8661000930B4001928DF800302F
:104618006B4603CBC4F801000920C4F8051003B0A9
:1046280030BD00BF2FC904F76FDB008038B5DB044D
:10463800154604D5037D13B10023436338BD446B8D
:10464800013444630BF009FE836B9C42F6D30023CC
:10465800034943632846BDE838400BF080B900BFE2
:10466800CD01010170B504680546A37B94F8A860E4
:10467800012B07D01EB9E37B23B1012038E0236862
:104688009807FAD494F857309A0713D44A78D80779
:1046980084F861204A88A4F862208A88A4F86420F3
:1046A80043F0020284F857200FD5164904F1580048
:1046B8000BF055F994F85730D90710D4CEB9E37BED
:1046C80043B153214020FBF78FFE94F83E31002B75
:1046D800EBD1EFE70123E37328460BF004FBA37B40
:1046E8000020012B4FF0000304BFA37384F84E3061
:1046F80070BD23689A0701D55821E3E743F0020308
:104708002360E9E78302010170B50568044603F0F8
:1047180047FF054B0146E8721B681BB12046BDE800
:104728007040184770BD00BF5C120021024B1B6827
:1047380003B11847704700BF58120021F0B51F4D4C
:1047480000242B7814709BB1013B6D68DBB21E1BF3
:10475800012E0FDC05EBC40655F8347076688E42DE
:1047680008BF874227D0B84271EB060612D21470F0
:104778000020F0BD1E197710C6F3470655F837C05C
:1047880005EBC70E8445DEF804708F412CBF334615
:104798003446DCE705EBC30455F8335064688C42B3
:1047A80008BF854206D0A84271EB040428BF013334
:1047B8001370DDE71C4601201470DAE7540A002163
:1047C80010F0070208B503D063214820FBF70CFE60
:1047D80018B1034B197258601A70C80008BD00BFA1
:1047E800540A0021014B00221A707047540A002114
:1047F800014B187A704700BF540A00212DE9D343B2
:104808000BF074FD0DF1070207460E46FFF796FF01
:1048180090B90F4C2378227A9A420ED062681946D2
:104828009DF807E002EBC3008E4509D302EBCE02E8
:104838000133C2E900762370012002B0BDE8D083BD
:1048480050E90289013960E80289C9B2ECE700BF82
:10485800540A002137B50BF049FD0DF10702FFF7A7
:104868006DFF58B10A499DF807300A78013AD2B26B
:104878000A70496801EBC3019A4201D803B030BD00
:10488800D1E902450133E1E80245DBB2F4E700BFB4
:10489800540A0021024B1879003818BF01207047CC
:1048A800640A0021FF23084A0B700D234B708223F2
:1048B8008B701368C1F803305368C1F807309368E8
:1048C800C1F80B30704700BF6A0A00211622002188
:1048D800014808F0C5BA00BF6A0A0021F8B51C4DA6
:1048E80004466B7D9BB390F8A83023BBD0E976765D
:1048F8000BF038FD94F82021164B913033F8123024
:104908004FF47A7203F23F63B3FBF2F3DB19B4F8A6
:10491800AA2046F100061B182A8046F100066B60A3
:10492800AE60E38805F10C0002220B496B80BDE8FC
:10493800F840FFF7A5B94B0609D5B0F8AA302B8087
:10494800D0F878326B60D0F87C32AB60E9E7F8BD1C
:104958006A0A0021E0CA0101AD480001094B53F879
:10496800203003F5234370B5A13316464FF47A720D
:104978000C46B3FBF2F5344405F0D2F82C4420443D
:1049880070BD00BFCCCA01012DE9F04F98468BB02D
:10499800002304460F460392069390F821B10AF0CB
:1049A80072F9064694F82B01FEF704FF06440BF053
:1049B800D9FCE37B00F18605B6B2472B47D00D2B17
:1049C80045D094F80E90A9F14701D1F1000949EBBF
:1049D8000109039B002B40F08580637B032B40F08B
:1049E8008180B9F1000F6AD0B4F8D032BB4266D1E9
:1049F800D4F818322046B4F8EC21C4F80832D4F8B8
:104A0800C830C4F80C32B4F88A321344C4F81032EF
:104A180003F028FD94F829A1BAF1000F09D0D4F8C1
:104A2800D82241F64B539A428CBF4FF0000A4FF000
:104A3800010A94F8E4326BB9D4F8C820D4F8D83213
:104A48009A4221D0B4F8AA000CF04CFC1CE04FF0BC
:104A58000109BEE7B4F8AA000CF041FC20B940F205
:104A680041713020FBF7C0FCB4F8E0324FF0000A87
:104A7800A4F8DE30B4F8E2328381B4F8D032A0F87A
:104A88000EA04381013B038294F82A31002B4ED1BA
:104A9800BAF1000F4ED1D4F8D43284F82AA1C4F860
:104AA800D830B4F8D232A4F8DC30D4F8D832C4F80C
:104AB800C830D4F8DC32C4F8D03002236373A17B49
:104AC800292946D0A1F12C0251425141E27B292AE1
:104AD80000D039B1B4F8D032FB1A1B0402D42046F6
:104AE80002F0E6FEB4F888A204F5167394F82101E2
:104AF800A7EB0A0A0293E3880FFA8AFAFB1ABAF1BB
:104B0800000F0FFA83FC26DAE246D4E99C23C4E9B5
:104B1800A023002384F82B320123627B032A00F2AE
:104B2800B681DFE812F01A002B0171004F01BAF1CB
:104B3800000F07D04FF04D13C4F8E0300023A4F85D
:104B4800E430A8E74FF09613A4F8E4A0C4F8E030E6
:104B5800A1E70121BAE74346DFE7014694F8E501FA
:104B68000AF0EEFA8246D4F8D8003146504405F0EF
:104B78007DFE3146C4F81402D4F8C80005F076FE6C
:104B880007A9C4F8180208A804F080FE079B009340
:104B9800DDE90823D4E9A00105F02EFF064604F15B
:104BA800A8000BF068FCD4F88C3294F82101D4F8F2
:104BB800D8B0069304F0BCFF069B00F52340D4F858
:104BC80014124FF47A72203BA1305B445B1A3031E7
:104BD8005B1BB0FBF2F053442A469B1B1B1A94F84C
:104BE80021010693B4F8DC3003EB4101FFF7B6FE70
:104BF800D4F88C22069B22309B1AC4F81C02F52B91
:104C08005CD840F2C6412CE7D4F8D8303146D4F805
:104C18000C02184405F02AFE3146C4F81402D4F8F0
:104C2800C80005F023FEC4F8180204F1A8000BF030
:104C380022FCD4F8D830D4F80C621E44B4F8EC3115
:104C4800002B40F09780B8F1000F00F0938094F8A3
:104C5800210104F06DFFD4F81412D4F8783200F56D
:104C68002340761A94F82121A130203E1E44A24BFD
:104C780053F822204FF47A7302F2E732D4E99CAB5E
:104C8800B2FBF3F2A6EB0A06B0FBF3F01644761B70
:104C9800361AD4F80832D4F8102294F8210102FB0D
:104CA8000311B4F8DC302A460696303103EB410193
:104CB800FFF754FE0123C4F81C026373D4F8C8300C
:104CC80004F1E800D4F81822A03B06999B1A5D1B52
:104CD800D4F81C329D4228BF1D46002384F8583260
:104CE800C4F8E851D4E9A0325B1842F10002C4E9E3
:104CF8009A320AF0B0FE04232844A4F8887284F893
:104D08006132C4F85C02D4E99A23C4E9A02302F012
:104D1800F3FE20B1D4F85C321E33C4F85C32B4F828
:104D2800D831DB1B1BB2002BD4BF0022012252005A
:104D380084F86022B9F1000F40F0AC80B8F1000FA0
:104D480040F0AB80637B002B00F0C380D4F8C81020
:104D580004F51670D4F81832C91A0AF0A2F980B20C
:104D6800002800F0B680149B03B1188001200BB016
:104D7800BDE8F08FD4F81412761A8AE7D4F818220E
:104D8800D4F8C830D4F810129B1AD4F808620AFB79
:104D980003F30693B4F8EC319C44D4F81432ACEB2A
:104DA800010C30330CF1FF3C06FB0133B4F8DC1086
:104DB80002FB0C332A4601EB4301FFF7CFFDC4F891
:104DC8001C027BE7D4F8C82002FB0AF20692B8F16D
:104DD800000F1CD0B4F8EC11C9B984F82B12D4F820
:104DE800181201FB1A2EB4F8ECA10291CDF818E0C4
:104DF8006BB3BAF1000F2AD1D4E99E61D4E99C23A0
:104E0800B24273EB010108D340F20D5129E694F840
:104E18002B1200297FF452AFE1E7374B203E53F8BD
:104E28002B104FF47A7BD4E99C23CDE9042301F2BB
:104E3800E73301F52341049AA131B61AB3FBFBF31A
:104E4800B1FBFBF11E44761A761B76440696029B4C
:104E5800E2442A4603FB0AFA0AF1300A4FEA4A0AF0
:104E68005146FFF77BFD41F64B53C4F81C02D4F8BA
:104E7800C80098423FF622AF06AB2A465146009337
:104E880004F507730AF078F984F82B0216E740F264
:104E98002551E6E5B8F1000F1BD0B4F8000210B3B5
:104EA800B4F8021294F804224D1CA4F8021201FB73
:104EB800022290420DDD002B0BDD0023A4F80252E4
:104EC80084F86032FEF70EFF00F00700013084F826
:104ED800040204F5167104F50C7006F0B9FE20B949
:104EE80040F27551BDE50146DCE7039B83F0010301
:104EF80084F8283200203AE7CCCA0101F0B504460C
:104F080085B018B9A5213020FBF76EFA052900F203
:104F1800CB80DFE801F003C42A25C9BF90F8283206
:104F2800C288A3B1B0F82632934208BFB0F8DC318A
:104F38009A1AA0F8DE21E3802046D4E99A23C4E92E
:104F48009C2302F01DFD94F8503005B0F0BDB0F878
:104F580024329B1AA0F8DE31B0F824329BB2EAE77B
:104F680005B0BDE8F04004F09DBC05F03BFDD4E978
:104F78009C23801A61EB0301012871F1000302DA16
:104F88004FF4C061BFE76FF0010383424FF00003A5
:104F98008B4102DA40F20161B5E7D4F8C8300BB1B1
:104FA800B0FBF3F3E07BB4F8262247280ED0A17BB0
:104FB800463901290AD90D2808D0E1880B449BB24B
:104FC800D11A0D0443D501339BB242E00132A4F853
:104FD8002622B4F88A3203AEE5880133334FA4F8A9
:104FE8008A32B4F842301D44B4F84030013DED1A1D
:104FF800ADB23B685BB1B4F82612002220460139F5
:1050080089B29847B4F826321844A4F82602B4F8AE
:1050180026126B1A18042CD40023204600961A4630
:10502800FFF7B2FC012890D1B4F82622B4F8D811C1
:10503800BDF80C301344521A12049BB204D5EA1A74
:1050480012F4004F18BF0B46A4F82632D1E70132FC
:1050580093B2A4F8263294F82932002BB9D1B4F8C7
:10506800DC31B4F82622934204BF0133A4F8263277
:10507800AFE7A37C30460394002B14BF08233E23DC
:1050880084F83130FFF7FEF820460CF098F800233A
:1050980063735AE705B0BDE8F040FCF76DBF437B8A
:1050A800042BF4D0C6212EE7CB212CE76012002177
:1050B8002DE9F8430E46044618B9D3213020FBF7F2
:1050C80093F9052900F2A780DFE801F00376413D56
:1050D800A52E05F0D5FDC4E95001204602F07CF864
:1050E800D4F83401DC3805F07FFC20460BF028FEAC
:1050F800054600BB014620460BF0ADFC00F1F60664
:10510800D4F83401B04209D2301A0321402838BFFC
:10511800402005F085FD60B105F06AFCC4F83461F3
:1051280020460BF046FE45B12046BDE8F8430BF09B
:1051380041BE0125F2E70025F2E7D4E95023C4E98E
:105148004A23BDE8F883BDE8F84304F0ABBB0BF095
:10515800C3FC04238146884684F8393105F042FCB3
:1051680007220F46A9FB023102FB0811D4E94A5273
:105178005B1941EB0205D4F810213AB159EA08024B
:1051880004D0984277EB050228BF012684F83861DD
:10519800D4E95226121A66EB070694F8581139B961
:1051A800012A76F100010BDA204602F01DF803E02F
:1051B800012A76F10006F7DB002384F85031C0E7B6
:1051C800984277EB05010FD259EA08080CD01B1A50
:1051D80065EB07019A4276EB010005DB012B71F1C3
:1051E8000000A4BF1A460E460C49012304F1E8004A
:1051F800914284F851314FF0000384F83031B341C3
:10520800B8BF0A4604F5987106F0B4FD002898D195
:1052180040F2B16152E7EF2150E700BF0040420F72
:105228002DE9F84304460E46154690F8503103F030
:10523800FF07002B40F0918000F1E80839467822FA
:10524800404607F00DFE22464549404606F0F6FC6A
:10525800C4F81061FF2384F8503166B1FEF75AFD97
:1052680000F0070032463F49013086F8040206F58F
:105278000C7006F0E3FC40F20243A4F83831002336
:1052880084F8303105F038FB00F1BC0620460BF0FD
:1052980057FD0146B6B2B0B309F0F5FC00F128019C
:1052A800284689B205F0E2FA2844F63DC4F83401EC
:1052B80005F098FB301841F10001C4E950010120C4
:1052C80084F814010BF049FE2D1AC4F818514FF058
:1052D800FF356FF000414046D4E95023C4E95251EC
:1052E800002504F59871C4E94823C4E94A2384F8E1
:1052F800515142F2107206F03DFD38BB4FF4DC719B
:105308003020FBF771F82046DFF85C900BF0A3FB28
:10531800F630C4F83401B9F8000048B1E08C38B16F
:10532800FEF7F8FCB9F80030B0FBF3F202FB13000B
:10533800064405F057FB361841F10001C4E95061F5
:10534800002DC4D0AD1941F10001C4E7294620461B
:105358000BF032FD3846BDE8F8830C27FAE700BFAA
:10536800B9500001054F0001800A0021F0B5002363
:1053780085B0CDE9003303238DF806306846FBF786
:105388005FFC88B10123114EB3700023CDE90233CD
:1053980002238DF80E3002A8FBF752FC044638B100
:1053A8000023B37005B0F0BD00980BF0BAF8E5E73C
:1053B800029D6B7B002BEED005F50C77384605F087
:1053C800C9FB384605F0DAFB6C73E4E7800A002174
:1053D800044B0022DA709A7042F210721A80FFF7BA
:1053E800C5BF00BF800A0021014BD870704700BFBD
:1053F800800A002108B503F0E7FC044B5A68824292
:105408002ABF9878002080F0010008BD800A00219A
:10541800F0B5044685B090F8503003F0FF05002B36
:1054280068D1437B032B65D105F0DCFAD4E99C23D2
:10543800801A61EB0301012871F100035ADB6FF058
:105448000103834275EB010104DA40F2A9513020CF
:10545800FAF7CAFFD4F8C820E3880AB1B0FBF2F221
:10546800013313449BB2A4F82432B4F8DC31B4F805
:1054780024229B1A1BB2002B3CDD04F50C7005F0AE
:1054880069FB002836D0FF2384F82932B4F842306B
:105498000DF10E07E588184E1D44B4F84030013D63
:1054A800ED1AADB2336863B1B4F824120022204675
:1054B800013989B29847B4F82432184480B2A4F864
:1054C8002402B4F82432EB1A1B0413D4B4F82412BF
:1054D80000230122204689B20097FFF755FA0128D8
:1054E80008D1B4F82432BDF80E2013449BB2A4F8B6
:1054F8002432D7E705B0F0BD601200212DE9F7434B
:105508000446062900F2A180DFE801F004251422F0
:10551800282D99004E4B9B7803F0FF0253B9009257
:105528000123B0F8DC11FFF72FFA28B140F2CD6162
:1055380030202AE00423637303F036FF06F06AFB89
:105548000023E288A4F88A32A4F8262284F82932B3
:1055580003B0BDE8F08303234373F9E703F03CFC91
:10556800C4E99E01F4E700F1A8081121B0F8AA00E7
:10557800FBF72CFB002860D094F82131022B5AD07D
:1055880005D8012B08D0DC21B420FAF72DFF033B06
:10559800012BF8D81E3000E00A30858894F82101E4
:1055A800DFF8AC90C31E012B8CBF002728270AF018
:1055B8004BFF7830D4F81822FE37A84234BF2B1A94
:1055C8000023D4F8C85099188D428ABFAD1A002517
:1055D800ED1A99F8033023B9D4F8E8309D4228BF72
:1055E8001D46D4F8E86104F1E8000AF034FA0644EC
:1055F800022005F0E9FA0221AD1B25EAE57585428E
:1056080028BF0546284605F00BFB10B12E4405F0CF
:10561800EFF901233A46314640460AF028FBD4F810
:10562800E831C9F80400D4F8C800184403B0BDE84C
:10563800F04305F0D9B91430AFE79625AEE7A830A6
:1056480003B0BDE8F0430AF016BF40F29B716FE764
:10565800800A0021014B1880704700BF800A002192
:10566800044B1A78012AD0B203D01878831E584206
:1056780058417047880A00210C4B4FF47A7233F86E
:105688001130023903F2E733C9B2B3FBF2F302294E
:1056980000F1FF3210B54FEAC21296BF044CF02158
:1056A80034F81110134400FB013010BDE0CA0101A9
:1056B800A8C90101D928F0B5054628BFD925BDF8E4
:1056C80014600446303501F5A57006F00207ADB246
:1056D800FF2D28BFFF2516F0010621D10FBB002B97
:1056E80000F0C580911EC9B2022996BF7B4D40F6D5
:1056F800480135F811100844D92C7FD9D93C951E9A
:10570800F721A4B2EDB2002B00F0CF80F634022DC1
:10571800B4FBF1F400F2C680714B33F815306BE03E
:10572800EFB1911EC9B2022997BF6E4D4FF41471A3
:1057380005EB4101C9880144D01E012837D801F67C
:1057480014409830002E3BD0023AD2B2022A97BFBA
:10575800644BC02303EB42035B8A18444EE053B109
:10576800911EC9B2022997BF5E4D40F6480105EB6C
:1057780041018989DFE7032A05D1691D89B28901B9
:1057880001F5C871D7E7042A05D1691D89B2090155
:1057980001F5BF71CFE7022A0BBF05F10B0105F137
:1057A8000A0189B289B20CBF8900C900C3E7022A7D
:1057B80001F19C0114BF4FF4B070B4200844C0E755
:1057C800EBB1911EC9B2022996BF474D40F6480178
:1057D80035F81110D92C084410D9D93C951EF72159
:1057E800A4B2EDB24BB3F634022DB4FBF1F459D8A0
:1057F8003C4B03EB45031B8B03FB0400F0BDF12C72
:10580800214628BFF121032A05D1133189B2890124
:1058180001F5C871DEE7042A05D1133189B20901FF
:1058280001F5BF71D6E7022A0BBF1931183189B2C9
:1058380089B20CBF8900C900CCE7B4FBF1F3022D93
:10584800DBB239D8294931F8151001FB0300C3EB45
:105858004311C3EBC103E41AA3B2002BCED0083323
:10586800032A9BB22BD19B0103F21A4375E7032A43
:1058780006D10535ADB2AD0105F5C87528443BE73D
:10588800042A05D10535ADB22D0105F5BF75F5E73B
:10589800022A0BBF0B350A35ADB2ADB20CBFAD0055
:1058A800ED00EBE740F69213A6E7B4FBF1F3022D07
:1058B800DBB201D80E49C6E740F69211C5E7042AC3
:1058C80003D11B0103F5467347E7022A0BBF9B0070
:1058D800DB0003F5BB7303F5CD733EE7B4C90101E3
:1058E800C0C90101A8C90101B4C90101C0C90101A8
:1058F800C0C90101294B5A6A10B5D2F80F30C0F857
:10590800CC30537D117D1B0443EA0123D17C0B432A
:105918006FF45061C0F8D430B2F81930591806291C
:105928008DBF40F2E241A3F550634FF47A714B43C7
:105938008EBF00214B430121C0F8C83080F82A11DE
:10594800937DF9B103EB830303EB83039B00A0F87A
:10595800DC30B2F81730F1B164214B43C0F8D830CD
:10596800B2F81B30A0F8D030B2F81D30A0F8D23011
:1059780092F8243003F01F025B0980F8232080F896
:105988002B3110BDC3EB431403EB840303EB8303F8
:105998005B009BB2DBE740F2E241DEE7880A0021C8
:1059A800032937B5144617D19B0103F534734179A0
:1059B80090F844500139C9B203291AD8194A0A443F
:1059C800907FE201CA3203FB0422174B9A4215D991
:1059D80040F296712D200FE0042903D11B0103F535
:1059E800E773E4E702290BBF0B330A339B00DB00A4
:1059F800DDE740F24E310620FAF7F6FC1E23B2FB33
:105A0800F3F205F03F03110AD2B241EA401143F024
:105A18004003002063F3070062F30F2061F317408F
:105A280003B030BDA8C90101C3BF03000346074A3C
:105A3800506AD3F86920C0F80320B3F86D20A0F8A5
:105A4800072093F8681009F004BD00BF880A0021F8
:105A5800D0F8803073B50BB101221A604388DB0798
:105A680027D50023144E056ACDE9003302238DF8AB
:105A78000630FF2333776846FBF7E2F8C8B9009C85
:105A8800A542F8D005F1B40395F8B32004F1B401A8
:105A980094F8B30009F095FA0028ECD094F8AC30EB
:105AA800B4F8B1203377D4F8AD30C6F81D30034BC5
:105AB8009A8002B070BD00BF880A0021A50A0021A3
:105AC80038B5084D044600F169010623686A0022CA
