:020000040000FA
:1000000078700420A1480000F76000008D480000CF
:100010008D4800008D4800008D4800008D4800008C
:100020000000000000000000000000000149000086
:100030008D480000000000008D4800008D48000041
:100040006D0A00006D0A00006D0A00006D0A0000D4
:100050006D0A00006D0A00006D0A00006D0A0000C4
:100060006D0A00006D0A00006D0A00006D0A0000B4
:100070006D0A00006D0A00006D0A00006D0A0000A4
:100080006D0A00006D0A00006D0A00006D0A000094
:100090006D0A00006D0A00006D0A00006D0A000084
:1000A0006D0A00006D0A00006D0A00006D0A000074
:1000B0006D0A00006D0A00006D0A00006D0A000064
:1000C0006D0A00006D0A00006D0A00006D0A000054
:1000D0006D0A00006D0A00006D0A00006D0A000044
:1000E0006D0A00006D0A00006D0A00006D0A000034
:1000F0006D0A00006D0A00006D0A00006D0A000024
:100100006D0A00006D0A00006D0A00006D0A000013
:100110006D0A00006D0A00006D0A00006D0A000003
:100120006D0A00006D0A00006D0A00006D0A0000F3
:100130006D0A00006D0A00006D0A00006D0A0000E3
:100140006D0A00006D0A00006D0A00006D0A0000D3
:100150006D0A000053B94AB9002908BF00281CBF26
:100160004FF0FF314FF0FF3000F00CB8ADF1080C4C
:100170006DE904CE00F008F8DDF804E0DDE90223C3
:1001800004B07047704700BF2DE9F0478C468E469B
:10019000089E154604461946002B40F0D080724553
:1001A00047D9B2FA82F74FB1C7F120030EFA07FC24
:1001B000BD40BC4020FA03F343EA0C0C4FEA154E55
:1001C000A8B2230CBCFBFEF80EFB18CC08FB00F910
:1001D00043EA0C43994528D9EB1808F1FF3204D2C1
:1001E000994502D9A8F102022B44A3EB0903A4B25A
:1001F000B3FBFEFC0EFB1C330CFB00F044EA034493
:10020000A04214D92C190CF1FF3304D2A04202D918
:10021000ACF102032C44241A43EA02401EB1FC4014
:10022000002334607360BDE8F0874246DDE7634633
:10023000F1E7002A79D0B2FA82F3002B3FD01946B9
:10024000C1F1200302FA01F500FA01F42EFA03F2DB
:100250000EFA01FE20FA03F3AFB243EA0E034FEAAF
:10026000154EB2FBFEFC0EFB1C201A0C0CFB07F813
:1002700042EA004290455AD9AA180CF1FF3004D244
:10028000904502D9ACF102002A44A2EB08029BB2CD
:10029000B2FBFEFC0EFB1C220CFB07F743EA0243F9
:1002A0009F4246D9EB180CF1FF3204D29F4202D98B
:1002B000ACF102022B44DB1B42EA004202E0AEEB4F
:1002C000020301224FEA154EAFB2200CB3FBFEFC35
:1002D0000EFB1C330CFB07F840EA034398452AD970
:1002E000EB180CF1FF3004D2984502D9ACF10200B2
:1002F0002B44A3EB0803A4B2B3FBFEFC0EFB1C33A0
:100300000CFB07F744EA0344A74216D92C190CF159
:10031000FF3304D2A74202D9ACF102032C44E41B00
:1003200043EA00400F46114678E71F2188E7604600
:10033000ABE76246BFE76046DBE76346EFE773453E
:1003400006D916B9002108466DE7C6E9000EF9E79F
:10035000B3FA83F787B9734501D3824207D8841A69
:100360006EEB030301209C461EB900215BE7384673
:10037000FAE7C6E9004CF8E7C7F1200CBB4000FAE9
:1003800007F422FA0CF520FA0CF1BA401D432EFABC
:100390000CF30EFA07FE4FEA154941EA0E011FFA67
:1003A00085FEB3FBF9F809FB18300B0C08FB0EFABD
:1003B00043EA00439A4540D9EB1808F1FF3004D2D4
:1003C0009A4502D9A8F102002B44A3EB0A0389B293
:1003D000B3FBF9F809FB183308FB0EFE41EA0341B1
:1003E0008E452CD9691808F1FF3304D28E4502D905
:1003F000A8F10203294443EA0040A1EB0E01A0FB4F
:1004000002984145CE46434602D306D14C4504D21C
:100410000138B9EB020E68EB0503002EA5D0B4EB52
:100420000E0261EB030101FA0CFC22FA07F3F9401A
:100430004CEA0303C6E9003197E74046C5E7434667
:10044000D9E700000822F0B5002789B004F051FC7C
:10045000CB6A0C4603930B6B064604934B6B6846C2
:1004600005938B6BCDE901770693CB6B69460793B8
:1004700013466A46009704F076FC3146054630463E
:1004800004F071FC216B05440391616B6846049193
:10049000A16B0591E16BCDE90617694604F063FC99
:1004A00031460544304604F05EFC0544206ACDE93F
:1004B00004770090606A03970190A06A0290A06B95
:1004C0000690E06B0790304604F04DFC0544606AEE
:1004D000D4F838C00090A06ACDF810C00190E06A4E
:1004E000D4F83CC00290606BCDE905C00390206A4F
:1004F0000790304604F037FC0544E06ACDE9047704
:100500000090206B03970190606B0290206A069028
:10051000A06A0790304604F00DFC236B2D1A00935F
:10052000636B30460193A36B0293E36B0393636A9F
:100530000693E36A0793082304F0FCFB636B2D1A10
:100540000093A36B30460193E36B0293236A0393FA
:10055000636A0493A36ACDE90537236B07930823E5
:1005600004F0E8FBA36B2D1A0093E36B3046CDE952
:100570000137636A0393A36A0493E36A0593636B89
:100580000793082304F0D6FB2D1A10D50823314613
:1005900030460C4A04F0E7FB2D18F7D409B0F0BD43
:1005A000082331463046074A04F0C4FB2D1A002DBB
:1005B000F6D108223146034804F0A7FB0128EFD109
:1005C000ECE700BFC86500002DE9F04F0025036887
:1005D0009DB003934368DFF8B89104938368DDE925
:1005E00003470593C36806930369DDE905AC0793E8
:1005F000436908938369DDE9072B0993C3699E4624
:100600000A93099B009351F825600CAB96FA86F883
:1006100043F8258059F8046B4FEAF22383EAB213BA
:10062000464483EA72633344009E02EA0B0826EADA
:10063000020686EA08063344734487EA0A064FEA4C
:10064000743E8EEAB40E264007EA0A0886EA0806D7
:100650008EEAB45E0135B644102D03EB0C067344EC
:10066000D446DDF800E040F084804A490B912946E9
:1006700001350DF1700E05F00F0C0EEB8C0C5CF8D3
:1006800040CC01F00F094FEABC48CDF804C088EA1D
:10069000FC1801F10E0C0CF00F0C0EEB8C0C5CF83E
:1006A00040CC09314FEAFC4ECDF808C08EEA7C4EB2
:1006B00001F00F010DF1700C0CEB81010CEB8909BD
:1006C00051F8401C59F840CC402D8C44019988EADF
:1006D000D1080299C4448EEA912EF44406EA020835
:1006E0004FEAF62E2BEA060181EA08018EEAB61ED1
:1006F000DDF82C808EEA766E714458F804EF49F8E4
:1007000040CC71446144DDF800C04FEA733E61445F
:1007100084EA070CCDF82C808EEAB30E0CEA030CA9
:1007200004EA07088EEAB35E8CEA080CF4448C44B1
:1007300001EB0A0ECDF800B0BA4622D1039961440C
:10074000016004991944059B416023448360069B22
:100750003B44C360079B73440361089B334443617C
:10076000099B134483610A9B5B44C3611DB0BDE8D0
:10077000F08FBA46CDF800B0274693461C46324665
:1007800041E79346274632461C46764663466EE767
:10079000C464000000650000036803F01F025B09E9
:1007A000026004D0012B034818BF002070470248A4
:1007B000704700BF00288450002584502DE9F04781
:1007C000058B0446280717460CD501290CBF45F0B8
:1007D000100545F02005258387F31188BFF36F8F3F
:1007E000BDE8F087022905F0070540F09480204617
:1007F00004F099FE052864D801A353F820F000BF47
:10080000D907000017090000C30800008508000090
:100810009F080000B108000001F007035A1F012AD9
:100820001FD8002221F00701062BD4F8008089B2DE
:10083000C4E9002209D1434603E0628B013262839E
:100840001B68002BF9D141F002012046218304F0FE
:100850006AFE4FF0000900286DD041F0200121838D
:1008600069E0042B0AD121F0070189B220462183D7
:1008700004F059FE10B141F0200121834FF000082F
:10088000C14658E02369D3F80090238B23F0070377
:1008900043F006034FF00008238346464BE02369EC
:1008A000D3F80490238B23F0070343F00403F1E70C
:1008B0002369D3F80890238B23F0070343F0050343
:1008C000E8E74FF00008C146E7E7012243F00803DC
:1008D000238387F31188BFF36F8F002A3BD1B8F1D0
:1008E000000F4AD1B9F1000F02D020462C49C84769
:1008F000EFF31187202383F31288BFF36F8F238BCD
:1009000023F008039BB22383D9063FD523F01002BE
:10091000228303F007056669218B002EBFF67CAFAA
:1009200000239946D4F8008021F00701C4E9003380
:1009300041F001012183238B03F0070AAA4502D06D
:10094000A268002AC1D1B8F1000F02D1B9F1000F9D
:10095000DAD00022BAE7A1680029C0D00D680029CA
:10096000BDD03346524620464F68B8471DB12B686C
:1009700029461D46F3E72B46FAE7414633465246E1
:100980002046D8F8008004F0BDFDA8E79A067FF560
:1009900023AF23F02002228303F0070527E700BFDF
:1009A0005F550000002210B50C4B1C7884420FD01C
:1009B00001320C2A03F11003F7D16FF0010010BDD2
:1009C000D2685078C00706D5107820B90B60F6E7DA
:1009D000DA68002AF4D16FF01200F0E78C630000AF
:1009E000002318460649D1F89020C2F3072293420B
:1009F00000DB7047C1F89830C1F8A0000133F6E77A
:100A000000ED00E0002807DB01234109034A00F064
:100A10001F00834042F82130704700BF00E100E032
:100A200000280CDB01220649430900F01F00824028
:100A3000203341F82320BFF34F8FBFF36F8F7047F0
:100A400000E100E00028ACBF00F16040064B4FEA37
:100A50004111C9B2ABBF00F5614000F00F0080F852
:100A600000131954704700BF14ED00E0EFF3058345
:100A7000034A103B02EBC301496852F833000847B0
:100A8000486C000030B50F4AD2F89030C3F307230A
:100A9000013B984213D80C7A0B6864F304031D469B
:100AA000CB68640923F01F0343EA440343F00103C6
:100AB000C2F89800C2F89C50C2F8A03030BD6FF068
:100AC0001500FBE700ED00E04FF0FF313F22034B44
:100AD0000020C3E90012024A136070471447002047
:100AE00010470020084B70B5C31A0D4607499B10EC
:100AF000044659434022064804F0F3FD2B460146C4
:100B00002046BDE87040184754460020B76DDBB65C
:100B1000E8610000402373B50B4C0093041B0B46A7
:100B20000D460A49A41061430646094A094804F0E3
:100B300003FE014628B130462B4602B0BDE87040A6
:100B4000184702B070BD00BF54460020B76DDBB639
:100B5000AD570000E8610000014B00201B681847FA
:100B600044460020014B09201B68184744460020DA
:100B7000014B1B68184700BF44460020014B08206A
:100B80001B681847444600202B4A2DE9F0410221FA
:100B900006460520FFF756FF1379002B45D1274B5A
:100BA000136001231371264A117900293DD125498B
:100BB000137111604FF050222349C2F8143508799F
:100BC000002832D121480B7108602149C2F88035D4
:100BD000087950BB1F480B710860C2F818351E4ACF
:100BE000117911BB1D4913711D4B11601B689B06C8
:100BF00002D40520FFF706FF00244FF01C08194F10
:100C0000356908FB04539BB118461C22002105F0EE
:100C1000BDFA0C2303FB045501231C44042C07617B
:100C2000AB67EDD10020BDE8F0816FF00400FAE77A
:100C30006FF01500F7E700BF4446002031150000B3
:100C40004C460020590B000000470020650B0000B7
:100C500008470020710B0000F84600207D0B0000C3
:100C600000E100E0A0640000044B054A1B68B3FBF0
:100C7000F2F35843034B43F0010318475020002080
:100C800040420F00E0620000024B0B600123136042
:100C9000704700BF986400000048704790640000EF
:100CA000F8B50E461946304604F0C3FD30B346EAA7
:100CB000030414F0030421D10BB90020F8BD012076
:100CC0002146104D23F003031759C5F88405C5F8D4
:100CD0000405D5F808C41CF0010FFAD03751BFF352
:100CE0005F8F0434A342C5F88415C5F80415EBD111
:100CF000044AD2F80034DB07FBD5DEE76FF01500BD
:100D0000DCE700BF009003500B4670B51146184653
:100D100004F08FFD00B31A43C2F30B02E2B9B1F540
:100D2000805F01D2002070BD184602244FF0FF35CD
:100D30000B4B0144C3F88445C3F804450560D3F860
:100D40000064F607FBD500F580508842C3F884257F
:100D5000C3F80425EED1E5E76FF01500E3E700BF27
:100D600000900350024B0B6001231360704700BFDB
:100D70000046002000487047886400004FF48071EE
:100D80004FF48052024B0020C3E90012704700BFAD
:100D9000004600200D4B1868010A0006BFF35F8F64
:100DA0000B4BD3F80435181841F10001B3F5801F3F
:100DB0000AD2084BD3E90023904271EB030303D21C
:100DC00010F1807041F10001704700BFFC45002028
:100DD00000500150002100202DE9F041064672B676
:100DE000002383F31188BFF36F8F05231C4FDFF8B7
:100DF00074803D786C1CB4FBF3F303EB8303E41ABB
:100E0000FFF7C8FF184A137823B158F82430C31AE3
:100E1000072B1ED94FF05023D3F8141151B10021E4
:100E2000E5B2C3F81411D3F814313D7014B901239D
:100E300025461370FFF7AEFF48F82500BFF34F8F2C
:100E400020BF00BF00BF00BF00BF00BF00BF00BF8A
:100E500000BF86F31188BFF36F8F62B6BDE8F081E3
:100E6000724804201C470020714804204FF00053B2
:100E70000E4A1968914213D002F11C521968A2F56A
:100E80008B12A2F6CC5291420CD01968084A9142BA
:100E90000AD01868074B98420CBF04200220704704
:100EA000002070470320704701207047B6B3B4B5E7
:100EB0005DCE03F1EC49F2B64FF0502310B5D3F8F4
:100EC00018141E4C11F4803FD3F818241BD002F0E4
:100ED0000302022A02D0012A12D101224FF050232C
:100EE000C3F818250022C3F80421D3F804210122F5
:100EF0009A602268A2B9D3F80421002AFBD017E037
:100F000004F023FDE9E7D3F81424D207E5D5D3F89C
:100F10001C2402F00302013A012AF1D822681AB116
:100F20000222C3F8042310BDD3F80421002AFBD009
:100F30000022C3F80421D3F80431F4E70847002065
:100F400070B5114D6C6BA4B14FF47A735C430A23F6
:100F5000B4FBF3F40D4ED6F800316BB995F8393087
:100F600053B90A20FFF780FE013CF4D16FF0730003
:100F700008E04CF25034EDE795F8393003F0FF000B
:100F8000002BF3D170BD00BF0846002000B0025016
:100F900010B500220124094BC3F80045C3F8002115
:100FA0001C6008B9002010BDFFF7CAFF18B9044B38
:100FB00083F83840F6E76FF07300F4E700B00250B2
:100FC000084600202DE9F04106461746984604F0F1
:100FD000D7FC002863D106F06043B3F1005F61D114
:100FE000B3075FD1324C94F83030012B05D0434524
:100FF0005BD194F83830002B57D000232D4AB8F13C
:10100000020F0BBFC2F81075C2F80475C2F8146560
:10101000C2F808650CBFC2F81815C2F80C1584F8A0
:10102000393023680CBF08250425C3B994F838303B
:101030006BB100221F4B05F1A045C3F8002101232D
:1010400005F52C352B60BDE8F041FFF779BF012095
:10105000FFF79EFF10F1740FEBD1BDE8F081A3689C
:1010600023B1E6606161E7610020F6E7114AA660FE
:101070002161A76184F83080C2F800310123C2F8F1
:10108000043394F8382002F0FF0012B9FFF780FF14
:10109000EAE705F1A04505F52C352B60E4E74FF0B4
:1010A000FF30DAE76FF00C00D7E76FF00F00D4E7FE
:1010B0000846002000B00250094B93F83020012A66
:1010C00003BF002083F83800064B6FF00F0001BF0C
:1010D000C3F808231A61C3F80005C3F8000170477C
:1010E0000846002000B0025038B5054604F048FC20
:1010F000A8BB1E4B186818B193F83020012A31D1D3
:1011000000221B4CC4F81C15C4F8205583F8392064
:1011100090B993F8383043B10023C4F8003101236B
:10112000E360BDE83840FFF70BBF0120FFF730FF59
:1011300010F1740FF0D138BD042183F83010C4F8D9
:1011400000210122C4F8042393F8383003F0FF0093
:101150001BB9FFF71DFF0020EDE7E260FBE74FF052
:10116000FF30E8E76FF00F00E5E700BF084600201A
:1011700000B00250124B70B553F82050013053F8B4
:101180002060AE4200D870BD6C68B4B1237EDB072E
:1011900011D4636953B12046984738B10028B8BFCD
:1011A0004042FF28A8BFFF20E3681870E268537828
:1011B00043F0010353700835E3E72B689847FAE7DB
:1011C0006864000048B1094B5B68984205D0036829
:1011D0001BB1DA68C1680A44DA60D0E900321360F2
:1011E0005A600023C0E90033704700BF4820002048
:1011F000084B9A685A621A699A629A69DA62DA68DE
:101200009A6032B15A691A61DA699A610022DA6029
:10121000704770470846002010B5224BD3F80021D4
:1012200092B10022204CC3F8002194F8381094F8B1
:10123000302071B90121032A84F8381005D0042A1E
:1012400005D0022A00D1996010BD5960FCE7D96031
:10125000FAE7032A19D0042A19D0022A04D101235B
:1012600084F82030FFF7C4FFA36813B9012384F882
:10127000303094F8393003F0FF0013B9D4E900316D
:101280009847002384F82030DEE70223E8E70322B2
:1012900084F82020D3F81C256262D3F8203584F826
:1012A0002830E1E700B00250084600200268154BE4
:1012B000FF2A08BF4FF0FF32C3F824254268FF2AF7
:1012C00008BF4FF0FF32C3F828258268FF2A08BF05
:1012D0004FF0FF32C3F83025C268FF2A08BF4FF035
:1012E000FF32C3F834250269FF2A08BF4FF0FF32EE
:1012F000C3F838254269FF2A08BF4FF0FF32C3F810
:101300003C25704700B0025030B58DB06C46184D8A
:101310000FCD0FC495E8030084E803001549684623
:10132000D1F82435DBB20693D1F82835DBB2079328
:10133000D1F83035DBB20893D1F83435DBB20993FC
:10134000D1F83835DBB20A93D1F83C35DBB20B93D8
:10135000FFF7ACFF0023C1F8003101230B60D1F887
:101360000031002BFBD006A8FFF7A0FF0DB030BD69
:10137000C062000000B002502DE9F0471746002976
:1013800000F0A3804C68B4B3D4E900458B68A3B3E4
:10139000D3E9006393B38DB39D4240F0968001354D
:1013A000092D00F2928091F800A05FFA85F804F010
:1013B000E7FA002840F08C80DFF8209199F830009F
:1013C000012840F0888099F83830D3B10122444B8D
:1013D000C3F8082304F0ACFA08B1FFF795FF002C1E
:1013E00031D0A8F10203072B2DD8DFE803F05C5AB7
:1013F000581F565452122546C8E71E4601351D4453
:10140000CEE7FFF7C5FD7430E0D16FF07300BDE8A3
:10141000F087E3791B06A27943EA0243627943EA43
:101420000223227913432E4AC2F83C36E3781B0686
:10143000A27843EA0243627843EA02232278134304
:10144000274AC2F838360024FF0347EA052789F8FF
:10145000394047EA0A07DFF8889047F44057C9F84F
:101460000041C9F83476FFF76BFD7430CDD0C9F870
:10147000004146B3A8F10208D9F83C26D9F838361D
:10148000B8F1070F1FD8DFE808F01D1B1917161455
:1014900012100023BFE70023C0E70023C1E70023A9
:1014A000C6E70023C7E70023C8E7110EF171110C4E
:1014B000B171110A717132711A0EF2701A0CB27098
:1014C0001A0A727033700020A1E76FF015009EE7D2
:1014D0004FF0FF309BE76FF00F0098E708460020C1
:1014E00000B002500C22104B014602FB00330020DA
:1014F00030B4D3E91C521867EFF31180202484F331
:101500001288BFF36F8F9C6F04F0C00444F0020494
:101510009C6780F31188BFF36F8F1DB12B4630BCE1
:101520000248184730BC704754460020E86100006C
:10153000092813D8DFE800F0051012121212121257
:101540000E0C074B986F10F0070007D1FFF7CABFCA
:101550000220FBE70320F9E70120F7E7704700BF0F
:10156000544600200222024B83F8BC20704700BF83
:101570001845002038B50024164D95F8BC30012BD5
:1015800010D17CB9144BC5E91B44AB654FF4007313
:10159000A5F860304FF47633C5E91934EC656C6713
:1015A0000124EAE758222C215343624202F02C0224
:1015B0001A4401FB0433E81800212023006A2A445E
:1015C00003F0DAFF10B184F0010038BD002CFCD12B
:1015D000E6E700BF184500203DB8F3962DE9FF4728
:1015E0002F4D304C95F8BC30590054F821208242E0
:1015F00011D158214B43E9184E6A283301A9C0B2D2
:101600001D44FFF7CFF9044680B16FF01504204662
:1016100004B0BDE8F087013154F82110884239D177
:1016200058214B43E9180E6D5433E7E7019B002B1B
:10163000EBD0D3E90187D86803AA836802A95B6964
:10164000984722462346214608EB07090398814222
:1016500001D32B60DBE74FF0000C029800EBC100D8
:10166000D0F804E00768BC4501D30131EEE79045AE
:101670000CD89145EDD9FF2B0ED806EBC307A2EB92
:10168000080A46F833A0C7F804E0013372440CF1AD
:10169000010CE7E70124BAE76FF00B04B7E700BFDE
:1016A0001845002050640000F7B5019001A81F46BE
:1016B0001646FFF771F8019B9DF8204000EB830070
:1016C000D0F80032064D24021D4044EA8703194336
:1016D00041EA46022A43C0F8002203B0F0BD00BF31
:1016E000F0F0FCFF4FF050230022C3F82421D3F880
:1016F000242101221A62094A126822B14FF40072B1
:10170000C3F804237047D3F82421002AFBD0002219
:10171000C3F82421D3F82431704700BF00470020CC
:101720004FF050230022C3F82021D3F820210122BA
:101730009A61094A126822B14FF48072C3F80423F7
:101740007047D3F82021002AFBD00022C3F82021C3
:10175000D3F82031704700BFF846002010B4EFF3F3
:101760001180202282F31288BFF36F8F22490B6809
:1017700043F0020413F001030C601AD04FF0502321
:10178000D3F80C14D3F80C3413F0010311D0EFF399
:10179000118182F31288BFF36F8F184A936F03F0A1
:1017A000C00343F00203936781F31188BFF36F8F87
:1017B000012380F31188BFF36F8F1BB1002010BC91
:1017C000FFF790BE4FF05022C2F80031D2F800313E
:1017D00001230B491360096819B1C2F8043310BC26
:1017E0007047D2F80031002BFBD00023C2F8003143
:1017F000D2F80031F3E700BFF44600205446002041
:101800004C46002070B5EFF31186202383F3128835
:10181000BFF36F8F124A136823F0020113F0010324
:10182000116018D14FF05024012242F21075C4F813
:1018300008236260C4F80031D4F80031D4F80C24D5
:10184000D4F80C34D20306D5DB0704D50120FFF70A
:101850000BFA013DF2D186F31188BFF36F8F70BD93
:10186000F44600202DE9F347836807468B428A46F9
:1018700060D95B1A93425DD30023511E51446A46DE
:10188000009303F0BFF900284ED1DDF800902B4CF7
:10189000C8462B4E2B4D6A4651463846CDF800902F
:1018A00003F0B0F9DDF8009000283DD1B9F1000F48
:1018B00038DBBB68994535D2DDF804A0A3EB0903FA
:1018C0009A452FD87968F868494483689B6873B350
:1018D00052469847002827DBCA44D045C4F8006622
:1018E000C4F80466C4F80866C4F80C66C4F8106648
:1018F000C4F81466C4F81866C4F81C66C5F8006617
:10190000C5F80466C5F80866C5F80C66C5F8106623
:10191000C5F81466C5F81866C5F81C6604D30AF144
:10192000010AB8E76FF0150002B0BDE8F0876FF06C
:101930005700F9E74FF0FF30F6E700BF0080015095
:101940003546526E009001502DE9F04F064643682F
:1019500093B05A6B5368117A03EBC101994205D8D1
:101960006FF00104204613B0BDE8F08F58790028CD
:1019700000F052820833F1E73A68C2F3C323082B20
:10198000C2F3080400F245825549C95C40F2FF13D6
:101990009C4208BF4FF0FF34B2F10C5F4FEA126374
:1019A00016D2032B16D9043B1E2B13D8DFE803F005
:1019B000151C21121212123540121212121212129A
:1019C0001212435E6164121212676C6F72757800B6
:1019D0004E2B13D06FF08504C4E74FF0000AC5F812
:1019E0000845621C63D12DE04FF0010AC5F80C4593
:1019F000F7E7C5F810454FF0000A15E0C5F81445A3
:101A0000631C1FD00CA80C94FEF7C6FE0C9B4FF075
:101A1000010A09FA03F3836051E0C5F8084500297B
:101A2000E9D14FF0000A0621631C0BD0002047E0EB
:101A3000C5F80C45F3E7C5F860457B88601C03F0EA
:101A4000010330D10437B84596D102212B20254F10
:101A5000FEF7F8FF304603F0B2FE97F830307568B5
:101A60003269002B40D06FF077046AE1C5F8644515
:101A7000E3E7C5F86845E0E7C5F86C45DDE7C5F87C
:101A800024454FF0010ACFE7C5F82845B8E7C5F867
:101A90003045F6E7C5F83445F3E7C5F83845F0E7D3
:101AA000C5F83C45ACE7002BACD14FF0010A0CA8BF
:101AB0000C94FEF771FE0C9B09FA03F3C36001203E
:101AC0003B6800911A0444BF00204FF0010A014610
:101AD00052462046C3F34123FFF7E6FDB2E700BFBD
:101AE0003A6C000008460020A14BC7E90032002DE7
:101AF00000F0BE8095F829401CB195F82A30002BE3
:101B000061D16968FF2900F07C81AA68FF2A00F092
:101B10007881EB68FF2B00F0748128690E2840F073
:101B20007081112940F06D81122A40F06A810D2BDD
:101B300040F067816B69FF2B02D00F2B40F0618171
:101B4000AB69FF2B02D0102B40F05B81ACBB4FF098
:101B500003082346012221461120CDF80080FFF71B
:101B6000A3FDCDF80080234601222146A868FFF797
:101B70009BFDCDF80080234601222146E868FFF74F
:101B800093FDCDF800802869234601222146FFF706
:101B90008BFD6869FF2806D0234601222146CDF837
:101BA0000080FFF781FDA869FF2806D0032300937A
:101BB000002301221946FFF777FD95F82A3013B963
:101BC000281DFFF773FB6B6A6A4C7B6395F829301D
:101BD00087F83A3003F0ACFE20B10123C4F8083393
:101BE000FFF792FB2B68C4F84035AB7F697F2A7FF3
:101BF0009B0143EAC1031343EA7F43EAC213C4F8DB
:101C000044354FF47F03D3F83021D3F83431072A19
:101C100011D1022B0FD095F82320D4F84435002A97
:101C200040F09A8043F44033524AC2F844354FF4AE
:101C3000C063C2F840364F4995F82030D1F80026ED
:101C400022F07F4222F0FF02134395F8212043EA5D
:101C5000026395F8222043EA426395F8232043EA81
:101C60000273C1F800363B6813B12B20FEF7CAFEA1
:101C7000DFF804C14FF0000EBCE80F000CAC0FC43D
:101C80009CE80300AB234FF001090DF10C0BCDF8DC
:101C90000CE084E80300CBE901EEC7E902EE8DF821
:101CA0000C30344B87F8309087F838E0D3F824258F
:101CB0000DF13008D2B20692D3F828254046D2B2B0
:101CC0000792D3F83025D2B20892D3F83425D2B295
:101CD0000992D3F83825D2B20A92D3F83C35DBB258
:101CE0000B93FFF7E3FA97F83830D3BB4846FFF77A
:101CF0004FF982460DF118094846FFF7D7FABAF1B5
:101D0000000F31D1524659463046FFF735FB0446A5
:101D1000B8B92320FEF7A8FF9F220323CDF830A0F7
:101D20004146C8F804A030468DF83020524607934B
:101D3000CDF818B0CDF83890FFF71EFB032304460A
:101D4000E0B1304603F054FD97F83030002B3FF4FB
:101D500009AEFFF7B1F905E623F4003343F480330D
:101D600062E76FF0770AC5E76FF00404E9E700BFA8
:101D70001D58000000B00250C06200001A465946CB
:101D800005F1300004F0D0F9044600283CD1726817
:101D9000537F023B012B32D9157F023D022D8CBFB0
:101DA00000250125304603F060FE00282FDBC2B27B
:101DB000C0F38010A842C4D0002382F04002ADF8E6
:101DC00008308DF8082002AA069201220C934146A1
:101DD000C8F80830304607928DF83020CDF834909E
:101DE000FFF7CAFA04460028ABD1304603F03DFEA7
:101DF000041E01DBE207F8D404EAE474A1E701253C
:101E0000D0E76FF015049CE76FF0120499E70446E1
:101E100097E76FF01504A5E51F6893F804804FF06D
:101E20000109156807EB88080DE600BF30B587B0DB
:101E30000D46C0B201A9FEF7B5FD48B9019C1023BB
:101E4000A168204602AA103903F096FB002801DAA7
:101E5000012045E01022204602A903F02BFD0028B6
:101E600040D11022204902A804F05EF900280CBFDE
:101E7000012302232B70A1680123183921F00701E7
:101E800020460DF10302103903F076FB0028DFDB5A
:101E90009DF80330204603F00F021B096A702B7176
:101EA00001220DF1030103F005FD10B96B78042B3D
:101EB00003D901236B7000232B71A2682046183AC6
:101EC00022F00702083AA91C03F009FD0028BFD13F
:101ED000A2682046183A22F00702E91C03F0FFFC32
:101EE00007B030BD0323C5E71E6700002DE9F04FA2
:101EF00007464FF00008ADF5497D70220491A8A86F
:101F0000002104F043F9A84CA84BA94DCDE9A84302
:101F1000A84BA94ECDE9AA53A84BA94DCDE9AC6376
:101F2000A84BA94CAE9303F17453A3F52303A3F676
:101F30009243AF933B897A89D7F80CA01344A34E00
:101F40009A44C2454DD8A8A914A803F052FE002314
:101F50000EAC009339464FF6FF732046049A03F007
:101F600021FB0690002840F00681049B139A9B6891
:101F7000183B23F00703103B9A4200F2FC804FF01D
:101F8000FF36B0460E9B0EAD002B00F0F4806B6860
:101F9000002B00F0F0804FF6FF77D5E9041399424B
:101FA00016D22B685B8923B1EB688B4204BF0431E6
:101FB0002961042368688CAA03F0DEFA002840F047
:101FC000DA80AB7A2969002B61D0EB688B425ED84E
:101FD000069B012B40F0CF8040460DF5497DBDE8C2
:101FE000F08FAAEB0809B9F5807F28BF4FF48079FC
:101FF000C5F80046C5F80446C5F80846C5F80C46BD
:10200000C5F81046C5F81446C5F81846C5F81C466C
:10201000C6F80046C6F80446C6F80846C6F80C4698
:10202000C6F81046C6F81446C6F81846C6F81C4648
:102030004B464146664A049803F09EFA83460028C0
:1020400040F099804B46624A013B01D2C84478E790
:10205000C299481CC29012F801CB01F5487169443D
:102060003F2801F858CCEFD9B2A9A8A8059303924C
:10207000FEF7AAFAB099B19811F5007140F100008D
:10208000CDE9B010059B039ACDF808B3DCE72889A9
:10209000BDF8324204316218B842BDF830322A61CC
:1020A00002D098427FF479AF2A68002A56D1102BCB
:1020B00067D0222B00F09280012B7FF463AF202C9D
:1020C00059D823460498A8AA03F056FA05460028D2
:1020D00051D15B26014670228CA804F057F8334B8F
:1020E000314A3349CDE98C23324B3348CDE98E1345
:1020F000324B384FCDE99003324B929303F1745336
:10210000A3F52303A3F692439393A69B5A1CA6928E
:1021100017F8011B03F548736B443F2A03F8C81CEA
:102120000CD996A98CA8FEF74FFA949B959A13F5B3
:10213000007342F10002CDE99432A695013EE4D14C
:102140008CA97CA803F055FD2246A8A97CA803F021
:10215000EBFF061E18BF0126764213E76A68002AC5
:10216000A5D0EA688A42A2D84FF6FF751A4830F81F
:10217000022BAA4202D14FF0FF382DE79A42F6D146
:1021800095E7202CF7D123460498A8AA03F0F4F988
:102190000028F0D12246A8A914A803F0C5FF002802
:1021A000E9D101230693EDE667E6096A85AE67BBD0
:1021B00072F36E3C3AF54FA57F520E518C68059B29
:1021C00000800150ABD9831F3546526E00900150FC
:1021D00070470420BC6B000000670000002E7FF4F5
:1021E000D1AE802CC7D80DF5287923464A460498ED
:1021F00003F0C2F90028BED1BF4B09AD2B602846C1
:102200003023BE4964AA03F007FC002840F0AF81E8
:1022100013682968284601EB0308414630236CAA5D
:1022200003F0FAFB002840F0A2812E68A8EB060319
:10223000002B40F39C81337828467C9313687DAA59
:102240001E44314606237CAF03F0E6FB002840F035
:102250008E812A687968BA6053189E422B6040F0DC
:102260007481A74B0C2200211B688CA898477B68BF
:10227000072B039340F07B81039AA249B86803F0CF
:1022800053FF002840F073818D9A082A40F06F8137
:102290009D498E9803F048FF002840F06881032391
:1022A0004146284664AA03F0B7FB002840F05F814E
:1022B0001368002B00F05B812E68591E1160327884
:1022C000002A40F054813344721C98452A6040F043
:1022D0004E81412940F04B814C4430232146384601
:1022E000C7F800908CAA03F097FB002840F03F81CC
:1022F0007C9B8C9A0DF5F87B13449C42C0F037818F
:10230000224659466CA803F0FFFC002840F02F81BC
:102310002246594674A803F0F7FC8046002840F096
:1023200026817378042B40F02281202263906B90E9
:10233000B11C3B90584603F07DF85CAF202206F1BB
:10234000220184A803F076F864AD202238466CA9F7
:1023500003F070F8284674A9202203F06BF80821D6
:10236000384634AC02F092FC002840F00081284648
:1023700002F08CFC0646002840F0F9800A466348CB
:10238000394602F0C2FC012840F0F18008222946BB
:102390005E4802F0BAFC0128079040F0E8800DF199
:1023A000700A0823594A2CA802F05CFE5046082106
:1023B0008CAD239602F05FFC202214A903F03AF8BA
:1023C0000823514628462CAA02F0F2FC2946504622
:1023D0004E4A02F07FFD0823394628462CAA02F017
:1023E000E7FC2946494A24A802F074FD0822484F18
:1023F0005946284602F07DFC84A994A802F079FC95
:10240000394644A802F075FC07F120014CA802F0FF
:1024100070FCA7F14409294605920092A7F14003F8
:1024200044AA2CA802F044FD2A4694AB4CA944A827
:10243000CDF8009002F095FF2CA90846059B09F104
:10244000040202F00FFE4B462CAA284694A902F083
:102450006AFF05995046CDE90CB5CDE90A6702F04F
:102460002DFC0599054624A802F028FC8542B8BF3A
:102470000546ADB205F1FF3B0FFA8BFB59465046BE
:1024800002F013FC5946824624A802F00EFC0038E4
:1024900018BF0120BAF1000A18BF4FF0010A0AABB9
:1024A0004AEA400A53F82A10059A204602F021FC15
:1024B0003CA8203102F01DFC2CA8114602F0DBFBE9
:1024C000079B023D0360A7F140032DB20593002D49
:1024D00052DA2CA9084608230E4A02F0C3FD204612
:1024E0000D4B2CAA3CA902F01EFF082221460748EA
:1024F00002F00BFC12E000BFBC6B0000176C000088
:102500004C640000206C0000176C0000E8650000BF
:1025100008660000C8650000C4650000012804D0FA
:1025200008232046354A02F005FC5CA9039B039A68
:1025300054F8233051F8222053401E43039B013BA3
:1025400003930133F2D1A6B111E0525C01338C92B6
:10255000314628468DAA2B6003F02FFA38B92B6834
:102560008D9A8E9313449E422B603FF480AE4FF0C1
:10257000FF384FF0FF3605E5214B2CAA20463CA939
:1025800002F0F4FD29461CA802F08FFB29460746FD
:1025900024A802F08AFB003818BF0120003F18BFB2
:1025A00001270AAB47EA400753F8271019B308225E
:1025B00044A802F09EFB4CA8203102F09AFB014691
:1025C0004B462CAA44A802F0AEFE082321460093F5
:1025D00044AA059B54A802F06BFC22463CAB4CA9D4
:1025E00044A8CDF8009002F0BCFE2CA94B4608464A
:1025F00054AA02F00BFD013D2DB268E7E86500002A
:10260000C46500002DE9F74F2C254FF0580B3F4CC7
:10261000454394F8BC10C0F1000A0BFB01F16F18A0
:1026200027443E6A0AF02C0A51448146042230466F
:10263000214403F03FF98046002830D13B69DB0696
:102640002DD494F8BC00324B0BFB00556159621934
:1026500099421BD1D16813895B1817D25189CD18C3
:1026600014D2116A8B689D4210D240F60C67136930
:102670001F400BD1012802D1B9F1000F13D058230C
:1026800003FB00A02044FFF731FC60B1B9F1000F5B
:1026900005D0B2681AB100213046FFF7E3F80120F7
:1026A00003B0BDE8F08F582294F8BC3002FB03421F
:1026B000D26C964201D00020F2E70025012B019553
:1026C0001FD02BB94FF00108226AD2E901753D44B1
:1026D000582253432C2202FB09331C440423218932
:1026E00030460DEB0302194402F046FF0028D6D114
:1026F000B8F1000FDFD0019BBB42CAD3AB42DAD3A3
:10270000C7E74FF082759846024FE1E71845002071
:102710003DB8F396002800012DE9F7432D4BD3F87F
:10272000042391070BD5D3F8042142B10022C3F84A
:102730000421294AD3F80431136801331360254C6E
:10274000D4F80433DA033FD5244BD3E8EF2F22F03B
:102750000101C3E8E01F0028F7D1D30702D4D4F861
:1027600040318BB30025C4F84051D4F84031FEF716
:1027700011FBEFF31182202383F31288BFF36F8FD5
:10278000174BD3E90267B042B94120D3D3E900988F
:102790004FF0FF304FF0FF311D60C3E902014FF4ED
:1027A0008033C4F84833C4F84051D4F8403182F340
:1027B0001188BFF36F8FB9F1000F05D032463B4649
:1027C0000020CDF80080C84703B0BDE8F083A946DB
:1027D000EDE700BF00500150FC450020F44500200B
:1027E000E020002008B5034802F0ECF8BDE80840FE
:1027F00002F098B8806400004FF050232DE9F041BA
:10280000D3F80423D0070DD5D3F8002152B100220C
:10281000C3F80021D3F800210122C3F80823334B69
:102820001B6898474FF0502301250026D3F8044336
:102830002F4F04F082045CBB4FF05023D3F80423E5
:1028400091050DD5D3F8242152B1C3F82441D3F812
:1028500024214FF40072C3F80823264B1B689847C5
:102860004FF05023D3F80423D2053DD5D3F82021CF
:10287000002A39D00022C3F82021D3F820214FF4B8
:102880008072C3F808231C4BBDE8F0411B68184751
:10289000B4FA84F0C0F11F00830003F580739BB28B
:1028A00003F1502305FA00F2196892B224EA0204F7
:1028B0000029C0D01E601B684FF05023022AC3F8C5
:1028C00008230DD1D3F81814D3F8181401F003011C
:1028D000012905D1C3F81825C3F804239960AAE794
:1028E0003B68C0B29847A6E7BDE8F0814C4600209F
:1028F0000847002000470020F846002001222DE96B
:102900008048C04B97B003201A70FEF733FC0022BA
:10291000BD4BC3F8A821C3F8AC204FF48062C3F8C4
:10292000B8254FF40062C3F83C25D3F8A821002A4B
:1029300022DBD3F8AC30002B1EDBB44B18680168E7
:10294000D1B1B1FA81F30122C3F11F039A4021EA08
:102950000204D0E8EF5F8D4203D1C0E8E64F002EBD
:10296000F7D1ECD1A84943F00043C1F8A831C1F830
:10297000AC30A74BC3F804250420FEF7FBFBDFF8BF
:1029800094A2A54BC3F800A6C3F804A6C3F808A6F2
:10299000C3F80CA6C3F810A6C3F814A6C3F818A66B
:1029A000C3F81CA603F58053C3F800A6C3F804A619
:1029B000C3F808A6C3F80CA6C3F810A6C3F814A65B
:1029C000C3F818A6C3F81CA6C0220021934803F040
:1029D000DDFB0023914C924D012B84F8BC302CD9A7
:1029E00000234FF058089B46012B84F8BC3048D98F
:1029F000BBF1000F0ED0002384F8BC30E21892F82F
:102A0000BD10002900F08D810133DBB2012B84F869
:102A1000BC30F3D90023804F012B84F8BC3040F246
:102A2000218200230993012B84F8BC3040F29E835D
:102A3000099A022A00F08D84FEE7E21892F8BD2080
:102A400022B194F8BC300133DBB2C5E7594201F042
:102A50005801203115F8330021445E00FDF7A2FF34
:102A600060B9582394F8BC10013603FB014115F8F6
:102A700026004C31FDF796FF0028E2D0FEF772FDEC
:102A8000FEE7E21892F8BD20002A40F0A68008FB7D
:102A900003416448644E00EBC3225D004A6256F86D
:102AA000250002F580520A65FEF798FD002840F0E7
:102AB00081806B1C56F82300FEF790FD002840F043
:102AC0008F8094F8BC5008FB05431B6AD868836864
:102AD00004EB8505DB6898470368C5F8B430FEF75A
:102AE00049FD94F8BC300546002840F0BE8008FB44
:102AF0000342916AB1F5807F039100F2B680D2F86B
:102B00005490B9F5807F00F2B080864602460146B7
:102B100084460746582000FB0340039E8E4261D83E
:102B200091455FD88E4240F0A080914540F09D8055
:102B300001220C9202F101220D920022012BCDE91B
:102B40000E223A4F4FEA430640F09580384A8DF8FE
:102B500028300992013610A957F82600FFF766F9C8
:102B6000012808BF03234FF0000204BF8DF8403056
:102B70008DF843309DF824109DF840002D4B1E78B1
:102B8000042E06D0052E40F09B804E1E18BF012655
:102B90004EB15E78042E00F09A80052E40F09480AD
:102BA000012840F094800132032A03F10603E6D1A4
:102BB000012669E00122012094F8BC30824204EB36
:102BC00003011D4681F8B00089D1254495F8B02055
:102BD000023A022A98BF4BF0010B0133DBB203E744
:102BE0000922E8E7674527D1466A06EBC106766801
:102BF00001313744066D06EBC20676680132B444F3
:102C00008BE700BF7048042000A00250104700204E
:102C1000007001503546526E00800150184500206A
:102C20005064000014210020506400005064000033
:102C300003010303286C00000BD2466ABEF1020FA9
:102C400006EBC106766837440FD04FF0010E013114
:102C500063E7066DBEF1010F06EBC2067668B44469
:102C600003D04FF0020E013257E70121E21882F83B
:102C7000B0101D46A9E757F8260009A9FFF7D6F8B6
:102C800000283FF467AFFF2694F8BC30E21882F8C2
:102C9000B060002B99D0012EEBD0042EE9D094F82F
:102CA000B020042A04BF012284F8B020012BE0D018
:102CB00094F8B120042A04BF012284F8B120D8E797
:102CC000771A7E427E4163E786427FF46CAF9E783E
:102CD000042E04D09DF82770B7427FF464AFDE78ED
:102CE000042E04D09DF84370B7427FF45CAF1E7988
:102CF000042E04D09DF82670B7427FF454AF5E795D
:102D0000B31E022BBFD8022E07D101200CA9FFF75A
:102D100079FC00287FF44CAFB6E7042E18BF0326D9
:102D2000F3E792F8B0202C2002F0FB02012A4FF0CA
:102D3000580214BF0121002103FB02F200FB012213
:102D400014BF014600215B4203F0580319440123DC
:102D50002244156A009340232A4621440DEB0300C8
:102D600002F020FC00287FF455AE109E002E3FF4A8
:102D700051AE119F002F3FF44DAE4FF6FF78DDE9C5
:102D80001493994517D2738933B1139B4B4504BFF4
:102D900009F10409CDF8509004234946384608AAA1
:102DA00002F0EAFB00287FF435AE9DF84A302BB1E3
:102DB000139B4B4502D894F8BC3025E6BDF848007B
:102DC000BDF8223009F10401404503EB010203D0B4
:102DD000BDF820C0844507D10C2B149206D040F2D8
:102DE0000113A4F8B03015E61492C8E7284609AAE2
:102DF00002F0C2FB00287FF40DAE9DF82430012BB9
:102E00003FF608AE5821E21892F8B0204B43023A40
:102E1000022A8CBF002201222C2101FB0233234411
:102E2000197D9DF8282091429FD80AD3597D9DF89D
:102E30002920914299D804D3DA8ABDF82A309A42DF
:102E400093D294F8BC30234493F8B020012A07D0E1
:102E5000023A012A3FF6DEAD012283F8B020D9E51F
:102E60000422FAE7E11891F8BD20002A40F07B81A6
:102E700001200C9040F20110CDE90E228DF8362091
:102E800091F8B020ADF83400042A8DF8372008D826
:102E9000012A08D800F0CF80FF22234483F8B02015
:102EA000C9E0052AF6E7582505FB0343DE6CB3F8B5
:102EB00034809B6B304698444146042310AA02F0AC
:102EC0005BFB002800F0C080002600254FF0580B67
:102ED000A94694F8BC300BFB0343DA6CD3F820808E
:102EE0009B6A039294F8BC204B450BFB0242526A4A
:102EF00018D002EBC9025268294640460793069251
:102F0000FEF7B0FC069A079B1544B542C0F0C58099
:102F100094F8BC3004EB8303D3F8B450B6FBF5F659
:102F200005FB065594F8BC2004EB8203D3F8B400EB
:102F30004FF440735843582303FB0242536A926A8A
:102F40001968013A03EBC203002230305E689C46E8
:102F500032448242A3F10803F8D3DCF80030404643
:102F6000591AFEF77FFC4FF00009884E4D4500F2DC
:102F70009780D8F80810D8F80C00103921F0070510
:102F80008368DB6898471022417910A803F0FEF8A7
:102F900010227F4910A803F0EEF81023294640467E
:102FA00010AA02F04DFB002845D194F8BC0001287E
:102FB00040F0B780774B784A1A60784A5178C90751
:102FC00039D51278002A36D11B681B69744A1B68F0
:102FD000196891422FD11A89D9681A445368B3F1FC
:102FE000807F28D910256F4BC3F840544FF05023F1
:102FF000C3F81406F9B14FF0005300F13640A0F1C8
:103000004B10A0F5984018605A604FF42052996018
:10301000DA60FDF72BFF054602F0C4FD6248FDF7BC
:1030200023FEFDF723FF8542F8D002285D4B70D1C7
:103030000022C3F8402494F8BC30E21892F8B02083
:10304000FF2A40F09080FEE794F8BC30BDF84020A5
:1030500005FB0343DD8E46F608139A421AD1BDF8EC
:1030600042309D427FF430AF0423304610AA05EB76
:10307000080102F081FA00287FF426AF46F6071314
:10308000BDF840209A427FF41FAFBDF842602E4445
:1030900046441AE7002DF1D016E709F1010921E7AE
:1030A000A5EB090BBBF5806F28BF4FF4806B494639
:1030B0005B463E4A039802F05FFA0028BBD15B46AC
:1030C00049464046394A02F0BBFA0028B3D1C7F856
:1030D00000A6D944C7F804A6C7F808A6C7F80CA6E6
:1030E000C7F810A6C7F814A6C7F818A6C7F81CA6F4
:1030F000C6F800A6C6F804A6C6F808A6C6F80CA628
:10310000C6F810A6C6F814A6C6F818A6C6F81CA6D7
:103110002CE74FF050220121C2F814160022C3F808
:103120004024582294F8BC3002FB03431B6D5A68BC
:103130001AB100210398FEF795FB582294F8BC3091
:1031400002FB0343D3E91403013B00EBC3025268C3
:10315000002A3FF470AF50F8331003680398C91A7F
:10316000FEF780FB67E70133DBB255E4234493F8B5
:10317000BD208DF820209DF82020CAB1099B013385
:10318000099394F8BC300133DBB24CE40090015059
:103190001E670000144100203C620000D82000207F
:1031A0003DB8F3960030005040420F001841002017
:1031B00093F8B030012B40F0C68000210846FFF79D
:1031C00021FA0028DAD04FF0FF35102200210CA898
:1031D00002F0DCFFFEF7C6F9002D40F0D68040F289
:1031E00015126A4B0126C3F80026C3F80426C3F85B
:1031F0000826C3F80C264FF48272C3F80027059BFB
:10320000049A1B89624CDFF88C911344C9F8003092
:1032100015206660FDF704FC4FF400125E4B2F464C
:10322000C4F80833C4F848335C4BDFF874A1C3F822
:1032300080214FF0FF335B4A5660C2F84833C2F832
:1032400008336660C4F84833C4F808334FF0FF38D9
:103250005AF8044B0DF1400BC4F8088344F30730CF
:10326000FDF7DEFB6660C4F84C71D4F84C31C4F84D
:103270001071D4F81031C4F84471D4F84431C4F852
:103280000075D4F80C351093D4F814351193D4F894
:1032900008351293D4F810351393C4F80C85C4F88C
:1032A0001485C4F80885C4F810854FF000085BF851
:1032B000040B431C05D00023012219460093FEF79E
:1032C000F3F908F10108B8F1040FF0D180220021D0
:1032D000A01802F05BFF8022002104F5C07002F00C
:1032E00055FF6B1C022B4FF00105AFD14FF0FF32A1
:1032F0002D4BC3F808254FF050235E60C3F8082318
:10330000BFF36F8F72B60023244903F1200001330D
:10331000102B41F82020F8D100234FF0FF301F4A36
:1033200003F160010133102B42F82100F8D1FDF7C1
:1033300057FB002383F30B8883F30A881B4BD9F8D0
:1033400000009847FEE7FEF715F900283FF435AF77
:1033500039E7002594F8BD3084F8BC5043B194F8A7
:10336000BE3013B184F8BC202FE7012384F8BC30B1
:10337000582202FB0342126A5B42526803F0580370
:10338000E3180025049205931FE7FEE70030005084
:1033900000500150D845002003000F0000E100E07C
:1033A00060640000004001500070015001200020C6
:1033B0002DE9F74F4FF0010808FA00F816460446C9
:1033C0001F466FEA0802DFF834A1DAE8EF3F03EAAC
:1033D0000201CAE8E01F0028F7D14FF48035DFF87A
:1033E0002091A540C9F80853BFF35F8FBFF36F8FDB
:1033F00008EA03030093FDF7CDFCB04271EB07032D
:103400004BD2404B301A67EB0101984271F1000139
:1034100071D23D4B03EB0413D3E902239F4208BF53
:10342000964243D04FF0000B26F07F4EF446032027
:1034300004F150039B009BB203F1502303F580334A
:10344000C9F84853C3F800B01A6804F5A87201928D
:1034500001992CF07F4249F821206FF00202C9F84F
:103460004453D9F80415521A6244DFF8A0C022F080
:103470007F4262451AD91A685AB1D9F80415A1EBEE
:103480000E0222F07F42B2F5000F0FD9C3F800B050
:103490001A6800EB010C0130DAE71D4BD3E8EF1F8F
:1034A00041EA0801C3E8E21F002AF7D1164919488A
:1034B0002301C850002001EB0412C2E902675060EA
:1034C000009BABB1DAE8EF3F43EA0803CAE8E23F0A
:1034D000002AF7D10A4BC3F804530D4BD3E8AF3F92
:1034E000E340DB0742BF4FF400120B4BC3F800214F
:1034F00003B0BDE8F08F6FF01500E1E7F045002064
:103500000050015001008000E0200020FDFF7F00FE
:10351000F44500201D35000000E100E02DE9F843EE
:10352000384922F07F45D1E90063921B140A22F04A
:10353000FF02921943F10003C1E90023A5F5001130
:10354000B1F5400F0AD2304909684FEA112C09063B
:103550004E192E494CF10007C1E9006712F580723F
:1035600043F10003FFF724FF2346EFF311852022E8
:1035700082F31288BFF36F8FDFF89490DFF89480A6
:10358000D9F80000244F484508BF0020234EC8F852
:103590000040D7E9002120B1C4689C420FDDE41A45
:1035A000C4609A1841EBE3710023C7E90021C8F811
:1035B000003085F31188BFF36F8FBDE8F8830023D7
:1035C000A21841EBE471C360C7E90021FDF7FAFDE1
:1035D000C66085F31188BFF36F8F83689847EFF358
:1035E0001185202383F31288BFF36F8FD8F8003042
:1035F000D9F800001B1B484508BF0020C8F8003060
:10360000C7E700BFF8200020FC4500200021002073
:1036100048200020F8450020F02000200100008014
:103620002DE9F0414FF0FF3000264FF0FF315E4CA6
:103630005E4B4FF40012C4F80833C4F848335C4BB7
:10364000C4F80865C3E902014FF480330221012563
:10365000C4F80433574BC4F804131520C3F8802171
:10366000FDF7F0F91520FDF7CDF9534BA5604FF4A8
:103670008072256030461D600023FFF799FE4F4B96
:10368000D3E8EF2FC3E8E15F0029F9D1002A3ED14A
:103690004B4B9D6099685A6001F00301A942DA60C2
:1036A00035D1DA609A68032A31D8EFF311842022E9
:1036B00082F31288BFF36F8F4FF6FF754149888EF2
:1036C00000F00702C88EA84235D0062A33D8DFE8BA
:1036D00002F0123204321232120001230130C88685
:1036E00084F31188BFF36F8F8BB1002334493648C0
:1036F00001F008FF0BE000201860086AC0B9C1E9BA
:103700000733C2B9224602212F48FDF757F8EFF3DD
:10371000058595B1EFF31186202383F31288BFF35B
:103720006F8F01254FF050244FF00008214F25E006
:1037300003600B62E5E70023D2E7244B1B78002BE4
:10374000E8D04FF0502302222E46C3F80823E9E7C1
:103750003046FDF741FBD4F81835DBB2012B0DD113
:10376000D4F8042152B1C4F80481D4F8042102220F
:10377000C4F818252022C7F88021A360D4F81824A3
:10378000D4F81834D203E3D503F00303022BDFD1BE
:1037900035B186F31188BFF36F8F0020BDE8F0814B
:1037A000C4F80433F9E700BF0050015003000F00D4
:1037B000E020002000E100E0F0450020EC45002082
:1037C000DC4500205446002070460020704804204C
:1037D0002DE9F04F8B4691461C46002595B002908E
:1037E00099F8000008B9284643E225280CD059462C
:1037F000029B98470028C0F23C8209F10103013581
:103800000493DDF81090EBE7182200210EA802F0D7
:10381000BDFC99F801A0BAF1250F53D000229646BD
:1038200094461746164609F10100014610F8013B7F
:103830002B2B75D06ED8202B74D0232B75D02AB1AA
:103840009DF8402042F040028DF84020BEF1000F6C
:1038500005D09DF8402042F020028DF84020BCF1B8
:10386000000F05D09DF8402042F010028DF8402056
:103870002FB19DF8402042F008028DF840202EB173
:103880009DF8402042F004028DF840209DF8402031
:1038900002F04400442803D122F040028DF8402079
:1038A0009DF840202A2B42F080028DF8402040F005
:1038B000A5809DF841204B1C42F001028DF841206B
:1038C00000274BE04FF00008474609F1020304933C
:1038D0009DF84120D60740F1498154F8047B002F20
:1038E00006DA9DF840107F4241F004018DF8401047
:1038F000500740F1428154F8048BB8F1000F80F278
:103900003F819DF8412022F002028DF841204FF0C6
:10391000FF3835E12D2B0BD0302B90D1012284E7DD
:10392000012782E74FF0010C7FE74FF0010E7CE7A3
:1039300001267AE713460CFB0707303F1A4612F8B8
:10394000010BA0F13006092EF4D99942B8D09DF8A8
:103950004020F90F61F341028DF840201A782E2A99
:103960000CBF012100219DF8412061F341028DF837
:1039700041204FD15A782A2A45D04FF000080A2614
:1039800001331A4612F8011BA1F13000092844D96D
:103990009DF84020C2F3400141EAD87161F3410231
:1039A0008DF840201A786C2A58D03CD8682A42D02A
:1039B0006A2A5CD04C2A62D013F801AB9DF84120F2
:1039C000BAF1780F049311D8BAF16D0F64D8BAF137
:1039D000690F0BD8BAF1570F7CD8BAF1410F00F03C
:1039E000AF80AAF14502022A40F2AA809DF8402049
:1039F00042F001028DF84020002295E00B4600279E
:103A00004FF00A0C9AE79DF84120023342F004027D
:103A10008DF841204FF00008C4E706FB0818134654
:103A2000A8F13008ADE7742A25D07A2AC4D106213E
:103A30009DF841200CE05A78682A9DF8412006D173
:103A4000012161F3C6028DF841200233B4E702215F
:103A500061F3C6028DF841200133ADE75A786C2A34
:103A60009DF8412001D10421EBE70321F0E7052176
:103A70009DF84120ECE707219DF84120E8E7BDF8DB
:103A8000402022F4F04222F0020242F4804242F04E
:103A90000202ADF84020DFE70121AAF16E00C0B2BA
:103AA000814040F28240014225D111F0240F50D1D3
:103AB000CB079BD503209DF8421002F07802A2F1BB
:103AC000400C60F30201DCF100028DF8421042EB81
:103AD0000C0229E00120AAF15801C9B200FA01F153
:103AE00011F4624F2CD111F4043F27D140F60100AC
:103AF00001423FF47BAF02219DF8420002F07802C0
:103B0000402A61F3020008BF9DF840108DF8420082
:103B100004BF41F001018DF84010003A18BF0122A6
:103B2000BAF1630F18BF00229DF84010C1F34000A6
:103B3000024362F341018DF84010C9E60146DBE71C
:103B400004219DF8422061F302028DF842200122F7
:103B5000EAE703209DF8421002F0780260F30201C8
:103B6000003A18BF01228DF84210DDE79DF94010A0
:103B70000029A8BF4FF0FF37BAE691077FF5C7AE1F
:103B80009DF842109DF8412001F007010139C2F370
:103B9000C302032952D8DFE801F0022A6149D11E8D
:103BA000042904D8DFE801F0190F0F191900012AC0
:103BB00054F8041B15D0022A15BF084608B2C117D5
:103BC00041F3C03110E0E01D20F0070004464068DA
:103BD00054F8081BCDE90E1030E054F8041BC81748
:103BE000F8E748B241F3C011CDE90E0126E0D11E3D
:103BF000042904D8DFE801F0130B0B131300012A8A
:103C000054F8041B0FD0022A08BF89B20CE0E11D52
:103C100021F007010C46496854F8080BE4E700213D
:103C200054F8040BE0E7C9B20020D3E7073424F0CE
:103C30000704D4E90001CDE90E0108349DF84010D5
:103C400011F0030618D04E46049BB3420AD8A6EBE7
:103C50000906002E30460CDB3544D2E554F8041B2F
:103C60000E91EBE7594616F8010B029B9847002886
:103C7000EADA15B0BDE8F08FBAF1780F3FF6C1ADC2
:103C8000BAF1620F18D8BAF1250F49D0BAF1580F1E
:103C90007FF4B7ADDDE90E010DF13603009310AAF4
:103CA00008AB8DF843A001F0E5FB119B81469DF820
:103CB00043A0129A039398E0AAF1630015283FF6F7
:103CC000A0AD01A656F820F01B3E0000353E0000D6
:103CD00003380000033800000338000003380000F8
:103CE000353E0000033800000338000003380000B0
:103CF000033800005F3E00005B3E0000B53D000061
:103D00000338000003380000313D00000338000094
:103D10005B3E000003380000033800005B3E0000FB
:103D200059465046029B98470028A2DB013568E5BA
:103D3000B8F1000FDDF8389034DB002019F80020CE
:103D40000AB180452CD10026324609EB00030593C9
:103D500003969DF8421011F01003069300F09C802A
:103D60000230039B4906184448BF8018002F40F3D7
:103D7000A8809DF840203F1A5307C2F3800800F145
:103D8000A080500640F1C18046B159463046029BA2
:103D900098470028FFF66DAF464601353022B5E062
:103DA0000130CBE7484602F0B8F9B9F1000F3FF413
:103DB00028ADC8E70E98002865D070238DF84330F1
:103DC0000DF13603009310AA08AB002101F052FB5D
:103DD000002681464FF0780A119B129A03939DF8B2
:103DE000423043F010038DF842300DF13600B8F147
:103DF000000FA0EB09000ADB9DF84010804521F080
:103E000040018DF8401002D9A8EB0003039306B1DE
:103E100001300DF1360305939BE700260E9A0DF154
:103E200021038DF8202001203246039605930DF1E1
:103E300020098EE70A075DBFC1F300114901CEB228
:103E40002B26DDE90E12002ABFF624AF494262EBB1
:103E500042022D26CDE90E121CE700261AE70E9B22
:103E6000072A3FF6CEACDFE802F00C04060C080887
:103E70000C0C1D70C5E41D80C3E4EA17C3E90052B1
:103E8000BFE41D60BDE4384B06460246039005932F
:103E90000520A3F105095CE70B0748BF013060E787
:103EA000104607925946029B98470028079AFFF64A
:103EB000E0AE4146002908F1FF38F1DC3D444746B9
:103EC0006D1A3EB159463046029B98470028FFF6CE
:103ED000D0AE01359DF84220D10601D4130707D595
:103EE00059463020029B98470028FFF6C2AE0135A4
:103EF000069B3BB159465046029B98470028FFF667
:103F0000B8AE0135039E2E440AE02022B846D0E721
:103F100059463020029B98470028FFF6AAAE01358B
:103F2000731B002BF4DC4E46059BB34214D8A6EB62
:103F30000906002E3046FFF69CAE35442F447B1B0D
:103F4000002B7FF75EAC59462020029B9847002843
:103F5000FFF68FAE0135F2E7594616F8010B029BCA
:103F600098470028E0DA84E6336700000FB41FB5F5
:103F700006AB53F8042B0393002104480091FFF78C
:103F800027FC05B05DF804EB04B0704771540000E5
:103F900005460C4608B599B1D1E9012313480968D3
:103FA000FFF7E4FFD4E90423E1681148FFF7DEFFDF
:103FB000E1691048FFF7DAFFA1690F48FFF7D6FF64
:103FC000012D05D1EFF305810C481039FFF7CEFF25
:103FD000EFF31183202383F31288BFF36F8FEFF386
:103FE000118283F31288BFF36F8FFEE734670000FE
:103FF0006467000094670000A4670000D3670000B6
:1040000070B5264C26480E461546FFF7AFFFA36A4B
:10401000D80640D52348FFF7A9FF1120A36A190746
:1040200003D52148FFF7A2FF12201C4CA36A9A0770
:104030000FD51E48FFF79AFF616BA36A1B0607D5D1
:104040001B48FFF793FF1EB1A36A23F08003A3620E
:104050001320124CA36ADE0703D51648FFF786FF2C
:104060001420A36A9C0603D51348FFF77FFF152091
:104070000A4B9A6AD10658BF9A6A9A6A920642BF58
:104080005A6A22F400525A629A6A42F0FF029A6215
:1040900000232B7070BD1020C0E700BF00ED00E0D2
:1040A000E7670000FE670000326800004668000015
:1040B0005F680000766800009668000070B5244CC8
:1040C00024480E461546FFF751FFA36AD90435D59B
:1040D0002148FFF74BFF1720A36A1A0503D51F4895
:1040E000FFF744FF18201A4CA36A9B050FD51C4804
:1040F000FFF73CFFA16BA36A180407D51948FFF727
:1041000035FF1EB1A36A23F40043A3621920104CAB
:10411000A36A590503D51448FFF728FF1A20A36A9C
:10412000DA050DD51148FFF721FF1B20084A936AD5
:1041300043F47F43936200232B7070BD1620CBE7BE
:10414000A36A9B04F2D50A48FFF710FF1C20EDE795
:1041500000ED00E0C6680000DD6800003268000085
:10416000EF680000096900001F6900003B6900005A
:104170009668000010B5204C2048FFF7F7FEA36AB0
:10418000990137D51E48FFF7F1FE1E20A36ADA0118
:1041900003D51C48FFF7EAFE1F20174CA36ADB0279
:1041A00003D51948FFF7E2FE0220A36A1C0303D5DA
:1041B0001648FFF7DBFE21200F4CA36A590303D5F5
:1041C0001348FFF7D3FE2220A36A9A0303D51148B0
:1041D000FFF7CCFE2320084CA36ADB0303D50E486F
:1041E000FFF7C4FE2420A36A6FEA03436FEA134378
:1041F000A36210BD1D20C9E700ED00E05469000076
:104200006D690000816900009C690000C7690000B9
:10421000E66900000C6A0000276A00002DE9F04101
:104220005C4B05465F6800268AB0C7F3080486F336
:104230001188BFF36F8F02F07F43B3F17F4F06D138
:1042400002F00C03082B13D15348FFF78FFE002612
:1042500035464FF00008E31E8DF80780092B00F269
:104260008680DFE803F00A7A7E7584848484848201
:1042700010074CBF0D460126EBE74848454CFFF7B9
:1042800075FE8DF80780E36A9A0704D54448FFF766
:104290006DFE00242AE0E36A002B01DA4148F6E7CC
:1042A000E36A5B00F5D54048FFF760FE6369AA69E1
:1042B00043F480736361BFF34F8FBFF36F8F32F8A6
:1042C000023C626922F480726261BFF34F8FBFF3D8
:1042D0006F8F03F47F42B2F55F4F1FD1DBB2022B29
:1042E0001CD129683148FFF741FE2C689DF8073042
:1042F000002B4BD12022294602A801F03CFF099B4C
:10430000002E40D0C3F3080222B96FEA53236FEAAC
:1043100043230993204602A9FFF73AFE1D4B9A6AF0
:10432000D2B232B101210DF107022846FFF768FE33
:1043300011E09A6A12F47F4F06D001210DF10702B5
:104340002846FFF7BBFE06E09B6AB3F5803FA0D38B
:104350002846FFF70FFF0446C8E700210DF10702CA
:10436000E3E700210DF10702EAE711488FE7114B5F
:1043700017F4F87F1049114808BF1946A4F110023C
:10438000FFF7F4FD85E76FF30803C2E70AB0BDE865
:10439000F08100BF00ED00E0816A0000AD6A00001E
:1043A000C56A0000E76A0000F66A0000166B0000AC
:1043B000336B0000536A0000686A0000586B00000D
:1043C00010B572B6002484F31388FCF709FB23466A
:1043D0004FF0FF300C4A03F120010133102B42F85B
:1043E0002100F8D100234FF0FF30074A03F16001AC
:1043F0000133102B42F82100F8D162B6BFF34F8F82
:10440000BFF36F8F10BD00BF00E100E08FB5A54A7C
:10441000A54B22F07F029A60BFF34F8FBFF36F8FDF
:10442000D3F88820A14822F47002C3F88820A04A5B
:104430000021121A01F0AAFE9E489F4A9F49121AB3
:1044400001F099FE9E489F4A9F49121A01F093FE7F
:10445000002250B201210132FCF7F4FA452AF8D1CA
:104460000020FCF787FE994B03F5006282F3088871
:1044700083F30A880021E0228B4B954E83F822209B
:10448000D97719765976997683F820105A6A42F4CA
:10449000E0225A6283F823105A6942F010025A61EE
:1044A0005A6942F480625A615A6922F008025A61DC
:1044B00010221A614FF0FF329A62DA62D3F890202C
:1044C00012F47E4F29D0BFF35F8F824AC3F8941055
:1044D000C3F8C02002228048C3F89810C3F89C207B
:1044E000C3F8A0000120C3F8980000F12020C3F811
:1044F0009C0000F5DB2000F2E270C3F8A0003270EF
:10450000D3F89000C0F3072082424BDB0522C3F8AA
:104510009420BFF34F8FBFF36F8F704934784D688D
:1045200020461DB11F2D55D86FF01504347002259B
:1045300001246B4B6B49C3F800450020C1F8D056ED
:1045400001F01DFB204601F01AFBC1F804471C22B4
:10455000C1F804496448C1F8004B002101F016FE7F
:10456000624B614A20461361FCF704FE2846FCF7C3
:1045700001FE002383F30B885D4C5E4DA4F52056AD
:1045800086F30B8884F3098800200449884718467D
:1045900019461A46A84702488047FEE7FB6000001C
:1045A00009610000C3F89820C3F8A0100132A7E702
:1045B000C7F89880D7F89C3063F30405C7F89C507F
:1045C00001F055F868E0D145F2D15FFA88F001F0CA
:1045D0004EF8ABE7EF06A7D10B68DA06A4D143E8A3
:1045E00000F21D4412F4803F5FFA82F805F1FF3AB1
:1045F00008BF6FF015084AE800F2D7B2D20393D58E
:10460000B84591D1A0458FDA274FC7F89880D7F8E1
:104610009C20C7F89880D7F8A09022F01F02934200
:1046200049F01F09CFD0013BC7F8988023F01F0243
:10463000D7F8A030D14503F01F0343EA0203204618
:10464000C7F8A030BCD001F012F810F1160F3FF4FB
:104650006BAFC7F89880D7F89C209DF8083009F117
:10466000FF3962F304038DF80830D7F8A0300095C5
:1046700025F01F059DF808204D445B08A5EB0A05B1
:10468000013063F3471225F01F056946C0B28DF86B
:1046900008200395FCF7F6F910F1160F3FF444AF2C
:1046A000441C43E70000000000ED00E0E020002093
:1046B0007448042040200020DC200020B06E000060
:1046C0000020002040200020706E00007870042040
:1046D00073480420AAFF4400E1FF0F00AC6400000F
:1046E000001000500040005030470020B864000027
:1046F00078700420FD28000008B501F00CF958B1CD
:10470000584BD3F8202A3AB90D21C3F8201A0121B9
:10471000C3F81C19C3F81C290022D30003F57F033A
:10472000D3F80013013107D0D3F800130132D3F8C6
:104730000433202A0B60F0D101F0EDF8002840F09E
:10474000888001F0E8F840B1474B484AC3F830256B
:104750004FF050230122C3F858254FF47F03D3F8BC
:104760003021D3F83431072A06D1023B012B9EBFFA
:1047700000223F4BC3F84C2501F0CDF850B14FF06B
:104780005023D3F80024D10742BF0022C3F81421DC
:10479000C3F8182101F0CCF848B14FF05023D3F8FA
:1047A0000024D20744BF6FF00102C3F8002401F0D7
:1047B000B2F818B165222B4BC3F80C2701F0B8F8FA
:1047C000B0B12B4BD3F82034002B11DA4FF050232B
:1047D0000322C3F8182501229A60D3F80421002A85
:1047E000FBD00022C3F804210122DA60C3F81825A7
:1047F00000F056FFE8B17E221A4B1B49C3F80C2784
:10480000C3F83C297F231B4AC2F818310023C1F8A2
:10481000043EC1F8083E01F54821C1F81031C2F844
:104820002431C2F82C3102F5FF1202F58052C2F891
:10483000A032114AD2F88C3043F44063C2F88C3075
:104840000E4A0F4B1168C3F84415D269C3F84C25C2
:1048500008BD2922034BC3F80C270322C3F83C27C9
:104860006FE700BF00400050009003504400EFBECF
:10487000002003500020005000ED00E00080FF0009
:104880000060005030BFFFF7FDBF00BFEFF30880AE
:10489000EFF3098101B57246FFF7C0FC01BD00BF0F
:1048A000002080F31488BFF36F8F002080F30A8804
:1048B00080F30B880F4880F30888FFF71DFF002066
:1048C0000D490860BFF34F8FFFF77AFD202080F37A
:1048D00011880A484FF40061401880F30988EFF30B
:1048E00014800221084380F31488BFF36F8FFFF711
:1048F0008DFD00007870042094ED00E078700420B5
:104900001EF0040F0CBFEFF30880EFF309808169FC
:1049100011F8021C0229FFD001B5724601F0E6FB36
:1049200001BD00BF10B50A4C23681BB101232360F1
:10493000002010BD00F04EF80028F7D001380728FD
:1049400003D8044B53F8200010BD034810BD00BF2E
:104950004C47002074660000FE8FFFFFBFF34F8FAF
:104960000549064BCA6802F4E0621343CB60BFF30B
:104970004F8F00BFFDE700BF00ED00E00400FA0527
:1049800030B44FF0FE3200250B4B0C4C0C494968FB
:10499000C3F80024C3F80424C3F80824C3F80C2483
:1049A000C3F81024C3F81424C3F81824C3F81C2433
:1049B000C4F8005530BC0847005084500040845073
:1049C00054200020024BD0E90012C3E900127047C6
:1049D0005420002008B500F013F830B900F014F8A6
:1049E00028B9064AC2F80C0A08BD032008BD00F029
:1049F00009F800F043F8042008BD00BF00508450BF
:104A0000002070470020704710B5154800F05EF890
:104A100000B110BD134800F059F80028F9D1124C2C
:104A2000204600F053F80028F3D1104B10481C60CA
:104A300000F04CF80028ECD10E4800F047F80028B0
:104A4000E7D10D4800F042F801460028E1D100F01E
:104A500039F8044608B900F04DF8204610BD00BFF3
:104A600074200020702000206C2000206420002092
:104A700068200020602000205C20002008B50B4842
:104A800000F02EF80A4800F02BF80A4800F028F849
:104A9000094800F025F8094800F022F8084800F01D
:104AA0001FF8BDE8084000F00FB800BF74200020D8
:104AB000702000206C200020682000206020002052
:104AC0005C20002000207047704700BF08B5034BF2
:104AD00002681B6810689847002008BD8C200020E1
:104AE00008B5034B02685B6810689847002008BD52
:104AF0008C20002070B5094C094D2069AB6898479F
:104B000018B1084B08485B6898470021074AEB68D2
:104B100011602069BDE87040184700BF7820002070
:104B20008C20002054200020946600005047002074
:104B300010B5044650B1636813F0685F05D0064AAB
:104B4000934202D000236260236010BD034B0448EF
:104B50005B689847EFE700BF2C5F5CA954200020FA
:104B6000B4660000C8B143680D4A934213D013F0F5
:104B7000685F0ED0012350E8002F194640E8001C62
:104B80009CF0000FF7D1012AF5D0BFF35F8F002012
:104B9000704704487047044870476FF4E04070471E
:104BA0002C5F5CA9E98FFFFFEA8FFFFF034680B10E
:104BB000426809498A420AD012F0685F05D0BFF303
:104BC0005F8F002210461A607047044870470448FF
:104BD00070476FF4E04070472C5F5CA9E98FFFFFDE
:104BE000EA8FFFFF10B5044620B10023034A23607B
:104BF000626010BD0248FFF7C3FEF6E73A00003AD4
:104C0000DC660000F7B500290746164629DB8368F5
:104C10008B4226D97B68C068CC18836801AA5B697F
:104C200069469847002213460199481E019011B920
:104C30006FF0150017E00099486874B95542D1F833
:104C400000C0AC45E64628BFAE46AC450EFB00337F
:104C500072440AD808310091E6E7E51AB5FBF0F591
:104C6000EDE76FF0210003B0F0BD7A689B1AC6E94A
:104C700000300020F7E7002310B51C465AB29142DD
:104C800000DC10BD40F823400133F7E700231A464B
:104C900010B55CB2A14203DCB2FA82F0400910BD4B
:104CA00050F8234001332243F3E701234A1150F81F
:104CB000220001F01F018B40184070474B1E10B5B9
:104CC0005BB2041D1A0603D45A1E54F8221071B1A7
:104CD00001335BB24BB103F18042013A50F822201C
:104CE000B2FA82F2C2EB43139BB218B210BD134664
:104CF000E8E7002310B55CB2A24200DC10BD51F819
:104D0000234040F823400133F5E710B5013A52B291
:104D1000130601D5002010BD50F8224051F8223072
:104D20009C4205D802F1FF32F2D24FF0FF30F2E799
:104D30000120F0E7F0B5002406469C46204665B207
:104D4000AC4500DCF0BD51F8247052F824303D1A17
:104D5000ED1AAF4218BF002046F8245038BF40F08B
:104D600001000134EBE7F0B500240646204665B2A9
:104D7000AB4200DCF0BD51F8247052F824503D44A1
:104D80000544AF4218BF002046F8245088BF40F0C9
:104D900001000134EBE7002300EB8101884200D3DE
:104DA000704751F8042D43EA52030B60D307F5E72F
:104DB0002DE9F74F00273C463D464FFA87F99945C4
:104DC00016DB4FF0FF364FF0000806EB4306019666
:104DD000019F53FA88FE4FFA8EFEBE455FFA88F6B1
:104DE00028DB00EBC30040F8044C03B0BDE8F08FB3
:104DF0004FF0000EF04602EB870A51F82EC05AF829
:104E000004694FF0000BACFB066C36195CEB050C2B
:104E100028BF4FF0010B0EF1010E34464FFA8EF60B
:104E2000B1456546D844E8DA40F82740454664462F
:104E30000137C2E7A9460025013676B202EB8E0A99
:104E400077B2BB4205DC40F82E4008F101084C4621
:104E5000BEE76FF00307774351F826C05AF8077092
:104E60004FF0000BA7FB0C7C3F195CEB090C28BF33
:104E70004FF0010BE1463C465D440136E0E770B57A
:104E80009DF910601D4633460446FFF76CFF30B9AC
:104E9000324621462846FFF738FF012807D033461F
:104EA0002A4621462046BDE87040FFF743BF70BD4B
:104EB00070B59DF910601D4633460446FFF73AFF72
:104EC00038B133462A4621462046BDE87040FFF7F8
:104ED0004ABF70BD2DE9F04F1D46A7B006ABCDE926
:104EE00004310290294610469046FFF7E7FEC0EBDA
:104EF000851424B22146002CB8BF04F11F0163427F
:104F000003F01F0316AF384641F3471104F01F06A4
:104F100058BF5E42FFF7AFFE002E4FEA81002CDD46
:104F2000002213463844C6F1200E9D421AD80126AD
:104F3000AB00039307EB8503019305F1FF3826AB24
:104F40004FEA450903EB8808002C55DA26AB03EB42
:104F500086062A4656F8881C0298FFF7CAFE27B034
:104F6000BDE8F08F58F823C001330CFA06F10A436C
:104F700040F8042B2CFA0EF2D7E72A464146384473
:104F8000FFF7B7FED3E75AF8883C53F8212026AB49
:104F900003EB810353F8403C6344D31A34BF4FF012
:104FA000010B4FF0000B9A4204D0BBF1000C18BF6C
:104FB0004FF0010C5EF8882C013042F8213041B2EC
:104FC0004945E0DBA6EB0C035E42294638465E41CC
:104FD000FFF7E1FE039B294698336B4453F8402CBE
:104FE00058F8403C019843EAC273013C48F8403C01
:104FF00024B2FFF7D0FEA7E7002026AB86F0010E13
:10500000844603EB860A03EB8E0ED8E730B50546DF
:105010001C4691B0684693F90030FFF7C9FE694617
:105020002846D4F8AC30984711B030BD70B503684D
:10503000054613F00106144605D013460A460146FC
:10504000FFF791FE064621462846FFF7A4FE46B12B
:1050500004F18042013A55F8223043F0004345F80C
:10506000223070BDF0B50F460646A1B0194638464D
:1050700015461C46FFF70AFE28B1304621B0BDE8B0
:10508000F040FFF7F8BD224639466846FFF731FE8B
:10509000294608A8FFF72DFE10A82146FFF7EBFDD3
:1050A000012318A81093FFF7E6FD2246684608A9D9
:1050B000FFF72BFE30B92246304610A9FFF719FE44
:1050C00021B0F0BD009BDA0709D421466846FFF7FE
:1050D00062FE2246294610A8FFF7A8FFE5E7089BD5
:1050E000DB0707D4214608A8FFF755FE22462946CC
:1050F00018A8F1E7012823461CD108AA694668468A
:10510000FFF718FE21466846FFF745FE224618A91C
:1051100010A8FFF7FAFD013005D110A923462A4651
:105120000846FFF720FE10A92346084618AAFFF7F5
:1051300001FECEE76A4608A8FFF7FCFD214608A855
:10514000FFF729FE224610A918A8FFF7DEFD01305F
:1051500005D118A923462A460846FFF704FE18A9D8
:105160002346084610AAFFF7E5FDBFE72DE9F04703
:1051700093F900600446894692B0314610461546C0
:105180001F46FFF783FD002840F095803B464A46C6
:1051900049460AA8FFF73AFF3B4621460AAA02A859
:1051A000FFF734FF0AAA114610463B46FFF72EFFD1
:1051B0003B462A4649464846FFF728FF07F10408C0
:1051C0003B462A4629462846FFF720FF43462A4603
:1051D000214620460096FFF752FE43462A462946BE
:1051E00028460096FFF74BFE43462A4621462846AE
:1051F0000096FFF75DFE3B462A4621462046FFF714
:1052000005FF43462246214628460096FFF737FE13
:1052100043462A46214620460096FFF730FE236883
:10522000DB074BD53346424621462046FFF79BFD20
:10523000824631462046FFF7AEFD06F18043013B32
:1052400054F8232042EACA7244F823203B462246FF
:1052500021462846FFF7DAFE43462946284602AA99
:105260000096FFF725FE43462946284602AA0096E7
:10527000FFF71EFE02A9084643462A460096FFF79E
:1052800017FE3B462146204602AAFFF7BFFE0AAAA8
:105290004346104621460096FFF70AFE324629464D
:1052A0002046FFF726FD49462846FFF722FD4846DF
:1052B0000AA9FFF71EFD12B0BDE8F087314620466F
:1052C000FFF769FDC2E72DE9F0418AB004461546B3
:1052D0000E461C22002103A800F058FF032395F975
:1052E000008032463146204602932F1D2B46FFF7A1
:1052F0008DFE3B462146204602AACDF80080FFF7EE
:10530000D7FD2B46324621462046FFF77FFE3B461F
:1053100021462046CDF8008005F18402FFF7AFFD5D
:105320000AB0BDE8F081F0B51C46074615460E46AA
:1053300089B011466846FFF769FE23466A4639463A
:105340003846FFF763FE23462A4669466846FFF75C
:105350005DFE23466A4631463046FFF757FE09B0E8
:10536000F0BD2DE9F0478AB0DDF848A01446564656
:1053700080461D46894616F9047B0246334621467F
:1053800002A80097FFF794FD02AA53461146104663
:10539000FFF73CFE53464146404602AAFFF736FE61
:1053A00053462146204602AAFFF730FE33464A46BE
:1053B000294628460097FFF77BFD53462A46294693
:1053C00002A8FFF723FE02A933464246084600978B
:1053D000FFF76EFD02A93346224608460097FFF705
:1053E00067FD33464246214620460097FFF760FDA1
:1053F0005346224649464846FFF708FE3346414693
:10540000204602AA0097FFF753FD5346224629463D
:105410002846FFF7FBFD33464A46294628460097B3
:10542000FFF746FD3A46204602A9FFF762FC0AB0A4
:10543000BDE8F087F8B50E46D11C48BF911D144653
:1054400041F38701FFF717FC0025671E6AB2A242ED
:1054500005F1010500DBF8BDBB1A23F00301B25CC6
:1054600003F00303DB009A40435813434350EDE736
:10547000002070472DE9F84F9A46D37881466F2B6C
:105480000F461546A3F1410B2BD026D8582B14BF3D
:105490000A261026DDF82880324600234846394681
:1054A000FAF758FE092A08F1FF38D4B21ED8303472
:1054B000B145E4B277F1000788F8004001D3D04548
:1054C00011D82B789B0605D5082E15D1AB7843F063
:1054D0000803AB704046BDE8F88F03F0F703702B6C
:1054E000D5E70826D6E781460F46D5E7BBF1190F69
:1054F00094BF37345734DBE7102EEBD1AB7843F051
:105500001003E6E730B400258C68CB6004F0030498
:10551000032C14BF2C464C688D6014B1A44630BCDB
:10552000604730BC7047038B13F0070306D1036854
:10553000002B18BF032008BF00207047022B05D1A5
:10554000408BB0FA80F0400980007047012B04D1F5
:105550000368002B18BF0520EDE70020704710B44A
:10556000EFF31182202484F31288BFF36F8F41611F
:1055700010BC0121FBF722B9002930B404460DDB31
:10558000806888420AD9401A834207D8E068646874
:10559000214484682468A44630BC60476FF015003D
:1055A00030BC70472DE9F7430E461746994604462E
:1055B00028B94FF0FF38404603B0BDE8F08300291A
:1055C000F7D0002AF5D0CB680D8938461D44042356
:1055D00029460DEB0302FFF7CFFF80460028E8D1F4
:1055E00046F60812BDF804107389914225D1BDF822
:1055F00006109942DDD1042338460DEB03022944FD
:10560000FFF7BAFF0028D4D146F60713BDF80420EF
:105610009A42CED1C4E900679DF82830A4F80890DA
:10562000A3727389BDF806202B44E3607389134489
:105630002B44043563612561BDE7002BE4D0B8E756
:10564000002930B404460DDB806888420AD9401A2C
:10565000834207D8E0686468214484686468A4468B
:1056600030BC60476FF0150030BC7047FEE730B5C6
:105670000C684B6885B00A894D890094013B24F081
:105680001F04234402F01F0242EA451223F01F03C5
:1056900069468DF808200393FBF7F4F905B030BD97
:1056A0004FF47F03D3F83021D3F83401072A05D112
:1056B0000238022894BF0020012070470020704764
:1056C0000B464FF050220121C2F814160021184752
:1056D0000C220369C9B202FB0133986F00F0070086
:1056E000704770B50346C9B20069EFF311862024F4
:1056F00084F31288BFF36F8F0C2505FB0104A46FA0
:1057000014F0C00401D0A24210D1012205FB010017
:105710008267002086F31188BFF36F8F28B95B681A
:1057200003EBC1035B689847002070BD4FF0FF306A
:10573000F0E78022FFF7D5BFF8B5069F054604695C
:10574000C9B2EFF3118C202080F31288BFF36F8F62
:105750000C2606FB0146B06F00F0070EBEF1010FEC
:1057600011D1B76700268CF31188BFF36F8F46B94C
:105770000C2000FB0144C4E91C236B6853F8313052
:1057800098473046F8BD00F0C00087420CBF6FF06C
:1057900077064FF0FF36E6E713B580240094FFF755
:1057A000CBFF02B010BD6FF08500704710B41C2411
:1057B0000069CBB204FB0300002110BC104708B500
:1057C0000169FFF76DFF48B14FF05022D2F858350C
:1057D00003F003030B720123C2F858354FF0502336
:1057E0000022C3F8B8250720BDE80840FBF73CBA03
:1057F0004FF05021022310B5C1F8B8350469FFF706
:105800004FFF20B1237A03F00303C1F8583510BDD0
:1058100003695B680BB9FFF7D2BF704708B9012372
:105820000B7070474FF4000200230020C1E90023F1
:105830007047002809DBB0F5801F06D2C0F5801044
:1058400081428CBF002001207047002070474FF438
:10585000801200230020C1E90023704743689B6841
:105860000B60012313607047436800205B69C1E946
:105870000030704743685868704738B581B905698A
:10588000EFF31180202383F31288BFF36F8F1C4640
:105890002B7833B100232B7080F31188BFF36F8F07
:1058A00038BDFBF799FAEFF3118084F31288BFF348
:1058B0006F8FEDE738B515460C4671B1C068836847
:1058C0002544DB6898472146437911F8012B9A4219
:1058D00003D18D42F9D1012038BD0020FCE738B555
:1058E0000C460123114622460546FFF745FE0028D7
:1058F0000FDB012221462846FFF7DCFF18B1032306
:105900000020237038BD2378012B14BF022301230C
:10591000F6E70120F6E74FF47F03D3F83021D3F800
:105920003401022808BF072A0CBF0120002070475D
:105930004FF47F03D3F83001D3F83431C31F5842FA
:105940005841704703460020184738B54FF050249F
:105950000223C4F808330123E360002342F21075E8
:10596000C4F80431D4F80431D4F81834DB0304D576
:105970000120FBF779F9013DF6D138BDFFF7E5BF0E
:1059800008B5FFF78DFE60B14FF05023D3F8B8256E
:10599000920706D1D3F8580500F00300013818BF6C
:1059A000012008BD08B503695B682BB9FFF720FF2C
:1059B000BDE80840FBF780BB08BD70B504680D1B4F
:1059C000002D02DC6FF05F0070BD94F90060237859
:1059D000002E0ADB631C0360237813600368C91A76
:1059E00013688B42EED80020EEE703F07F035C1EC5
:1059F000032C0ED89D42E5DD002414600468013BB1
:105A0000013404605E1C1568E8D0247844EA05245B
:105A1000F3E76FF06300D7E770B404680E1B002E45
:105A200007DD26789E4208D10134046070BCFFF780
:105A3000C4BF6FF05F0070BC70476FF06100FAE7A1
:105A40001FB5002291420CBF0623042301A9CDE912
:105A5000012203928DF80430FBF78EFC002818BF5A
:105A60006FF0040005B05DF804FB7FB5FF238DF8EF
:105A700003300DF10303002201930123CDE902322B
:105A8000052303A98DF80C3001AB04920593FBF7B5
:105A900073FC08B99DF8030007B05DF804FB2DE91D
:105AA000F84307460D461646D0F804C0C1F30B0371
:105AB000002A61D0C2F30B0151EA03045CD1002D2E
:105AC0005ADBDCF82C30AA189A4255D8FFF7A0FE12
:105AD00021463846D7F80480FFF7B2FF002848D1A6
