:040000030000499917
:020000040000FA
:10000000883E002099490000E96100008549000010
:1000100085490000854900008549000085490000A8
:10002000000000000000000000000000F94900008E
:100030008549000000000000854900008549000056
:10004000810B0000810B0000810B0000810B000080
:10005000810B0000810B0000810B0000810B000070
:10006000810B0000810B0000810B0000810B000060
:10007000810B0000810B0000810B0000810B000050
:10008000810B0000810B0000810B0000810B000040
:10009000810B0000810B0000810B0000810B000030
:1000A000810B0000810B0000810B0000810B000020
:1000B000810B0000810B0000810B0000810B000010
:1000C000810B0000810B0000810B0000810B000000
:1000D000810B0000810B0000810B0000810B0000F0
:1000E000810B0000810B0000810B0000810B0000E0
:1000F000810B0000810B0000810B0000810B0000D0
:10010000810B0000810B0000810B0000810B0000BF
:10011000810B0000810B0000810B0000810B0000AF
:10012000810B0000810B0000810B0000810B00009F
:10013000810B0000810B0000810B0000810B00008F
:10014000810B0000810B0000810B0000810B00007F
:10015000810B000053B94AB9002908BF00281CBF11
:100160004FF0FF314FF0FF3000F00CB8ADF1080C4C
:100170006DE904CE00F008F8DDF804E0DDE90223C3
:1001800004B07047704700BF2DE9F0478C468E469B
:10019000089E154604461946002B40F0D080724553
:1001A00047D9B2FA82F74FB1C7F120030EFA07FC24
:1001B000BD40BC4020FA03F343EA0C0C4FEA154E55
:1001C000A8B2230CBCFBFEF80EFB18CC08FB00F910
:1001D00043EA0C43994528D9EB1808F1FF3204D2C1
:1001E000994502D9A8F102022B44A3EB0903A4B25A
:1001F000B3FBFEFC0EFB1C330CFB00F044EA034493
:10020000A04214D92C190CF1FF3304D2A04202D918
:10021000ACF102032C44241A43EA02401EB1FC4014
:10022000002334607360BDE8F0874246DDE7634633
:10023000F1E7002A79D0B2FA82F3002B3FD01946B9
:10024000C1F1200302FA01F500FA01F42EFA03F2DB
:100250000EFA01FE20FA03F3AFB243EA0E034FEAAF
:10026000154EB2FBFEFC0EFB1C201A0C0CFB07F813
:1002700042EA004290455AD9AA180CF1FF3004D244
:10028000904502D9ACF102002A44A2EB08029BB2CD
:10029000B2FBFEFC0EFB1C220CFB07F743EA0243F9
:1002A0009F4246D9EB180CF1FF3204D29F4202D98B
:1002B000ACF102022B44DB1B42EA004202E0AEEB4F
:1002C000020301224FEA154EAFB2200CB3FBFEFC35
:1002D0000EFB1C330CFB07F840EA034398452AD970
:1002E000EB180CF1FF3004D2984502D9ACF10200B2
:1002F0002B44A3EB0803A4B2B3FBFEFC0EFB1C33A0
:100300000CFB07F744EA0344A74216D92C190CF159
:10031000FF3304D2A74202D9ACF102032C44E41B00
:1003200043EA00400F46114678E71F2188E7604600
:10033000ABE76246BFE76046DBE76346EFE773453E
:1003400006D916B9002108466DE7C6E9000EF9E79F
:10035000B3FA83F787B9734501D3824207D8841A69
:100360006EEB030301209C461EB900215BE7384673
:10037000FAE7C6E9004CF8E7C7F1200CBB4000FAE9
:1003800007F422FA0CF520FA0CF1BA401D432EFABC
:100390000CF30EFA07FE4FEA154941EA0E011FFA67
:1003A00085FEB3FBF9F809FB18300B0C08FB0EFABD
:1003B00043EA00439A4540D9EB1808F1FF3004D2D4
:1003C0009A4502D9A8F102002B44A3EB0A0389B293
:1003D000B3FBF9F809FB183308FB0EFE41EA0341B1
:1003E0008E452CD9691808F1FF3304D28E4502D905
:1003F000A8F10203294443EA0040A1EB0E01A0FB4F
:1004000002984145CE46434602D306D14C4504D21C
:100410000138B9EB020E68EB0503002EA5D0B4EB52
:100420000E0261EB030101FA0CFC22FA07F3F9401A
:100430004CEA0303C6E9003197E74046C5E7434667
:10044000D9E700002DE9F74F9A4683688146994223
:100450000C46154677D25B1A934274D3002300935F
:10046000BAF1000F58D06A4604F048FC002864D165
:10047000DDF80080013DC3462C44344E344D354FE9
:100480006A4621464846CDF8008004F037FCDDF886
:100490000080002851D1B8F1000F4CDBD9F80830AA
:1004A000984548D2019CA3EB08039C4243D8D9F855
:1004B0000410D9F80C00414483689B68002B3FD09E
:1004C00022469847002838DBC6F80056C6F804567E
:1004D000C6F80856C6F80C56C6F81056C6F8145694
:1004E000C6F81856C6F81C56C7F80056C7F8045682
:1004F000C7F80856C7F80C56C7F81056C7F8145670
:10050000C7F81856C7F81C56BAF1000F0ED0C345ED
:1005100013D208F1FF34B3E7511E21446A4604F0B8
:10052000EDFB50B9DDF80080C346A6E744445C45C6
:1005300003D80134A4E76FF0150003B0BDE8F08FD5
:100540006FF05700F9E74FF0FF30F6E700800150F9
:100550003546526E009001500822F0B5002789B050
:1005600004F050FCCB6A0C4603930B6B06460493D5
:100570004B6B684605938B6BCDE901770693CB6B8C
:100580006946079313466A46009704F075FC3146A6
:100590000546304604F070FC216B05440391616B05
:1005A00068460491A16B0591E16BCDE90617694698
:1005B00004F062FC31460544304604F05DFC05441D
:1005C000206ACDE904770090606A03970190A06AE1
:1005D0000290A06B0690E06B0790304604F04CFC54
:1005E0000544606AD4F838C00090A06ACDF810C005
:1005F0000190E06AD4F83CC00290606BCDE905C080
:100600000390206A0790304604F036FC0544E06A07
:10061000CDE904770090206B03970190606B029006
:10062000206A0690A06A0790304604F00CFC236B09
:100630002D1A0093636B30460193A36B0293E36B17
:100640000393636A0693E36A0793082304F0FBFBB2
:10065000636B2D1A0093A36B30460193E36B0293F7
:10066000236A0393636A0493A36ACDE90537236B76
:100670000793082304F0E7FBA36B2D1A0093E36BA9
:100680003046CDE90137636A0393A36A0493E36AB2
:100690000593636B0793082304F0D5FB2D1A10D53F
:1006A0000823314630460C4A04F0E6FB2D18F7D4F7
:1006B00009B0F0BD082331463046074A04F0C3FBB9
:1006C0002D1A002DF6D108223146034804F0A6FB6E
:1006D0000128EFD1ECE700BFD86500002DE9F04F0D
:1006E000002503689DB003934368DFF8B891049335
:1006F0008368DDE903470593C36806930369DDE971
:1007000005AC0793436908938369DDE9072B0993D7
:10071000C3699E460A93099B009351F825600CAB70
:1007200096FA86F843F8258059F8046B4FEAF223CD
:1007300083EAB213464483EA72633344009E02EABA
:100740000B0826EA020686EA08063344734487EA61
:100750000A064FEA743E8EEAB40E264007EA0A08FB
:1007600086EA08068EEAB45E0135B644102D03EB26
:100770000C067344D446DDF800E040F084804A491A
:100780000B91294601350DF1700E05F00F0C0EEBA3
:100790008C0C5CF840CC01F00F094FEABC48CDF856
:1007A00004C088EAFC1801F10E0C0CF00F0C0EEBE3
:1007B0008C0C5CF840CC09314FEAFC4ECDF808C0F7
:1007C0008EEA7C4E01F00F010DF1700C0CEB8101F3
:1007D0000CEB890951F8401C59F840CC402D8C4451
:1007E000019988EAD1080299C4448EEA912EF44412
:1007F00006EA02084FEAF62E2BEA060181EA080112
:100800008EEAB61EDDF82C808EEA766E714458F8BA
:1008100004EF49F840CC71446144DDF800C04FEA70
:10082000733E614484EA070CCDF82C808EEAB30E47
:100830000CEA030C04EA07088EEAB35E8CEA080CA3
:10084000F4448C4401EB0A0ECDF800B0BA4622D134
:1008500003996144016004991944059B4160234454
:100860008360069B3B44C360079B73440361089B02
:1008700033444361099B134483610A9B5B44C36116
:100880001DB0BDE8F08FBA46CDF800B027469346BC
:100890001C46324641E79346274632461C4676467A
:1008A00063466EE7D464000010650000036803F03F
:1008B0001F025B09026004D0012B034818BF00200F
:1008C00070470248704700BF0028845000258450BC
:1008D0002DE9F047058B0446280717460CD501295A
:1008E0000CBF45F0100545F02005258387F31188DE
:1008F000BFF36F8FBDE8F087022905F0070540F0D0
:100900009480204604F098FE052864D801A353F88B
:1009100020F000BFED0800002B0A0000D7090000FE
:1009200099090000B3090000C509000001F00703A0
:100930005A1F012A1FD8002221F00701062BD4F8E4
:10094000008089B2C4E9002209D1434603E0628BEA
:10095000013262831B68002BF9D141F0020120466D
:10096000218304F069FE4FF0000900286DD041F0AA
:100970002001218369E0042B0AD121F0070189B20B
:100980002046218304F058FE10B141F0200121835C
:100990004FF00008C14658E02369D3F80090238B3C
:1009A00023F0070343F006034FF000082383464675
:1009B0004BE02369D3F80490238B23F0070343F023
:1009C0000403F1E72369D3F80890238B23F007038E
:1009D00043F00503E8E74FF00008C146E7E70122CE
:1009E00043F00803238387F31188BFF36F8F002A36
:1009F0003BD1B8F1000F4AD1B9F1000F02D0204627
:100A00002C49C847EFF31187202383F31288BFF3E3
:100A10006F8F238B23F008039BB22383D9063FD526
:100A200023F01002228303F007056669218B002E54
:100A3000BFF67CAF00239946D4F8008021F007016F
:100A4000C4E9003341F001012183238B03F0070A3D
:100A5000AA4502D0A268002AC1D1B8F1000F02D184
:100A6000B9F1000FDAD00022BAE7A1680029C0D09E
:100A70000D680029BDD03346524620464F68B8471E
:100A80001DB12B6829461D46F3E72B46FAE7414680
:100A9000334652462046D8F8008004F0BCFDA8E753
:100AA0009A067FF523AF23F02002228303F0070587
:100AB00027E700BF71560000002210B50C4B1C78D0
:100AC00084420FD00132052A03F11003F7D16FF0F1
:100AD000010010BDD2685078C00706D5107820B943
:100AE0000B60F6E7DA68002AF4D16FF01200F0E745
:100AF0001C640000002318460649D1F89020C2F378
:100B00000722934200DB7047C1F89830C1F8A0007B
:100B10000133F6E700ED00E0002807DB012341097F
:100B2000034A00F01F00834042F82130704700BFA5
:100B300000E100E000280CDB01220649430900F037
:100B40001F008240203341F82320BFF34F8FBFF3B3
:100B50006F8F704700E100E00028ACBF00F16040FB
:100B6000064B4FEA4111C9B2ABBF00F5614000F03E
:100B70000F0080F800131954704700BF14ED00E017
:100B8000EFF30583034A103B02EBC301496852F8B7
:100B900033000847386C000030B50F4AD2F8903067
:100BA000C3F30723013B984213D80C7A0B6864F314
:100BB00004031D46CB68640923F01F0343EA440382
:100BC00043F00103C2F89800C2F89C50C2F8A0306C
:100BD00030BD6FF01500FBE700ED00E04FF0FF3196
:100BE0003F22034B0020C3E90012024A1360704702
:100BF0002C15002028150020084B70B5C31A0D468F
:100C000007499B10044659434022064804F0BEFDA4
:100C10002B4601462046BDE8704018476C14002062
:100C2000B76DDBB6D0620000402373B50B4C009368
:100C3000041B0B460D460A49A41061430646094AA7
:100C4000094804F0CEFD014628B130462B4602B0DB
:100C5000BDE87040184702B070BD00BF6C140020A2
:100C6000B76DDBB657580000D0620000014B002082
:100C70001B6818475C140020014B09201B681847AB
:100C80005C140020014B1B68184700BF5C14002057
:100C9000014B08201B6818475C1400202B4A2DE9E3
:100CA000F041022106460520FFF756FF1379002B7D
:100CB00045D1274B136001231371264A117900296E
:100CC0003DD12549137111604FF050222349C2F8DC
:100CD00014350879002832D121480B710860214968
:100CE000C2F88035087950BB1F480B710860C2F804
:100CF00018351E4A117911BB1D4913711D4B116026
:100D00001B689B0602D40520FFF706FF00244FF066
:100D10001C08194F356908FB04539BB118461C2267
:100D2000002105F0ACFA0C2303FB045501231C44FD
:100D3000042C0761AB67EDD10020BDE8F0816FF0B6
:100D40000400FAE76FF01500F7E700BF5C1400201D
:100D5000CD150000641400206D0C00001815002053
:100D6000790C000020150020850C000010150020D3
:100D7000910C000000E100E0B0640000044B054A63
:100D80001B68B3FBF2F35843034B43F001031847CE
:100D90004800002040420F0090630000024B0B60AF
:100DA00001231360704700BFA8640000004870472B
:100DB000A0640000F8B50E461946304604F0B3FDB5
:100DC00030B346EA030414F0030421D10BB9002028
:100DD000F8BD01202146104D23F003031759C5F833
:100DE0008405C5F80405D5F808C41CF0010FFAD035
:100DF0003751BFF35F8F0434A342C5F88415C5F89B
:100E00000415EBD1044AD2F80034DB07FBD5DEE74A
:100E10006FF01500DCE700BF009003500B4670B583
:100E20001146184604F07FFD00B31A43C2F30B02CB
:100E3000E2B9B1F5805F01D2002070BD18460224EE
:100E40004FF0FF350B4B0144C3F88445C3F804450C
:100E50000560D3F80064F607FBD500F580508842A2
:100E6000C3F88425C3F80425EED1E5E76FF015003B
:100E7000E3E700BF00900350024B0B6001231360B7
:100E8000704700BF181400200048704798640000A5
:100E90004FF480714FF48052024B0020C3E90012DE
:100EA000704700BF181400200D4B1868010A000697
:100EB000BFF35F8F0B4BD3F80435181841F10001D5
:100EC000B3F5801F0AD2084BD3E90023904271EB9F
:100ED000030303D210F1807041F10001704700BF9D
:100EE0001414002000500150F80000202DE9F041BA
:100EF000064672B6002383F31188BFF36F8F052374
:100F00001C4FDFF874803D786C1CB4FBF3F303EBEB
:100F10008303E41AFFF7C8FF184A137823B158F87F
:100F20002430C31A072B1ED94FF05023D3F81411C5
:100F300051B10021E5B2C3F81411D3F814313D705A
:100F400014B9012325461370FFF7AEFF48F82500BA
:100F5000BFF34F8F20BF00BF00BF00BF00BF00BF67
:100F600000BF00BF00BF86F31188BFF36F8F62B66A
:100F7000BDE8F0818616002034150020851600207B
:100F80004FF0502310B5D3F818141E4C11F4803FC5
:100F9000D3F818241BD002F00302022A02D0012A3F
:100FA00012D101224FF05023C3F818250022C3F8B4
:100FB0000421D3F8042101229A602268A2B9D3F84F
:100FC0000421002AFBD017E004F027FDE9E7D3F85D
:100FD0001424D207E5D5D3F81C2402F00302013A09
:100FE000012AF1D822681AB10222C3F8042310BDE5
:100FF000D3F80421002AFBD00022C3F80421D3F83F
:101000000431F4E72015002070B5114D6C6BA4B1CC
:101010004FF47A735C430A23B4FBF3F40D4ED6F815
:1010200000316BB995F8393053B90A20FFF7A6FEA5
:10103000013CF4D16FF0730008E04CF25034EDE75E
:1010400095F8393003F0FF00002BF3D170BD00BFDD
:101050002014002000B0025010B500220124094BDA
:10106000C3F80045C3F800211C6008B9002010BD7A
:10107000FFF7CAFF18B9044B83F83840F6E76FF062
:101080007300F4E700B00250201400202DE9F04175
:1010900006461746984604F0DBFC002863D106F0AC
:1010A0006043B3F1005F61D1B3075FD1324C94F874
:1010B0003030012B05D043455BD194F83830002BFC
:1010C00057D000232D4AB8F1020F0BBFC2F810759C
:1010D000C2F80475C2F81465C2F808650CBFC2F8FE
:1010E0001815C2F80C1584F8393023680CBF082590
:1010F0000425C3B994F838306BB100221F4B05F1B9
:10110000A045C3F80021012305F52C352B60BDE86F
:10111000F041FFF779BF0120FFF79EFF10F1740F38
:10112000EBD1BDE8F081A36823B1E6606161E761BE
:101130000020F6E7114AA6602161A76184F830809B
:10114000C2F800310123C2F8043394F8382002F0C9
:10115000FF0012B9FFF780FFEAE705F1A04505F5AA
:101160002C352B60E4E74FF0FF30DAE76FF00C002E
:10117000D7E76FF00F00D4E72014002000B0025032
:10118000094B93F83020012A03BF002083F8380070
:10119000064B6FF00F0001BFC3F808231A61C3F8B4
:1011A0000005C3F8000170472014002000B0025071
:1011B00038B5054604F04CFCA8BB1E4B186818B1A6
:1011C00093F83020012A31D100221B4CC4F81C15A1
:1011D000C4F8205583F8392090B993F8383043B1DA
:1011E0000023C4F800310123E360BDE83840FFF775
:1011F0000BBF0120FFF730FF10F1740FF0D138BDA5
:10120000042183F83010C4F800210122C4F804231B
:1012100093F8383003F0FF001BB9FFF71DFF0020E3
:10122000EDE7E260FBE74FF0FF30E8E76FF00F001B
:10123000E5E700BF2014002000B00250124B70B54B
:1012400053F82050013053F82060AE4200D870BDF2
:101250006C68B4B1237EDB0711D4636953B12046B7
:10126000984738B10028B8BF4042FF28A8BFFF20E8
:10127000E3681870E268537843F00103537008354F
:10128000E3E72B689847FAE778640000084B9A6810
:101290005A621A699A629A69DA62DA689A6032B1B5
:1012A0005A691A61DA699A610022DA6070477047F8
:1012B0002014002010B5224BD3F8002192B1002257
:1012C000204CC3F8002194F8381094F8302071B9FC
:1012D0000121032A84F8381005D0042A05D0022AF7
:1012E00000D1996010BD5960FCE7D960FAE7032A84
:1012F00019D0042A19D0022A04D1012384F82030FD
:10130000FFF7C4FFA36813B9012384F8303094F8C1
:10131000393003F0FF0013B9D4E9003198470023B6
:1013200084F82030DEE70223E8E7032284F8202057
:10133000D3F81C256262D3F8203584F82830E1E721
:1013400000B00250201400200268154BFF2A08BF8D
:101350004FF0FF32C3F824254268FF2A08BF4FF040
:10136000FF32C3F828258268FF2A08BF4FF0FF32FA
:10137000C3F83025C268FF2A08BF4FF0FF32C3F818
:1013800034250269FF2A08BF4FF0FF32C3F8382521
:101390004269FF2A08BF4FF0FF32C3F83C2570476F
:1013A00000B0025030B58DB06C46184D0FCD0FC453
:1013B00095E8030084E8030015496846D1F8243510
:1013C000DBB20693D1F82835DBB20793D1F830357C
:1013D000DBB20893D1F83435DBB20993D1F8383554
:1013E000DBB20A93D1F83C35DBB20B93FFF7ACFFCD
:1013F0000023C1F8003101230B60D1F80031002B2C
:10140000FBD006A8FFF7A0FF0DB030BD7063000051
:1014100000B002502DE9F0471746002900F0A380E4
:101420004C68B4B3D4E900458B68A3B3D3E9006337
:1014300093B38DB39D4240F096800135092D00F2A3
:10144000928091F800A05FFA85F804F001FB002873
:1014500040F08C80DFF8209199F83000012840F0AE
:10146000888099F83830D3B10122444BC3F808235F
:1014700004F0C6FA08B1FFF795FF002C31D0A8F1AF
:101480000203072B2DD8DFE803F05C5A581F56548F
:1014900052122546C8E71E4601351D44CEE7FFF728
:1014A000DBFD7430E0D16FF07300BDE8F087E379C5
:1014B0001B06A27943EA0243627943EA02232279B6
:1014C00013432E4AC2F83C36E3781B06A27843EA5F
:1014D0000243627843EA022322781343274AC2F880
:1014E00038360024FF0347EA052789F8394047EAE0
:1014F0000A07DFF8889047F44057C9F80041C9F857
:101500003476FFF781FD7430CDD0C9F8004146B381
:10151000A8F10208D9F83C26D9F83836B8F1070FF7
:101520001FD8DFE808F01D1B19171614121000232E
:10153000BFE70023C0E70023C1E70023C6E700237D
:10154000C7E70023C8E7110EF171110CB171110A40
:10155000717132711A0EF2701A0CB2701A0A72702E
:1015600033700020A1E76FF015009EE74FF0FF30C9
:101570009BE76FF00F0098E72014002000B00250A6
:101580000C22104B014602FB0033002030B4D3E99B
:101590001C521867EFF31180202484F31288BFF3E4
:1015A0006F8F9C6F04F0C00444F002049C6780F3CA
:1015B0001188BFF36F8F1DB12B4630BC024818470E
:1015C00030BC70476C140020D0620000092813D88A
:1015D000DFE800F005101212121212120E0C074B67
:1015E000986F10F0070007D1FFF7CABF0220FBE792
:1015F0000320F9E70120F7E7704700BF6C140020D3
:101600002C232DE9F3411E4D0F4603FB0055EB68DB
:101610002E89D5F820801E440423314640460DEB28
:10162000030204F032F8044620B10124204602B03F
:10163000BDE8F08146F60813BDF804206D899A4292
:101640001AD1BDF806309D4201D00324EEE70423F1
:1016500040460DEB0302A91904F017F80028E4D165
:1016600046F60713BDF804209A42EED1BDF80630C5
:101670002B4433443B60D9E7002DF1D0E5E700BFB0
:10168000901300202DE9F84F0746884691469A4668
:101690000026234D234C0A9BB34201D8002010E0C2
:1016A0000A9B3846A3EB060BBBF5806F28BF4FF4AF
:1016B000806B1D4A5B4606EB090103F0E6FF10B1A3
:1016C0000120BDE8F88F5B464046174A06EB0A0149
:1016D00003F0FDFF0028F3D1144BC5F800465E442B
:1016E000C5F80446C5F80846C5F80C46C5F81046C6
:1016F000C5F81446C5F81846C5F81C46C3F8004698
:10170000C3F80446C3F80846C3F80C46C3F81046AD
:10171000C3F81446C3F81846C3F81C46BBE700BF1D
:10172000008001503546526E0C010020009001509F
:1017300037B5114B0446DD6D03F0DFFF854203D260
:10174000204603F0DAFF05464FF42E73A1686A467F
:101750003039204603FB151103F0D0FA10B10120F7
:1017600003B030BD0099A268521AF9D00123204677
:10177000FEF768FEC00FF3E790130020F7B5019065
:1017800001A81F461646FFF791F8019B9DF82040DF
:1017900000EB8300D0F80032064D24021D4044EADD
:1017A0008703194341EA46022A43C0F8002203B0E6
:1017B000F0BD00BFF0F0FCFFF7B51E4F05463E6AD6
:1017C000304603F09AFF4FF42E7358436B79FA6D4D
:1017D000012B12BFE82300231146B4682F79A4F12E
:1017E000300407F1FF3702FB074418BF5343A4EB53
:1017F00000041C442B6818BF5100013B304601FB1C
:10180000034403F07AFF0746304603F07DFF0822C9
:101810000146684604F033FD2B796A468DF80030A6
:1018200021463B46304603F052FF003818BF0120E6
:1018300003B0F0BD9013002030B5816885B0103939
:1018400021F00704054603F05FFF102201466846B9
:1018500004F015FD10226846064904F005FD10232A
:101860006A462146284603F032FF003818BF01209F
:1018700005B030BD2E6700004FF050230022C3F8A2
:101880002421D3F8242101221A62094A126822B1C4
:101890004FF40072C3F804237047D3F82421002AC0
:1018A000FBD00022C3F82421D3F82431704700BFB5
:1018B000181500204FF050230022C3F82021D3F840
:1018C000202101229A61094A126822B14FF48072E4
:1018D000C3F804237047D3F82021002AFBD000224C
:1018E000C3F82021D3F82031704700BF1015002025
:1018F00010B4EFF31180202282F31288BFF36F8FB0
:1019000022490B6843F0020413F001030C601AD063
:101910004FF05023D3F80C14D3F80C3413F0010318
:1019200011D0EFF3118182F31288BFF36F8F184A41
:10193000936F03F0C00343F00203936781F31188B0
:10194000BFF36F8F012380F31188BFF36F8F1BB13B
:10195000002010BCFFF714BE4FF05022C2F8003137
:10196000D2F8003101230B491360096819B1C2F89C
:10197000043310BC7047D2F80031002BFBD0002399
:10198000C2F80031D2F80031F3E700BF0C15002097
:101990006C1400206414002070B5EFF3118620232E
:1019A00083F31288BFF36F8F124A136823F002018A
:1019B00013F00103116018D14FF05024012242F2BC
:1019C0001075C4F808236260C4F80031D4F80031FF
:1019D000D4F80C24D4F80C34D20306D5DB0704D594
:1019E0000120FFF7CBF9013DF2D186F31188BFF357
:1019F0006F8F70BD0C1500202DE9F04F064643682F
:101A000093B05A6B5368117A03EBC101994205D820
:101A10006FF00104204613B0BDE8F08F587900281C
:101A200000F058820833F1E73B68C3F3C322082A69
:101A3000C3F3080400F24B825849895C40F2FF125C
:101A4000944208BF4FF0FF34B3F10C5F4FEA1362CA
:101A500015D2222A15D8DFE802F017262B3A2E35A8
:101A60003A14141414404B141414141414141414AD
:101A70004E84878A1414148D9295989B9E004E2A4A
:101A800028D06FF08504C5E7C5F80C45621C54D01A
:101A90000CA80C94FEF70AFF0C9B4FF0010A09FA00
:101AA00003F383603AE0C5F814454FF0000A1BE0E9
:101AB000C5F80845EAE74FF0000AC5F80845601C7C
:101AC00024D13AE04FF0010AC5F80C45F7E7C5F814
:101AD0001045EAE7C5F81445D8E7C5F808450029D8
:101AE000E3D14FF0000A0621631C26D0002016E047
:101AF000C5F80C45F3E7C5F860457B88621C03F028
:101B000001031AD0002BC3D14FF0010A0CA80C948A
:101B1000FEF7CCFE0C9B09FA03F3C36001203B687F
:101B200000911A0444BF00204FF0010A01465246BA
:101B30002046C3F34123FFF721FE0437B8457FF465
:101B400073AF02212B20164FFFF706F8304603F043
:101B5000B0FE97F83030756832691BB36FF07704C8
:101B60004DE1C5F86445C8E7C5F86845C5E7C5F85F
:101B70006C45C2E7C5F824454FF0010AB4E7C5F843
:101B8000284583E7C5F83045F6E7C5F83445F3E75F
:101B9000C5F83845F0E7C5F83C4577E72C6C000000
:101BA00020140020A14BC7E90032002D00F0BE80B8
:101BB00095F829401CB195F82A30002B61D169684D
:101BC000FF2900F07C81AA68FF2A00F07881EB6889
:101BD000FF2B00F0748128690E2840F070811129D4
:101BE00040F06D81122A40F06A810D2B40F0678130
:101BF0006B69FF2B02D00F2B40F06181AB69FF2B8B
:101C000002D0102B40F05B81ACBB4FF003082346A1
:101C1000012221461120CDF80080FFF7AFFDCDF85D
:101C20000080234601222146A868FFF7A7FDCDF8D2
:101C30000080234601222146E868FFF79FFDCDF88A
:101C400000802869234601222146FFF797FD686935
:101C5000FF2806D0234601222146CDF80080FFF759
:101C60008DFDA869FF2806D00323009300230122DD
:101C70001946FFF783FD95F82A3013B9281DFFF7A1
:101C800063FB6B6A6A4C7B6395F8293087F83A30BE
:101C900003F0B6FE20B10123C4F80833FFF782FB3E
:101CA0002B68C4F84035AB7F697F2A7F9B0143EAEC
:101CB000C1031343EA7F43EAC213C4F844354FF427
:101CC0007F03D3F83021D3F83431072A11D1022B06
:101CD0000FD095F82320D4F84435002A40F09A809C
:101CE00043F44033524AC2F844354FF4C063C2F85B
:101CF00040364F4995F82030D1F8002622F07F4237
:101D000022F0FF02134395F8212043EA026395F87D
:101D1000222043EA426395F8232043EA0273C1F884
:101D200000363B6813B12B20FEF7F6FEDFF804C146
:101D30004FF0000EBCE80F000CAC0FC49CE8030091
:101D4000AB234FF001090DF10C0BCDF80CE084E84A
:101D50000300CBE901EEC7E902EE8DF80C30344BFD
:101D600087F8309087F838E0D3F824250DF1300853
:101D7000D2B20692D3F828254046D2B20792D3F8C1
:101D80003025D2B20892D3F83425D2B20992D3F8D2
:101D90003825D2B20A92D3F83C35DBB20B93FFF769
:101DA000D3FA97F83830D3BB4846FFF755F9824647
:101DB0000DF118094846FFF7C7FABAF1000F31D103
:101DC000524659463046FFF725FB0446B8B9232052
:101DD000FEF7D4FF9F220323CDF830A04146C8F878
:101DE00004A030468DF8302052460793CDF818B045
:101DF000CDF83890FFF70EFB03230446E0B13046E0
:101E000003F070FD97F83030002B3FF403AEFFF77E
:101E1000B7F9FFE523F4003343F4803362E76FF052
:101E2000770AC5E76FF00404E9E700BF1159000025
:101E300000B00250706300001A46594605F13000A8
:101E400004F0EBF9044600283CD17268537F023B52
:101E5000012B32D9157F023D022D8CBF00250125B3
:101E6000304603F06AFE00282FDBC2B2C0F38010B8
:101E7000A842C4D0002382F04002ADF808308DF8AB
:101E8000082002AA069201220C934146C8F80830A5
:101E9000304607928DF83020CDF83490FFF7BAFA2B
:101EA00004460028ABD1304603F047FE041E01DB98
:101EB000E107F8D404EAE474A1E70125D0E76FF064
:101EC00015049CE76FF0120499E7044697E76FF05A
:101ED00015049FE51F6893F804804FF00109156809
:101EE00007EB88082AE600BF30B50D46816887B049
:101EF000102302AA1039044603F0C7FB002802DAB7
:101F0000012007B030BD1022204602A903F03DFD9C
:101F100000283FD11022204902A804F07EF90028B1
:101F20000CBF012302232B70A1680123183921F073
:101F3000070120460DF10702103903F0A6FB002827
:101F4000DEDB9DF80730204603F00F021B096A70A4
:101F50002B7101220DF1070103F017FD10B96B7809
:101F6000042B03D901236B7000232B71A268204638
:101F7000183A22F00702083AA91C03F018FD0028BD
:101F8000BED1A2682046183A22F00702E91C03F0ED
:101F90000EFDB6E70323C6E72E67000030B585B017
:101FA0006946012004F0EAF8002839D102A904208A
:101FB00004F0E4F8012808BF03234FF0000104BF38
:101FC0008DF808308DF80B309DF800009DF8084022
:101FD000204B1A78042A05D0052A23D1421E18BFA7
:101FE000012272B35A78042A05D0052A21D1621E33
:101FF00018BF01222AB39A78042A03D09DF803500F
:1020000095421ED1DA78042A03D09DF80B509542F0
:1020100017D11A79042A10D15879831E022B16D9A8
:10202000FF2014E0A2EB000CDCF1000242EB0C02FA
:10203000D7E7151B6A426A41DCE79DF802509542DA
:10204000EAD00131032903F10603C2D1012005B012
:1020500030BD00BF1A6C00001FB50A4B6A461C6AEF
:102060001023A1682046103903F00FFB38B9102265
:102070006846054904F0D1F8204604B010BD00249C
:10208000FAE700BF901300202E67000000222DE920
:10209000F04F8FB00446CDE90A2202F068FEDFF867
:1020A000FC9000283BD03E4DD9F80030AB4203D124
:1020B00010460BA9FFF7A4FAD9F82C30AB4203D194
:1020C00001200AA9FFF79CFADDE90A239A4284BF9E
:1020D00013460B92A360D9F8242052680292002282
:1020E000039202990A4403999342069101F1010176
:1020F0000391F6D8204602F03AFE10B34FF42E7248
:102100000021D9F85C30534303F13002D9F828306C
:10211000013B0298014491420AD2013BF9E7FFF7E3
:102120009BFF04F1080103F0C6FAA3680B93D2E702
:10213000039A934205D80123E37100200FB0BDE854
:10214000F08F6368174A03F0FF239342D9F8208089
:10215000D9F84CB017D12368012B14D158460CA9DB
:10216000FFF7C2FE9DF83030032B0CD15846FFF725
:10217000DFFA584603F029FF5846A16803F0FFFE36
:102180005846FFF759FB6379012B40F09980DDF841
:102190000CA0054D054F064E8CE000BF90130020AB
:1021A0003DB8F39600010004008001503546526EA0
:1021B00000900150C5F80076C5F80476C5F8087699
:1021C000C5F80C76C5F81076C5F81476C5F81876FB
:1021D000C5F81C76C6F80076C6F80476C6F8087608
:1021E000C6F80C76C6F81076C6F81476C6F81876D7
:1021F000C6F81C76069A23680232D21A524557D383
:10220000D9F82420012B116852F83A0002EBCA02D7
:1022100052F8082CA0EB0100A2EB010204900592F9
:102220002DD1E2680793022A26D04046FFF780FAB4
:10223000D9F84C000CA9FFF757FEE279012A0DD01E
:10224000D8F808108DF82720183921F007014046EA
:10225000079B0DF12702103903F065FE9DF833301E
:10226000012B02D1404603F0B0FE4046A16803F0C6
:1022700086FE4046FFF7E0FA5846FFF759FA00237A
:10228000029A04994046FEF7DDF8029B414600930E
:102290004046DDE90432FFF7F5F92046FFF78CFAF6
:1022A00023680133236018B1454A13680133136072
:1022B0000AF1FF3ABAF1000F7FF47CAF01232360EB
:1022C00002234FF0010A3F4E3F4D404F6371039B85
:1022D0009A453FF632AFC6F80056C6F80456C6F81F
:1022E0000856C6F80C56C6F81056C6F81456C6F866
:1022F0001856C6F81C56C7F80056C7F80456C7F853
:102300000856C7F80C56C7F81056C7F81456C7F841
:102310001856C7F81C56236853454ED8D9F82420C0
:102320004FEACA0352F83A10083B0691116805912A
:10233000D9F85010C8580968411A04912179012927
:1023400039D1D158059B029AC91A404600230791FA
:10235000FEF778F8029B0799049A009358460B46BB
:102360004146FFF78FF92046FFF726FA0223237133
:1023700018B1134A1368013313600023029A0499B9
:102380005846FEF75FF8DDE90512029B521A0093EA
:102390005946049B4046FFF775F92046FFF70CFAB3
:1023A0002368013323600123237130B1044A136889
:1023B0000133136001E00229DFD00AF1010A86E748
:1023C0000C050020008001503546526E00900150EF
:1023D0002DE9F7432F4E07460D460024B0464FF037
:1023E0002C091DB1284602F0C2FC08B1224643E088
:1023F000FFF732FE30B901200CB1002F31D003B00D
:10240000BDE8F08301A903F056F903460028F2D194
:10241000D8F82420019851681A460A44904203F1E2
:102420000103FAD86A79012A1DD1002CDED128686F
:102430002246984298BF214609FB0280202332465B
:10244000006A03F022F90028D5D11DB13268124B81
:102450009A421CD1631C022B4FF0010406F12C069A
:10246000BFD10020CBE7022AC0D12A68012A05D9B2
:102470009A42BBD884F001020021DDE7B6D124B135
:102480002A79023A18BF0122F6E72246D4E74FF034
:10249000FF30B1E7901300203DB8F3962DE9F04FDF
:1024A0000027ADF5477DCDE9050170220021A6A8E2
:1024B00003F0E5FE904C914B914DCDE9A643914B35
:1024C000914ECDE9A853914B059ACDE9AA63904B63
:1024D000904DAC9303F17453A3F52303A3F69243F9
:1024E000AD93059B52891B898B4C1344059A8B4EE7
:1024F000D2F80C909944B9452DD8A6A912A803F09A
:1025000006FC069BFBB1059B06981C89DB68A6AA06
:102510001C442146042303F0B8F8089098B946F605
:102520000812BDF89812059B91425B8967D1BDF8EE
:102530009A12994207D104230698A6AA214403F0CF
:10254000A4F800285DD04FF0FF33049304980DF5F4
:10255000477DBDE8F08FA9EB0708B8F5807F28BF5D
:102560004FF48078C5F80046C5F80446C5F808461B
:10257000C5F80C46C5F81046C5F81446C5F8184607
:10258000C5F81C46C6F80046C6F80446C6F8084614
:10259000C6F80C46C6F81046C6F81446C6F81846E3
:1025A000C6F81C46434639465D4A069803F06DF866
:1025B00082460028C7D1C346594BBBF1010B01D25B
:1025C000474498E7C09A511CC09113F8010B02F5DB
:1025D00046726A443F2902F8580CEED9B0A9A6A861
:1025E0000393FEF77BF8AE9AAF9912F5007241F1B2
:1025F0000001CDE9AE21039BCDF800A3DDE7002B60
:10260000A1D146F60713BDF898229A429BD1059BAB
:1026100044485B89C16D23440993099ABDF89A32F5
:1026200013444FF42E720A93436A5B6802FB013134
:102630005A422F311140826A406D013A5A43434356
:10264000521A5B1A9A4228BF1A460A9B93423FF6D7
:102650007AAF231D4FF0FF3403930494039B0A9A2F
:10266000934280F0D582059B5B892BB1039B099A2D
:10267000934204BF043303930423039906988AAA60
:1026800003F003F800287FF45EAF039ABDF8283208
:10269000111D099ABDF82A828A4209D84FF6FF75A2
:1026A000214830F8022BAA423FF44DAF9A42F8D1AC
:1026B000102B0AD0222B00F09B80012B36D0039ADE
:1026C00008F104031A440392C8E7B8F1200F7FF41D
:1026D0003AAF43460698A6AA02F0D7FF00287FF437
:1026E00032AF4246A6A912A803F097FD00287FF456
:1026F0002AAF01230893E2E767E6096A85AE67BB64
:1027000072F36E3C3AF54FA57F520E518C68059BD3
:10271000ABD9831F008001503546526E00900150A6
:10272000841500209013002010670000B8F1200FDE
:102730003FF609AF43460698A6AA02F0A6FF044654
:1027400000287FF400AF5A25014670228AA803F0C2
:1027500096FD1F4B1F4A2049CDE98A231F4B204875
:10276000CDE98C131F4B204ECDE98E031F4B909368
:1027700003F17453A3F52303A3F692439193A49B0F
:102780005A1CA49216F8011B03F546736B443F2AAA
:1027900003F8C81C0CD994A98AA8FDF79FFF929B47
:1027A000939A13F5007342F10002CDE99232A4949A
:1027B000013DE4D28AA97AA803F0A9FA4246A6A963
:1027C0007AA803F02AFD041E18BF0124644276E7AC
:1027D00085AE67BB67E6096A72F36E3C3AF54FA5B2
:1027E0007F520E518C68059BAE6B0000ABD9831FE6
:1027F000002C7FF464AFB8F1800F3FF6A4AE4346DF
:102800000698A6AA02F041FF00287FF49CAEC149B9
:102810000DAD0D913023284662AA5B3103F064F9B7
:10282000002840F0AD8113680D9E28461E443146B5
:1028300030236AAA03F058F9002840F0A1810D9FC7
:10284000F31B002B40F39C813B7828467A93136856
:102850007BAA1F44394606237AAC03F045F90028C9
:1028600040F08E810D9A6168A26053189F420D93CB
:1028700040F07381A84B0C2200211B688AA898475E
:10288000D4F80490B9F1070F40F07A814A46A34981
:10289000A06803F0C2FC002840F072818B9A082ADD
:1028A00040F06E819E498C9803F0B7FC002840F000
:1028B00067810DAF03233146384662AA03F014F94D
:1028C000002840F05D811368002B00F059810D9DB8
:1028D000591E11602A78002A40F052812B446A1C4C
:1028E0009E420D9240F04C81412940F04981A6ABB7
:1028F00003EB080623603146302320468AAA03F002
:10290000F3F8002840F03C817A9B8A9A0DF5F47B1D
:1029100013449E42C0F03481324659466AA803F0FF
:1029200044FA002840F02C813246594672A803F040
:102930003CFA0490002840F023816B78042B40F08F
:102940001F812022399061906990A91C584602F09D
:10295000FAFD5AAF202205F1220182A802F0F3FD10
:1029600062AC202238466AA902F0EDFD204672A929
:10297000202202F0E8FD0821384602F010FA002873
:1029800040F0FE80204602F00AFA0646002840F099
:10299000F7800A466348394602F040FA012840F0C1
:1029A000EF80082221465F4802F038FA01280B9098
:1029B00040F0E6802AAC0DF1680A0823594A204607
:1029C00002F0D9FB504608218AAD219602F0DCF9CD
:1029D000202212A902F0B7FD0823514628462246BC
:1029E00002F06FFA294650464E4A02F0FCFA0823DC
:1029F00039462846224602F064FA2946494A22A866
:102A000002F0F1FA0822484F5946284602F0FAF936
:102A100082A992A802F0F6F9394642A802F0F2F92A
:102A200007F120014AA802F0EDF929462046079255
:102A30000092A7F1400342AA02F0C3FAA7F14402B0
:102A4000009292AB2A464AA942A802F013FD214601
:102A50002046079BA7F1400202F08DFB2246A7F11A
:102A60004403284692A902F0E7FC07995046CDE9B5
:102A700010B5CDE90E6702F0AAF90799054622A81C
:102A800002F0A5F9A842B8BF284685B205F1FF3B80
:102A90000FFA8BFB5946504602F090F95946824690
:102AA00022A802F08BF9003818BF0120BAF1000A01
:102AB00018BF4FF0010A0EAB4AEA400A53F82A1039
:102AC000079A32A802F09EF920313AA802F09AF94A
:102AD0001146204602F058F90B9B023D2360A7F1F6
:102AE00040032DB20793002D50DA082321462046DB
:102AF0000E4A32AD02F03FFB224628460C4B3AA963
:102B000002F09AFC08222946064802F087F90128BB
:102B100015D00FE0AE6B00006C640000126C00007A
:102B2000096C0000F865000018660000D865000018
:102B3000D465000008232846384A02F084F95AA9CF
:102B400055F8293051F82920B9F1010983EA020327
:102B500046EA0306F4D2B6B112E0525C0DAD8A9299
:102B60000133394628468BAA0D9302F08EFF38B9FF
:102B70000D9B8B9A8C9313449F420D933FF480AE30
:102B80004FF0FF3304934FF0FF3498E5244B224677
:102B90003AA932A802F073FB29461AA802F00EF9EE
:102BA0002946074622A802F009F9031E18BF01238F
:102BB000381E18BF012040EA43000EAB53F8201026
:102BC00019B3082242A802F01DF94AA8203102F0E8
:102BD00019F901462246124B42A802F02DFC0823A7
:102BE00042AA009332A9079B52A802F0EAF90C4BC3
:102BF00032AA00934AA93AAB42A802F03BFC214614
:102C00002046074B52AA02F08AFA013D2DB26AE72C
:102C1000089B012B7FF497AC98E400BFF865000097
:102C2000D46500002DE9F0474FF02C0808FB00F8B0
:102C3000DFF89890454209EB0806376A05F02C0545
:102C40004D4404468A4604222946384602F09DFE39
:102C500010B93069C30613D554B13846FEF768FD84
:102C60009AF80730042B06D1D9F82000FEF760FD52
:102C70000120BDE8F087FFF791F90428F8D1F3E7C8
:102C800059F80820124B9A420AD0002CF0D0BA68AA
:102C9000002AEDD0002338461946FDF7D3FBE7E7BD
:102CA000F26833899B18F0D27289D218EDD2316A5A
:102CB0008B689A42E9D240F60C631842E5D1284667
:102CC000FFF7ECFB0028D4D0DFE700BF9013002013
:102CD0003DB8F3962DE9F7432D4BD3F80423910724
:102CE0000BD5D3F8042142B10022C3F80421294AAC
:102CF000D3F80431136801331360254CD4F804333E
:102D0000DA033FD5244BD3E8EF2F22F00101C3E8CB
:102D1000E01F0028F7D1D30702D4D4F840318BB399
:102D20000025C4F84051D4F84031FEF7BDF8EFF368
:102D30001182202383F31288BFF36F8F174BD3E9DF
:102D40000267B042B94120D3D3E900984FF0FF3079
:102D50004FF0FF311D60C3E902014FF48033C4F826
:102D60004833C4F84051D4F8403182F31188BFF39E
:102D70006F8FB9F1000F05D032463B460020CDF8E9
:102D80000080C84703B0BDE8F083A946EDE700BF67
:102D900000500150141400200C140020D800002012
:102DA00008B5034801F08AFEBDE8084001F036BED0
:102DB000906400004FF050232DE9F041D3F8042334
:102DC000D0070DD5D3F8002152B10022C3F800215D
:102DD000D3F800210122C3F80823334B1B6898471E
:102DE0004FF0502301250026D3F804432F4F04F061
:102DF00082045CBB4FF05023D3F8042391050DD51A
:102E0000D3F8242152B1C3F82441D3F824214FF43C
:102E10000072C3F80823264B1B6898474FF05023D5
:102E2000D3F80423D2053DD5D3F82021002A39D088
:102E30000022C3F82021D3F820214FF48072C3F878
:102E400008231C4BBDE8F0411B681847B4FA84F016
:102E5000C0F11F00830003F580739BB203F1502380
:102E600005FA00F2196892B224EA02040029C0D0DF
:102E70001E601B684FF05023022AC3F808230DD1AF
:102E8000D3F81814D3F8181401F00301012905D15F
:102E9000C3F81825C3F804239960AAE73B68C0B2B9
:102EA0009847A6E7BDE8F0816414002020150020B3
:102EB000181500201015002001222DE98048B54B7F
:102EC0008FB003201A70FEF7B9F90022B24BC3F895
:102ED000A821C3F8AC204FF48062C3F8B8254FF4A2
:102EE0000062C3F83C25D3F8A821002A22DBD3F8DE
:102EF000AC30002B1EDBA94B18680168D1B1B1FAC8
:102F000081F30122C3F11F039A4021EA0204D0E8B1
:102F1000EF5F8D4203D1C0E8E64F002EF7D1ECD130
:102F20009D4943F00043C1F8A831C1F8AC309C4B37
:102F3000C3F804250420FEF781F99A4D9A4BC3F893
:102F40000056C3F80456C3F80856C3F80C56C3F825
:102F50001056C3F81456C3F81856C3F81C5603F598
:102F60008053C3F80056C3F80456C3F80856C3F894
:102F70000C56C3F81056C3F81456C3F81856C3F8C5
:102F80001C568A4C60220021204603F078F901206B
:102F900004F12001FDF790FD98B9042004F14C01E3
:102FA000FDF78AFD68B9E826814A012002F5E86349
:102FB0000AA9626223650A9602F05CFE10B1012044
:102FC00056E1FEE70A9B0420226D0AA9A3620A9635
:102FD00002F050FE002800F0CC80012384F8583025
:102FE00000210846FFF7F4F90028E8D1A76A666DCA
:102FF000B74202D0731C9F42E1D1E82FDFD80023F3
:103000009846626A216D043204319E4240F0B880D5
:10301000236AD8688368DB689847B74205D9636A32
:1030200003EBC6035B684345C9D101230A9303F14F
:1030300001230B93002306A9206ACDE90C33FEF788
:1030400053FFE06C08A9FEF74FFF9DF81830012BE5
:1030500040F0B2809DF81A30032B40F0AD809DF80F
:103060002030012B00F0A8800223D4F820900D938B
:1030700099F80030012B40F0D1804FF42E7AE36DA7
:103080004846039302F039FB4FF0FF38D346D9F896
:103090000830454F303B0AFB1033464E0493C7F8C7
:1030A0000056C7F80456C7F80856C7F80C56C7F8B4
:1030B0001056C7F81456C7F81856C7F81C56C6F865
:1030C0000056C6F80456C6F80856C6F80C56C6F898
:1030D0001056C6F81456C6F81856C6F81C56049B67
:1030E0009DF80C10CDF808B00BF1FF3B1BFB013134
:1030F0004846012308AA02F0C8FA0028FFF65FAF8D
:103100000122484608A902F040FC20B9029BB8F110
:10311000FF3F08BF9846BAF1010AC0D1B8F1FF3F9E
:1031200009D0B8F1E70F7DDC08F101030A9340F202
:103130000113ADF82C30D9F808100123183921F00B
:103140000701484608AA103902F09FFA00287FF4C8
:1031500036AF0122484608A902F017FC10B101233E
:103160008DF820309DF8203003F00F038DF82F30BC
:1031700024E00A9B206A636502F0BFFAE0652FE74E
:1031800052F8338051F8330080457FF418AF013393
:103190003BE700BF8416002000A002502815002045
:1031A000007001503546526E00800150901300208F
:1031B000100500200090015000230D930AA801F093
:1031C000D6FD80F001000AA9C0B2FFF701F900287E
:1031D0007FF4F5AE0AA801F0CAFDC0BB0AA8FEF74D
:1031E00055FF9DF82F3084F85830033B012B05D84C
:1031F00002F0D5FF10B1FF2384F858309DF82F302E
:10320000023B022B05D802F0C9FE10B1FF2384F85F
:10321000583094F85830FF2B14D1FEE7042B3FF4BC
:103220002CAFCCE60223A8F1E8088DF82D304FEA48
:10323000680308F00108013308F101080A938DF8CA
:103240002C8078E700210846FFF7C2F8B7E69DF822
:103250002F60012E19D1FEF7A1FE831E022B054619
:1032600004D830460AA9FFF7DDFC00B92846C0B2F1
:10327000042884F858008DF82F0010D8012813D89E
:1032800022D0FF2384F858301EE001200AA9FFF75E
:10329000C9FC10B99DF82F00EAE70520E8E70528EA
:1032A000EFD102F07CFF0DE00AA8FEF7EFFE94F8E4
:1032B0005830DA1E012A0CD802F071FF0028E0D144
:1032C00002F06CFE0028DCD194F85830FF2B04D1BA
:1032D000FEE7023B012BF7D8F2E70021012B089112
:1032E0000DD100210846FFF79DFC054660B9089BFB
:1032F00001330893089B012B00F0BF80FEE70846CE
:10330000FFF766F80028ECD04FF0FF3510220021BF
:103310000AA802F0B4FF002D40F0B38040F215126D
:103320000126584BDFF86091C3F80026C3F8042645
:10333000C3F80826C3F80C26059A2389534C134476
:10334000C9F8003015206660FDF7F4FB4FF4001259
:103350004F4B2F46C4F80833C4F848334D4BDFF8C1
:1033600038A1C3F880214FF0FF334C4A5660C2F8B1
:103370004833C2F808336660C4F84833C4F80833E9
:103380004FF0FF385AF8044B0DF1280BC4F80883AE
:1033900044F30730FDF7CEFB6660C4F84C71D4F8F7
:1033A0004C31C4F81071D4F81031C4F84471D4F819
:1033B0004431C4F80075D4F80C350A93D4F81435A8
:1033C0000B93D4F808350C93D4F810350D93C4F84A
:1033D0000C85C4F81485C4F80885C4F810854FF02E
:1033E00000085BF8040B431C05D00023012219469A
:1033F0000093FEF7C3F908F10108B8F1040FF0D10A
:1034000080220021A01802F03AFF8022002104F55A
:10341000C07002F034FF6B1C022B4FF00105AFD1DE
:103420004FF0FF321E4BC3F808254FF050235E606B
:10343000C3F80823BFF36F8F72B60023154903F159
:1034400020000133102B41F82020F8D100234FF049
:10345000FF30104A03F160010133102B42F82100C4
:10346000F8D1FDF747FB002383F30B8883F30A8829
:103470000C4BD9F800009847FEE7236A5B68059378
:1034800044E7FEE700300050F013002000500150E8
:1034900003000F0000E100E07064000000400150F4
:1034A00000700150010000202DE9F74F4FF0010896
:1034B00008FA00F8164604461F466FEA0802DFF8CD
:1034C00034A1DAE8EF3F03EA0201CAE8E01F00286E
:1034D000F7D14FF48035DFF82091A540C9F80853A3
:1034E000BFF35F8FBFF36F8F08EA03030093FDF70D
:1034F000DBFCB04271EB07034BD2404B301A67EB59
:103500000101984271F1000171D23D4B03EB0413AC
:10351000D3E902239F4208BF964243D04FF0000BED
:1035200026F07F4EF446032004F150039B009BB22B
:1035300003F1502303F58033C9F84853C3F800B0B2
:103540001A6804F5A872019201992CF07F4249F89B
:1035500021206FF00202C9F84453D9F80415521A19
:103560006244DFF8A0C022F07F4262451AD91A688F
:103570005AB1D9F80415A1EB0E0222F07F42B2F540
:10358000000F0FD9C3F800B01A6800EB010C01302E
:10359000DAE71D4BD3E8EF1F41EA0801C3E8E21F59
:1035A000002AF7D1164919482301C850002001EB21
:1035B0000412C2E902675060009BABB1DAE8EF3F4A
:1035C00043EA0803CAE8E23F002AF7D10A4BC3F8EE
:1035D00004530D4BD3E8AF3FE340DB0742BF4FF44A
:1035E00000120B4BC3F8002103B0BDE8F08F6FF061
:1035F0001500E1E708140020005001500100800090
:10360000D8000020FDFF7F000C14002015360000BC
:1036100000E100E02DE9F843384922F07F45D1E987
:103620000063921B140A22F0FF02921943F1000377
:10363000C1E90023A5F50011B1F5400F0AD23049C8
:1036400009684FEA112C09064E192E494CF1000762
:10365000C1E9006712F5807243F10003FFF724FF10
:103660002346EFF31181202282F31288BFF36F8F7C
:10367000DFF89480254FD8F80000254D404508BF5D
:103680000020DFF890903C60D5E9002620B1C468A6
:103690009C420EDDE41AC4609A1846EBE3760023E0
:1036A000C5E900263B6081F31188BFF36F8FBDE849
:1036B000F883A21846EBE476C5E90026D0E900328B
:1036C00013605A600023C0F80C90C0E9003381F306
:1036D0001188BFF36F8F83689847EFF31181202320
:1036E00083F31288BFF36F8F3B68D8F800001B1B71
:1036F000404508BF00203B60C6E700BFF000002047
:1037000014140020F80000204000002010140020B5
:10371000E8000020010000802DE9F0414FF0FF306B
:1037200000264FF0FF315E4C5E4B4FF40012C4F8A0
:103730000833C4F848335C4BC4F80865C3E9020198
:103740004FF4803302210125C4F80433574BC4F8E9
:1037500004131520C3F88021FDF7FEF91520FDF7AD
:10376000DBF9534BA5604FF48072256030461D6035
:103770000023FFF799FE4F4BD3E8EF2FC3E8E15F3B
:103780000029F9D1002A3ED14B4B9D6099685A60BF
:1037900001F00301A942DA6035D1DA609A68032AA0
:1037A00031D8EFF31184202282F31288BFF36F8F98
:1037B0004FF6FF754149888E00F00702C88EA84277
:1037C00035D0062A33D8DFE802F012320432123242
:1037D000120001230130C88684F31188BFF36F8F74
:1037E0008BB100233449364801F015FF0BE000206F
:1037F0001860086AC0B9C1E90733C2B9224602217C
:103800002F48FDF765F8EFF3058595B1EFF31186C5
:10381000202383F31288BFF36F8F01254FF05024CC
:103820004FF00008214F25E003600B62E5E700231D
:10383000D2E7244B1B78002BE8D04FF05023022214
:103840002E46C3F80823E9E73046FDF74FFBD4F8CE
:103850001835DBB2012B0DD1D4F8042152B1C4F8D4
:103860000481D4F804210222C4F818252022C7F8C4
:103870008021A360D4F81824D4F81834D203E3D5F7
:1038800003F00303022BDFD135B186F31188BFF3B8
:103890006F8F0020BDE8F081C4F80433F9E700BF62
:1038A0000050015003000F00D800002000E100E0AC
:1038B0000814002004140020F41300206C140020CD
:1038C00088140020841600202DE9F04F8B46914685
:1038D0001C46002595B0029099F8000008B92846CA
:1038E00043E225280CD05946029B98470028C0F295
:1038F0003C8209F1010301350493DDF81090EBE7F8
:10390000182200210EA802F0BAFC99F801A0BAF121
:10391000250F53D00022964694461746164609F1C5
:103920000100014610F8013B2B2B75D06ED8202BDF
:1039300074D0232B75D02AB19DF8402042F040026C
:103940008DF84020BEF1000F05D09DF8402042F0D8
:1039500020028DF84020BCF1000F05D09DF84020DA
:1039600042F010028DF840202FB19DF8402042F027
:1039700008028DF840202EB19DF8402042F004024C
:103980008DF840209DF8402002F04400442803D1E7
:1039900022F040028DF840209DF840202A2B42F072
:1039A00080028DF8402040F0A5809DF841204B1CFE
:1039B00042F001028DF8412000274BE04FF0000853
:1039C000474609F1020304939DF84120D60740F1D0
:1039D000498154F8047B002F06DA9DF840107F429D
:1039E00041F004018DF84010500740F1428154F835
:1039F000048BB8F1000F80F23F819DF8412022F046
:103A000002028DF841204FF0FF3835E12D2B0BD00D
:103A1000302B90D1012284E7012782E74FF0010C7F
:103A20007FE74FF0010E7CE701267AE713460CFB97
:103A30000707303F1A4612F8010BA0F13006092E95
:103A4000F4D99942B8D09DF84020F90F61F34102B2
:103A50008DF840201A782E2A0CBF012100219DF8F4
:103A6000412061F341028DF841204FD15A782A2A32
:103A700045D04FF000080A2601331A4612F8011B00
:103A8000A1F13000092844D99DF84020C2F340013B
:103A900041EAD87161F341028DF840201A786C2A0E
:103AA00058D03CD8682A42D06A2A5CD04C2A62D0CE
:103AB00013F801AB9DF84120BAF1780F049311D8A7
:103AC000BAF16D0F64D8BAF1690F0BD8BAF1570F7C
:103AD0007CD8BAF1410F00F0AF80AAF14502022A6A
:103AE00040F2AA809DF8402042F001028DF840206B
:103AF000002295E00B4600274FF00A0C9AE79DF84C
:103B00004120023342F004028DF841204FF00008BA
:103B1000C4E706FB08181346A8F13008ADE7742A7D
:103B200025D07A2AC4D106219DF841200CE05A788C
:103B3000682A9DF8412006D1012161F3C6028DF863
:103B400041200233B4E7022161F3C6028DF841201F
:103B50000133ADE75A786C2A9DF8412001D1042148
:103B6000EBE70321F0E705219DF84120ECE7072171
:103B70009DF84120E8E7BDF8402022F4F04222F011
:103B8000020242F4804242F00202ADF84020DFE738
:103B90000121AAF16E00C0B2814040F28240014290
:103BA00025D111F0240F50D1CB079BD503209DF8D0
:103BB000421002F07802A2F1400C60F30201DCF145
:103BC00000028DF8421042EB0C0229E00120AAF11C
:103BD0005801C9B200FA01F111F4624F2CD111F46D
:103BE000043F27D140F6010001423FF47BAF0221A0
:103BF0009DF8420002F07802402A61F3020008BFFB
:103C00009DF840108DF8420004BF41F001018DF88D
:103C10004010003A18BF0122BAF1630F18BF00220A
:103C20009DF84010C1F34000024362F341018DF85A
:103C30004010C9E60146DBE704219DF8422061F30C
:103C400002028DF842200122EAE703209DF842108B
:103C500002F0780260F30201003A18BF01228DF8E9
:103C60004210DDE79DF940100029A8BF4FF0FF3753
:103C7000BAE691077FF5C7AE9DF842109DF8412046
:103C800001F007010139C2F3C302032952D8DFE86A
:103C900001F0022A6149D11E042904D8DFE801F0AD
:103CA000190F0F191900012A54F8041B15D0022A04
:103CB00015BF084608B2C11741F3C03110E0E01D3E
:103CC00020F007000446406854F8081BCDE90E10A8
:103CD00030E054F8041BC817F8E748B241F3C011AC
:103CE000CDE90E0126E0D11E042904D8DFE801F059
:103CF000130B0B131300012A54F8041B0FD0022AD4
:103D000008BF89B20CE0E11D21F007010C464968AB
:103D100054F8080BE4E7002154F8040BE0E7C9B2BB
:103D20000020D3E7073424F00704D4E90001CDE9EB
:103D30000E0108349DF8401011F0030618D04E46CD
:103D4000049BB3420AD8A6EB0906002E30460CDBD2
:103D50003544D2E554F8041B0E91EBE7594616F8AA
:103D6000010B029B98470028EADA15B0BDE8F08FF6
:103D7000BAF1780F3FF6C1ADBAF1620F18D8BAF1B7
:103D8000250F49D0BAF1580F7FF4B7ADDDE90E0128
:103D90000DF13603009310AA08AB8DF843A001F093
:103DA000F2FB119B81469DF843A0129A039398E081
:103DB000AAF1630015283FF6A0AD01A656F820F041
:103DC000133F00002D3F0000FB380000FB380000CF
:103DD000FB380000FB3800002D3F0000FB380000DE
:103DE000FB380000FB380000FB380000573F0000A4
:103DF000533F0000AD3E0000FB380000FB380000E0
:103E0000293E0000FB380000533F0000FB38000053
:103E1000FB380000533F000059465046029B98472C
:103E20000028A2DB013568E5B8F1000FDDF8389015
:103E300034DB002019F800200AB180452CD100267F
:103E4000324609EB0003059303969DF8421011F0EA
:103E50001003069300F09C800230039B490618442F
:103E600048BF8018002F40F3A8809DF840203F1ADB
:103E70005307C2F3800800F1A080500640F1C180D2
:103E800046B159463046029B98470028FFF66DAF71
:103E9000464601353022B5E00130CBE7484602F016
:103EA000B5F9B9F1000F3FF428ADC8E70E98002826
:103EB00065D070238DF843300DF13603009310AABE
:103EC00008AB002101F05FFB002681464FF0780A25
:103ED000119B129A03939DF8423043F010038DF822
:103EE00042300DF13600B8F1000FA0EB09000ADBFB
:103EF0009DF84010804521F040018DF8401002D916
:103F0000A8EB0003039306B101300DF136030593CE
:103F10009BE700260E9A0DF121038DF82020012049
:103F20003246039605930DF120098EE70A075DBF1F
:103F3000C1F300114901CEB22B26DDE90E12002A91
:103F4000BFF624AF494262EB42022D26CDE90E12A4
:103F50001CE700261AE70E9B072A3FF6CEACDFE8E7
:103F600002F00C04060C08080C0C1D70C5E41D8042
:103F7000C3E4EA17C3E90052BFE41D60BDE4384B57
:103F800006460246039005930520A3F105095CE768
:103F90000B0748BF013060E7104607925946029B65
:103FA00098470028079AFFF6E0AE4146002908F13D
:103FB000FF38F1DC3D4447466D1A3EB15946304664
:103FC000029B98470028FFF6D0AE01359DF84220AD
:103FD000D10601D4130707D559463020029B9847D4
:103FE0000028FFF6C2AE0135069B3BB1594650464C
:103FF000029B98470028FFF6B8AE0135039E2E4479
:104000000AE02022B846D0E759463020029B984764
:104010000028FFF6AAAE0135731B002BF4DC4E46D8
:10402000059BB34214D8A6EB0906002E3046FFF6D6
:104030009CAE35442F447B1B002B7FF75EAC59466A
:104040002020029B98470028FFF68FAE0135F2E74B
:10405000594616F8010B029B98470028E0DA84E6DF
:10406000436700000FB41FB506AB53F8042B03934E
:10407000002104480091FFF727FC05B05DF804EB30
:1040800004B070478355000005460C4608B599B149
:10409000D1E9012313480968FFF7E4FFD4E90423B9
:1040A000E1681148FFF7DEFFE1691048FFF7DAFF2A
:1040B000A1690F48FFF7D6FF012D05D1EFF3058168
:1040C0000C481039FFF7CEFFEFF31183202383F361
:1040D0001288BFF36F8FEFF3118283F31288BFF35F
:1040E0006F8FFEE74467000074670000A46700005C
:1040F000B4670000E367000070B5264C26480E4602
:104100001546FFF7AFFFA36AD80640D52348FFF74F
:10411000A9FF1120A36A190703D52148FFF7A2FFC1
:1041200012201C4CA36A9A070FD51E48FFF79AFF6E
:10413000616BA36A1B0607D51B48FFF793FF1EB1EF
:10414000A36A23F08003A3621320124CA36ADE0744
:1041500003D51648FFF786FF1420A36A9C0603D5F3
:104160001348FFF77FFF15200A4B9A6AD10658BF04
:104170009A6A9A6A920642BF5A6A22F400525A62B6
:104180009A6A42F0FF029A6200232B7070BD1020E1
:10419000C0E700BF00ED00E0F76700000E68000018
:1041A00042680000566800006F68000086680000E2
:1041B000A668000070B5244C24480E461546FFF74B
:1041C00051FFA36AD90435D52148FFF74BFF1720CB
:1041D000A36A1A0503D51F48FFF744FF18201A4C9D
:1041E000A36A9B050FD51C48FFF73CFFA16BA36A90
:1041F000180407D51948FFF735FF1EB1A36A23F449
:104200000043A3621920104CA36A590503D5144832
:10421000FFF728FF1A20A36ADA050DD51148FFF72A
:1042200021FF1B20084A936A43F47F4393620023D3
:104230002B7070BD1620CBE7A36A9B04F2D50A4809
:10424000FFF710FF1C20EDE700ED00E0D66800004E
:10425000ED68000042680000FF6800001969000076
:104260002F6900004B690000A668000010B5204CC3
:104270002048FFF7F7FEA36A990137D51E48FFF7DC
:10428000F1FE1E20A36ADA0103D51C48FFF7EAFEFF
:104290001F20174CA36ADB0203D51948FFF7E2FE83
:1042A0000220A36A1C0303D51648FFF7DBFE21207A
:1042B0000F4CA36A590303D51348FFF7D3FE2220FE
:1042C000A36A9A0303D51148FFF7CCFE2320084CBC
:1042D000A36ADB0303D50E48FFF7C4FE2420A36ABC
:1042E0006FEA03436FEA1343A36210BD1D20C9E7C1
:1042F00000ED00E0646900007D6900009169000044
:10430000AC690000D7690000F66900001C6A000073
:10431000376A00002DE9F0415C4B05465F680026D6
:104320008AB0C7F3080486F31188BFF36F8F02F0D9
:104330007F43B3F17F4F06D102F00C03082B13D15A
:104340005348FFF78FFE002635464FF00008E31E66
:104350008DF80780092B00F28680DFE803F00A7AE7
:104360007E7584848484848210074CBF0D460126A8
:10437000EBE74848454CFFF775FE8DF80780E36A88
:104380009A0704D54448FFF76DFE00242AE0E36A4B
:10439000002B01DA4148F6E7E36A5B00F5D54048B7
:1043A000FFF760FE6369AA6943F480736361BFF33A
:1043B0004F8FBFF36F8F32F8023C626922F4807234
:1043C0006261BFF34F8FBFF36F8F03F47F42B2F58B
:1043D0005F4F1FD1DBB2022B1CD129683148FFF798
:1043E00041FE2C689DF80730002B4BD12022294636
:1043F00002A801F039FF099B002E40D0C3F3080248
:1044000022B96FEA53236FEA43230993204602A996
:10441000FFF73AFE1D4B9A6AD2B232B101210DF17B
:1044200007022846FFF768FE11E09A6A12F47F4FF0
:1044300006D001210DF107022846FFF7BBFE06E07A
:104440009B6AB3F5803FA0D32846FFF70FFF0446D1
:10445000C8E700210DF10702E3E700210DF1070293
:10446000EAE711488FE7114B17F4F87F104911481C
:1044700008BF1946A4F11002FFF7F4FD85E76FF3BA
:104480000803C2E70AB0BDE8F08100BF00ED00E01C
:10449000916A0000BD6A0000D56A0000F76A00005A
:1044A000066B0000266B0000436B0000636A00008F
:1044B000786A0000686B000010B572B6002484F3BF
:1044C0001388FCF717FB23464FF0FF300C4A03F12B
:1044D00020010133102B42F82100F8D100234FF0C6
:1044E000FF30074A03F160010133102B42F821002D
:1044F000F8D162B6BFF34F8FBFF36F8F10BD00BF0F
:1045000000E100E08FB5A54AA54B22F07F029A603A
:10451000BFF34F8FBFF36F8FD3F88820A14822F4E9
:104520007002C3F88820A04A0021121A01F0A7FEE9
:104530009E489F4A9F49121A01F096FE9E489F4A44
:104540009F49121A01F090FE002250B2012101325F
:10455000FCF702FB452AF8D10020FCF76FFE994BCF
:1045600003F5006282F3088883F30A880021E022C1
:104570008B4B954E83F82220D97719765976997608
:1045800083F820105A6A42F4E0225A6283F823101A
:104590005A6942F010025A615A6942F480625A61C3
:1045A0005A6922F008025A6110221A614FF0FF3254
:1045B0009A62DA62D3F8902012F47E4F29D0BFF3CA
:1045C0005F8F824AC3F89410C3F8C020022280484B
:1045D000C3F89810C3F89C20C3F8A0000120C3F8CA
:1045E000980000F10050C3F89C0000F5DF2000F2B5
:1045F000E270C3F8A0003270D3F89000C0F3072037
:1046000082424BDB0522C3F89420BFF34F8FBFF3E8
:104610006F8F704934784D6820461DB11F2D55D8D5
:104620006FF015043470022501246B4B6B49C3F8FD
:1046300000450020C1F8D05601F009FB204601F0EA
:1046400006FBC1F804471C22C1F804496448C1F8BC
:10465000004B002101F013FE624B614A20461361BA
:10466000FCF7ECFD2846FCF7E9FD002383F30B88FB
:104670005D4C5E4DA4F5205686F30B8884F30988C3
:10468000002004498847184619461A46A847024898
:104690008047FEE7ED610000FB610000C3F8982051
:1046A000C3F8A0100132A7E7C7F89880D7F89C306C
:1046B00063F30405C7F89C5001F02EF868E0D1457B
:1046C000F2D15FFA88F001F027F8ABE7EF06A7D147
:1046D0000B68DA06A4D143E800F21D4412F4803FCF
:1046E0005FFA82F805F1FF3A08BF6FF015084AE853
:1046F00000F2D7B2D20393D5B84591D1A0458FDA55
:10470000274FC7F89880D7F89C20C7F89880D7F82B
:10471000A09022F01F02934249F01F09CFD0013B25
:10472000C7F8988023F01F02D7F8A030D14503F0D6
:104730001F0343EA02032046C7F8A030BCD000F0B4
:10474000EBFF10F1160F3FF46BAFC7F89880D7F866
:104750009C209DF8083009F1FF3962F304038DF8BD
:104760000830D7F8A030009525F01F059DF80820E7
:104770004D445B08A5EB0A05013063F3471225F0B1
:104780001F056946C0B28DF808200395FCF704FAAE
:1047900010F1160F3FF444AF441C43E70000000043
:1047A00000ED00E0D8000020881600204000002026
:1047B000D4000020A06E0000000000204000002077
:1047C000606E0000883E002087160020AAFF44008B
:1047D000E1FF0F00BC6400000010005000400050DA
:1047E00048150020C8640000883E0020B92E000053
:1047F00008B501F0F8F858B1584BD3F8202A3AB967
:104800000D21C3F8201A0121C3F81C19C3F81C2973
:104810000022D30003F57F03D3F80013013107D042
:10482000D3F800130132D3F80433202A0B60F0D1FF
:1048300001F0D9F8002840F0888001F0D4F840B1A8
:10484000474B484AC3F830254FF050230122C3F8A4
:1048500058254FF47F03D3F83021D3F83431072A99
:1048600006D1023B012B9EBF00223F4BC3F84C25D3
:1048700001F0B9F850B14FF05023D3F80024D1071C
:1048800042BF0022C3F81421C3F8182101F0B8F880
:1048900048B14FF05023D3F80024D20744BF6FF043
:1048A0000102C3F8002401F09EF818B165222B4BD9
:1048B000C3F80C2701F0A4F8B0B12B4BD3F8203487
:1048C000002B11DA4FF050230322C3F818250122E0
:1048D0009A60D3F80421002AFBD00022C3F80421F7
:1048E0000122DA60C3F8182500F02FFFE8B17E221C
:1048F0001A4B1B49C3F80C27C3F83C297F231B4ADA
:10490000C2F818310023C1F8043EC1F8083E01F591
:104910004821C1F81031C2F82431C2F82C3102F517
:10492000FF1202F58052C2F8A032114AD2F88C3040
:1049300043F44063C2F88C300E4A0F4B1168C3F841
:104940004415D269C3F84C2508BD2922034BC3F88E
:104950000C270322C3F83C276FE700BF004000503C
:10496000009003504400EFBE002003500020005090
:1049700000ED00E00080FF000060005030BFFFF756
:10498000FDBF00BFEFF30880EFF3098101B5724668
:10499000FFF7C0FC01BD00BF002080F31488BFF307
:1049A0006F8F002080F30A8880F30B880F4880F314
:1049B0000888FFF71DFF00200D490860BFF34F8FE7
:1049C000FFF77AFD202080F311880A484FF4006138
:1049D000401880F30988EFF314800221084380F324
:1049E0001488BFF36F8FFFF78DFD0000883E002015
:1049F00094ED00E0883E00201EF0040F0CBFEFF3A2
:104A00000880EFF30980816911F8021C0229FFD0A8
:104A100001B5724601F0E3FB01BD00BF10B50A4CC1
:104A200023681BB101232360002010BD00F04EF865
:104A30000028F7D00138072803D8044B53F820008A
:104A400010BD034810BD00BF64150020846600003F
:104A5000FE8FFFFFBFF34F8F0549064BCA6802F474
:104A6000E0621343CB60BFF34F8F00BFFDE700BF91
:104A700000ED00E00400FA0530B44FF0FE320025EE
:104A80000B4B0C4C0C494968C3F80024C3F80424B0
:104A9000C3F80824C3F80C24C3F81024C3F8142462
:104AA000C3F81824C3F81C24C4F8005530BC0847C8
:104AB00000508450004084504C000020024BD0E94C
:104AC0000012C3E9001270474C00002008B500F046
:104AD00013F830B900F014F828B9064AC2F80C0AE5
:104AE00008BD032008BD00F009F800F043F80420D9
:104AF00008BD00BF00508450002070470020704760
:104B000010B5154800F05EF800B110BD134800F074
:104B100059F80028F9D1124C204600F053F800282B
:104B2000F3D1104B10481C6000F04CF80028ECD179
:104B30000E4800F047F80028E7D10D4800F042F891
:104B400001460028E1D100F039F8044608B900F028
:104B50004DF8204610BD00BF6C000020680000200A
:104B6000640000205C00002060000020580000204D
:104B70005400002008B50B4800F02EF80A4800F059
:104B80002BF80A4800F028F8094800F025F80948F1
:104B900000F022F8084800F01FF8BDE8084000F0D7
:104BA0000FB800BF6C0000206800002064000020E7
:104BB00060000020580000205400002000207047B2
:104BC000704700BF08B5034B02681B681068984720
:104BD000002008BD8400002008B5034B02685B6814
:104BE00010689847002008BD8400002070B5094C6B
:104BF000094D2069AB68984718B1084B08485B68B5
:104C000098470021074AEB6811602069BDE87040B1
:104C1000184700BF70000020840000204C000020D6
:104C2000A46600006815002010B5044650B1636802
:104C300013F0685F05D0064A934202D000236260F9
:104C4000236010BD034B04485B689847EFE700BF43
:104C50002C5F5CA94C000020C4660000C8B143680A
:104C60000D4A934213D013F0685F0ED0012350E831
:104C7000002F194640E8001C9CF0000FF7D1012AD4
:104C8000F5D0BFF35F8F0020704704487047044899
:104C900070476FF4E04070472C5F5CA9E98FFFFF1D
:104CA000EA8FFFFF034680B1426809498A420AD071
:104CB00012F0685F05D0BFF35F8F002210461A60C4
:104CC000704704487047044870476FF4E0407047ED
:104CD0002C5F5CA9E98FFFFFEA8FFFFF10B5044648
:104CE00020B10023034A2360626010BD0248FFF731
:104CF000C3FEF6E73A00003AEC660000F7B500297B
:104D00000746164629DB83688B4226D97B68C06834
:104D1000CC18836801AA5B6969469847002213464C
:104D20000199481E019011B96FF0150017E0009924
:104D3000486874B95542D1F800C0AC45E64628BF72
:104D4000AE46AC450EFB003372440AD808310091E0
:104D5000E6E7E51AB5FBF0F5EDE76FF0210003B0EB
:104D6000F0BD7A689B1AC6E900300020F7E7437966
:104D7000012B07D10368012B04D10079431E58424F
:104D80005841704700207047002310B51C465AB2A6
:104D9000914200DC10BD40F823400133F7E70023C7
:104DA0001A4610B55CB2A14203DCB2FA82F04009A7
:104DB00010BD50F8234001332243F3E701234A1189
:104DC00050F8220001F01F018B40184070474B1E25
:104DD00010B55BB2041D1A0603D45A1E54F82210F3
:104DE00071B101335BB24BB103F18042013A50F82B
:104DF0002220B2FA82F2C2EB43139BB218B210BD6A
:104E00001346E8E7002310B55CB2A24200DC10BDF7
:104E100051F8234040F823400133F5E710B5013A3B
:104E200052B2130601D5002010BD50F8224051F8AF
:104E300022309C4205D802F1FF32F2D24FF0FF300F
:104E4000F2E70120F0E7F0B5002406469C46204634
:104E500065B2AC4500DCF0BD51F8247052F8243046
:104E60003D1AED1AAF4218BF002046F8245038BF53
:104E700040F001000134EBE7F0B50024064620467F
:104E800065B2AB4200DCF0BD51F8247052F82450FA
:104E90003D440544AF4218BF002046F8245088BF67
:104EA00040F001000134EBE7002300EB8101884270
:104EB00000D3704751F8042D43EA52030B60D30727
:104EC000F5E72DE9F74F00273C463D464FFA87F9B5
:104ED000994516DB4FF0FF364FF0000806EB43060E
:104EE0000196019F53FA88FE4FFA8EFEBE455FFA87
:104EF00088F628DB00EBC30040F8044C03B0BDE8A3
:104F0000F08F4FF0000EF04602EB870A51F82EC0EA
:104F10005AF804694FF0000BACFB066C36195CEBD9
:104F2000050C28BF4FF0010B0EF1010E34464FFA6D
:104F30008EF6B1456546D844E8DA40F82740454644
:104F400064460137C2E7A9460025013676B202EB76
:104F50008E0A77B2BB4205DC40F82E4008F101080A
:104F60004C46BEE76FF00307774351F826C05AF866
:104F700007704FF0000BA7FB0C7C3F195CEB090C92
:104F800028BF4FF0010BE1463C465D440136E0E7A7
:104F900070B59DF910601D4633460446FFF76CFF5F
:104FA00030B9324621462846FFF738FF012807D09E
:104FB00033462A4621462046BDE87040FFF743BFEE
:104FC00070BD70B59DF910601D4633460446FFF76D
:104FD0003AFF38B133462A4621462046BDE87040A4
:104FE000FFF74ABF70BD2DE9F04F1D46A7B006ABD5
:104FF000CDE904310290294610469046FFF7E7FEBE
:10500000C0EB851424B22146002CB8BF04F11F0167
:10501000634203F01F0316AF384641F3471104F013
:105020001F0658BF5E42FFF7AFFE002E4FEA810019
:105030002CDD002213463844C6F1200E9D421AD8BA
:105040000126AB00039307EB8503019305F1FF38BD
:1050500026AB4FEA450903EB8808002C55DA26AB4E
:1050600003EB86062A4656F8881C0298FFF7CAFE0C
:1050700027B0BDE8F08F58F823C001330CFA06F1D1
:105080000A4340F8042B2CFA0EF2D7E72A46414691
:105090003844FFF7B7FED3E75AF8883C53F821208D
:1050A00026AB03EB810353F8403C6344D31A34BF6F
:1050B0004FF0010B4FF0000B9A4204D0BBF1000CF3
:1050C00018BF4FF0010C5EF8882C013042F82130F7
:1050D00041B24945E0DBA6EB0C035E422946384667
:1050E0005E41FFF7E1FE039B294698336B4453F87A
:1050F000402C58F8403C019843EAC273013C48F800
:10510000403C24B2FFF7D0FEA7E7002026AB86F094
:10511000010E844603EB860A03EB8E0ED8E730B50A
:1051200005461C4691B0684693F90030FFF7C9FE6A
:1051300069462846D4F8AC30984711B030BD70B5F8
:105140000368054613F00106144605D013460A46C7
:105150000146FFF791FE064621462846FFF7A4FECA
:1051600046B104F18042013A55F8223043F0004341
:1051700045F8223070BDF0B50F460646A1B019467D
:10518000384615461C46FFF70AFE28B1304621B0C6
:10519000BDE8F040FFF7F8BD224639466846FFF704
:1051A00031FE294608A8FFF72DFE10A82146FFF77B
:1051B000EBFD012318A81093FFF7E6FD2246684691
:1051C00008A9FFF72BFE30B92246304610A9FFF799
:1051D00019FE21B0F0BD009BDA0709D421466846CC
:1051E000FFF762FE2246294610A8FFF7A8FFE5E771
:1051F000089BDB0707D4214608A8FFF755FE224687
:10520000294618A8F1E7012823461CD108AA6946B7
:105210006846FFF718FE21466846FFF745FE22461E
:1052200018A910A8FFF7FAFD013005D110A92346EF
:105230002A460846FFF720FE10A92346084618AA6A
:10524000FFF701FECEE76A4608A8FFF7FCFD2146FE
:1052500008A8FFF729FE224610A918A8FFF7DEFDCF
:10526000013005D118A923462A460846FFF704FE57
:1052700018A92346084610AAFFF7E5FDBFE72DE968
:10528000F04793F900600446894692B031461046D3
:1052900015461F46FFF783FD002840F095803B46EA
:1052A0004A4649460AA8FFF73AFF3B4621460AAA62
:1052B00002A8FFF734FF0AAA114610463B46FFF743
:1052C0002EFF3B462A4649464846FFF728FF07F18E
:1052D00004083B462A4629462846FFF720FF434656
:1052E0002A46214620460096FFF752FE43462A46AC
:1052F000294628460096FFF74BFE43462A4621469C
:1053000028460096FFF75DFE3B462A46214620468A
:10531000FFF705FF43462246214628460096FFF741
:1053200037FE43462A46214620460096FFF730FEC8
:105330002368DB074BD53346424621462046FFF71C
:105340009BFD824631462046FFF7AEFD06F18043C5
:10535000013B54F8232042EACA7244F823203B461A
:10536000224621462846FFF7DAFE434629462846CC
:1053700002AA0096FFF725FE43462946284602AAC0
:105380000096FFF71EFE02A9084643462A460096ED
:10539000FFF717FE3B462146204602AAFFF7BFFE55
:1053A0000AAA4346104621460096FFF70AFE3246F7
:1053B00029462046FFF726FD49462846FFF722FDED
:1053C00048460AA9FFF71EFD12B0BDE8F087314636
:1053D0002046FFF769FDC2E72DE9F0418AB0044697
:1053E00015460E461C22002103A800F048FF0323A7
:1053F00095F9008032463146204602932F1D2B46F8
:10540000FFF78DFE3B462146204602AACDF80080DC
:10541000FFF7D7FD2B46324621462046FFF77FFE99
:105420003B4621462046CDF8008005F18402FFF777
:10543000AFFD0AB0BDE8F081F0B51C460746154641
:105440000E4689B011466846FFF769FE23466A4654
:1054500039463846FFF763FE23462A4669466846C2
:10546000FFF75DFE23466A4631463046FFF757FE9A
:1054700009B0F0BD2DE9F0478AB0DDF848A0144628
:10548000564680461D46894616F9047B0246334639
:10549000214602A80097FFF794FD02AA5346114641
:1054A0001046FFF73CFE53464146404602AAFFF72E
:1054B00036FE53462146204602AAFFF730FE334609
:1054C0004A46294628460097FFF77BFD53462A4661
:1054D000294602A8FFF723FE02A9334642460846A2
:1054E0000097FFF76EFD02A9334622460846009753
:1054F000FFF767FD33464246214620460097FFF7F7
:1055000060FD5346224649464846FFF708FE3346AB
:105510004146204602AA0097FFF753FD5346224614
:1055200029462846FFF7FBFD33464A4629462846CA
:105530000097FFF746FD3A46204602A9FFF762FCB6
:105540000AB0BDE8F087F8B50E46D11C48BF911DE2
:10555000144641F38701FFF717FC0025671E6AB266
:10556000A24205F1010500DBF8BDBB1A23F00301DF
:10557000B25C03F00303DB009A40435813434350EB
:10558000EDE7002070472DE9F84F9A46D378814621
:105590006F2B0F461546A3F1410B2BD026D8582B65
:1055A00014BF0A261026DDF828803246002348461C
:1055B0003946FAF7CFFD092A08F1FF38D4B21ED8D0
:1055C0003034B145E4B277F1000788F8004001D3E8
:1055D000D04511D82B789B0605D5082E15D1AB7870
:1055E00043F00803AB704046BDE8F88F03F0F703C3
:1055F000702BD5E70826D6E781460F46D5E7BBF1E5
:10560000190F94BF37345734DBE7102EEBD1AB784A
:1056100043F01003E6E730B400258C68CB6004F05B
:105620000304032C14BF2C464C688D6014B1A446AF
:1056300030BC604730BC7047038B13F0070306D1C2
:105640000368002B18BF032008BF00207047022BFF
:1056500005D1408BB0FA80F0400980007047012BE3
:1056600004D10368002B18BF0520EDE70020704728
:1056700010B4EFF31182202484F31288BFF36F8FEC
:10568000416110BC0121FBF723B9002930B4044665
:105690000DDB806888420AD9401A834207D8E06847
:1056A0006468214484682468A44630BC60476FF075
:1056B000150030BC704710B484680A46183C24F0CA
:1056C0000704A4F11801042310BCFFF7DEBF002972
:1056D00030B404460DDB806888420AD9401A834200
:1056E00007D8E0686468214484686468A44630BCD4
:1056F00060476FF0150030BC704708B5C06883681C
:10570000DB689847006808BD08B5C0688368DB6837
:105710009847407908BDFEE730B50C684B6885B006
:105720000A894D890094013B24F01F04234402F0B0
:105730001F0242EA451223F01F0369468DF8082034
:105740000393FBF729FA05B030BD4FF47F03D3F87C
:105750003021D3F83401072A05D10238022894BF3A
:10576000002001207047002070470B464FF0502268
:105770000121C2F81416002118470C220369C9B28E
:1057800002FB0133986F00F00700704770B50346C5
:10579000C9B20069EFF31186202484F31288BFF3A5
:1057A0006F8F0C2505FB0104A46F14F0C00401D019
:1057B000A24210D1012205FB01008267002086F37E
:1057C0001188BFF36F8F28B95B6803EBC1035B6877
:1057D0009847002070BD4FF0FF30F0E78022FFF7C0
:1057E000D5BFF8B5069F05460469C9B2EFF3118C21
:1057F000202080F31288BFF36F8F0C2606FB014632
:10580000B06F00F0070EBEF1010F11D1B76700268F
:105810008CF31188BFF36F8F46B90C2000FB014455
:10582000C4E91C236B6853F8313098473046F8BD03
:1058300000F0C00087420CBF6FF077064FF0FF36D4
:10584000E6E713B580240094FFF7CBFF02B010BD4C
:105850006FF08500704710B41C240069CBB204FBC4
:105860000300002110BC10472DE9F0410646FFF768
:105870006CFF0D464FF05024C0B14FF001080027D7
:105880000520C4F81886C4F81476FBF777FA40466A
:10589000C4F81486FBF772FAC4F81476C4F81876C4
:1058A00030462B46BDE8F04100211847C4F81406E5
:1058B000F6E708B50169FFF748FF48B14FF05022FD
:1058C000D2F8583503F003030B720123C2F85835A0
:1058D0004FF050230022C3F8B8250720BDE8084048
:1058E000FBF74CBA4FF05021022310B5C1F8B83580
:1058F0000469FFF72AFF20B1237A03F00303C1F8FC
:10590000583510BD03695B680BB9FFF7D2BF70470C
:1059100008B901230B7070474FF4000200230020E8
:10592000C1E900237047002809DBB0F5801F06D2CB
:10593000C0F5801081428CBF0020012070470020FC
:1059400070474FF4801200230020C1E90023704704
:1059500038B581B90569EFF31180202383F31288EC
:10596000BFF36F8F1C462B7833B100232B7080F36D
:105970001188BFF36F8F38BDFBF7B8FAEFF31180D2
:1059800084F31288BFF36F8FEDE738B515460C46E8
:1059900059B1FFF7B9FE2146254411F8013B834276
:1059A00003D1A942F9D1012038BD0020FCE738B568
:1059B0000C460123114622460546FFF766FE0028E5
:1059C0000FDB012221462846FFF7DFFF18B1032332
:1059D0000020237038BD2378012B14BF022301233C
:1059E000F6E70120F6E74FF47F03D3F83021D3F830
:1059F0003401022808BF072A0CBF0120002070478D
:105A00004FF47F03D3F83001D3F83431C31F584229
:105A10005841704703460020184738B54FF05024CE
:105A20000223C4F808330123E360002342F2107517
:105A3000C4F80431D4F80431D4F81834DB0304D5A5
:105A40000120FBF79BF9013DF6D138BDFFF7E5BF1B
:105A500008B5FFF77AFE60B14FF05023D3F8B825B0
:105A6000920706D1D3F8580500F00300013818BF9B
:105A7000012008BD08B503695B682BB9FFF732FF49
:105A8000BDE80840FBF77CBB08BD70B504680D1B82
:105A9000002D02DC6FF05F0070BD94F90060237888
:105AA000002E0ADB631C0360237813600368C91AA5
:105AB00013688B42EED80020EEE703F07F035C1EF4
:105AC000032C0ED89D42E5DD002414600468013BE0
