:040000030000589110
:020000040000FA
:10000000283F002091580000D17800007D58000062
:100010007D5800007D5800007D5800007D5800008C
:10002000000000000000000000000000F158000087
:100030007D58000000000000155900007D580000A8
:1000400079410000794100007941000079410000C8
:1000500079410000794100007941000079410000B8
:1000600079410000794100007941000079410000A8
:100070007941000079410000794100007941000098
:1004700079410000794100007941000053B94AB93F
:10048000002908BF00281CBF4FF0FF314FF0FF309C
:1004900000F00CB8ADF1080C6DE904CE00F008F8DE
:1004A000DDF804E0DDE9022304B07047704700BFC7
:1004B0002DE9F0478C468E46089E1546044619469F
:1004C000002B40F0D080724547D9B2FA82F74FB185
:1004D000C7F120030EFA07FCBD40BC4020FA03F32D
:1004E00043EA0C0C4FEA154EA8B2230CBCFBFEF8F5
:1004F0000EFB18CC08FB00F943EA0C43994528D9B8
:10050000EB1808F1FF3204D2994502D9A8F1020292
:100510002B44A3EB0903A4B2B3FBFEFC0EFB1C337C
:100520000CFB00F044EA0344A04214D92C190CF14E
:10053000FF3304D2A04202D9ACF102032C44241AA6
:1005400043EA02401EB1FC40002334607360BDE802
:10055000F0874246DDE76346F1E7002A79D0B2FA38
:1005600082F3002B3FD01946C1F1200302FA01F5B6
:1005700000FA01F42EFA03F20EFA01FE20FA03F358
:10058000AFB243EA0E034FEA154EB2FBFEFC0EFB80
:100590001C201A0C0CFB07F842EA004290455AD97D
:1005A000AA180CF1FF3004D2904502D9ACF1020038
:1005B0002A44A2EB08029BB2B2FBFEFC0EFB1C22FB
:1005C0000CFB07F743EA02439F4246D9EB180CF1B4
:1005D000FF3204D29F4202D9ACF102022B44DB1B52
:1005E00042EA004202E0AEEB020301224FEA154E5E
:1005F000AFB2200CB3FBFEFC0EFB1C330CFB07F868
:1006000040EA034398452AD9EB180CF1FF3004D295
:10061000984502D9ACF102002B44A3EB0803A4B225
:10062000B3FBFEFC0EFB1C330CFB07F744EA034450
:10063000A74216D92C190CF1FF3304D2A74202D9D4
:10064000ACF102032C44E41B43EA00400F46114680
:1006500078E71F2188E76046ABE76246BFE7604660
:10066000DBE76346EFE7734506D916B90021084674
:100670006DE7C6E9000EF9E7B3FA83F787B973456A
:1006800001D3824207D8841A6EEB030301209C46F3
:100690001EB900215BE73846FAE7C6E9004CF8E7E7
:1006A000C7F1200CBB4000FA07F422FA0CF520FA3F
:1006B0000CF1BA401D432EFA0CF30EFA07FE4FEA76
:1006C000154941EA0E011FFA85FEB3FBF9F809FB53
:1006D00018300B0C08FB0EFA43EA00439A4540D948
:1006E000EB1808F1FF3004D29A4502D9A8F10200B4
:1006F0002B44A3EB0A0389B2B3FBF9F809FB1833C7
:1007000008FB0EFE41EA03418E452CD9691808F119
:10071000FF3304D28E4502D9A8F10203294443EAEB
:100720000040A1EB0E01A0FB02984145CE46434696
:1007300002D306D14C4504D20138B9EB020E68EB66
:100740000503002EA5D0B4EB0E0261EB030101FA04
:100750000CFC22FA07F3F9404CEA0303C6E9003126
:1007600097E74046C5E74346D9E700002DE9F04743
:10077000058B0446280717460CD501290CBF45F008
:10078000100545F02005258387F31188BFF36F8F8F
:10079000BDE8F087022905F0070540F09480204667
:1007A00005F07AF9052864D801A353F820F000BFBA
:1007B00089070000C7080000730800003508000022
:1007C0004F0800006108000001F007035A1F012ACA
:1007D0001FD8002221F00701062BD4F8008089B22F
:1007E000C4E9002209D1434603E0628B01326283EF
:1007F0001B68002BF9D141F002012046218305F04E
:100800004BF94FF0000900286DD041F02001218301
:1008100069E0042B0AD121F0070189B22046218327
:1008200005F03AF910B141F0200121834FF00008A2
:10083000C14658E02369D3F80090238B23F00703C7
:1008400043F006034FF00008238346464BE023693C
:10085000D3F80490238B23F0070343F00403F1E75C
:100860002369D3F80890238B23F0070343F0050393
:10087000E8E74FF00008C146E7E7012243F008032C
:10088000238387F31188BFF36F8F002A3BD1B8F120
:10089000000F4AD1B9F1000F02D020462C49C847B9
:1008A000EFF31187202383F31288BFF36F8F238B1D
:1008B00023F008039BB22383D9063FD523F010020F
:1008C000228303F007056669218B002EBFF67CAFFB
:1008D00000239946D4F8008021F00701C4E90033D1
:1008E00041F001012183238B03F0070AAA4502D0BE
:1008F000A268002AC1D1B8F1000F02D1B9F1000FEE
:10090000DAD00022BAE7A1680029C0D00D6800291A
:10091000BDD03346524620464F68B8471DB12B68BC
:1009200029461D46F3E72B46FAE741463346524631
:100930002046D8F8008005F09EF8A8E79A067FF5D3
:1009400023AF23F02002228303F0070527E700BF2F
:10095000D15A0000002318460649D1F89020C2F36E
:100960000722934200DB7047C1F89830C1F8A0001D
:100970000133F6E700ED00E0002807DB0123410921
:10098000034A00F01F00834042F82130704700BF47
:1009900000E100E000280CDB01220649430900F0D9
:1009A0001F008240203341F82320BFF34F8FBFF355
:1009B0006F8F704700E100E00028ACBF00F160409D
:1009C000064B4FEA4111C9B2ABBF00F5614000F0E0
:1009D0000F0080F800131954704700BF14ED00E0B9
:1009E00030B50F4AD2F89030C3F30723013B984249
:1009F00013D80C7A0B6864F304031D46CB686409B2
:100A000023F01F0343EA440343F00103C2F89800B4
:100A1000C2F89C50C2F8A03030BD6FF01500FBE763
:100A200000ED00E0254B264A4FF47A611A6001225E
:100A3000244B2548C3F80424D0F82436C3F3080215
:100A4000C3F309434B4382F480722049883201FB8F
:100A500002334FF4FA215B00B3FBF1F201FB1233D6
:100A60001B49B3F57A3F28BF0132C1F80429D0F8F9
:100A700020364FF47A60C3F30802C3F309434343BB
:100A800042F21C5082F4807202F2172200FB023301
:100A90004FF47A701B0AB3FBF0F200FB1233002014
:100AA000B3F5FA7F4FF0010328BF0132C1F81C27CC
:100AB000C1F80009C1F80036704700BFA00200204D
:100AC0000020A107002008E000C0FF00F82A0080F5
:100AD00000001250084B70B5C31A0D4607499B1011
:100AE000044659434022064805F035F82B46014696
:100AF0002046BDE870401847E40E0020B76DDBB615
:100B0000707C0000402373B50B4C0093041B0B4614
:100B10000D460A49A41061430646094A094805F0F2
:100B200045F8014628B130462B4602B0BDE870407A
:100B3000184702B070BD00BFE40E0020B76DDBB6F1
:100B40001B5C0000707C0000014B1B68184700BF55
:100B5000D40E002070B50221044640F20510FFF7C4
:100B60002BFF1D4B1A79002A2FD11C4A1A60012233
:100B70001A711B4B197941BB1A491A7119601A4B2A
:100B8000197911BB19481A711860194BC3F8401430
:100B9000184B1B6A9B0603D440F20510FFF7ECFECE
:100BA0002369ABB11C220021184607F02CF801255F
:100BB0001C22114E0564066124690021A01807F06B
:100BC00022F80020E662E56470BD6FF00400FBE7E8
:100BD0006FF01500F8E700BFD40E002019110000D7
:100BE000DC0E0020490B0000380F00202D5C0000B7
:100BF00000E0105000E100E0947F00000023024A72
:100C00000020C1E90023704700D01700004870475A
:100C10008C7F0000024B0B6001231360704700BF04
:100C2000847F00000122054B0020C3E90222C3E9B2
:100C30000033034A034BC3F80C257047C40E002051
:100C40008000008000B00450036901214FF0FF32A2
:100C5000C3E90033C3E90212014905F018B800BF27
:100C600073650000004870477C7F00004209022A3B
:100C7000034670B503D0012A18D0CAB170BD0E4E1C
:100C8000326951680029F9D0012503F01F030C686F
:100C90009D400029F2D08A682A4002D030464B6835
:100CA00098473CB1236821461C46F2E7034EE7E72C
:100CB000034EE5E72346F6E7A87C00008C7C0000A5
:100CC000C47C000048B1054B054A1B68B3FBF2F336
:100CD0005843044B43F0010318477047A00200201B
:100CE00040420F00E07D0000064BD3F840231C2A51
:100CF00005D1D3F84403431E5842584170470020A1
:100D0000704700BF00C0FF0003689A070CD5036856
:100D1000DB070DD50922074BC3F80C250F22C3F8BA
:100D2000042501221A60FEE7034B0360EF3B0360DA
:100D3000704700BF00801050F000FA5038B504230F
:100D40000A4C42F21075C4F8083301236361002392
:100D5000C4F80831D4F80831D4F84C34DB0304D596
:100D60000120FFF7AFFF013DF6D138BD00E0105084
:100D700010B51D4B1D4CD3F84C14D3F84C2411F472
:100D8000803F19D002F00302012A01D08AB9002263
:100D9000154BC3F840240022C3F80821D3F80821DA
:100DA00001221A6122688AB9D3F80821002AFBD0EF
:100DB00014E0FFF7C3FFEAE7D3F84824D107E6D5EC
:100DC000D3F850249207F4D422681AB10422C3F84D
:100DD000042310BDD3F80821002AFBD00022C3F859
:100DE0000821D3F80831F4E700E01050380F002054
:100DF000034A4309D35C00F01F001844C0B2704797
:100E000037860000F0B50646002487B0114F0191E7
:100E100017F8012B06AB03EBD20313F8143C02F0D6
:100E20000702D34013F0010306D10134032CEFD1A4
:100E30000023184607B0F0BD074A03AD07CA85E88E
:100E4000070055F824100A6A46F824200A62002A8E
:100E5000EBD0EEE750860000B07D000010B50B4BE4
:100E600004680B4A0B48844208BF1346B3FBF1F0F9
:100E700001FB1033834206D2C30704D47E288CBF03
:100E80000020012010BD0020FCE700BF0024F4007A
:100E90000020A10700A00450124B70B553F8205059
:100EA000013053F82060AE4200D870BD6C68B4B118
:100EB000237EDB0711D4636953B12046984738B1CC
:100EC0000028B8BF4042FF28A8BFFF20E368187081
:100ED000E268537843F0010353700835E3E72B6869
:100EE0009847FAE7547F00006FF00A01084A9368B8
:100EF00019670849D8664B6843F080534B6000235C
:100F000083F31188BFF36F8F9368186F704700BF2A
:100F1000B010002000ED00E070B590F91020037CC7
:100F2000002A2FDBDC062DD1184A63F07F0311461F
:100F3000037451F8183FD4698B4207D1C0E90014FB
:100F40002060D0610FE09C42F8D01B68002BF5D0E8
:100F500093F90E6090F90E50AE42F4DD5C68C0E982
:100F600000342060586093698B4200D003B9D36885
:100F70009168087CC00606D1C8897F2803D9986982
:100F800008B9516170BD5361FCE700BFB01000208B
:100F900049B9EFF3058030B9054B5A699B689A420D
:100FA00001D0FFF7A1BF81F31188BFF36F8F7047A6
:100FB000B010002010B590F91020037C002A09DA47
:100FC00003F07F030374D0E9003213605A600023FA
:100FD000C0E900330B4A144654F8183F9168A34205
:100FE00000D003B9D368814209D0087CC00606D17D
:100FF000C8897F2803D99869002808BF0B46536128
:1010000010BD00BFB0100020084A0368526890422B
:1010100004D01BB1DA68C1680A44DA60D0E9003252
:1010200013605A600023C0E900337047900200202B
:1010300030B50E4B1B68BBB94FF0FF306FF040412D
:101040000B4CD4E90023904271EB0305F9D3094915
:10105000D1E90001101A084A63EB0101C2E900015D
:10106000400940EAC16030BD0020FCE7C00E00200E
:1010700040270E50D8020020C8020020064A1368FC
:10108000934205D023B1DB68181A20EAE07070475C
:101090006FF00040704700BF9002002010B5EFF3E2
:1010A0001184202383F31288BFF36F8FFFF7C0FFF3
:1010B0000346054AD2E90001181841EBE37184F3B5
:1010C0001188BFF36F8F10BDC00200200C22104B9F
:1010D000014602FB0033002030B4D3E90E5298637E
:1010E000EFF31180202484F31288BFF36F8F1C6C00
:1010F00004F0C00444F002041C6480F31188BFF3C0
:101100006F8F1DB12B4630BC0248184730BC70476A
:10111000E40E0020707C0000022808D0042808D1CA
:10112000044B186C10F0070003D1FFF7CFBF01206C
:10113000FBE77047E40E00202DE9F047454BDFF850
:1011400018C193F808E0DFF814910CEB0E0191F848
:1011500054504349D9E90032D1E900418A4208BFDD
:10116000A34205F10C054FEA0E1120D1B0F1806FBA
:101170001DDA4001012838BF01201B1842F100028E
:10118000C9E900325CF835300CEBC50462681B1805
:101190004CF8353001F1A04342F1000240F000402C
:1011A00003F562236260C3F82805BDE8F0872D4E81
:1011B0002D4FD6E90048D7E90067A41948EB070886
:1011C0004FF0200A26464746E0FB0A67B34272EB1F
:1011D0000700C9E9006731D21B1B62EB0802C82B6C
:1011E00072F10002B4BF012300230CEBC5024CF8DE
:1011F00035605760C7F3130213B301F1A04303F541
:101200006223C3F82065C3F82425184B4FEA8E0EDD
:1012100073441A68002AC8D04FF0FF346FF0404280
:10122000134DD5E90001844272EB010CF9D3B042B1
:1012300071EB0707B9D200221A60B6E70023D4E7A2
:1012400001F1A04303F56223C3F82065C3F8242508
:10125000ABE700BF8402002040000020B80200205D
:10126000D0020020D8020020C802002000210E5029
:1012700040270E502DE9F843324D1C46D5E90006B3
:10128000111A63EB06074B09202143EAC763E3FB0E
:101290000106C5E900062C480025C0E90024002409
:1012A0002A4AC2E90045EFF3118581F31288BFF3A2
:1012B0006F8FDFF89C90DFF89C80D9F80000264FF4
:1012C000484508BF0020254EC8F80030D7E9002166
:1012D00020B1C4689C4213DDE41AC46000209A184F
:1012E00041EBE371C7E90021C8F80000FFF7C6FE33
:1012F000FFF722FF85F31188BFF36F8FBDE8F883F6
:101300000023A21841EBE471C360C7E90021FFF795
:101310007BFEC66085F31188BFF36F8F83689847A3
:10132000EFF31185202383F31288BFF36F8FD8F872
:101330000030D9F800001B1B484508BF0020C8F842
:101340000030C3E7D8020020D0020020C8020020ED
:1013500090020020C00E0020C0020020010000808A
:10136000F8B54B1C05460C4600F1180744D0234B3A
:101370000362EFF31186202383F31288BFF36F8F8C
:10138000FFF756FE1E4B1F4A1B68013404446C6273
:101390001C441368D2F804E0934208BF00232BB921
:1013A000C5E9062ECEF8007057600CE0D3F80CC0EB
:1013B000696A8C4519DDACEB0101D9605968C5E952
:1013C00006310F605F601368934208D09F4206D1D8
:1013D0000D4B1B681BB9FFF751FEFFF7ADFE86F3FF
:1013E0001188BFF36F8F2046F8BDA1EB0C01734548
:1013F0006962D5D01B68D2E70024F4E70F600000D3
:10140000C002002090020020C00E0020F8B5054662
:101410002023344C00283ED1EFF3118083F312884F
:10142000BFF36F8FA168E5690B68A94214BF1A4624
:10143000002249680B605960A368E1692AB92A4A09
:10144000C3E900210B60E3610AE092F90E6093F9B1
:101450000E50AE421BDD5168C3E900210B605360A2
:10146000A369214A934200D003B9E3686361FFF79F
:101470003BFD002447F6112000214FF47A7547F612
:1014800012220023E4FB0501FEF7F8FFF8BD8A42B3
:10149000D5D01268D2E7EFF3118783F31288BFF338
:1014A0006F8FA068FFF786FD2946A068FFF758FFF9
:1014B000A2680646137C384643F004031374FFF712
:1014C00013FDA3685B6AB3F1004F08D1FFF7E6FD97
:1014D000341A24EAE4746B1CCCD12846D6E70024E5
:1014E000F9E700BFB0100020C810002070B5EFF37E
:1014F0001186202383F31288BFF36F8F0368BBB17B
:10150000104B1D689D4208BF0025FFF77DFD4FF081
:101510000043A842C36005D1FFF78AFDFFF7AEFD87
:10152000FFF70AFE002086F31188BFF36F8F70BDAE
:10153000C268054B9A4204BF4FF00043C3606FF08E
:101540001500F0E790020020010000802DE9F0472F
:10155000DFF844810446D8F8083083420BD1EFF31A
:10156000058343B14D4B5A6842F080525A605A6A23
:1015700022F400425A62A689EFF31185202383F3F7
:101580001288BFF36F8F237C13F0080205D085F318
:101590001188BFF36F8FBDE8F087D80943F00801C9
:1015A0001FBF03F07F0343F008032374D4E9003125
:1015B0001CBF0B605960A36814BFC4E900222174EA
:1015C00013B1204604F007FD04F11800FFF78EFF69
:1015D000276D04F15009B94511D04FF0000A77B1D9
:1015E000384604F0F8FC07F11800FFF77FFF384693
:1015F000C7F870A0FFF790FC276DB945EFD1D8F878
:1016000008309C4241D1EFF30582003A18BF012215
:10161000D8F818102248814200D009B9D8F80C1027
:10162000C8F814104AB101221E4B1A749A81002284
:10163000C3E917229A66C8F808309C4227D1EFF315
:10164000058323BBA289D20711D585F31188BFF387
:101650006F8F83F31188BFF36F8F0423184602DF67
:10166000EFF31185202383F31288BFF36F8F284691
:10167000FFF73AFCF3078ED5002383F31188BFF3FD
:101680006F8F0423184602DF85E70022C0E785F349
:101690001188BFF36F8FEDE7B010002000ED00E080
:1016A000C81000203C10002010B50C1E10461A4631
:1016B0000CDB084B9C4209D8C4F5BE1404F58054D9
:1016C000A24203D806F094FA002010BD6FF0150076
:1016D000FBE700BFFFCF17002DE9F0414768064642
:1016E000BD6885B395F874406CBB4622214605F170
:1016F000140095F8758006F086FA21461A4A2B6880
:1017000052F838C08C4524D14FF0000840F20D1437
:10171000C3F84481D3F84421144A934214BF2046AD
:10172000DB20FFF729F9012385F874302B66BB68AD
:101730000F4A0221DB20C3E90328FFF73DF902210C
:101740002046FFF739F93046BDE8F041094904F079
:101750009EBACAB2920002F58070442A04BF1C509F
:101760001A580131CEE700BF6C7F000000A00D5079
:101770006D0C00005D590000044608B5084611468E
:101780001A46A047014B9868FFF7E0FEB010002012
:10179000F8B505460E46EFF31187202282F3128832
:1017A000BFF36F8F83683BB1013B836087F3118880
:1017B000BFF36F8F0020F8BD31B987F31188BFF3F5
:1017C0006F8F6FF00F00F6E7EFF3118382F312884B
:1017D000BFF36F8F174B9C682046FFF7EBFB237C12
:1017E000A56043F0020323742B689D4209D16B6806
:1017F000C4E900531C606C6010E06A689342F6D044
:101800001B68002BF3D093F90E1094F90E2091422F
:10181000F3DD5A68C4E9003214605C60731C03D0C5
:1018200031462046FFF79CFD3846BDE8F840FFF7FB
:101830005BBB00BFB01000201FB5002201236C4627
:10184000CDE902236B46064ACDE9004404F0DEF9F7
:1018500020B943F609516846FFF79AFF04B010BD5E
:101860002365000038B5EFF31185202383F3128838
:10187000BFF36F8F0468A04212D08CB1204604F0F1
:10188000AAFB04F11800FFF731FE0023204623676E
:1018900004F0AEFB2946BDE838400748FFF778BBA7
:1018A000D0E902329A4218BF0133836085F3118870
:1018B000BFF36F8F38BD00BFE1140020F8B5041EE0
:1018C0000E4615462BDB174B9C4228D8C4F5BE1399
:1018D00003F580539A4222D8D2B14FF0FF3112481B
:1018E000FFF756FF40F20113104F2A46C7F80035A4
:1018F00086B13146204606F07BF9BFF35F8FD7F8FB
:1019000018344FF480730848C7F80035FFF7AAFF72
:101910000020F8BDFF21204606F075F9EDE76FF0D5
:101920001500F6E7FFCF1700C40E002000B00450EA
:1019300010B4EFF31180202282F31288BFF36F8F6F
:101940002B490B6843F0020413F001030C6017D01D
:10195000284BD3F80C3413F4803311D0EFF31181FA
:1019600082F31288BFF36F8F234A136C03F0C00316
:1019700043F00203136481F31188BFF36F8F0123D7
:1019800080F31188BFF36F8F1BB1002010BCFFF7ED
:101990009DBB184AC2F81031D2F81011C2F81831A4
:1019A000D2F81811C2F81431D2F81431134BD3F80D
:1019B00040331C2B04BF012393600023C2F8003185
:1019C000D2F80031012313600D4B1B6853B9094B4A
:1019D000D3F80021002AFBD00022C3F80021D3F85D
:1019E000003102E07123C2F8043310BC704700BF1D
:1019F000340F002000E01050E40E002000C0FF0073
:101A0000DC0E002070B5EFF31185202383F31288DC
:101A1000BFF36F8F164A136823F00201116013F0B1
:101A200001021CD17121134B42F21074C3F8081348
:101A300001215960C3F80021D3F800210E4A0D4E50
:101A4000D2F840231C2A08BFD960D6F80C3413F40E
:101A5000803309D00120FFF735F9013CF5D185F33A
:101A60001188BFF36F8F70BD044A5371F7E700BF51
:101A7000340F002000E0105000C0FF00DC0E0020FA
:101A80002DE9F04104460027436805691B68984723
:101A9000636893F81F80DE68474511D30022012355
:101AA000C5E92F2305F1B40305F15C00C5E92D3329
:101AB00004F03AFD2046BDE8F041084904F0E7B8DB
:101AC000F2883068317942F4B01204F0B1F8083687
:101AD00008B90137E0E7BDE8F08100BF692E0000DA
:101AE00001212DE9F041514BD3E8EF2FC3E8E01F6E
:101AF0000028F9D1002A3ED14D4B996099685A606F
:101B000001F003010129DA6035D1DA609A68032A0D
:101B100031D8EFF31184202282F31288BFF36F8F44
:101B20004FF6FF754349888E00F00702C88EA84221
:101B300034D0062A32D8DFE802F0123104311231F3
:101B4000120001230130C88684F31188BFF36F8F20
:101B50008BB100233649384803F08DFF0BE000209D
:101B60001860086AB8B9C1E90733BAB92246022138
:101B70003148FEF7FBFDEFF305858DB1EFF31186DC
:101B8000202383F31288BFF36F8F01254FF02008C5
:101B90002A4C2B4F2FE003600B62E6E70023D3E7CC
:101BA000284B1B78002BE9D00422244B2E46C3F887
:101BB0000823EBE78DB372B6002383F31188BFF3DC
:101BC0006F8FBFF34F8F20BF86F31188BFF36F8FE6
:101BD00062B6D4F8403413F0FF030CD1D4F80821D6
:101BE0004AB1C4F80831D4F808310123C4F84034AC
:101BF000C7F8A0812361D4F84C24D4F84C34D20324
:101C0000D8D503F00303012BD4D155B186F3118845
:101C1000BFF36F8F0020BDE8F0812020FFF7F6FBB7
:101C2000D7E70423C4F80433F4E700BFBC0E002058
:101C3000AC0E0020E40E0020000F002000E0105049
:101C400000E100E0E0140020F7B50221E420FEF7F7
:101C5000B3FE884B884CD3F8182722F44032C3F8DF
:101C600018272278002A73D1D3F8101521F0020129
:101C7000C3F81015D3F8101541F00101C3F8101581
:101C80000521C3F8A4160421C3F8AC160723672165
:101C900001F001000244013BD2B24FEA5101F7D1F9
:101CA000052A59D119464FF0010C734E00256720C3
:101CB000CFB204E00CFA02F220EA0200013590FAF9
:101CC000A0F25FFA85FE7745B2FA82F2F2D80131CE
:101CD00032750529224482F8547006F10C06E5D1CC
:101CE0000121002565489A0801FA02F212F0670FF7
:101CF00018BF1D500433302BF5D1E420FEF73CFE15
:101D00005C4B5F49D3F8102503F5C07322F0020243
:101D1000C3F8902340F6FF72C3F8A82100221A608E
:101D2000A3F5807004338B420260F8D10127514D36
:101D3000544E2F663068544BB0FBF3F05D2358438C
:101D4000524B3B4398472770D5F81035980706D576
:101D50006FF0770003B0F0BD6FF08B00FAE7D5F8B5
:101D6000103543F00203C5F81035D5F8482712F0B6
:101D7000010202BFD5F8483743F00103C5F84837E0
:101D80003C4BD3F84017D3F844174900F9D42AB98B
:101D9000D3F8482722F00102C3F848273A4A3368AB
:101DA000B3FBF2F3334A03EB4313002B5BD0D2F8BF
:101DB0004017D2F8445715F080454FD14FF0FF330C
:101DC0000193EFF31186202383F31288BFF36F8F03
:101DD000019B626801A81340019304F01BFD0028D9
:101DE0003EDB01226368824023EA02036360284BE2
:101DF0001872284686F31188BFF36F8F002835D1FB
:101E0000234BA1681A7A012393401943A1604FF034
:101E1000FF356FF04041DFF87CC0DCE90067B54278
:101E200071EB070EF9D31C4926F01F05C1E90057D5
:101E30004FF0FF364FF0FF370C251849C1E9006716
:101E4000A11891F8541005FB014415492275E16071
:101E50000021084A2161C2F824337BE7013BA4E753
:101E60006FF00B00C6E76FF0730073E76FF00B00C5
:101E700070E700BF00200E504000002000210E50EF
:101E8000B0210E50A002002040420F00D07D000083
:101E90008402002040270E50D8020020D0020020EB
:101EA00075120000F8B50126324C334DD4F80C33CE
:101EB00003F0710343B901252E4C304ED4F80C3396
:101EC00003F00C035BBBF8BDB3FA83F30021C3F14D
:101ED0001F039A0002F5807292B202F1A04202F54D
:101EE0008712116006FA03F7042B1268D8B2C4F8FF
:101EF000087308D0062B10D02B689847D4F80C3301
:101F000003F07103D6E702236B71C4F81411D4F8FF
:101F100014312023C4F80433EEE76971ECE7B3FA17
:101F200083F30027C3F11F039A0002F5807292B277
:101F300002F1A04202F58712176005FA03F1022BA5
:101F40001268D8B2C4F8081310D1D4F84C34D4F8BD
:101F50004C349B070AD10423C4F84054C4F804331A
:101F60002561D4F80C3303F00C03ABE733689847D2
:101F7000F7E700BF00E01050DC0E0020380F002013
:101F8000F7B5284B284CD3F82C6304F188070EB919
:101F900003B0F0BD96FAA6F00123B0FA80F08340BA
:101FA000DA43224926EA0306231893F854508300A3
:101FB00019440C2303FB0543DB6873B3D7E8EF3FF9
:101FC00003EA020CC7E8EECFBEF1000FF6D1C34022
:101FD000DB0719D5020102F1A04202F56222D2F814
:101FE0002435D2F82025D1F800C0BCF1000FCED0A6
:101FF0004FF0000CC1F800C00C2101FB0545296918
:102000000091E9688847C2E705F10C0304EBC30CB3
:1020100054F83320DCF80430E5E70A68002AB6D02B
:102020000B60B4E700200E504000002000210E504D
:102030000822F0B5002789B004F0F3FCCB6A0C4607
:1020400003930B6B064604934B6B684605938B6BAF
:10205000CDE901770693CB6B6946079313466A4631
:10206000009703F07DFC31460546304603F078FCCE
:10207000216B05440391616B68460491A16B059146
:10208000E16BCDE90617694603F06AFC3146054469
:10209000304603F065FC0544206ACDE904770090E2
:1020A000606A03970190A06A0290A06B0690E06BB3
:1020B0000790304603F054FC0544606AD4F838C0F9
:1020C0000090A06ACDF810C00190E06AD4F83CC03E
:1020D0000290606BCDE905C00390206A07903046FE
:1020E00003F03EFC0544E06ACDE904770090206BE4
:1020F00003970190606B0290206A0690A06A079097
:10210000304604F0AFFC236B2D1A0093636B30460E
:102110000193A36B0293E36B0393636A0693E36AF1
:102120000793082304F09EFC636B2D1A0093A36BA6
:1021300030460193E36B0293236A0393636A04932B
:10214000A36ACDE90537236B0793082304F08AFCC3
:10215000A36B2D1A0093E36B3046CDE90137636A18
:102160000393A36A0493E36A0593636B07930823BD
:1021700004F078FC2D1A10D50823314630460C4A5D
:1021800003F0EEFB2D18F7D409B0F0BD082331465B
:102190003046074A04F066FC2D1A002DF6D10822BD
:1021A0003146034804F049FC0128EFD1ECE700BFB9
:1021B000BC8000002DE9F04F002503689DB003931B
:1021C0004368DFF8B89104938368DDE9034705931A
:1021D000C36806930369DDE905AC07934369089377
:1021E0008369DDE9072B0993C3699E460A93099B1E
:1021F000009351F825600CAB96FA86F843F82580D9
:1022000059F8046B4FEAF22383EAB213464483EA97
:1022100072633344009E02EA0B0826EA020686EA4D
:1022200008063344734487EA0A064FEA743E8EEA8E
:10223000B40E264007EA0A0886EA08068EEAB45E6B
:102240000135B644102D03EB0C067344D446DDF87B
:1022500000E040F084804A490B91294601350DF198
:10226000700E05F00F0C0EEB8C0C5CF840CC01F0FE
:102270000F094FEABC48CDF804C088EAFC1801F108
:102280000E0C0CF00F0C0EEB8C0C5CF840CC0931F2
:102290004FEAFC4ECDF808C08EEA7C4E01F00F01EB
:1022A0000DF1700C0CEB81010CEB890951F8401C0D
:1022B00059F840CC402D8C44019988EAD108029904
:1022C000C4448EEA912EF44406EA02084FEAF62E40
:1022D0002BEA060181EA08018EEAB61EDDF82C80A1
:1022E0008EEA766E714458F804EF49F840CC714498
:1022F0006144DDF800C04FEA733E614484EA070C94
:10230000CDF82C808EEAB30E0CEA030C04EA070821
:102310008EEAB35E8CEA080CF4448C4401EB0A0E9E
:10232000CDF800B0BA4622D1039961440160049906
:102330001944059B416023448360069B3B44C36072
:10234000079B73440361089B33444361099B134417
:1023500083610A9B5B44C3611DB0BDE8F08FBA4640
:10236000CDF800B0274693461C46324641E79346D7
:10237000274632461C46764663466EE7B87F000025
:10238000F47F0000036803F01F025F2B02604FEA36
:1023900053129ABF024B53F822000020704700BF2F
:1023A000AC7F00002DE9F04FD50640F2063548BF5E
:1023B0004FF00309D0F8048002EA050598F81030C0
:1023C00058BFC2F3401989B001F01F06B5F5837FED
:1023D000144646EA43168DF80A9043D00DD8062DD0
:1023E00042D005D8A5B1022D12D06FF0150036E00D
:1023F000B5F5807FF9D101250AE040F202239D4224
:1024000034D0B5F5407F33D0B5F5007FEDD104254C
:1024100020032FD50123D8F804208B405360D8F82F
:1024200008707FBB05A80596FFF7ACFF059BC4F3BA
:10243000004100EB8300D0F8802081F00101C4F35B
:10244000404343EA410322F4706243EA890322F0E5
:102450000F0243EA05231343C0F88030002009B07F
:10246000BDE8F08F0925D3E70825D1E70625CFE79A
:102470000525CDE7620341BF0123D8F804208B4036
:102480009360CCE7314638460DF10B0203F0F1FCC6
:1024900014F44039019030D13046FEF7A9FC07EB27
:1024A0004004A38ADB0719D5384604F09FFE314665
:1024B000384603F09FFC40B1A28A3B68520B03EB05
:1024C0008203C3F81095C3F810953846314603F0DF
:1024D000A7FC00233046A38203F0C9FE019B002B1A
:1024E000BCD1D8F808309DF80B1093F87500314B2B
:1024F00003EB800003F03CFCB0E7002303AACDE926
:102500000623384605AACDE90333059304F094FE6B
:102510000028A3D114F40033D8F808903BD03046FB
:10252000FEF766FC04F4803B074684F480343146B1
:1025300048469DF80AA0C4F3004403F066FC20B9A5
:10254000484603F057FC002888D109EB4707BB8AAF
:1025500003F01C031BB1BBF1000F3FF47FAF05A8D4
:102560000596FFF70FFF059B00EB8300D0F8803046
:1025700023F4706323F00F0343EA8A0343EA44031E
:1025800043EA052343F00103C0F88030BB8A43F0DF
:102590000303BB82A2E7CDE9063331460DF10A03FE
:1025A000484605AA059304F047FE00287FF456AF7D
:1025B00094E700BF980200202DE9F041456801F042
:1025C0001F04287C88B044EA4014A868002800F062
:1025D000BB80B2F5001F06D1214604F007FE0020A3
:1025E00008B0BDE8F08168686E7CB2F5800F466285
:1025F0004FF0000603A80396466065D1B3F1007F53
:1026000014BF052304238DF80C300023CDE9060305
:102610000593EB680DF10706CB4013F0010F5ED177
:10262000B2F1A07F5BD102A80294FFF7ABFE029B40
:10263000203350F82330DA0751D4AF6832462146B0
:10264000384603F016FC16300AD197F87500414B56
:1026500003EB800004F0DEF8002878DB8DF807003B
:1026600004962146A86805AA04F0E6FD0028B7D123
:10267000AD682146284603F0BDFB80462046FEF7A4
:10268000B7FB2F6800F10806B8F1000F39D02846D3
:1026900003F0BBFB002834D105EB4606B3885B0B87
:1026A000990001F58072B850BA582A680A44D2F8E5
:1026B000101541F00101C2F810150122296802FA33
:1026C00003F3C1F814338AE7B3F1C06F05D0B3F157
:1026D000007F14BF0123022395E7032393E7AF682C
:1026E00032462146384603F0C4FB0028B9D197F89A
:1026F0007500184B9DF8071003EB800003F038FBC2
:10270000AFE7D7F8143305EB46059B035CBF4FF4E6
:102710000033C7F81433AB88C3F38203042B0FD004
:10272000052B0FD002A80294FFF72CFE029BC16874
:10273000D94001F001010231204604F044FD4EE78A
:102740000321F9E70221F7E76FF0850048E76FF012
:102750000B0045E7980200202DE9F04F804658F81D
:1027600004BB90F87540DBF814136A4BC9B253F8F8
:10277000342007468BB0584641F4003103F013FB78
:102780008203054639D50023CDE907330993614B10
:10279000E60003EBC404636807A819460093FEF73C
:1027A00031FB331D03934FF0000A5B4B0DF11C0905
:1027B0000293029A574912F8013B0292039A02EBE4
:1027C000D3028A5C03F0070322FA03F3DB071AD46F
:1027D0000AF1010ABAF1030F09F10409E9D14FF432
:1027E00000310022584603F0DEFA009907A8FEF7F0
:1027F00009FB0028D7D125F400350124002D73D121
:102800000BB0BDE8F08F454B53440493D9F80060FA
:10281000002EDDD096FAA6F6B6FA86F6049B1C7852
:1028200046EA44142046FEF7E3FA07EB4000818AAB
:10283000F208C1F3820305930193012319F8020002
:1028400006F0070603FA06F620EA060009F8020079
:1028500006A80694FFF796FD069A11F0100F02F1F4
:10286000200250F82260059BC6F3014623D0404663
:10287000019A214603F010FB06A80694FFF782FD9B
:10288000069BF6B2203350F82330C3F301439E4237
:1028900007D10021204604F096FC3146204604F082
:1028A00092FC06A80694FFF76DFD0122069B02FA32
:1028B00003F30362AAE7022E14BF0221032120467C
:1028C000059304F080FC059B032B03D0022E07D157
:1028D000012BE6D121464046019A03F0DDFAE0E7FC
:1028E000032EDED1022BF4E795FAA5F3B3FA83F3B6
:1028F00004FA03F225EA020503F5A2725BF822202E
:1029000007EB43034046B3F86410C2F3014203F0FF
:10291000C3FA73E76C7F0000508600005086000009
:102920002DE9F04F91F8213005460C4685B0002B7B
:1029300000F0BA8091F822706A4A29686A4E6B48A2
:102940006369914208BF064694F82320B6FBF3F66C
:1029500095F8223062F3000385F82230227CDBB246
:1029600062F3410385F8223094F82380B8F1000F18
:1029700034D162695E4B01219A4214BF4FF00509C0
:102980004FF00F09237E4246012B94BF0023012301
:10299000009320684B4604F0E5FECDF800804B46DE
:1029A00042460121606804F0DDFECDF800804B4610
:1029B0004146A27EA06804F0D5FE237C424683F007
:1029C0000103009301214B46E06804F0CBFE012196
:1029D00000914B464246E06904F0C4FE94F8213071
:1029E000002B63D04FF0FF336B62637E94F82110AD
:1029F00094F81280207E0393002961D0D4F80CC093
:102A0000217C94F8249094F820E02B68B9F1000F11
:102A100012D1D4E901BAD4F81C902268C3F8002678
:102A2000C3F804B6C3F808A6C3F80C96C3F810C6DA
:102A3000C3F8B815C3F8B075039AC3F8C085003A57
:102A400018BF01220228C3F82C653CD003283DD0D2
:102A5000012801D142F00202C3F85425C3F8ACE5C5
:102A6000244BD3F840331C2B14D1022E31D9237EB2
:102A700013F0FD0F2DD176080136F6B2BE4238BFF5
:102A80003E462B68C3F8B06595F8223043F0040346
:102A900085F822306B680BB32868C0F3083005B0A6
:102AA000BDE8F04FFDF768BF022745E7E3686B62BA
:102AB000227C95F8223062F3410385F8223094E7B6
:102AC0004FF0FF3C9DE742F00402C5E742F00602EA
:102AD000C2E795F8223023F00403D9E705B0BDE83A
:102AE000F08F00BF00A004500024F4000020A107D4
:102AF0000048E80100C0FF002DE9F0431E468B8826
:102B00000746046998040D4690468BB000F1878013
:102B10004FF0FF3104F16C00FEF73AFE2566B8F184
:102B2000000F40F08580C4F890800023C4F89430F2
:102B300004F1A80204F1940104F1900003F088FA72
:102B40008046C4F8A400002E7CD1C4F8986000230D
:102B5000C4F89C3004F1B00204F19C0104F1980027
:102B600003F076FA00231A46D4F89460C4F8AC0057
:102B7000C4F88C30B2426DD100221146D4F89CC00A
:102B800061456FD193422CBFC4F8A030C4F8A02097
:102B9000B8F1000F02D0D4F8A8303BB9002800F0FB
:102BA0005981D4F8B030002B00F054813E6996F87A
:102BB000283013B3F26A2B689A421ED1326B6B68CD
:102BC0009A421AD196F84030297D994215D1B6F82B
:102BD00044202B8B9A4210D1736BAA68002949D0EC
:102BE0009A420AD1B36BEA68534033F47F4304D16D
:102BF000F26B2B699A4200F0A680AB8819053ED58E
:102C00006FF08506E36D1BB19B889B0400F10C817E
:102C1000002304F16C002366FEF724FE04E1636FD9
:102C2000002B7FF475AF236E99427FF471AF76E786
:102C3000D8F80030C4F89030002B3FF476AFD8F8C5
:102C4000043073E73368C4F89830002B3FF47FAF4B
:102C500073687DE7D4F8901001EBC2014968013236
:102C60000B4487E7D4F8986006EBC106766801311B
:102C7000324485E79A42C0D1B26BEB68BAE713F0F1
:102C8000090F40F0E78003F4FC62B2F5807F40F06A
:102C9000E1802968714A914240F2DC803268D7F8BD
:102CA0000480D2F80006421C03D09B076AD404F0CB
:102CB00087FB4FF0FF33039398F81E3029688DF897
:102CC0001230D8F81830994228BF1946AB880591C0
:102CD000980703F0040258D5002A0CBF02220322F1
:102CE000C3F300138DF819304FF0FF33079398F8B2
:102CF00020304FF001088DF8203096F8283096F8F3
:102D000020908DF818208DF823808DF82480002BDA
:102D10003DD0B9F1000F4ED096F82130002B4DD1A7
:102D20003046FEF79BF8002800F094806946304654
:102D3000FFF7F6FD1C22294606F12C0004F058FF8F
:102D4000012386F82830E56504F1B409EFF3118812
:102D5000202383F31288BFF36F8F0023D4F8B4606D
:102D6000B14531D086B3304603F035F906F118008D
:102D7000FEF7BCFB6FF00A033046336703F038F907
:102D80000123EBE704F010FB93E79208A8E7B9F101
:102D9000000F16D13046FEF761F800285AD0304BAC
:102DA00069463046C6E90137FFF7BAFD86F821903B
:102DB00086F82080BEE76FF0760623E76FF00F06F7
:102DC00020E76FF077061DE70022C4F8BC207BBB2C
:102DD00088F31188BFF36F8F3869B430FEF742FD76
:102DE0004FF0FF314846FEF7D3FC07223B691B68D2
:102DF000C3F800252B7D4BB1012105F1080002F03D
:102E000032FF2B7D13B12869FDF75CFF384604F1D2
:102E10005C0804F001FC404603F038FA064660B94D
:102E2000AB889A047FF5EEAE30460BB0BDE8F08378
:102E300041460C48FEF7ACF8CEE710F1740F7FF472
:102E4000E1AE3B691868191D03F098F8404603F09D
:102E50001DFAD7E66FF01506D4E600BF47E801007B
:102E60002F770000E114002001292DE9FF4744D00D
:102E700008D90239012900F204816FF0850004B0FD
:102E8000BDE8F087046994F82830A3B32068C0F344
:102E90000830FDF77FFD636843B121467E4A51F853
:102EA000043BC3F80823206803F068F82368D3F8CC
:102EB0000006D3F80456D3F8086694F82230DF07EA
:102EC00014D403F0DEF9304603F0DBF9284603F0B2
:102ED000D8F9606A03F0D5F92368D3F80C06D3F863
:102EE000105603F0CEF9284603F0CBF9002384F8FE
:102EF000203084F828300020C1E743685A685368BE
:102F0000117A03EBC101994202D86FF00100B6E7D4
:102F10005879002800F0B8800833F4E7382B00F027
:102F200084804E2BA9D1C5F8104601E0C5F80446AF
:102F3000631C1FD0204604F037FA4FF0010A90E0DE
:102F4000C5F80C46002180E04FF0000AC5F80046A5
:102F5000621C0FD082E04FF0010AC5F80446F7E783
:102F6000C5F80846EEE7C5F860457388621C03F0B3
:102F700001036ED10436B742BDD03268C2F3C32319
:102F8000082BC2F308047CD818F8039040F2FF1312
:102F90009C4208BF4FF0FF34B2F1D05F4FEA12639A
:102FA000BCD2192B3FF669AF01A252F823F000BF43
:102FB0002D2F0000412F0000272F0000612F00005F
:102FC000492F0000572F0000612F00007B2E0000CA
:102FD0007B2E00007B2E00007B2E00007B2E00004D
:102FE0007B2E00007B2E00007B2E00007B2E00003D
:102FF0007B2E00007B2E00007B2E00007B2E00002D
:103000007B2E00007B2E0000672F0000193000008F
:103010001F30000025300000C5F86445A5E7C5F85D
:103020006845A2E7C5F86C459FE703A80394FFF73E
:10303000A9F90121039B00EB8300D0F8803023F035
:10304000E04343F08043C0F88030601C92D08A4651
:1030500008E0002B7FF46EAF4FF0010A204604F029
:10306000AFF901213368CDF80090180444BF4FF048
:10307000010A002152462046C3F3412302F010FB0F
:1030800078E76FF01500FAE61E681F791568DFF81B
:103090000C8006EB87076EE70700F81F47860000E5
:1030A0002DE9F04F8B4691461C46002595B00290C5
:1030B00099F8000008B9284643E225280CD0594663
:1030C000029B98470028C0F23C8209F101030135B8
:1030D0000493DDF81090EBE7182200210EA804F00D
:1030E00092FD99F801A0BAF1250F53D0002296461F
:1030F00094461746164609F10100014610F8013BB7
:103100002B2B75D06ED8202B74D0232B75D02AB1E1
:103110009DF8402042F040028DF84020BEF1000FA3
:1031200005D09DF8402042F020028DF84020BCF1EF
:10313000000F05D09DF8402042F010028DF840208D
:103140002FB19DF8402042F008028DF840202EB1AA
:103150009DF8402042F004028DF840209DF8402068
:1031600002F04400442803D122F040028DF84020B0
:103170009DF840202A2B42F080028DF8402040F03C
:10318000A5809DF841204B1C42F001028DF84120A2
:1031900000274BE04FF00008474609F10203049373
:1031A0009DF84120D60740F1498154F8047B002F57
:1031B00006DA9DF840107F4241F004018DF840107E
:1031C000500740F1428154F8048BB8F1000F80F2AF
:1031D0003F819DF8412022F002028DF841204FF0FE
:1031E000FF3835E12D2B0BD0302B90D1012284E715
:1031F000012782E74FF0010C7FE74FF0010E7CE7DB
:1032000001267AE713460CFB0707303F1A4612F8EF
:10321000010BA0F13006092EF4D99942B8D09DF8DF
:103220004020F90F61F341028DF840201A782E2AD0
:103230000CBF012100219DF8412061F341028DF86E
:1032400041204FD15A782A2A45D04FF000080A264B
:1032500001331A4612F8011BA1F13000092844D9A4
:103260009DF84020C2F3400141EAD87161F3410268
:103270008DF840201A786C2A58D03CD8682A42D061
:103280006A2A5CD04C2A62D013F801AB9DF8412029
:10329000BAF1780F049311D8BAF16D0F64D8BAF16E
:1032A000690F0BD8BAF1570F7CD8BAF1410F00F073
:1032B000AF80AAF14502022A40F2AA809DF8402080
:1032C00042F001028DF84020002295E00B460027D5
:1032D0004FF00A0C9AE79DF84120023342F00402B5
:1032E0008DF841204FF00008C4E706FB081813468C
:1032F000A8F13008ADE7742A25D07A2AC4D1062176
:103300009DF841200CE05A78682A9DF8412006D1AA
:10331000012161F3C6028DF841200233B4E7022196
:1033200061F3C6028DF841200133ADE75A786C2A6B
:103330009DF8412001D10421EBE70321F0E70521AD
:103340009DF84120ECE707219DF84120E8E7BDF812
:10335000402022F4F04222F0020242F4804242F085
:103360000202ADF84020DFE70121AAF16E00C0B2F1
:10337000814040F28240014225D111F0240F50D10A
:10338000CB079BD503209DF8421002F07802A2F1F2
:10339000400C60F30201DCF100028DF8421042EBB8
:1033A0000C0229E00120AAF15801C9B200FA01F18A
:1033B00011F4624F2CD111F4043F27D140F60100E3
:1033C00001423FF47BAF02219DF8420002F07802F7
:1033D000402A61F3020008BF9DF840108DF84200BA
:1033E00004BF41F001018DF84010003A18BF0122DE
:1033F000BAF1630F18BF00229DF84010C1F34000DE
:10340000024362F341018DF84010C9E60146DBE753
:1034100004219DF8422061F302028DF8422001222E
:10342000EAE703209DF8421002F0780260F30201FF
:10343000003A18BF01228DF84210DDE79DF94010D7
:103440000029A8BF4FF0FF37BAE691077FF5C7AE56
:103450009DF842109DF8412001F007010139C2F3A7
:10346000C302032952D8DFE801F0022A6149D11EC4
:10347000042904D8DFE801F0190F0F191900012AF7
:1034800054F8041B15D0022A15BF084608B2C1170C
:1034900041F3C03110E0E01D20F007000446406811
:1034A00054F8081BCDE90E1030E054F8041BC8177F
:1034B000F8E748B241F3C011CDE90E0126E0D11E74
:1034C000042904D8DFE801F0130B0B131300012AC1
:1034D00054F8041B0FD0022A08BF89B20CE0E11D8A
:1034E00021F007010C46496854F8080BE4E7002175
:1034F00054F8040BE0E7C9B20020D3E7073424F006
:103500000704D4E90001CDE90E0108349DF840100C
:1035100011F0030618D04E46049BB3420AD8A6EB1E
:103520000906002E30460CDB3544D2E554F8041B66
:103530000E91EBE7594616F8010B029B98470028BD
:10354000EADA15B0BDE8F08FBAF1780F3FF6C1ADF9
:10355000BAF1620F18D8BAF1250F49D0BAF1580F55
:103560007FF4B7ADDDE90E010DF13603009310AA2B
:1035700008AB8DF843A002F036FA119B81469DF806
:1035800043A0129A039398E0AAF1630015283FF62E
:10359000A0AD01A656F820F0EB360000053700007C
:1035A000D3300000D3300000D3300000D33000000F
:1035B00005370000D3300000D3300000D3300000C6
:1035C000D33000002F3700002B3700008536000075
:1035D000D3300000D330000001360000D3300000AB
:1035E0002B370000D3300000D33000002B37000011
:1035F00059465046029B98470028A2DB013568E5F2
:10360000B8F1000FDDF8389034DB002019F8002005
:103610000AB180452CD10026324609EB0003059300
:1036200003969DF8421011F01003069300F09C8061
:103630000230039B4906184448BF8018002F40F30E
:10364000A8809DF840203F1A5307C2F3800800F17C
:10365000A080500640F1C18046B159463046029BD9
:1036600098470028FFF66DAF464601353022B5E099
:103670000130CBE7484604F0A4FAB9F1000F3FF45B
:1036800028ADC8E70E98002865D070238DF8433028
:103690000DF13603009310AA08AB002102F0A3F944
:1036A000002681464FF0780A119B129A03939DF8E9
:1036B000423043F010038DF842300DF13600B8F17E
:1036C000000FA0EB09000ADB9DF84010804521F0B7
:1036D00040018DF8401002D9A8EB0003039306B116
:1036E00001300DF1360305939BE700260E9A0DF18C
:1036F00021038DF8202001203246039605930DF119
:1037000020098EE70A075DBFC1F300114901CEB25F
:103710002B26DDE90E12002ABFF624AF494262EBE8
:1037200042022D26CDE90E121CE700261AE70E9B59
:10373000072A3FF6CEACDFE802F00C04060C0808BE
:103740000C0C1D70C5E41D80C3E4EA17C3E90052E8
:10375000BFE41D60BDE4384B064602460390059366
:103760000520A3F105095CE70B0748BF013060E7BE
:10377000104607925946029B98470028079AFFF681
:10378000E0AE4146002908F1FF38F1DC3D444746F0
:103790006D1A3EB159463046029B98470028FFF605
:1037A000D0AE01359DF84220D10601D4130707D5CC
:1037B00059463020029B98470028FFF6C2AE0135DB
:1037C000069B3BB159465046029B98470028FFF69E
:1037D000B8AE0135039E2E440AE02022B846D0E759
:1037E00059463020029B98470028FFF6AAAE0135C3
:1037F000731B002BF4DC4E46059BB34214D8A6EB9A
:103800000906002E3046FFF69CAE35442F447B1B44
:10381000002B7FF75EAC59462020029B984700287A
:10382000FFF68FAE0135F2E7594616F8010B029B01
:1038300098470028E0DA84E69F8100000FB41FB5A6
:1038400006AB53F8042B0393002104480091FFF7C3
:1038500027FC05B05DF804EB04B07047E3590000A5
:1038600005460C4608B599B1D1E90123134809680A
:10387000FFF7E4FFD4E90423E1681148FFF7DEFF16
:10388000E1691048FFF7DAFFA1690F48FFF7D6FF9B
:10389000012D05D1EFF305810C481039FFF7CEFF5C
:1038A000EFF31183202383F31288BFF36F8FEFF3BD
:1038B000118283F31288BFF36F8FFEE7A0810000AF
:1038C000D081000000820000108200003F820000D2
:1038D00070B5264C26480E461546FFF7AFFFA36A83
:1038E000D80640D52348FFF7A9FF1120A36A19077E
:1038F00003D52148FFF7A2FF12201C4CA36A9A07A8
:103900000FD51E48FFF79AFF616BA36A1B0607D508
:103910001B48FFF793FF1EB1A36A23F08003A36245
:103920001320124CA36ADE0703D51648FFF786FF63
:103930001420A36A9C0603D51348FFF77FFF1520C8
:103940000A4B9A6AD10658BF9A6A9A6A920642BF8F
:103950005A6A22F400525A629A6A42F0FF029A624C
:1039600000232B7070BD1020C0E700BF00ED00E009
:10397000538200006A8200009E820000B282000032
:10398000CB820000E28200000283000070B5244C6C
:1039900024480E461546FFF751FFA36AD90435D5D2
:1039A0002148FFF74BFF1720A36A1A0503D51F48CC
:1039B000FFF744FF18201A4CA36A9B050FD51C483B
:1039C000FFF73CFFA16BA36A180407D51948FFF75E
:1039D00035FF1EB1A36A23F40043A3621920104CE3
:1039E000A36A590503D51448FFF728FF1A20A36AD4
:1039F000DA050DD51148FFF721FF1B20084A936A0D
:103A000043F47F43936200232B7070BD1620CBE7F5
:103A1000A36A9B04F2D50A48FFF710FF1C20EDE7CC
:103A200000ED00E032830000498300009E82000028
:103A30005B830000758300008B830000A783000078
:103A40000283000010B5204C2048FFF7F7FEA36A60
:103A5000990137D51E48FFF7F1FE1E20A36ADA014F
:103A600003D51C48FFF7EAFE1F20174CA36ADB02B0
:103A700003D51948FFF7E2FE2020A36A1C0303D5F3
:103A80001648FFF7DBFE21200F4CA36A590303D52C
:103A90001348FFF7D3FE2220A36A9A0303D51148E7
:103AA000FFF7CCFE2320084CA36ADB0303D50E48A6
:103AB000FFF7C4FE2420A36A6FEA03436FEA1343AF
:103AC000A36210BD1D20C9E700ED00E0C083000027
:103AD000D9830000ED8300000884000033840000D7
:103AE000528400007884000093840000002310B505
:103AF0000B4A147884420AD00133042B02F11002DD
:103B0000F7D16FF0010010BD00200A60FBE7D0681C
:103B100001F0EBFF0028F7D16FF01200F3E700BFD0
:103B2000087F000030B5816885B0103921F00F049E
:103B3000054603F06DFE10220146684604F063F866
:103B400010226846064904F053F810236A462146BD
:103B5000284603F047FE003818BF012005B030BDED
:103B60006C8100002DE9F0415C4B05465F68002642
:103B70008AB0C7F3080486F31188BFF36F8F02F091
:103B80007F43B3F17F4F06D102F00C03082B13D112
:103B90005348FFF753FE002635464FF00008E31E5A
:103BA0008DF80780092B00F28680DFE803F00A7A9F
:103BB0007E7584848484848210074CBF0D46012660
:103BC000EBE74848454CFFF739FE8DF80780E36A7C
:103BD0009A0704D54448FFF731FE00242AE0E36A3F
:103BE000002B01DA4148F6E7E36A5B00F5D540486F
:103BF000FFF724FE6369AA6943F480736361BFF32E
:103C00004F8FBFF36F8F32F8023C626922F48072EB
:103C10006261BFF34F8FBFF36F8F03F47F42B2F542
:103C20005F4F1FD1DBB2022B1CD129683148FFF74F
:103C300005FE2C689DF80730002B4BD12022294629
:103C400002A803F0D5FF099B002E40D0C3F3080261
:103C500022B96FEA53236FEA43230993204602A94E
:103C6000FFF7FEFD1D4B9A6AD2B232B101210DF170
:103C700007022846FFF72CFE11E09A6A12F47F4FE4
:103C800006D001210DF107022846FFF77FFE06E06E
:103C90009B6AB3F5803FA0D32846FFF7D3FE0446C6
:103CA000C8E700210DF10702E3E700210DF107024B
:103CB000EAE711488FE7114B17F4F87F10491148D4
:103CC00008BF1946A4F11002FFF7B8FD85E76FF3AE
:103CD0000803C2E70AB0BDE8F08100BF00ED00E0D4
:103CE000ED84000019850000318500005385000037
:103CF00062850000828500009F850000BF8400006F
:103D0000D4840000C485000010B572B6002484F38A
:103D10001388FCF71FFE23464FF0FF300C4A03F1D7
:103D200020010133102B42F82100F8D100234FF07D
:103D3000FF30074A03F160010133102B42F82100E4
:103D4000F8D162B6BFF34F8FBFF36F8F10BD00BFC6
:103D500000E100E08FB5544A544B22F07F029A6094
:103D6000BFF34F8FBFF36F8FD3F88820504822F4F2
:103D70007002C3F888204F4A0021121A03F043FF53
:103D80004D484E4A4E49121A03F032FF4D484E4AF2
:103D90004E49121A03F02CFF40F20F14002210B209
:103DA00001210132FCF708FEA242F8D10020FDF704
:103DB00073F8474F87F30888E0223C4B454E83F861
:103DC00022200022DA771A765A769A7683F8202013
:103DD000596A41F4E021596283F82320596941F07E
:103DE00010015961596921F00801596110211961C7
:103DF0004FF0FF319962D962D3F8901011F47E4FE1
:103E000029D0BFF35F8F3449C3F89420C3F8C010A2
:103E100002213248C3F89820C3F89C10C3F8A000D0
:103E20000120C3F8980000F10050C3F89C0000F591
:103E30007F3000F2E230C3F8A0003170D3F8900078
:103E4000C0F30720814214DB0522C3F89420BFF39E
:103E50004F8FBFF36F8F22493478D1F80480B8F1C7
:103E6000000F00F09C80B8F11F0F3BD86FF01504D5
:103E700095E0C3F89810C3F8A0200131DEE7204692
:103E8000C3F89850D3F89C2002F01F0242EA0802BF
:103E9000C3F89C2001F03DFE7CE0D445EFD1E8B2B0
:103EA00001F037FE7BE000BF0000000000ED00E005
:103EB000B8020020E415002040000020B4020020D9
:103EC000908F00000000002040000020508F000074
:103ED00028470020E1140020AAFF4400E1CF17008A
:103EE000A07F000018F01F0FC0D10A68D306BDD113
:103EF000104601F005FE904408F1FF3A0546504691
:103F000001F0FEFD8542B1D115F1160FAED0A542EC
:103F1000ACDA814BC3F89850D3F89C00C3F89850A2
:103F2000D3F8A09020F01F00824249F01F0CB4D0BB
:103F3000013AC3F8985022F01F00D3F8A020D445CE
:103F400002F01F0242EA0002C3F8A0202046A1D0DE
:103F500001F0DFFD10F1160F88D06F4B0130C3F870
:103F60009850D3F89C109DF80820C0B261F3040269
:103F70008DF80820D3F8A030D2B25B0863F3471263
:103F8000694629F01F038DF80820CDF800800393BF
:103F9000FCF726FD10F1160F3FF468AF441C5F4894
:103FA0005F4B347083420CD001F0AAFD02465D489D
:103FB00001F0A6FD82425C4B00F088806FF0150294
:103FC0001A604FF001080024584B594E404683F8C0
:103FD0001080A3F80C80C3E917449C66B360FCF71B
:103FE0005BFF0220FCF758FF4FF420524FF0807126
:103FF000504D06F11803C6E90633C5E9182405F14A
:1040000050034D4AC5E914334C4B22F001094C4A88
:10401000EB6503F50053C3F8F897C3F8E027C3F83E
:10402000E447C3F8E847C3F8EC47C3F8FC1703F5C7
:10403000FC63AB64B368C5E90248C5E90644904631
:104040007561EC66EC6403B19B6E3A48AB662C7408
:1040500001F0CEFF4FF4A0713A4B03F15002C3E9D7
:104060001422394AC3E91814DA603849384AC3E9D6
:104070000644C2E948164FF08071C2F83891C2F880
:104080003C11C2E94A44DA6502F590729A64B2685A
:104090009C60DC66DC6402B1926E9A660022C6E91E
:1040A00001751A74F36032742A4D444685F3098809
:1040B0000020044B98472046002100220023024C98
:1040C00020470000C37800007917000012F1160F96
:1040D0001A603FF476AF317891427FF772AF0E49A4
:1040E000C1F89820C1F89820D1F89C001A7B60F3A1
:1040F00004021A73D1F8A020187B520862F347100B
:104100001873D1F89C2022F01F025A60D1F8A02029
:1041100022F01F021A6154E700ED00E0B80200200F
:1041200000000420FFFF0320400F00203C1000206F
:10413000B0100020C80F00207917000028170020B9
:10414000CD440000540F002001000F00AF5F0000BD
:10415000E8150020283F0020054B5A699B689A42C9
:104160001FBF044A536843F080535360704700BF39
:10417000B010002000ED00E008B5EFF30583064A1B
:10418000103B02EBC30152F8330049688847BDE891
:104190000840FFF7E1BF00BFD886000030B50D46EC
:1041A000816887B0102302AA1039044603F0F8FA98
:1041B000002802DA012007B030BD1022204602A9F3
:1041C00003F08DFB00283FD11022204902A803F004
:1041D000FFFC00280CBF012302232B70A1680123E0
:1041E000203921F00F0120460DF10702203903F09C
:1041F000D7FA0028DEDB9DF80730204603F00F02D7
:104200001B096A702B7101220DF1070103F067FB96
:1042100010B96B78042B03D901236B7000232B7129
:10422000A2682046203A22F00F02103AA91C03F09F
:1042300068FB0028BED1A2682046203A22F00F0277
:10424000E91C03F05EFBB6E70323C6E76C810000C0
:1042500000222DE9F04F8DB00446CDE9082202F08E
:1042600095FB964E98B3964D3368AB4203D11046FA
:1042700009A901F0C9F8F36AAB4203D1012008A9EA
:1042800001F0C2F8DDE908239A4284BF134609927F
:10429000A3604FF0000B726AD2F804805A46424481
:1042A0009342DA460BF1010BF9D8204602F06EFB7F
:1042B000F0B140F216220021F36D534303F1500296
:1042C000B36A013B414491420AD2013BFAE701F053
:1042D00009F904F1080103F079FAA3680993D8E712
:1042E0005B4505D80123E37100200DB0BDE8F08FD8
:1042F0006368744A03F0FF239342356AF76C17D161
:104300002368012B14D138460AA9FFF747FF9DF80F
:104310002830032B0CD1384601F026FA384603F03A
:1043200059FB3846A16803F046FB3846FFF7FAFB15
:104330006379012B68D10AF10203D946DFF888A11D
:1043400004935CE02368049AD21A4A4555D3726AF2
:10435000012B116852F8390002EBC90252F8082CFF
:10436000A0EB0100A2EB0102029003922BD1E268C4
:104370000593022A24D0284601F0F6F9F06C0AA928
:10438000FFF70CFFE279012A0CD0A9688DF81F20F5
:10439000203921F00F012846059B0DF11F0220391D
:1043A00003F0DCFA9DF82B30012B02D1284603F0F4
:1043B00011FB2846A16803F0FEFA2846FFF7B2FB7E
:1043C000384601F0D1F9002342460299284602F00E
:1043D0007EFADDE9023229462846CDF8008001F058
:1043E00055F8204601F07EF923680133236020B19F
:1043F000DAF800300133CAF8003009F1FF39B9F1B9
:10440000000F9FD10123236002234FF00109637144
:10441000D9453FF669AF23684B454CD8726A4FEADD
:10442000C90352F83910083B039111680291316DAC
:10443000C8580968A0EB010A2179012939D1D1585E
:10444000029B4246C91A28460023049102F03FFA13
:10445000049952460B4638462946CDF8008001F0B3
:1044600015F8204601F03EF90223237118B1164ACF
:10447000136801331360002342465146384602F068
:1044800026FADDE902125346521A28463946CDF87B
:10449000008000F0FBFF204601F024F9236801337F
:1044A00023600123237130B1074A1368013313607D
:1044B00001E00229DFD009F10109A9E7480E002037
:1044C0003DB8F396000100042403002001222DE9E9
:1044D0008048684B8DB003201A70FCF7DDFC042087
:1044E000FCF7DAFC4FF0807800214FF0040C624BAF
:1044F000624A634D634C23F0010EAA4254D3EFF39A
:1045000011814FF0200888F31288BFF36F8FA268E3
:10451000D37B013BD37381F31188BFF36F8F574F68
:10452000AF427DD3EFF31181202383F31288BFF3D1
:104530006F8FA2685448D37B0133D373A36983423E
:1045400000D003B9E368107CC00606D1D0897F286B
:1045500003D99869002808BF13464C486361FCF7EB
:1045600017FD4B4C60220021204603F04CFB01203C
:1045700004F12001FFF7BAFA002879D1022004F1F2
:104580004C01FFF7B3FA002872D1B225414A01204D
:1045900002F5B26308A962622365089503F0C7FAC1
:1045A000002879D001208EE11769D2E9020900972D
:1045B0005769073001979769D2E90036029720F0D2
:1045C000070003F15007D2E907ABC3E91477C3E949
:1045D000176037180098C3E906119960A3F80CB06A
:1045E00083F810C083F80EA0D973596647F81C0CE5
:1045F000019847F808EC47F8180C029847F8209CF7
:1046000047F8140C47F8048CA068203F9F64D966D3
:10461000D96400B1806E98661368DA642C326CE756
:10462000B96A4A1C19D03E68F1B9EFF3118988F3D1
:104630001288BFF36F8F337C5B0710D506F118002B
:10464000FCF754FF337C304623F004033374FCF74B
:1046500063FC49460D48FCF79BFC2C3760E789F367
:104660001188BFF36F8FF8E73046FCF779FEF4E767
:10467000FEE700BFE014002079170000347D000041
:10468000347D0000B0100020C8100020E01400208D
:10469000480E002028030020089B0220226D08A954
:1046A000A362089503F043FA002800F0A3800123D9
:1046B00084F858300021084600F02EFF00287FF4CF
:1046C00071AFA66A656DAE4203D06B1C9E427FF44B
:1046D00069AFB22E3FF666AF00231F46626A216DB6
:1046E000043204319D4240F08D80236AD86802F084
:1046F00064FDE36CD86802F060FDAE4206D9636ADF
:1047000003EBC5035B68BB427FF44CAF0123089306
:1047100003F101230993002304A9206ACDE90A3398
:10472000FFF73CFDE06C06A9FFF738FD9DF810305F
:10473000012B70D19DF81230032B6CD19DF81830ED
:10474000012B68D00223266A0B933378013B012B9F
:104750003FF628AF40F21627F068D4F85CA002F0CC
:104760002CFD4FF0FF35B946B3685FFA8AFA503B2B
:1047700007FB1038CB4609F1FF390123304619FBFE
:104780000A8106AA03F00CF80028FFF60BAF0122FD
:10479000304606A903F0A3F818B9B5F1FF3F08BFEA
:1047A0005D46013FE6D1691C07D0B12D65DC40F2C2
:1047B000011301350895ADF82430B1680123203983
:1047C00021F00F01304606AA203902F0E9FF002847
:1047D0007FF4E8AE0122304606A903F080F810B15C
:1047E00001238DF818309DF8183003F00F038DF871
:1047F000273012E0089B6365236AD86802F0DDFC6D
:10480000E06557E752F8337051F8330087427FF480
:10481000C9AE013366E700230B9308A802F0B6F88F
:1048200080F0010008A9C0B200F076FE00287FF4F5
:10483000B9AE08A802F0AAF888BB08A8FFF708FDDF
:104840009DF8273084F85830033B012B05D803F03E
:104850003FF910B1FF2384F858309DF82730023B10
:10486000022B05D803F04CF910B1FF2384F858301F
:1048700094F85830FF2B0DD1FEE70223B23D8DF89E
:1048800025306B1005F001050133013508938DF8D3
:10489000245092E70021084600F03EFE82E69DF893
:1048A0002760012E1CD100F09DFE831E022B0546C1
:1048B00008D8304608A900F087FF18B1012814BFB6
:1048C00005250125E8B2042884F858008DF8270052
:1048D00010D8012813D822D0FF2384F858301EE0C6
:1048E000012008A900F070FF10B99DF82700EAE741
:1048F0000520E8E70528EFD103F0EAF80DE008A865
:10490000FFF7A6FC94F85830DA1E012A0CD803F001
:10491000DFF80028E0D103F0F3F80028DCD194F8A8
:104920005830FF2B04D1FEE7023B012BF7D8F2E70A
:104930000021012B06910CD10021084600F044FF14
:10494000064658B9069B01330693069B012B0ED0F1
:10495000FEE7084600F0E0FD0028EDD04FF0FF36FE
:104960001022002108A803F04EF926B1FEE7236AC1
:104970005B680393F4E77E4BD3F874250F2A40F06D
:10498000D280D3F86C250F2A40F0CD804FF4F84147
:1049900002F5F91202F6F672C3F86865C3F86C25E1
:1049A000C3F87015C3F874252389724C039AA04686
:1049B000714F58F8045F13443B60ED4367234FF099
:1049C000010ADFF8B89105F06705C9F82833002D12
:1049D00040F0AA80E420FBF7DDFF684BD3F84827BE
:1049E00022F00102C3F84827D3F8102522F0010273
:1049F000C3F81025D3F8102522F00202C3F81025C1
:104A000001225A669A662570EFF31182202383F300
:104A10001288BFF36F8F5A48818E01F00701022977
:104A200040F0A080C38E013B9BB2C386002B40F0B8
:104A300099801C30FBF79AFE524B534A1B684FF487
:104A40007A70B3FBF2F34FF0000858434F4B4FF02E
:104A5000FF3643F001039847C146DFF834A15AF806
:104A6000044B0DF1200BC4F80863C4F30830FBF7C6
:104A700091FF0123E362C4F85091D4F85031C4F897
:104A80004C91D4F84C31C4F82491D4F82431C4F8B2
:104A90000095D4F804360893D4F80C360993D4F86A
:104AA00010360A93D4F808360B93C4F80466C4F899
:104AB0000C66C4F81066C4F8086600245BF8040BA2
:104AC000431C01D001F0D3FB0134042CF6D108F1D2
:104AD0000108B8F1030FC2D101224FF0FF312D4B75
:104AE0005A60DA60C3F80813BFF36F8F72B6002301
:104AF000294A03F120000133102B42F82010F8D18D
:104B00004FF0FF3105F160030135102D42F82310FD
:104B1000F8D10022214BC3F80424FBF71BFF3868AF
:104B20001F4B9847FEE7FEE7A3680AFA06F202EA7F
:104B3000030111F0670F1CBF9343A3606368DB435D
:104B400003F0670313420AD0002209EB0613C3F8EF
:104B50002C25EA0703D54046F1B201F009F96D08AA
:104B6000013634E782F31188BFF36F8F64E700BF2B
:104B700000B0045040000020A80E002000200E507D
:104B8000E40E0020A002002040420F00C07D000083
:104B9000487F000000E0105000E100E0002008E045
:104BA0000100002008B501233F4A4048C2F8003800
:104BB0003F4AD2F840231C2A04BF3E4AC2F80C34B4
:104BC000FCF7A2F80830FCF79FF80830FCF79CF8D7
:104BD0000830FCF799F800F5F470FCF795F8364AC0
:104BE000D2F88C3043F44063C2F88C300022D300FA
:104BF00003F57F0303F54043D3F8001401310AD0D5
:104C0000D3F8001439B1D3F800140132D3F80434C6
:104C1000402A0B60EBD1244BD3F84024002A3ED02D
:104C2000FCF762F848B1224BD3F83423234B9A4265
:104C30009EBF1D4B224AC3F84026FCF755F818B119
:104C4000204B214AC3F8AC27FCF74EF848B1342278
:104C5000154BC3F82426D3F83C2622F40022C3F8CF
:104C60003C261A4BD3F80026D20744BF6FF001024E
:104C7000C3F80026164BD3F8182522F00302C3F818
:104C80001825D3F8182542F00302C3F818250A4A5C
:104C9000D2F88C3043F44063C2F88C3008BDC8228F
:104CA000C3F84024BCE700BF0000125000C50D50FF
:104CB00000C0FF000030055000ED00E0001D0A18A4
:104CC00040E0A91E00A0085078000A0400E010503F
:104CD00000B004502DE9F04FADF5457DCDE903015D
:104CE00070220021A4A802F08EFFA54CA54BA64D72
:104CF000CDE9A4430024A54BA54ECDE9A653A54B71
:104D0000039ACDE9A863A44BAA9303F17453A3F5C6
:104D10002303A3F69243AB93039B52891B8913444D
:104D2000039AD6681E44A6422DD8A4A910A802F062
:104D3000F6F9049BFBB1039B04981C89DB68A4AAC9
:104D40001C442146042302F02BFD079098B946F637
:104D50000812BDF89012039B91425B8944D1BDF8C3
:104D60009212994207D104230498A4AA214402F084
:104D700017FD00283AD04FF0FF33029302980DF54B
:104D8000457DBDE8F08F351BB5F5807F28BF4FF41A
:104D9000807521462B46814A049802F001FD0746A2
:104DA0000028E8D1A846DFF8F491B8F1010801D253
:104DB0002C44B8E7BE9B5A1CBE9219F8011B03F5A0
:104DC00044736B443F2A03F8581CEED9AEA9A4A83B
:104DD000FDF7F0F9AC9BAD9A13F5007342F10002B8
:104DE000CDE9AC32BE97E0E7002BC4D146F60713FD
:104DF000BDF890229A42BED1039B69485B89C16D80
:104E000023440693069ABDF89232134440F21622C8
:104E10000893436A5B6802FB01315A424F311140EB
:104E2000826A406D013A5A434343521A5B1A9A42CE
:104E300028BF1A46089B93429DD8231D4FF0FF348C
:104E400005930294089B059A934240F2D382039BF8
:104E50005B8923B1069B934204BF0433059304236B
:104E6000DDE9040188AA02F09BFC002883D1059AA1
:104E7000BDF82032111D069ABDF822A28A4209D837
:104E80004FF6FF75474830F8022BAA423FF473AF44
:104E90009A42F8D1102B0AD0222B00F08780012BE8
:104EA0001CD0059A0AF104031A440592CAE7BAF124
:104EB000200F7FF460AF53460498A4AA02F070FC60
:104EC00000287FF458AF5246A4A910A802F080FE33
:104ED00000287FF450AF01230793E2E7BAF1200FD7
:104EE0003FF649AF53460498A4AA02F059FC044681
:104EF00000287FF440AF5A250146702288A802F0AE
:104F000082FE204B1E4A2049CDE988231F4B2048B2
:104F1000CDE98A131F4B244ECDE98C031E4B8E9393
:104F200003F17453A3F52303A3F692438F93A29B3B
:104F30005A1CA29216F8011B03F544736B443F2AD6
:104F400003F8C81C0CD992A988A8FDF733F9909BE7
:104F5000919A13F5007342F10002CDE99032A294C8
:104F6000013DE4D288A978A802F0D9F85246A4A954
:104F700078A802F02DFE041E18BF0124644290E7B9
:104F800067E6096A85AE67BB72F36E3C3AF54FA5DA
:104F90007F520E518C68059BABD9831FE214002011
:104FA000480E00207C81000053860000002C7FF416
:104FB00078AFBAF1800F3FF6DEAE53460498A4AA4C
:104FC00002F0EEFB00287FF4D6AEC6490BAC60AD14
:104FD0000B9130232A4620465B3102F038FD002831
:104FE00040F0BD81609B0B9E0DF5D0781E4442467B
:104FF00030233146204602F02AFD002840F0AF81E0
:105000000B9FF31B002B40F3AA813B78204678933B
:10501000689B79AA1F443946062378AD02F017FD34
:10502000002840F09C810B9A6968AA6053189F423F
:105030000B9340F08181AC4B0C2200211B6888A8A7
:105040009847D5F80480B8F1070F40F088814246B0
:10505000A649A86802F0BCFD002840F08081899A2A
:10506000082A40F07C81A2498A9802F0B1FD00280C
:1050700040F0758160AC0BAF0323224631463846C1
:1050800002F0E5FC002840F06A81609B002B00F0F4
:1050900066810B9C5A1E60922178002940F05F8146
:1050A0002344611C9E420B9140F05981412A40F0FB
:1050B0005681A4AB03EB0A062B6031463023284609
:1050C00088AA02F0C4FC002840F04981789B889AA5
:1050D0000DF5F07B13449E42C0F0418132465946A3
:1050E00068A802F0C8FC002840F0398132465946D1
:1050F00070A802F0C0FC0290002840F03081637874
:10510000042B40F02C81202237905F906790A11CE7
:10511000584601F0E6FF58AF202204F1220180A892
:1051200001F0DFFF60AD2022384668A901F0D9FF09
:10513000284670A9202201F0D4FF0821384601F04A
:105140003DFC002840F00B810821284601F036FC88
:105150000646002840F0038108223946654801F0E0
:105160006CFC012840F0FB8008222946614801F0D0
:1051700064FC0128099040F0F28028AC0DF1600930
:10518000082329465B4A204601F0A0FE4846082134
:1051900088AD1F9601F007FC4846202210A901F0B7
:1051A000A0FF494628460823224601F08DFC2946E7
:1051B000484608234F4A01F000FD39462846082397
:1051C000224601F081FC082329464A4A20A801F022
:1051D000F4FC494F59462846082201F022FC0822D7
:1051E00080A990A801F01DFC0822394640A801F0D2
:1051F00018FC082207F1200148A801F012FC08233E
:1052000029462046009340AAA7F1400301F0C3FCC1
:10521000A7F14402009290AB2A4648A940A801F0A9
:10522000F7FE082321462046A7F1400201F04EFE7A
:105230002246A7F14403284690A901F0CBFE08219D
:105240004846CDE90EB5CDE90C6701F0CFFB08214A
:10525000054620A801F0CAFBA842B8BF284685B27F
:1052600005F1FF3B0FFA8BFB5946484601F0B5FBB1
:105270005946814620A801F0B0FB003818BF012034
:10528000B9F1000918BF4FF001090CAB49EA400918
:1052900053F829900822494630A801F0C2FB0822A1
:1052A00009F1200138A801F0BCFB0821204601F0DB
:1052B0007AFB099B023D2360A7F140032DB20993BD
:1052C000002D52DA0823214620460C4A30AD01F069
:1052D000FDFD224628460A4B38A901F07BFE082234
:1052E00010E000BF5386000068810000B786000010
:1052F000AE860000DC800000FC800000BC80000066
:10530000B880000029463E4801F097FB012805D0EF
:105310000823294628463A4A01F0A4FB58A955F823
:10532000283051F82820B8F1010883EA020346EA40
:105330000306F4D2B6B112E0525C0BAC8892013392
:105340003946204689AA0B9302F052FB38B90B9BD1
:10535000899A8A9313449F420B933FF472AE4FF0A5
:10536000FF3302934FF0FF349BE5264B224638A9CA
:1053700030A801F0CEFC294618A801F02EFB2946E2
:10538000074620A801F029FB031E18BF0123381E81
:1053900018BF012040EA43000CAB53F8207037B32C
:1053A0000822394640A801F03CFB082207F1200101
:1053B00048A801F036FB2246124B48A940A801F04C
:1053C00009FE082340AA009330A9099B50A801F0C8
:1053D000E2FB0C4B30AA009348A938AB40A801F07F
:1053E00017FE21462046074B50AA01F082FC013DE2
:1053F0002DB265E7079B012B7FF4BDACBEE400BF77
:10540000DC800000B88000002C232DE9F3411E4D04
:105410000F4603FB0055EB682E89D5F820801E440B
:105420000423314640460DEB030202F0B9F904466D
:1054300020B10124204602B0BDE8F08146F60813F1
:10544000BDF804206D899A421AD1BDF806309D42FC
:1054500001D00324EEE7042340460DEB0302A91913
:1054600002F09EF90028E4D146F60713BDF80420A7
:105470009A42EED1BDF806302B4433443B60D9E765
:10548000002DF1D0E5E700BF480E00202DE9F047E0
:1054900006460F46904699460024DDF820A0A24516
:1054A00001D800200FE0AAEB0405B5F5806F28BFF6
:1054B0004FF4806530462B46094A04EB080102F0A0
:1054C0006FF910B10120BDE8F0872B463846044A39
:1054D00004EB090102F086F90028F3D12C44DEE741
:1054E000D01000201FB50A4B6A461C6A1023A16821
:1054F0002046103902F054F938B91022684605499F
:1055000002F066FB204604B010BD0024FAE700BF9D
:10551000480E00206C8100002DE9F7432F4E07460E
:105520000D460024B0464FF02C091DB1284601F06D
:105530002DFA08B1224643E0FFF7D4FF30B901202D
:105540000CB1002F31D003B0BDE8F08301A902F007
:105550003DF903460028F2D1D8F82420019851687B
:105560001A460A44904203F10103FAD86A79012AE3
:105570001DD1002CDED128682246984298BF2146D2
:1055800009FB028020233246006A02F009F9002854
:10559000D5D11DB13268124B9A421CD1631C022B2B
:1055A0004FF0010406F12C06BFD10020CBE7022A00
:1055B000C0D12A68012A05D99A42BBD884F00102D9
:1055C0000021DDE7B6D124B12A79023A18BF0122C1
:1055D000F6E72246D4E74FF0FF30B1E7480E00204F
:1055E0003DB8F39630B585B06946012002F0A5F9C3
:1055F000002839D102A9022002F09FF9012808BF32
:1056000003234FF0000104BF8DF808308DF80B30F4
:105610009DF800009DF80840204B1A78042A05D018
:10562000052A23D1421E18BF012272B35A78042AD8
:1056300005D0052A21D1621E18BF01222AB39A780B
:10564000042A03D09DF8035095421ED1DA78042A2B
:1056500003D09DF80B50954217D11A79042A10D126
:105660005879831E022B16D9FF2014E0A2EB000C00
:10567000DCF1000242EB0C02D7E7151B6A426A41DB
:10568000DCE79DF802509542EAD00131032903F18D
:105690000603C2D1012005B030BD00BFBF860000A7
:1056A0002DE9F341019001A898460F461646FCF7F4
:1056B00069FE019B9DF8204000EB8300D0F880300C
:1056C000074D24021D4044EA880343EA070141EAEA
:1056D00046022A43C0F8802002B0BDE8F08100BF36
:1056E000F0F0FCFFF0B51F4F85B03E6A0546F0684C
:1056F00001F063FD40F2162358436B79FA6D012BDC
:1057000012BFB22300231146B4682F79A4F15004CC
:1057100007F1FF3702FB074418BF5343A4EB000413
:105720001C442B6818BF5100013BF06801FB034487
:1057300001F043FD0746304602F06AF810220146A8
:10574000684602F060FA2B796A468DF800302146EF
:105750003B46304602F046F8003818BF012005B03D
:10576000F0BD00BF480E002037B5164B0446C06898
:10577000DD6D01F022FD854203D2E06801F01DFDE0
:105780000546204601F099F840F21623A1686B43C4
:1057900098B150396A462046C91A01F055F80028D8
:1057A00002DA012003B030BD0099A268012320462F
:1057B000521A02F034F8C00FF4E750336D422B4018
:1057C000C91AF2E7480E00202DE9F0474FF02C08E7
:1057D00008FB00F8DFF89490454209EB0806376AA9
:1057E00005F02C054D4404468A46042229463846D5
:1057F00002F075F810B93069C30613D554B13846B4
:10580000FFF7B2FF9AF80730042B06D1D9F8200031
:10581000FFF7AAFF0120BDE8F087FFF7E3FE0428A9
:10582000F8D1F3E759F80820114B9A4208D0002C20
:10583000F0D0002338461946BA6801F0F0FFE9E7D6
:10584000F26833899B18F2D27289D218EFD2316A8A
:105850008B689A42EBD240F60C631842E7D1284697
:10586000FFF738FA0028D6D0E1E700BF480E002045
:105870003DB8F39630BFFFF7FDBF00BFEFF30880E0
:10588000EFF3098101B57246FEF76CF901BD00BF67
:10589000002080F31488BFF36F8F002080F30A8804
:1058A00080F30B880F4880F30888FFF77BF900200E
:1058B0000D490860BFF34F8FFEF726FA202080F3D2
:1058C00011880A484FF40061401880F30988EFF30B
:1058D00014800221084380F31488BFF36F8FFEF712
:1058E00039FA0000283F002094ED00E0283F002016
:1058F0001EF0040F0CBFEFF30880EFF309808169FD
:1059000011F8021C0229FFD001B5724601F0D4FF44
:1059100001BD00BF0F498A684FF028001044EFF323
:10592000098C80E8F01F202080F31288BFF36F8F6E
:10593000094F4FF000664A698A603E60D06E0023CE
:10594000D36680F3118802F1280090E8F01F8CF3F1
:1059500009887047B010002004ED00E00020704777
:10596000F0B500240646204665B2AB4200DCF0BD2F
:1059700051F8247052F824503D440544AF4218BFFA
:10598000002046F8245088BF40F001000134EBE7C6
:10599000002300EB8101884200D3704751F8042DA9
:1059A00043EA52030B60D307F5E770B50368054679
:1059B00013F00106144605D013460A460146FFF7C8
:1059C000CFFF064621462846FFF7E2FF46B104F125
:1059D0008042013A55F8223043F0004345F8223026
:1059E00070BD002070472DE9F84F9A46D378814664
:1059F0006F2B0F461546A3F1410B2BD026D8582B01
:105A000014BF0A261026DDF82880324600234846B7
:105A10003946FAF733FD092A08F1FF38D4B21ED807
:105A20003034B145E4B277F1000788F8004001D383
:105A3000D04511D82B789B0605D5082E15D1AB780B
:105A400043F00803AB704046BDE8F88F03F0F7035E
:105A5000702BD5E70826D6E781460F46D5E7BBF180
:105A6000190F94BF37345734DBE7102EEBD1AB78E6
:105A700043F01003E6E730B400258C68CB6004F0F7
:105A80000304032C14BF2C464C688D6014B1A4464B
:105A900030BC604730BC7047038B13F0070306D15E
:105AA0000368002B18BF032008BF00207047022B9B
:105AB00005D1408BB0FA80F0400980007047012B7F
:105AC00004D10368002B18BF0520EDE700207047C4
:105AD00010B4EFF31182202484F31288BFF36F8F88
:105AE000416110BC0121FAF741BE40B1C36858784A
:105AF00010F001001EBF1878B0FA80F0400970471E
:105B000040E800F313F4803FD8B208BF6FF01500EF
:105B1000704730B50C684B6885B00A894D89009490
:105B2000013B24F01F04234402F01F0242EA451205
:105B300023F01F0369468DF808200393FAF750FFFE
:105B400005B030BD0C220369C9B202FB0133186CE9
:105B500000F00700704770B50346C9B20069EFF363
:105B60001186202484F31288BFF36F8F0C2505FB68
:105B70000104246C14F0C00401D0A24210D101220F
:105B800005FB01000264002086F31188BFF36F8FCC
:105B900028B95B6803EBC1035B689847002070BDC0
:105BA0004FF0FF30F0E78022FFF7D5BFF8B5069F32
:105BB00005460469C9B2EFF3118C202080F31288E6
:105BC000BFF36F8F0C2606FB0146306C00F0070E0A
:105BD000BEF1010F11D1376400268CF31188BFF399
:105BE0006F8F46B90C2000FB0144C4E90E236B689B
:105BF00053F8313098473046F8BD00F0C000874276
:105C00000CBF6FF077064FF0FF36E6E713B5802440
:105C10000094FFF7CBFF02B010BD10B41C24006944
:105C2000CBB204FB0300002110BC1047FAF78CBF75
:105C30001346F0B4DA028768066907D513F4402FDB
:105C40001EBF43F3000202F4402253400125346892
:105C50008D4023F48012DB074CBF2C43AC433460EF
:105C60003B68F0BC184703460A46197901230068CF
:105C700003FA01F103691B68194218BF82F001029F
:105C800012B18368DB68184783681B69FBE738B586
:105C90000C4603210546A047002802DA10F1860FC2
:105CA00004D101212846A04700EAE07038BD4368CE
:105CB0002C330B60012313607047436800209B6AFC
:105CC000C1E900307047436800205B68DB680B6007
:105CD0007047436802EA01005B6821EA02015860EC
:105CE000002099607047436800205B6859607047E6
:105CF000436800205B689960704743685B681A6876
:105D000021EA02001140586000209960704730B5C8
:105D10000369586800B30024884219D108688CB917
:105D20009C685860A14200D19860002008602AB1A8
:105D30005A680A609A68596002B9996000200FE0B9
:105D40002846E9E720609868814208BF9C60ECE73C
:105D500005680446002DF3D1002AE9D16FF0150043
:105D600030BD02214A20FAF727BE0346002018471B
:105D700010B50368CB40DB0710D401238B400268C9
:105D800043EA0201D0E8EF4F944204D1C0E8EC1F8F
:105D9000BCF1000FF6D1F2D1002010BD6FF015005C
:105DA000FBE7FAF7CBBFF0B5044600200127054614
:105DB000844695420AD1D4F8443133B10023C4F863
:105DC0004431D4F8443140F40030F0BDEBB29B00D4
:105DD00003F580769B0807FA03F3194208D054F8BC
:105DE00006E0BEF1000F03D044F806C0A6591843E0
:105DF0000135DEE710B504460846FAF7F9FF04EB73
:105E00004004207DC0F3401010BD10B50446084684
:105E1000FAF7EEFF04EB4004207DC0F3400010BD14
:105E200010B504460846FAF7E3FF04EB4000838A06
:105E3000DA051DD5C3F3432123F4F853838204F11B
:105E4000120204F1580032F8023F13F4807F03D0AD
:105E5000C3F3432399420BD08242F4D1002204EBD6
:105E6000C1035A6004F16000BDE81040FFF780BF35
:105E700010BD70B504461546FFF7BCFF48B1084693
:105E8000FAF7B6FF04EB40040020A38A5B0B2B70EB
:105E900070BD6FF01500FBE770B504460846164666
:105EA000FAF7A6FF083034F810300D46DA0509D5A8
:105EB000C3F3432304EBC3023146284654F833307E
