:020000040100F9
:10000000B00C0021F1090001571B0001DD090001BE
:10001000DD090001DD090001DD090001000000002B
:10002000000000000000000000000000950A000130
:10003000DD09000100000000DD090001DD0900010B
:10004000350B0001350B0001350B0001350B0001AC
:10005000350B0001350B0001350B0001350B00019C
:10006000350B0001350B0001350B0001350B00018C
:10007000350B0001350B0001350B0001350B00017C
:10008000350B0001350B0001350B0001350B00016C
:10009000350B0001350B0001350B0001350B00015C
:1000A000350B0001350B0001350B0001350B00014C
:1000B000350B0001350B00010000000000000000BE
:1000C0000000000000000000000000000000000030
:1000D0000000000000000000000000000000000020
:1000E0000000000000000000000000000000000010
:1000F0000000000000000000000000000000000000
:1001000000000000000000000000000000000000EF
:1001100000000000000000000000000000000000DF
:1001200000000000000000000000000000000000CF
:1001300000000000000000000000000000000000BF
:1001400000000000000000000000000000000000AF
:10015000000000000000000000000000000000009F
:10016000000000000000000000000000000000008F
:10017000000000000000000000000000000000007F
:10018000000000000000000000000000000000006F
:10019000000000000000000000000000000000005F
:1001A000000000000000000000000000000000004F
:1001B000000000000000000000000000000000003F
:1001C000000000000000000000000000000000002F
:1001D000000000000000000000000000000000001F
:1001E000000000000000000000000000000000000F
:1001F00000000000000000000000000000000000FF
:10020000DEE61E284CBBCE8F023500003C0000000D
:10021000AC2100000100000000000001000000010E
:10022000FFFF02910000000000000000000000003D
:1002300000000000000000000000000030B44FF09B
:10024000000310F8014B11F8015B013A84EA050440
:1002500043EA0403F5D1A3F101034FEAD37030BCA4
:10026000704700BF4FF0000310F8012B013943EA3B
:100270000203F9D1A3F101034FEAD370704700BF25
:1002800030B411F8014B12F8015B6C4000F8014BDF
:10029000013BF6D130BC70472DE9F04F90E8F00FEC
:1002A00000F140004FF0040E59E0F0B4826BC36BD4
:1002B00004680525242687593C444FEA724787EA9B
:1002C000F24787EA92273C4442684FEAF21787EAEE
:1002D000B24787EAD2073C4440F8044B032D08BFDD
:1002E0006FF01B0687593A444FEA734787EAF34792
:1002F00087EA93273A4443684FEAF31787EAB347FC
:1003000087EAD3073A4440F8042B87593B444FEA25
:10031000744787EAF44787EA94273B4444684FEAE6
:10032000F41787EAB44787EAD4073B4440F8043B14
:10033000013DC0D1A0F13C00076A3C444FEA72473E
:1003400087EAF24787EA92273C4402684FEAF217AD
:1003500087EAB24787EAD2073C44C463F0BC4FF057
:10036000020288EA781C8CEAF84C0BEBBC1C8AEA87
:10037000090303EA080383EA0A039C4450F8043B98
:100380009C4451F8043B9C44674444EA050B0BEA47
:10039000060B04EA05034BEA030BE34484EAF42367
:1003A00083EA34530BEBB30B87EA771C8CEAF74CE8
:1003B0000AEBBC1C89EA080303EA070383EA090382
:1003C0009C4450F8043B9C4451F8043B9C446644D4
:1003D0004BEA040A0AEA050A0BEA04034AEA030A9A
:1003E000E2448BEAFB2383EA3B530AEBB30A86EA37
:1003F000761C8CEAF64C09EBBC1C88EA070303EA7E
:10040000060383EA08039C4450F8043B9C4451F8DB
:10041000043B9C4465444AEA0B0909EA04090AEAD8
:100420000B0349EA0309E1448AEAFA2383EA3A53CF
:1004300009EBB30985EA751C8CEAF54C08EBBC1C8A
:1004400087EA060303EA050383EA07039C4450F89E
:10045000043B9C4451F8043B9C44644449EA0A0828
:1004600008EA0B0809EA0A0348EA0308E04489EAB3
:10047000F92383EA395308EBB30884EA741C8CEA45
:10048000F44C07EBBC1C86EA050303EA040383EA89
:1004900006039C4450F8043B9C4451F8043B9C44A4
:1004A000E34448EA090707EA0A0708EA090347EAB2
:1004B0000307674488EAF82383EA385307EBB30756
:1004C0008BEA7B1C8CEAFB4C06EBBC1C85EA040324
:1004D00003EA0B0383EA05039C4450F8043B9C4465
:1004E00051F8043B9C44E24447EA080606EA090640
:1004F00007EA080346EA0306664487EAF72383EA25
:10050000375306EBB3068AEA7A1C8CEAFA4C05EB01
:10051000BC1C84EA0B0303EA0A0383EA04039C4439
:1005200050F8043B9C4451F8043B9C44E14446EAA7
:10053000070505EA080506EA070345EA03056544D9
:1005400086EAF62383EA365305EBB30589EA791C7C
:100550008CEAF94C04EBBC1C8BEA0A0303EA09039E
:1005600083EA0B039C4450F8043B9C4451F8043B41
:100570009C44E04445EA060404EA070405EA06034D
:1005800044EA0304644485EAF52383EA355304EB23
:10059000B304013A7FF4E5AEA0F14000BEF1010ED4
:1005A0007FF483AEA0F1400C9CE80F0000194919BC
:1005B0009219DB19ACE80F009CE80F004044494455
:1005C00052445B44ACE80F00BDE8F08F2DE9F043E6
:1005D00085B0274801F0FFFB002841D04FF420519F
:1005E0004FF0807001F094FB00283DD100F04AFCF0
:1005F000064600F057FC90B900F07CFC01463046FE
:1006000001F0B0FB80B31A4800F07AFC60BB3146C1
:10061000304601F0A7FB38B300F09CFCFEE74FF436
:100620007631144801F074FB0446E8B9DFF84890CD
:10063000DFF8488001AF59F8045B98E807003544BB
:1006400087E807000C223946284601F0FFFB00B975
:100650001DB90134072CEED10025284600F02EFBF1
:10066000002005B0BDE8F08300F012FCF8E700BF01
:10067000841E000100280001E41F0001A81F0001E2
:100680002DE9F7430D46DDE90A8791461E460446EB
:1006900020B96FF00D0003B0BDE8F0830029F8D059
:1006A000002AF6D08B680846DB6898470368B6FBDB
:1006B000F3F203FB1262002AEBD1B8FBF3F203FB67
:1006C0001282002AE5D1002FE3D0B7FBF3F103FB40
:1006D00011710029DDD117EB080FDAD2C4E90096B9
:1006E000C4E905872161A160E56003686A46636229
:1006F0000C9BC4E907314379CDE9006128460749DD
:1007000084F8283001F082FA019A002AC1D0D4E995
:1007100005310B449A42BCD30020BCE7CF1900013D
:1007200008B50348034A0021121A01F006FA08BD71
:1007300030000021B0000021074808B5074A0849E9
:10074000121A01F0FCF9BDE808400648064A0749BC
:10075000121A01F0F4B900BF280000213000002176
:10076000A0210001000000212800002178210001C3
:1007700030BFFFF7FDBF00BF154B9A6A12F0007F34
:100780009A6A14BF1E201D2012F0807F9A6A18BF3B
:100790001F2012F4801F9A6A18BF022012F4002F43
:1007A0009A6A18BF212012F4802F9A6A18BF22205B
:1007B00012F4003F9A6A18BF232012F4803F9A6A0D
:1007C00018BF24206FEA02426FEA12429A62704711
:1007D00000ED00E010B5164A936A946A13F4805F46
:1007E00014BF1723162314F4006F946A18BF18233C
:1007F000A40508D5936A1B0404D518B1936A23F4A1
:100800000043936219230A4A906A10F4806F906A39
:1008100018BF1A2310F4807F906A40F47F409062E2
:100820004FF000020CBF18461B200A7010BD00BF1D
:1008300000ED00E010B5154B0246986A9C6A10F076
:10084000100F14BF1120102014F0080F9C6A18BF5D
:100850001220A40709D5586B986A000604D51AB16E
:100860009A6A22F080029A621320084B9A6A12F068
:10087000010F9A6A18BF1420D20658BF9A6A9A6A62
:1008800042F0FF029A6200230B7010BD00ED00E001
:10089000F0B5494B04465B6800258BB0C3F30803F1
:1008A00085F31188BFF36F8F02F07F40B0F17F4F67
:1008B00011D102F00C0008280DD010074CBF0C46D7
:1008C00001250022033B8DF80720032B05D8DFE824
:1008D00003F024676B642C46F3E700239DF80720A0
:1008E000CAB902AE04F120073246206861680834B4
:1008F00003C2BC421646F7D1099A002D58D0C2F364
:10090000080121B96FEA52226FEA42220992184681
:1009100002A901F016F90BB0F0BD274BDA6A910776
:10092000DBD4DA6A002AD8DBDA6A5200D5D55A69F4
:10093000A16942F480725A61BFF34F8FBFF36F8F8A
:1009400031F8022C596921F480715961BFF34F8F3E
:10095000BFF36F8F02F47F43B3F55F4F04D1D2B280
:10096000022A01D12368B9E7134B9A6AD2B232B195
:1009700001200DF10701FFF75DFF0346AEE79A6A1C
:1009800012F47F4F05D001200DF10701FFF722FF80
:10099000F3E79B6AB3F5803F9FD3FFF7EDFEECE7EB
:1009A00000200DF10701E6E700200DF10701EDE75A
:1009B0006FF30802AAE700BF00ED00E0064B5A699A
:1009C00042F010025A615A6942F480625A615A69CF
:1009D00022F008025A61704700ED00E0EFF3088052
:1009E000EFF3098101B57246FFF752FF01BD00BF69
:1009F000002080F31488BFF36F8F002080F30A88F3
:100A000080F30B880F4880F3088800F069FB002012
:100A10000D490860BFF34F8F00F01AF8202080F3D3
:100A200011880A484FF40061401880F30988EFF3F9
:100A300014800221084380F31488BFF36F8F01F004
:100A400095F80000B00C002194ED00E0B00000210A
:100A500072B6002383F313884FF0FF300C4A03F182
:100A600020010133102B42F82100F8D100234FF070
:100A7000FF30074A03F160010133102B42F82100D7
:100A8000F8D162B6BFF34F8FBFF36F8F704700BFCF
:100A900000E100E01EF0040F0CBFEFF30880EFF35D
:100AA0000980816911F8021C0229FFD001B5724644
:100AB00001F04DF801BD00BF044B054A23F07F0350
:100AC0009360BFF34F8FBFF36F8F7047000000013B
:100AD00000ED00E0154680B506460C46002282F384
:100AE0000B880A4FA7F5806888F30B8887F309887D
:100AF000002004498847204629461A46B047024844
:100B00008047FEE7831B0001911B0001B00C002110
:100B10001022014B1A61704700ED00E000232021F4
:100B20000348C21801331E2B82F80013F9D1704715
:100B300000E100E008B5EFF30583064A103B02EB45
:100B4000C30152F8330049688847BDE8084001F006
:100B500027B800BFA01E000108B50649064821F0CD
:100B60000701C1F1045202F5803200F0DDFE0020E1
:100B700008BD00BFB70C0021300000210122024B4C
:100B8000C3F84025704700BF00000841024B0B60CE
:100B900001231360704700BF3C00002100487047EC
:100BA0000020000110B501F0FCF8034C206001F0BA
:100BB000F5F86060002010BD3C000021F8B50E463D
:100BC0001946304617461C4601F055F8D0B106F1DB
:100BD000807646EA040515F0030513D10CB9002010
:100BE000F8BD24F00304A54206EB050005D1074A31
:100BF000D2F80034DB07FBD5F1E7795900F0F0FAC1
:100C00000435F0E76FF01500EAE700BF0000084187
:100C1000F0B50027264DDFF89CC02C680CEB0416BD
:100C2000D6F808682301F6B29EBB07B12C60224CAF
:100C3000D4F82062B0FBF6F506FB150595BBD4F899
:100C40002062B1FBF6F506FB15155DBBD4F820520A
:100C5000D4F824426C438C4224D319B303F1824468
:100C600004F50024C4F80008C4F80418C4F80828DF
:100C7000D4F80058A84218D1D4F80408814214D1FD
:100C8000D4F80838DBB29A4214BF6FF00D00002090
:100C900007E00134072C4FF00107BFD96FF01B00AC
:100CA0002C60F0BD6FF01500FBE76FF00D00F8E76A
:100CB00044000021000008410000FF0110B501219F
:100CC000044600F099F900284AD04FF0FF32254B36
:100CD000C3F80823BFF36F8F72B60023224903F1D4
:100CE00020000133102B41F82020F8D100234FF0D1
:100CF000FF301D4A03F160010133102B42F821003F
:100D0000F8D14FF0E02300221A61D3F8042D03F547
:100D1000506342F000725A605A6A22F4E0225A622A
:100D2000EFF31482920707D5EFF3148222F0020248
:100D300082F31488BFF36F8FBFF34F8FBFF36F8FB2
:100D4000E2699A60E269002383F30B8883F30A88DF
:100D5000116881F3088883F30988044B5068984729
:100D600010BD00BF0050004100E100E00100002183
:100D70001FB50446074A01AB07CA83E807000C22E7
:100D80001946204601F062F800280CBF20460020DA
:100D900004B010BDB41F000170B505460024054E17
:100DA00056F8040B2844FFF7E3FF10B90134072C71
:100DB000F6D170BD082000012DE9FF470646104618
:100DC0000D4614461F46FFF7D3FF18B9002004B0A4
:100DD000BDE8F087A369B342F8D10FB9B542F5D1A8
:100DE0002846FFF7D9FF8442F0D1226A234B9A426A
:100DF000ECD1E368E318E9D227697A199046E5D285
:100E0000A542E3D8A242E1D9013B9D42DED89A42F5
:100E1000DCD9B919DAD2D4F81C90B145D6D38945BA
:100E2000D4D209EB05039B1B5B68B342CED38B4244
:100E3000CCD2DFF84CA0541D01AE9AE8070086E83A
:100E400007000C223146404601F000F820B108F1BD
:100E500001084445F1D1B9E7D8F80C309945B5D12E
:100E600000F05DFF0028B1D13946284608F1100294
:100E700000F05CFFB0FA80F04009A8E7FFFF0291A4
:100E8000C01F0001014BD3F8A805704700200001E6
:100E9000024B034A1B681A60704700BF28000021FC
:100EA00015FCBA250F4B104A1B681968914213D0E4
:100EB00002F11C521968A2F58B12A2F6CC52914293
:100EC0000CD01968094A91420AD01868084B984218
:100ED0000CBF042002207047002070470320704799
:100EE0000120704728000021B6B3B4B55DCE03F1F0
:100EF000EC49F2B6014B1B68586870472800002186
:100F000010B5124C01462368114A1868ADF5107DE2
:100F1000904217D14FF476320020DB68CDE90120F2
:100F2000009310AA4FF4007305A8FFF7A9FB30B98E
:100F3000236805A859689A68012300F0BAFD0DF5E9
:100F4000107D10BD6FF00D00F9E700BF28000021F3
:100F5000B6B3B4B5024B034A1B681A60704700BFB2
:100F6000280000215DCE03F12DE9F04F204885B027
:100F700000F006FF00260446B3464FF004081C4B61
:100F800001AFD3F838A01B4BB24503D8002005B001
:100F9000BDE8F08FD4F8249093E80700D9F800500A
:100FA00087E807000C223946284600F04FFF114B16
:100FB00078B975B121692A6991420AD1AA69A169F2
:100FC000914206D8E169914203D9626969698A430D
:100FD00007D0226A4AB18BF31188BFF36F8F404666
:100FE00002DFE26801361444CEE7C9F80020F8E7D2
:100FF00000020001CC1F00012DE9F04F0F4606460C
:1010000087B0002858D000F0BBFE4FF0000804461F
:10101000B36B434554D94FF00009DFF8B0B04FF03F
:10102000000A5BF8043B0093294B53F8045B0193DF
:10103000009B1D44274B93E8070003AB83E80700A0
:1010400019460C22284600F001FF019B00B9ADB9FA
:101050000AF1010ABAF1070FE7D11F4B09F10109A3
:101060009945DCD31FB10023626A13600BB9236A70
:1010700013BBE36808F101081C44C9E72B6A174A4F
:101080009342EAD1AE42E8D0696B05F13C03884255
:10109000E3D025691A6995420AD19A69A5699542F2
:1010A00006D8E569954203D962695D69AA4309D00A
:1010B000DA6801301344EAE7002007B0BDE8F08F9A
:1010C0000120FAE7002FD4D0CEE700BF7421000141
:1010D00024200001D81F000101000000FFFF029141
:1010E0000022D30003F1FF7303F58033D3F800131C
:1010F000013107D0D3F800130132D3F80433202A8A
:101100000B60EED11E4BD3F83021072A0DD1D3F856
:101110003431022B09D11B4BD3F80024D00742BF36
:101120000022C3F81421C3F81821154BD3F830213D
:10113000072A1FD1134AD2F80014C90744BF6FF021
:101140000101C2F80014D3F83431023B022B11D94B
:101150007F230D4A0D49C2F818310023C1F8043E1F
:10116000C1F8083EC2F82431C2F82C3102F57F22C2
:10117000C2F81031064B1A68064BC3F84425704775
:101180000000FF0100500041002000410000084124
:101190000080FF0100600041044AD2F80834DB07F8
:1011A000FBD50160BFF35F8F704700BF00000841AF
:1011B000C0F30A0373B90222084BC3F804254FF0A9
:1011C000FF320260D3F80024D207FBD50020C3F819
:1011D000040570476FF00C00704700BF0000084125
:1011E000012310B5044CC4F80435FFF7D5FF0023E4
:1011F000C4F8043510BD00BF0000084138B50A4BE3
:1012000053F82040013053F82050A54200D838BD93
:10121000606830B1037EDB0701D400F0C4FD083400
:10122000F3E723689847FAE740200001012208B558
:10123000084B03201A70FFF7E1FF00F0F1FD0420D6
:10124000FFF7DCFFFFF7C2F9034A938923F001039C
:10125000938108BDAC0000214800002108B50020A2
:10126000FFF7CCFF164B03F5006282F3088883F387
:101270000A880025E023134C84F82230E577257690
:101280006576A57684F82050636A43F4E0236362B0
:1012900084F82350FFF792FBFFF73AFC4FF0FF333F
:1012A000A362E362FFF76AFC0120FFF7A7FF0220B9
:1012B000FFF7A4FF2B462A4629460348FFF70AFCFE
:1012C000B000002100ED00E02D1200013F2AF8B52A
:1012D000174650D905460C46A2F1400626F03F06B7
:1012E00040360E44236840341BBA2B6454F83C3C0F
:1012F00028461BBA6B6454F8383C20491BBAAB64CF
:1013000054F8343C1BBAEB6454F8303C1BBA2B65E0
:1013100054F82C3C1BBA6B6554F8283C1BBAAB65DF
:1013200054F8243C1BBAEB6554F8203C1BBA2B66DE
:1013300054F81C3C1BBA6B6654F8183C1BBAAB66DD
:1013400054F8143C1BBAEB6654F8103C1BBA2B67DC
:1013500054F80C3C1BBA6B6754F8083C1BBAAB67DB
:1013600054F8043C1BBAEB67FEF796FFB442B9D1C0
:1013700007F03F00F8BD1046F8BD00BF582000013F
:101380000A4610B514681A4924BA0464546824BA89
:101390004464946824BA8464D46824BAC464146924
:1013A00024BA0465546924BA4465946924BA8465EE
:1013B000D46924BAC465146A24BA0466546A24BA87
:1013C0004466946A24BA8466D46A24BAC466146BE8
:1013D00024BA0467546B24BA4467946B24BA8467B4
:1013E000D26B12BAC267FEF757FF002010BD00BFD4
:1013F000582000012DE9F0410027B24CB24BB2B0A9
:10140000CDE90043B14BB24E0293B24B1446CDE945
:101410000363B14B05460593B04B3097069303F138
:101420007453A3F52303A3F6924331920793002A42
:1014300040F0AE8080233A214FF0010C6E468DF8CB
:10144000803000230CF180003218335053600E239B
:1014500002F108070020032B38601FD0042BD06056
:101460001CD0052B106119D0062B506116D0072B0C
:10147000906113D0082BD06110D0092B10620DD0D1
:101480000A2B50620AD00B2B906207D00C2BD06233
:1014900004D00E2B106340F06C815063B1EB830FCE
:1014A0000CEB830212D000210DEB02033A2A83F8E1
:1014B00080100BD00DEB0203392A83F8811002F162
:1014C000020303D000226B4483F8802000234FEAFC
:1014D000547C209A670D6CF30703304612BA660BF2
:1014E00067F30F236109109266F31743219A61F3A2
:1014F0001F63CDF8BB30E400249B12BA8DF8BF40C7
:101500001192DDE922120CBA12BACDE9124219BACF
:10151000DDE9252312BACDE91412DDE927211BBA32
:1015200012BACDE91632DDE9292309BA12BACDE99A
:101530001812DDE92B211BBA12BACDE91A32DDE906
:101540002D2309BA12BA1BBACDE91C121E932F9B88
:1015500063491BBA1F93FEF79FFEDDE90001DDE939
:10156000022306BA14BA18BA09BADDE9042312BA7A
:1015700069602A6119BADDE9062312BA1BBA2E6026
:10158000AC60E8606961AA61EB6132B0BDE8F081EE
:1015900068468846FFF79AFE241A6E4608EB040355
:1015A000002800F00781421E022A55D958F804206D
:1015B00020928208012A00F006815968022A2191AE
:1015C00044D09968032A229140D0D968042A2391F3
:1015D0003CD01969052A249138D05969062A2591E9
:1015E00034D09969072A269130D0D969082A2791E1
:1015F0002CD0196A092A289128D0596A0A2A2991D7
:1016000024D0996A0B2A2A9120D0D96A0C2A2B91CE
:101610001CD0196B0D2A2C9118D0596B0F2A2D91C3
:1016200040F0E4809A6B3C282E9240F0A480802306
:101630003D2230908DF8BC3000216A4482F8801041
:101640000DEB0002C31C82F8821065E020F0030756
:1016500082073B4400F092801C780DEB070282F871
:1016600080407A1C90423DD95C78B91C0DEB070292
:10167000884282F881406AD980229B780DEB07016D
:1016800000F1010C81F88230BCF1380F0DEB000342
:10169000309083F8802065D9BCF1400F08D000213C
:1016A0000DEB0C023E2800F1020382F880102AD1D3
:1016B00020A93046FFF764FE3B214FF0000C319C1F
:1016C000BFE600BF67E6096A85AE67BB72F36E3C92
:1016D0003AF54FA57F520E518C68059BABD9831FFD
:1016E00058200001802200F1010C0DEB0003BCF139
:1016F000380F309083F8802034D900210DEB0C0294
:10170000831C82F8801000210DEB03023D2800F1BC
:10171000030382F88010CBD000226B443C2883F86E
:101720008020C5D00DEB00013B2881F88420BFD07C
:101730000DEB00033A2883F88520B9D00DEB0003A8
:10174000382883F88620B3D18DF8BF20B0E78022F7
:1017500000F1010C0DEB0003BCF1380F309083F861
:1017600080209CD8BCF1380F319C3AD0CCF13B01A1
:101770000FE00D2392E63C273B446DE780220DEB02
:101780000703319C309707F1010CC7F13A0183F848
:10179000802000278B080CF18000012B06EB000253
:1017A00037503FF47BAE022B576002F108077FF4FD
:1017B00051AE73E680233A214FF0010C319C3090FA
:1017C0008DF880303DE6042808D1802336214FF083
:1017D000050C319C30908DF88430DAE704273B44C7
:1017E0003AE700223A23ADF8B8206BE6382805D155
:1017F0008023392230908DF8B8301DE738273B44DC
:101800002AE700BF7047836800EBC101B3F5004FC2
:101810002CBF51F8220031F81200704700EBC101D3
:101820008068B0F5004F2CBF41F8223021F812300B
:101830007047012208B5FFF7E6FFD04008BD836876
:1018400000EBC101B3F5004F08D34B681AB143F068
:1018500001034B60704723F00103FAE74B881AB18C
:1018600043F001034B80704723F00103FAE7530074
:101870000122FFF7D3BF08B58368B3F5004F06D345
:10188000FFF7D7FF01288CBF0020012008BD0020F2
:10189000FCE78368B3F5004F28BF0139B1FA81F046
:1018A000C0F11F0070472DE9F04104460D46FFF7D7
:1018B000E2FFB8BB29462046FFF7BBFF01462046A2
:1018C000FFF7E7FF04EB80010E6996B90122E36898
:1018D00082401343E36002220D612B4629462046D5
:1018E000FFF79CFF032229462046BDE8F041FFF7A1
:1018F00095BF022231462046FFF785FF0746034683
:1019000029462046FFF78AFF032233462946204610
:10191000FFF784FF39462B462046FFF77FFF022260
:101920003146E1E7BDE8F081B2F5802F34BF0423F2
:1019300008232DE9F0410026D21A8C18CD1D25F080
:10194000070524F00704641BE408056021462846C7
:10195000AC60EE60FFF79DFF820002F11B07FF08FD
:101960003146043205F1100000F068FA3A4631467B
:101970002846FFF77CFF3346324631462846FFF7BC
:101980004DFFA4EB0708284631460122FFF757FF19
:1019900042463946FFF76BFF3B46324639462846FA
:1019A000FFF73CFF21462846FFF761FF43463246DA
:1019B00021462846FFF732FF214628460122FFF73D
:1019C0003EFF3946BDE8F041FFF76DBF7047436801
:1019D0000A689A428FBF00234A6801209B1888BF7B
:1019E00018464B607047F0B58368044685B0002BFD
:1019F0003CD0D0E90467016A33448B4215D982692F
:101A0000934235D8C06801AA394400F0FBF8002899
:101A100035D1DDE90112E06883689B6863B39847BC
:101A200068BB236A029A13442362626AA368B3FB09
:101A3000F2F502FB15353DB12068551B2A4694F896
:101A40002810184400F0FAF9A368E06822683E44C0
:101A50002B4481684D683146A84758B9E369ABB952
:101A60002369A268134423610023A360002001E0DE
:101A70006FF0210005B0F0BD6FF05700FAE70028C5
:101A8000F8DBD2E7135CDB4313540130A368226810
:101A90008342F7D8E06881680D683146A84700287E
:101AA000E8D13246E369A168206898470028D7D07A
:101AB000E0E72DE9F047894616469846044698B374
:101AC00082680369134482693344934230D8002505
:101AD000D4E90170A6EB050A3F1ABA4515D2B54202
:101AE00009D223685246184409EB050100F099F920
:101AF000A3685344A360B8F1000F1CD0A068A8B13C
:101B00002046BDE8F047FFF76EBF23683A46184409
:101B100009EB050100F085F963682046A360FFF733
:101B200062FF18B93D44D3E76FF00D00BDE8F087C0
:101B30006FF00B00FAE74046F8E700F07FB900F0DD
:101B400070B9012801D1EFF3058300F05AB90146BD
:101B50000068FFF7F6BF08B5FEF70AFEBDE80840CB
:101B600000F01EB800210120FFF7EBBF08B5FEF71B
:101B7000A3FFFEF7D5FDFEF7DFFDFEF7CFFFFFF772
:101B80006DFB61B662B680F31188BFF36F8F70474B
:101B9000EFF31180202383F31288BFF36F8F704718
:101BA0007047F7B51C460023164682682360A36081
:101BB0000D465369694601AA9847019B5A1E019236
:101BC0001BB96FF0150003B0F0BD0098A26847681C
:101BD0002168676085B9B31AD0F800C0634528BF93
:101BE000634603FB07111A442160A26002689A420F
:101BF00006D808300090E0E76B1AB3FBF7F3EBE789
:101C00000020E0E713460022FFF7CBBF2DE9F047A5
:101C10000024836886B0884691465B6902AA01A9C0
:101C20009847A2462546029BAB4202D806B0BDE8C3
:101C3000F0870026019F07EBC5077B6804933A688D
:101C40000AEB0603B24202D89A460135EBE7494651
:101C50000394059303A8C0470028E7D0049B0136EE
:101C60001C44ECE710B50C4600F095F80023C4E9DD
:101C70000003184610BD38B505460C4600F08BF839
:101C8000002D07DBA84205D9401B84428CBF0020F1
:101C9000012038BD0020FCE770B50D4619462846E6
:101CA00016461C46FFF7E7FF40B12CB122463046EE
:101CB00005F1807100F0B5F8002070BD6FF01500DF
:101CC000FBE770B50C46154600F068F82946064655
:101CD0002046FFF7D0FFC0B1B4FBF6F306FB134379
:101CE0009BB9B5FBF6F306FB135373B9AE420AD8A2
:101CF00000F054F8064604F180742046FFF758FAC5
:101D0000AD1B3444F9D1002070BD6FF01500FBE726
:101D10000222FEF77DBF002070470020704708B503
:101D2000FFF7F9FF08B9FFF7F8FF08BD30B589B034
:101D3000154601230A460146684600F00EF804469F
:101D400040B9202269462846FEF778FA002808BFE5
:101D50006FF06404204609B030BD08B5FFF74AFBB8
:101D6000002008BD70B5054608460C46FFF714F87C
:101D70002146024601232846BDE87040FFF71CB803
:101D800003465A6B00233C309A4200D17047C16829
:101D900001330844F8E74FF4802070474FF40060A7
:101DA00070478020704710B5436904463BB9002056
:101DB000E2684042537843F00103537010BD9847E6
:101DC0000028F4D00028B8BF4042FF28A8BFFF2059
:101DD000E3681870ECE740B1C368587810F0010070
:101DE0001EBF1878B0FA80F040097047EFF31183F6
:101DF000202383F31288BFF36F8FFEE708B5FFF748
:101E0000F5FF10B5EFF31184202383F31288BFF39D
:101E10006F8FFFF7F3FF84F31188BFF36F8F10BD4F
:101E200070470A44431E914200D1704710B511F823
:101E3000014B914203F8014FF9D110BD0244034612
:101E4000934200D1704703F8011BF9E701390244BE
:101E500010B5904201D1002005E0037811F8014F40
:101E6000A34201D0181B10BD0130F2E7590B00014D
:101E70000000000000000000841E0001690F000146
:101E8000000000005821000100000000901F000128
:101E90002C00002100000000A50B00010000000044
:101EA00000000000651B000100000000651B000130
:101EB00000000000651B000100000000651B000120
:101EC00000000000651B000100000000651B000110
:101ED00000000000651B000100000000651B000100
:101EE00000000000651B000100000000651B0001F0
:101EF00000000000651B000100000000651B0001E0
:101F000000000000651B000100000000651B0001CF
:101F100000000000651B000100000000651B0001BF
:101F200000000000651B000100000000651B0001AF
:101F300000000000651B000100000000651B00019F
:101F400000000000651B000100000000651B00018F
:101F500000000000651B000100000000651B00017F
:101F600000000000651B000100000000651B00016F
:101F700000000000651B000100000000651B00015F
:101F800000000000651B000100000000651B00014F
:101F9000991C0001BD0B0001C31C00019D0B000139
:101FA000651C00018D0B0001DEE61E284CBBCE8FA8
:101FB00002350000DEE61E284CBBCE8F0235000045
:101FC000DEE61E288384518602350100DEE61E28E7
:101FD000EAAC45B802350000DEE61E284CBBCE8FC9
:101FE00002350000000000000002000000040000B4
:101FF0000006000000080000000E000000100000B5
:102000000400000000FF00000000000000020000CB
:10201000000400000006000000080000000E0000A0
:10202000001000000000000000020000000400009A
:102030000006000000080000000E00000010000074
:102040006C1E00016C1E00016C1E00016C1E000164
:10205000841E0001841E0001982F8A42914437712A
:10206000CFFBC0B5A5DBB5E95BC25639F111F1591B
:10207000A4823F92D55E1CAB98AA07D8015B83125D
:10208000BE853124C37D0C55745DBE72FEB1DE8009
:10209000A706DC9B74F19BC1C1699BE48647BEEF38
:1020A000C69DC10FCCA10C246F2CE92DAA84744AC3
:1020B000DCA9B05CDA88F97652513E986DC631A839
:1020C000C82703B0C77F59BFF30BE0C64791A7D518
:1020D0005163CA0667292914850AB72738211B2EA0
:1020E000FC6D2C4D130D385354730A65BB0A6A7688
:1020F0002EC9C281852C7292A1E8BFA24B661AA894
:10210000708B4BC2A3516CC719E892D1240699D6A3
:1021100085350EF470A06A1016C1A419086C371E1C
:102120004C774827B5BCB034B30C1C394AAAD84EFA
:102130004FCA9C5BF36F2E68EE828F746F63A57835
:102140001478C8840802C78CFAFFBE90EB6C50A4C8
:10215000F7A3F9BEF27871C6666C6173682D636F80
:102160006E74726F6C6C6572403431303830303060
:1021700030000000000000012DE9F043DFF818C036
:10218000064F86464FF004584FF48039A7EB0C07F2
:1021900070460047BDE8F0830000002128000021C0
:0C21A000000000200000000015E015E029
:1025A800002800010028000101000000FFFFFA5088
:1025B800BF6412EA5A652CBF59393EEAE41F807D90
:10280000E8560021D55B0101FDE50101C15B010135
:10281000C15B0101C15B0101C15B0101000000005E
:10282000000000000000000000000000A55C0101A5
:10283000C15B010100000000815E0101C15B01017B
:10284000F95E0101F95E0101F95E0101F95E010124
:10285000F95E0101F95E0101F95E0101F95E010114
:10286000D7EA0101F95E0101F95E0101F95E01019A
:10287000EDEA0101F95E0101F95E0101F95E010174
:10288000F95E010103EB0101F95E0101F95E01014D
:10289000F95E0101F95E0101F95E0101F95E0101D4
:1028A000F95E0101F95E0101F95E0101F95E0101C4
:1028B000F95E0101F95E0101000000000000000066
:1028C0000000000000000000000000000000000008
:1028D00000000000000000000000000000000000F8
:1028E00000000000000000000000000000000000E8
:1028F00000000000000000000000000000000000D8
:1029000000000000000000000000000000000000C7
:1029100000000000000000000000000000000000B7
:1029200000000000000000000000000000000000A7
:102930000000000000000000000000000000000097
:102940000000000000000000000000000000000087
:102950000000000000000000000000000000000077
:102960000000000000000000000000000000000067
:102970000000000000000000000000000000000057
:102980000000000000000000000000000000000047
:102990000000000000000000000000000000000037
:1029A0000000000000000000000000000000000027
:1029B0000000000000000000000000000000000017
:1029C0000000000000000000000000000000000007
:1029D00000000000000000000000000000000000F7
:1029E00000000000000000000000000000000000E7
:1029F00000000000000000000000000000000000D7
:102A0000DEE61E284CBBCE8F023500003C000000E5
:102A100030FF010001000000002800010028000133
:102A2000FFFF029100000000000000000000000015
:102A3000000000000000000000000000064A074BF4
:102A400002604FF44272DB7882800822C371002357
:102A500082710372704700BFD9410101E002002179
:102A6000064A074B02604FF4B072DB7A828008227C
:102A7000C371FF2382710372704700BFB33A010133
:102A8000E00200212DE9F341C41D0028064624F090
:102A900007040CBF0020204600F028FC071E04DAC3
:102AA0006FF00B0002B0BDE8F081374DE988A888CF
:102AB00003316B7A03302A7A89B280B20DF02DFF90
:102AC0000028EDDB3C44A978EB78002E04F10304E8
:102AD000194424F0030400FB01F10CBF0020204640
:102AE00000F094FD20440EB90028D9DBEA7A0446B0
:102AF000B2B1EB7B697C13441944FF29D0D8033071
:102B0000002EAA89C9B220F003040CBF0020204681
:102B100000F0EEFD0028C3DB04440EB9002CBFDB3F
:102B2000012000F0D9FBB0B1A97BA1B195F82A3002
:102B300033B340234FF481720734002E24F007048E
:102B40000CBF0020204601F037FF0028A8DB04441A
:102B50000EB9002CA4DBAB7AFBB1EB7AB3B107342E
:102B6000002EA97A24F007040CBF0020204604F0B0
:102B7000EDFA002894DB04447EB9002C0DDA8FE7CF
:102B800025232822D8E700BFE0020021012000F021
:102B9000A3FB10B1AB7B002BE1D1734B1B6893B14E
:102BA000A97D81B10334002EEA7D24F003040CBF1B
:102BB0000020204698470028FFF672AF044416B95B
:102BC000002CFFF66DAF694B1B688BB1297C79B186
:102BD0000334002E24F003040CBF00202046984745
:102BE0000028FFF65DAF044416B9002CFFF658AF7D
:102BF0005F4B1F68B7B1697CA1B10334002E2B7DF8
:102C000024F0030408BF0020009318BF2046EB7C8B
:102C1000AA7CB8470028FFF643AF044416B9002C3D
:102C2000FFF63EAF072000F057FB98B1A97D89B1B0
:102C30000334002E2A7E24F003040CBF002020461B
:102C400000F044FE0028FFF62BAF044416B9002C18
:102C5000FFF626AFB6FA86F795F823007F09A0B1F4
:102C600003346B7FA97E24F0070419443B4644F0EB
:102C70000404C9B2224600F069FE0028FFF610AF36
:102C8000044416B9002CFFF60BAF95F82410002968
:102C90004CD004F10708002EEA8C28F007080CBF7E
:102CA000002040460DF04DFE041EFFF6F9AE4444F0
:102CB000002E3ED1002CFFF6F3AEA97F002945D0AF
:102CC00095F82230002B41D02A8C0734002E02F1D7
:102CD000240224F007080CBF0020404692B20DF0F9
:102CE00030FE0028FFF6DCAE404416B90028FFF69F
:102CF000D7AE03302B7FA97E20F0070019443B4656
:102D000040F0040495F82200C9B2224600F010FEFB
:102D10000028FFF6C5AE044486B9002CFFF6C0AE0D
:102D2000EB6AF3B1C6B1EC620020BBE6002EC4D062
:102D30008846E98C404609F0D5FEBEE72A8C40461D
:102D4000A97F083292B209F0D3FEE9E7002EE7D05E
:102D5000002211461046F6E728343FF5A1AE204682
:102D6000A0E6002EE0D1FAE7C40F0021C80F002131
:102D7000CC0F00211FB572B6194B1C6BECB9BFF319
:102D80004F8F1849184BCA6802F4E0621343CB60B6
:102D9000BFF34F8F00BFFDE7B2FBF6F22B465D1C81
:102DA000002AF9D1DBB203F110056D4405F80C2CB3
:102DB0000A2233B901A8A047E1E7024600230A2608
:102DC000EDE7013BDBB203F110050DEB0506B0FBAF
:102DD000F2F502FB1500303006F80C0C2846E8E747
:102DE000E002002100ED00E00400FA0513B5124CEA
:102DF00068462389ADF80030E388ADF80430A38835
:102E0000ADF8023002F072FB18B1FB219C20FFF7F5
:102E1000B1FF207D02F09AFB08B1FE21F6E7E07CCD
:102E200002F08EFB08B1FF21F0E794F8280008F0CB
:102E3000B9F802B010BD00BFE002002138B5054668
:102E400000283DD00CF0F8FD10B94FF0FF3038BD30
:102E50000AF080FDB0F5FA7FF7D81B4C00212563FE
:102E60001B2504F10F0084F834102A46217084F8E1
:102E70002A10E1620DF02CF8012303210820022220
:102E8000A370E370E372A3742376F7232172238483
:102E9000FB23A0721F20A1734921E3840A23A5808C
:102EA000E5806272A081E174E27584F82830EFF366
:102EB000108472B600F05AFD04B962B60020C6E76D
:102EC0006FF01500C3E700BFE002002138B51446DB
:102ED000002840F0C480634D95F83430032B00F097
:102EE000BB80B9B112B96FF0150038BD013917298F
:102EF00000F2B580DFE801F00C1D20366069873CE8
:102F00006C6F814248565B8D909FA2A596B3B3A883
:102F10001378AB700020FFF7B5FD0028B7BF012381
:102F200002236FF00B0085F83430A8BF85F83430E9
:102F3000DBE71378EB70EDE71379002BD3D05379EF
:102F4000002BD0D01288FB2ACDD863881B3B9BB2C4
:102F5000E02BC8D81A2AC6D92368A2886B60424BD6
:102F60009A80D7E71378EA7B9342BCD3EB72D1E720
:102F70001378EA7A9342B6D8EB73CBE71378EA7A00
:102F80009342B0D86B74C5E71378002BABD053785D
:102F9000013BDBB2F82BA6D8138892786B82334BB7
:102FA0009A70B7E71078687507F0A8FFB2E7137852
:102FB000002B98D02B76ADE7012000F08DF9237817
:102FC00008B1012B8FD9AB73A4E71388AB81A1E7BC
:102FD0001378AB759EE7072000F07EF910B92378CF
:102FE000012B80D9072000F077F918B12378002B46
:102FF0003FF479AF2378EB758CE71378082B3FF615
:1030000072AF2B7486E71388FF2B3FF66CAFAB7261
:1030100080E713786B767DE713780E2B3FF663AF6E
:10302000AB7677E72368124AC5F81E3063685360B1
:10303000238913816EE71378EB766BE713786B7750
:1030400068E713782B7765E713785A1E092A3FF64D
:103050004AAF85F828305DE74FF0FF3045E76FF065
:103060002C0042E7E0020021E4020021F2020021EC
:10307000FE020021F8B50D46064630B329B311F023
:10308000070422D1124F97F83430012B02D16FF090
:103090000B00F8BD032B02D14FF0FF30F9E700F031
:1030A000A1FC0028F8D02846FFF7ECFC0028EEDB56
:1030B00007F07EFF3046F96A02F0B0FAFFF796FE9D
:1030C0000323204687F83430E3E76FF01500E0E78C
:1030D000E002002110B5074C94F83430032B03D1E3
:1030E00002F0B4FA03F060F90DF058FD002084F806
:1030F000340010BDE002002108B502F053FA034984
:103100000320BDE8084000F0DFB800BF612A0001DD
:1031100008B502F061FA03490220BDE8084000F05A
:10312000D3B800BF3D2A0001074B4FF0FF3141F6F5
:10313000FF72C3E9001205490022C1E900221F21E4
:10314000C3E90212704700BF0000002118030021EC
:103150003F280CD801380B4BC0F3421200F01F007F
:1031600053F8223023FA00F000F001007047FF28E6
:1031700006D04038044BC0F3421200F01F00EFE7C6
:10318000012070470000002118030021074B014671
:10319000006849681A4603C240F48C2200201A6075
:1031A00041F0107242F4FF625A6070470000002143
:1031B0000246034B0068516803C30020704700BFFC
:1031C000180300210246034B0068516803C3002026
:1031D000704700BF080000210138064BC0F34212BF
:1031E00000F01F0003EB82039B6823FA00F000F05D
:1031F00001007047000000210A8870B595B2C67CB6
:10320000C2F30E020488023602F118033444C35A92
:10321000A4B233442344013BB3FBF4F303FB042285
:10322000438892B29342044B8BBF2B40AB43134372
:103230009BB20B8070BD00BF0080FFFF4A1E062AB4
:1032400008B50346084604D84FF4D1711520FFF79E
:1032500091FD094A914202D940F2A311F6E711B952
:1032600003B1196008BD2BB11B680022C3E901211D
:103270001A1D1A600430F5E7FAFFFF7F10B5114BF5
:1032800000EB41041A786389B3FBF2F303FB0223DA
:10329000013A1A44B2F5706F0279807828BF002392
:1032A0001A440B18B2FBF0F100FB11215B1AB3FBBF
:1032B000F0F100FB113313446FEA43436FEA5343C9
:1032C000638110BD20030021024B03EB8003596092
:1032D000704700BF20030021034B03EB80035868B5
:1032E000003818BF01207047200300212DE9F04F5E
:1032F00010F0070A85B0054604D040F26F11172080
:10330000FFF738FD534F04464FF0010B07F14C0611
:10331000B146B04657F8043B8DF80BA03BB101A86D
:1033200098479DF80A30082B01D9F521E7E79DF869
:103330000B1041BB05B131604F4506F10406E9D1E0
:10334000002D6FD00022DFF810911227964689F8E1
:10335000002058F827A0013FBAF1000F55D09AF885
:1033600004609AF802C0FF2E60D039460023481C42
:1033700038D19C44BCF1FF0F3FD90AB189F800E075
:103380004FF49A71BBE79DF80AC04B1D60465A0086
:1033900004EB4303022838BF0220441E404223446A
:1033A000BDF808406444CCF1000C0340013C04EA41
:1033B0000C04B4F5803F02D340F205119FE775B1CC
:1033C0009A1A32609170148082F803B09DF80C0054
:1033D000107101984FEA104C1081A2F806C004FB4E
:1033E0000134A9E758F8210028B190F804B0B3459A
:1033F00004BF80781B180139B9E7DBB2E6458AF8CB
:1034000004303CBF5FFA8CFE01227B1CA1D10AB1C3
:1034100089F800E0122640F6FF6A58F82670B7B91E
:10342000013EFAD2601B05B0BDE8F08F0023E5E74E
:1034300007EB410309F101093846A3F80AA0FFF799
:103440001DFF5FFA89F1BB788B42F1D8E8E74FF0B6
:103450000009F6E72403002120030021034B03EBBE
:103460008003186D00B18078704700BF20030021F1
:1034700038B54FF6FF7302460380184B03EB810308
:10348000186DA8B184780379B3FBF4F104FB113310
:10349000DBB2194600EB4105B5F90A50002D0EDBF1
:1034A0000131B1FBF4F504FB1511C9B28B42F1D126
:1034B000002038BD6381BDE838400DF00ABA00EB4A
:1034C00041046389C3F30E031380C278002AF1D14B
:1034D0004FF4E5711720FFF74DFC00BF20030021DA
:1034E0001C4B03EB810370B51C6D054644B303040C
:1034F00004D54FF4EC711720FFF73CFC0146204641
:103500000DF0CAF9FF28014604D02046BDE87040FE
:103510000DF0DFB9A078B5FBF0F300FB1353DBB27D
:1035200019460A1D04EB4206B6F90260002E09DBBB
:103530000131B1FBF0F200FB1211C9B28B42F0D1A4
:10354000002070BD8B4201D00023E37004EB4202E7
:103550005580DAE720030021094B03EB8103014684
:1035600010B51C6D20460DF097F9FF28014604D0D8
:103570002046BDE810400DF0ACB9002010BD00BFE2
:1035800020030021F8B5104B074603EB81030146E9
:103590001C6D20460DF080F9FF28054611D0E28809
:1035A000238953EA024606D0014620460DF091F9E0
:1035B00001463846B04720462946FFF75FFE002007
:1035C000F8BD0520FCE700BF2003002138B50E4BF5
:1035D0000446827903EB8203186D08B9052038BDD3
:1035E0008278E1799142F9D24B1CE37100EB4103FF
:1035F0005D89B3F90A30002BF3DBA5800DF069F982
:1036000020600020EBE700BF2003002170B50446D6
:1036100010F003000E4603D04E211820FFF7AAFB3E
:10362000FFF70CFE054624B1034831460460FFF75E
:1036300005FE284670BD00BFBC0300212DE9F14FF7
:10364000DFF870B01E4607460D46DBF800309046A6
:103650009DF828A09DF82C901BB960211820FFF739
:1036600089FB5246092140460CF09AFF4A4684B233
:10367000092130460CF094FF81B2DBF800002144B0
:103680000DF0DEF8386018B9286001B0BDE8F08FA1
:1036900004445346414609222C6038680CF043FF2D
:1036A0004B4609223146286801B0BDE8F04F0CF0C6
:1036B0003ABF00BFBC03002170B50E4604460CF0B3
:1036C00082FF054630460CF07EFF044B2A18214647
:1036D0001868BDE870400DF0D8B800BFBC030021E9
:1036E000024B186808B10DF09FB87047BC03002169
:1036F0001F2AF8B5044613460ED89200033222F072
:103700000303B3F5803F2DD2184DACB1A00710D004
:1037100068210920FFF72EFBFF2B4FEA420204D954
:10372000FF339A42A8BF1A46E8E77C2AB8BF7C223A
:10373000E4E729706C602B8122F003022823012723
:10374000120403FB01F06B680025120CEEB2B142CB
:1037500000D8F8BD14B126181F705E601044013502
:103760002833F3E74FF0FF30F3E700BFC003002139
:10377000154A002170B553681578C8B2854203D840
:10378000BA210920FFF7F6FA1C461846013114F851
:10379000286B0EB92346F0E70021997001241289A5
:1037A000996103F126055C709208D96103F11E044A
:1037B000596824F8022FA54243F8041F1144F8D198
:1037C00000234361037070BDC00300210A4B1B89B5
:1037D000B3F5FF7F4FEA930006D25A089B1A9BB2BB
:1037E000984238BF18467047B3F5EE6F01D8FF22F4
:1037F000F4E740F27263F3E7C00300214B782DE950
:10380000F04106460C4602F0040702F0FB05E3B166
:10381000A5BBFF23A3707B0804EB57073A7D032A5F
:1038200002D1022D18BF0133E2180121117503F1F5
:103830000C01002204EB830324F811205B68A270C2
:1038400030463360B280BDE8F081002DE1D1012324
:1038500001F11E028D6120464B7004F1260C1A4BBB
:10386000CD611B8949689B0822F8023F944540F8C6
:10387000041F1944F8D100236361CAE7D1F804801A
:1038800014220021A01861700CF022FB0E4B1B8942
:10389000B3F5FF7F0FD25A089B1A9BB208EB0301C6
:1038A000C4F804802384A1606284C4F80C80A384DB
:1038B0002161E284ADE7B3F5EE6F4FF0FF02EBD983
:1038C00040F27263EAE700BFC00300212DE9F8432C
:1038D00005460C46F720052191460CF061FE061EB8
:1038E00021DB1DB906FB04F0BDE8F88315F00307E2
:1038F00003D098211920FFF73DFADFF83080C8F88F
:103900001050A8F81460BBB29C42EBD9B8F8145020
:103910004B46D8F810000522F72107FB05000137B8
:103920000CF001FEEFE74FF0FF30DDE7D40300219C
:1039300007B5CDE900230B4603490246081D0DF0EB
:1039400007F903B05DF804FBEC03002113B5064C46
:10395000CDE900230B46024604F1080104F10C00F6
:103960000DF0F6F802B010BDEC030021144B01225B
:1039700000214FF0FF309A60C3F80012C3F808032B
:10398000C3F80015C3F804259A60C3F808034FF480
:103990008040C3F80015C3F8042503F5805341F6B1
:1039A000F8720849C3F80825C1F88000BFF34F8FAB
:1039B000BFF36F8FC1F88001C3F80825704700BFBF
:1039C00000E0004100E100E002680020014B1A60C5
:1039D000704700BFFC030021014B1B68184700BF64
:1039E000FC030021024B1868003818BF0120704703
:1039F000FC0300218C469B22064B00B50CF8032BE0
:103A00008E4607CBCEF80300CCF80410CCF8082083
:103A10005DF804FB0C0400212DE9F0411C4E044626
:103A200000F00107736A93F8A850B5F1000818BFB9
:103A30004FF001081DB117B1338D1A0714D40129B5
:103A400016D8F36A2046984790B196F830307BB983
:103A50008DB987B1308D58B996F831304BB996F899
:103A6000320080F0010004E096F82A30002BE6D006
:103A70000120BDE8F08184F0010010EA0800F8D0D0
:103A8000308D8307E7D596F82A0080F00100F0E733
:103A90000004002110B5154C08F0AEFB08F0C2FE82
:103AA0000021A36BA08E9847237E93B9A18E606AF4
:103AB00003F0DAFB636AB3F8AA0003F0FDFA236CA3
:103AC00094F8301094F83C009847002384F8443070
:103AD00010BD94E8070004F10C0383E807000449D3
:103AE00004F119000EF073FFE0E700BF00040021AD
:103AF000F5390001034B93F8443003B97047FFF7E1
:103B0000C9BF00BF0004002108B5094B93F8442049
:103B1000022A07D1DA7A42F00102DA72BDE80840DF
:103B2000FFF7B8BF40F257312720FFF723F900BF56
:103B3000000400211E4910B48C6C42782378D20016
:103B400003F0F30302F0080213438278920002F0BC
:103B500004021343C278120103F0EC0302F01002D6
:103B60001343027802F00302134302222370B1F8D8
:103B700054306370A1F84C208C6C0079237842019A
:103B8000012823F0200302F0200243EA02032370FD
:103B90000CD14B6A93F8BA2093F8BB30032A03F098
:103BA0001F0308BF002243EA8213A37010BC7047B2
:103BB00000040021F0B5194C83B0A56D4DB3636EC0
:103BC0003BB3B4F8683001F003012F4606466B7032
:103BD0002B7823F003030B4307F8033B3846B4F874
:103BE0006820616E0CF0DEF90DF1020201A9E06EB1
:103BF000E56567660CF00EFE01980CF0F9FD0346D2
:103C0000B4F868100122E06E33600CF09CFD03B044
:103C1000F0BD40F6C6012720FFF7ACF800040021F4
:103C2000F8B5244C4FF481730646656AA4F86030F9
:103C30002A7D94F87430276F03EB820095F82111E8
:103C4000E765FF2804D11EB995F820318B4216D0C4
:103C500007F0ACFD2B7D3BB3A06F08F057F9A16FC7
:103C6000E06D08F0A5FD8EB1B5F8E00007F056FD57
:103C7000002008F083FA022384F84430F8BD002ABB
:103C8000EAD1384608F042F908F0CCFD95F8213128
:103C9000B5F8E420033B012B8CBF00202820104402
:103CA00080B208F09BF9DFE7E06D08F02FF908F02B
:103CB000B9FDD8E7000400212DE9F04FC44C87B0CE
:103CC000666A94F87430327D96F8201103EB820313
:103CD000FF2B05D120B996F821318B4200F0F380FB
:103CE000FF2007F063FD676A00233A7A04938DF89A
:103CF0000930ADF80A308DF81430062A00F2178129
:103D0000DFE812F07B00E3006100610015010700AD
:103D100007000DF10A0103A801F0B6FE002800F02B
:103D2000F280039D002D00F0EE800122062384F82E
:103D30007D20BDF80A203B72002A5CD0E91CA4F863
:103D40005420022B2165B7F80920A564ADF8112095
:103D50006DD0053B012B69D80B780322022B8DF81F
:103D6000102000F0A380D4F880000CF0ABFC0546D6
:103D7000002840F0C380236D1B781B2B00F0E780E8
:103D800000238DF8143004A8F37C84F8315023B15B
:103D9000B4F85430002B40F08C80FFF7CBFEA06CC1
:103DA00008F0B4F808F03EFDB6F8E20007F0B6FC03
:103DB000012008F0E3F9012384F8873084F84430C7
:103DC00007B0BDE8F08FB7F810310DF109020DF121
:103DD0000A01D4F88000ADF80A300CF01BFC05464F
:103DE000002800F003810123BDF80A2084F87D300B
:103DF0003B7A002AA2D11146A1E7002303A80DF1C6
:103E00000A01A7F8443094F87C30A7F81031ADF8D7
:103E10000A3001F039FEE0B1039DD5B1012205233E
:103E200084F87D203B72BDF80A2085E701238DF8D8
:103E30001030D4F880000CF045FC0546002858D11D
:103E400001F03CFE2B4680F00105EDB28DF81350D9
:103E500097E7636A93F85580B8F1000F58D10DF1D8
:103E60000A010DF10902D4F880000CF0D3FB0546DD
:103E700000284DD09DF809A0BAF1000F6ED1BDF811
:103E80000A30002B58D10123A5643B7284F87D30A1
:103E90000023A4F854302365B7F80930ADF8113089
:103EA00001238DF81030B8F1000FC2D000252B4649
:103EB00067E7FFF73FFEA06F08F028F8A16CA06F3E
:103EC00008F03AFC70E737460EE7424B0122D4F87F
:103ED0008000A36400238DF81020A4F854302365DB
:103EE000B7F80930ADF811300CF0ECFB05460028AE
:103EF000A6D001238DF81330002342E701238DF86B
:103F00001330236D38E740F2D3512720FEF732FFFC
:103F10004FF00008012200233A722E4AADF80A3011
:103F2000A4F854302365A264B7F80930B6E740F22C
:103F3000DD512720FEF71EFF002301222B80AB70EE
:103F4000032384F87D203B72BDF80A20F4E607F1D4
:103F5000BA00012107F06CFC012312E70146D4F8F6
:103F600080000CF041FC0CF043FC0368D0F804B076
:103F7000814653EA0B022FD10023BDF80A2089F8AD
:103F8000003089F8013089F8023089F8033089F867
:103F9000043089F8053089F8063089F80730002A9E
:103FA0003FF471AF9DF809100029C5D0297801F0C0
:103FB0000301012906D00121BB75022384F87D107D
:103FC0003B72BBE6032384F87D103B72B6E600BF6C
:103FD0000004002184040021019309F089FE019B63
:103FE00083427BEB0101C7D2D04693E740F2C45134
:103FF0002720FEF7BFFE00BF2DE9F04F0023B14C94
:104000008BB0656ACDE9083394F84430022B40F058
:104010005982E36D03220E46074693F8009005F19E
:10402000A80A5978134409EA020B4FEA2918A4F8A0
:1040300060206366A4F86810002800F0C88000299A
:1040400040F080816B7AA28E0133A16542F4007248
:10405000DBB2A28683EA990111F0010140F0F18000
:104060002A7A002A00F06981032A6B7200F2B38178
:10407000012A00F06281B5F8443008A9D4F8800024
:10408000A5F846300CF0E8FA002800F025822B6FE6
:1040900001332B676B6F43F100036B670021636A89
:1040A000297293F8A8304BB16B793BB1238D102066
:1040B000697143F010032385A36B9847A38EC9F35E
:1040C000C00943F40063A386002307932B7D002BD4
:1040D00040F0BE80AB7A03F00102914500F01781F9
:1040E000A36D002B00F0C78008F0010884F832802F
:1040F000002E40F0F680079E4FF0000994F88A10D9
:104100000120FFF789FC8046002840F0D781EB7C36
:10411000002B40F03281002095F82021B5F8E01006
:1041200007F038FD0020FFF7C7FDB8F1000F03D0FE
:10413000594609A8FFF73EFDA38E5A0607D4A36B84
:10414000002140209847A38E43F04003A38666B128
:10415000EB882BB9636A93F8A830002B40F0CF802E
:10416000B4F809300133A4F80930002F00F0C18001
:10417000B4F805300022013384F88A20A4F8053011
:10418000514802F087FF089830B10CF031FB002253
:104190000272514602F028FA099B33B100221A72CA
:1041A0000C225146099802F0EDF9B9F1000F40F0E8
:1041B0008380A38E1B0607D4A36B494680209847B3
:1041C000A38E43F08003A3860BB0BDE8F08F2B7D58
:1041D000002B40F0BC8094F88A30013384F88A3098
:1041E000A38E43F48063A38695F82131033B012B12
:1041F00016D902F031FA98B9A36D002B00F00081B6
:1042000008F0010884F83280002E3FF475AF07F003
:10421000F3FFA38E5B066AD400264FF001098EE7F8
:1042200007F092FA0328A36D00F09480002B00F0B1
:10423000E78008F0010884F83280002EE7D1B1460B
:104240005CE72B7DC9F3C0090797002B3FF442AF11
:10425000B4F86830F3B9AB7A03F0010291457FF40A
:104260003FAF0133BBF1030FAB7200F0CE80A26D04
:10427000002A7FF439AF4FF00009B4F86830002B02
:1042800014BF4FF0000808F0010884F8328046BBE4
:10429000079E33E708F0EEFA0328FBD002280BD084
:1042A00000287FF417AFAB7A03F0010399457FF440
:1042B00017AF012384F83C30FFF7ECFB0BB0BDE8EF
:1042C000F08F00BF0004002124040021002A14BF45
:1042D0004FF0000808F0010884F83280002E3FF407
:1042E0000AAF07F089FF079E4FF0010924E74FF05E
:1042F0000109B4F807300133A4F8073040E7B4F8F7
:104300000530B4F8072013433FF42FAF28E7B4F883
:104310006820002AA5D00BF1FF32012A40F28580E7
:104320000133BBF1030FAB726FD0AB6F0133AB67DF
:10433000EB6F43F10003EB67D2E6B5F84430A5F824
:104340004630ABE6E06E0CF0DEF901467AE608F0A6
:10435000D1FA40E7B4F86890B9F11B0F94BF4FF061
:1043600000094FF00109002B5DD008F0010884F826
:104370003280002E3FF4C2AE49E7636A05F1800146
:1043800095F82A0105F1900C93F8A82095F82031B2
:104390008000B2FA82F20791013B5FFA80FE520977
:1043A000DBB2032BD5E91C0100F2AB8003930B4673
:1043B00005F18001CDE9002C02464FF0000C70465B
:1043C0004FF0010ECDE904CE4FF0FB0CCDF808C044
:1043D00008F022F99FE6053A012A78D8B5F844306A
:1043E0000791A5F8463001F05DFB0799002878D0C9
:1043F000238D082043F008032385A36B984746E6E6
:104400004FF00009CDF81C9037E7A38E01203F49FB
:1044100043F480532871A386238D43F00103238541
:10442000A36B984781E7079327E7A38E95F814902D
:1044300043F48053A38607F087F9032894F8883063
:1044400007D1B9F1000F0CBF1F221B22934228BFD6
:104450001346B4F86820A16D9A421CD800293FF495
:1044600035AF94F8893003BBAB6F08F00108013316
:1044700084F83280AB67AB7A03F10103AB72EB6F68
:1044800043F10003EB678EB307F0B6FE594609A867
:10449000FFF790FB27E794F8303043F0100384F8DF
:1044A000303000297FF420AEE5E6A36B0021202008
:1044B0009847A36D002B7FF417AEDCE607F09CFE57
:1044C000079610E740F6AF112720FEF753FC40F2A5
:1044D000B4712720FEF74EFC40F2D6712720FEF77C
:1044E00049FC4FF4FC612720FEF744FC94F88A1045
:1044F0000120FFF791FA81460028C5D1079EB846F2
:1045000005E640F225410620FEF734FC6404002154
:104510002DE9F041404C86B094F84430012B70D125
:10452000666A5FFA83F805460F46337903BB337A30
:10453000052B30D0012F16D1ADB929462846FFF7FB
:104540006BFA80B9337D676A002B3BD197F8212144
:104550000120B7F8E21007F01DFB002006B0BDE80F
:10456000F041FFF75DBB06B0BDE8F041FFF792BA3E
:10457000238D0021042043F0040331712385A36BB4
:104580009847636A93F8A830002BD0D0337A86F826
:104590000580052BCED1238D0220204943F0020354
:1045A0002385A36B9847636A93F8A830002BC1D08A
:1045B000236D1B78A3F10203B3FA83F35B0984F83C
:1045C0002A30B7E797F8213106F1800C94F874206F
:1045D0009036013B97F8A840DBB2003C18BF01249D
:1045E000032B56E9060111D80094CDE90162024679
:1045F0000120CDE9033505900B46614608F00CF823
:10460000A4E740F60E112720FEF7B4FB40F2254147
:104610000620FEF7AFFB00BF00040021500400217C
:1046200010B50C4C0C4A0D4994F84430116023B17C
:104630004FF4B1712720FEF79DFB03F0FF022276B5
:1046400002F00AFE01F01AF8206701F01BF8A067DB
:1046500010BD00BF00040021D00F00214C49000113
:10466000074A10B592F8443013B10C24204610BD0F
:1046700003F0FF04147602F0EFFD204610BD00BFEA
:10468000000400212DE9F0439A4C87B0054694F8C8
:1046900044009DF83860002840F02181002A18BFAE
:1046A000002900F01C81B3FA83F04009002B00F0D0
:1046B00016812364A163E26284F8300084F88A00E2
:1046C00084F83C0084F887002085A08684F83100B7
:1046D00084F8320084F87D0084F82A00A064206504
:1046E000A4F85400E0656066A4F8680084F8896066
:1046F000656207F0CFF808F095F895F9280107F002
:104700002DF9D5F8D460D5F8CC0007F02DF9304656
:1047100007F0E0FB95F8250007F030F9B5F8E03038
:10472000702B03D9B5F8E230702B01D806F0FCFFEE
:10473000636A93F8A860002E72D00EF04BFE01461B
:1047400095F821210120AF3107F00EFA6A4B186865
:1047500007F0C6FBAB7B243BD5E93012072BC4F82E
:104760008010E2667BD9EB7B243B072B77D9B5F829
:10477000F230B5F8F80095F82011984228BF184695
:10478000042908BF03210DF0F2FC024695F8F4005D
:1047900095F8F030904228BF104680B2984200D37E
:1047A000C3B295F8211105F1E80084F87C300EF0D1
:1047B0008CF995F821112F7D0329B5F8FC6008BF0D
:1047C00004210DF0D4FC0FB9043080B2864228BF1A
:1047D0000646F6B284F8886001F03EFF002840D11A
:1047E000636A84F8746093F8A8306BBBEA7C002A93
:1047F0003ED10120FFF760FA0023B5F8AA0095F832
:104800002520A360C4E90033D5F82431E98820804D
:10481000618022710BB101221A6007B0BDE8F083FC
:104820000EF0D8FD95F82021344B01463046344E29
:1048300033F8123003F5FA73A6FB036301EB93110F
:10484000913107F091F981E72B7D73BB0120FFF7D0
:10485000E7F9636AD3F8E80107F08EFBCCE71B2386
:104860009FE701F0FFFEB04238BF3046C6B2B7E75F
:1048700095F8206105F1800195F82A0105F1900273
:10488000013E8000F6B2C0B2032ED5E91C892BD8B8
:1048900001924246CDE9036301264B4605960096F8
:1048A000FB26029607F0B8FEA3E795F8213105F143
:1048B000800705F19002013BDBB2032BD5E91E0115
:1048C00012D8019202460120CDE9026300260B4670
:1048D000059039460090049607F09EFEB6E74FF427
:1048E00020712720FEF746FA40F225410620FEF708
:1048F00041FA00BF00040021D00F00219001020105
:10490000D34D6210FFF7C6B8014B93F8870070478C
:1049100000040021054B9A8E12F4C06F03D093F867
:104920007D0000B17047C2F30030704700040021E1
:10493000024B93F83500C0F3C0007047000400211B
:10494000014B93F88A00704700040021093B0001E5
:10495000F93F000111450001F53A000190F854308B
:104960005A070ED413F0030301D11846704790F88C
:10497000550000F0FD00A0F10100B0FA80F0400900
:10498000704790F85600A0F10100B0FA80F040099D
:10499000704700BF08B501210020FEF7DDFD28B1FA
:1049A00090F89400003818BF012008BD40F64A3145
:1049B0003220FEF7DFF900BF343270B5044692B200
:1049C0001E460D460BF0BDFF24B1034B1C601D7449
:1049D0005E741D7170BD00BFA404002190F86C00CE
:1049E000003818BF01207047304BF0B5B0F86C703C
:1049F0000C461146DA88B0F86A6085B097421D8986
:104A000028BF1746964228BF16461B2E2ED0B5F556
:104A1000A47F2DD040F6480301AA9D4228BF1D4621
:104A20000CF0C4F8BDF80A30BB4228BF3B46E38017
:104A3000BDF80C30AB4228BF2B462381BDF80630B1
:104A4000B34228BF33466380BDF80830AB4228BF6D
:104A50002B46A380FF232370E3881B3B9BB2E02BF4
:104A600008D940F202513920FEF784F91B2FCED12C
:104A700005B0F0BD63881B3B9BB2E02B02D940F22E
:104A80000451F0E7238940F64812A3F5A4739BB2C2
:104A9000934202D940F20651E5E7A388A3F5A47337
:104AA0009BB29342E4D94FF4A161DCE74C050021AD
:104AB000F7B5002506462C463278ABB29A4207D8A5
:104AC0000F4B0020B3F864201444A3F864400EE0B8
:104AD00006EB850701A9B7F801000DF0AEFB60B940
:104AE0000199B7F80330CA8C934202D9122003B05F
:104AF000F0BDD21A23449CB2CA840135DCE700BF62
:104B00004C050021F7B5002304460E461746CDE9B3
:104B100000336846FEF75AFD08B100201AE0009DF8
:104B2000A542F6D0304605F1AD030CF039F8394610
:104B300095F8AC200DF07DFA0028EAD005F1B40319
:104B400095F8B32004F1B40194F8B3000DF071FAB4
:104B50000028DED003B0F0BD054A516A02F11D0302
:104B6000127F11F8030BC0F380100DF062BA00BF82
:104B7000880A00210138C0B2032808B504D94FF4CF
:104B80003F710620FEF7F6F8014B185C08BD00BF28
:104B90005CFF01010138C0B2032808B504D94FF405
:104BA0003F710620FEF7E6F8014B185C08BD00BF18
:104BB000B4FF01010138C0B2032808B504D94FF48D
:104BC0003F710620FEF7D6F8014B185C08BD00BF08
:104BD0009000020107B50D4AB2F864309BB1013B69
:104BE00001A9A2F864300DF028FB20B140F2235156
:104BF0003920FEF7BFF8019A0120D38C0133D3840A
:104C000003B05DF804FB1846FAE700BF4C0500212D
:104C100010B503210020FEF79FFC044670B9032164
:104C2000FEF75EFC044620B940F21E313920FEF743
:104C3000A1F8034B93F96C100EF0FFFE204610BD57
:104C40004C050021014B5888704700BF4C050021DE
:104C5000044BD87BC0F3400080F0010000F001005D
:104C6000704700BF4C05002110B50DF0E1F9204C54
:104C700001F0C2F800F066FD0DF081FE02F078FA56
:104C800001F0BAFA06F07AF9012000F0FFFC0021E9
:104C9000184B194A19604FF01B13A4F86410A18136
:104CA00084F83210E173C4E900234FF4A473102296
:104CB000A3604FF479432361104B58681B896063EC
:104CC00004F13C0023870BF003F9012342F2107238
:104CD00004F15A0084F83C306375C4E910220FF0E7
:104CE0002CFB04F14C00BDE810400FF04CBB00BFA2
:104CF0004C050021D40F002103021B005CFF0101C1
:104D0000044B41F64C521B211A629973C3E90622E7
:104D1000FFF7AABF4C050021F7B53A4D00F1A807EF
:104D20000446AB69C0F8E8302B7C003B18BF012378
:104D300080F82931344BC0F8C83038460EF056FCA4
:104D4000064600F0E7FC8306A97B53BF1B236B8854
:104D5000AA881A46A4F812312C4BA4F814211B6817
:104D600084F8F010A4F8F26023B194F92811B4F893
:104D7000AA009847264B1B681BB12649B4F8AA0025
:104D80009847254938460CF0C3FF0123A4F8DE30CC
:104D9000224B1B681BB10021B4F8AA009847204B96
:104DA0001B681BB10021B4F8AA0098471D4B1B6873
:104DB00013B1B4F8AA0098471B4B1B6813B1B4F8A1
:104DC000AA009847AB8804F1C0006A886978033369
:104DD000033201919BB2297892B2009104F1C4018F
:104DE000FEF72CFCD4F8C03023B940F2DB41392067
:104DF000FDF7C0FFD4F8C43013B940F2DC41F6E748
:104E000003B0F0BD4C05002100093D00E80F002172
:104E1000DC0F00217005002156050021F80F00214C
:104E2000EC0F0021F00F0021F40F00212DE9F341D8
:104E300004460E460EF042FE002800F09680204602
:104E40000EF0B6FF40B1B6F80130013B7F2B03D91D
:104E5000122002B0BDE8F08120460EF0ADFF08B987
:104E60000C20F6E720460EF095FC0028F8D12046ED
:104E70000EF0CDFD80460028F2D1204604F07AFCE9
:104E80000028E5D042F21073B6F80170F1782046A0
:104E90005F430EF078FF04213078FEF75DFB054696
:104EA00006213078FEF758FB2DB140B141F678214C
:104EB0003920FDF75FFF18B3054690F8E5802C4ECA
:104EC0003368EBB1403528460EF06DFAC0B1284684
:104ED0000EF05AFAA0B9B8F1000F07D0254B2846BA
:104EE0001B68984760B141F68C21E1E722494246B0
:104EF00033682846096A984710B141F69121D7E7EF
:104F000020460EF04DFF014638B93A46204602F0E1
:104F10004DFE40B341F69A21CAE702210DF1060089
:104F2000FEF7A6FA054608B90D2092E7BDF806106F
:104F30000DF0B4F9294620460EF065FF2846FFF72C
:104F4000EBFE3A462946204602F030FE024610B1FA
:104F500041F6B621ACE7084B9B6E23B105F597717E
:104F600005F1A8009847002073E7422071E700BFD1
:104F7000D80F0021E00F00214C05002108B503786F
:104F8000032B0ED803F0FD03012B074B06D1074A74
:104F900007481A6001F0F0FA002008BD00201860F0
:104FA000F8E71120F9E700BFD40F0021B14A000152
:104FB000D54B0001074B01889A88914207D3B0F87E
:104FC000032091B219B10020A3F86420704711208A
:104FD000704700BF4C050021024B1B6803B1184706
:104FE0000C207047D40F0021B0F9002011B292B20A
:104FF000F8B502F5A0639BB2B3F5206F37D8B0F9CE
:1050000002301DB29BB203F5A06080B2B0F5206FF4
:105010002DD802F2F64040F2BE5480B2A04228D809
:1050200003F2F64080B2A04223D800294FF00A04D0
:10503000C4BF093211B2002DC8BF093391FBF4F48B
:10504000C8BF1DB205F0A2FF0A2367B2064695FB52
:10505000F3F1384649B205F08BFF074B1B6813B1DB
:10506000A01B40B208B90020F8BD9847FBE73020EC
:10507000FAE71120F8E700BFE40F0021034B5A883C
:1050800002801B7883700020704700BF4C05002110
:1050900073B5837806461A2B08D8042B04D9334AF3
:1050A00022FA03F3DB0705D412251AE0292B01D0DD
:1050B0003B2BF9D13088B0F5706FF5D269460DF011
:1050C000BCF888B9009B93F82C2102F0FF05C2B907
:1050D000B27883F82D21FF2283F82C2168460BF04B
:1050E0008AFF284602B070BD09213088FEF734FAE5
:1050F0000446002837D001A9B0F8AC010DF09DF8A6
:1051000008B10C25EDE70821B4F8AE01FEF724FA4A
:1051100020B940F639013920FDF72CFE03781BB980
:1051200094F8C831032BECD1019B93F84221002A5B
:10513000E7D194F8F02102F0FF05002AE1D1B4F89C
:10514000B021A3F8442194F8B82183F84621027DC8
:1051500083F84721B27883F8482184F8F021FF22B0
:1051600083F84221BDE70225BBE700BF20003804D9
:105170000188A1F11B039BB2E02B0CD8428844F2BA
:105180004810A2F5A4739BB2834204D8034B0020BD
:10519000D9801A8170471220704700BF4C0500214A
:1051A000034BDA881B89028043800020704700BFD0
:1051B0004C05002138B50278447802F0010302F072
:1051C000020254EA030101D1112038BDBAB9857831
:1051D000002DF9D0002B18BF002400E01D4620460A
:1051E0000BF0ACFD0028EFD028460BF0A7FD0028FF
:1051F000EAD0054B00209C72DD729881E5E7002B18
:10520000ECD000242546EAE74C05002113B50088C0
:1052100001A90DF034F8044620B9019890F83E3108
:105220001BB13A24204602B010BD90F8603003F064
:10523000FF04002BF5D190F857309B0706D1FF23D0
:1052400080F83E3101A80BF0D6FEEBE7024958305A
:105250000DF0BDFBE6E700BFEB320101F7B50678C4
:1052600004460F46EF2E03D91226304603B0F0BD98
:1052700090F901204378002AF6DB82789207F3D177
:1052800013F010001DD19D0603F0030216D5002A6D
:10529000EAD11907E8D42179E278E57942EA0122D6
:1052A000617942EA0142A17941EA0521257A41EA80
:1052B00005418A42D8D81F2A12D8D5E7032AE8D157
:1052C000D2E713F0600FCFD103F00702052A05D013
:1052D00003F00F010D22CA40D207C5D51D07DAD54C
:1052E000627A013A062ABFD8A27A032ABCD813F000
:1052F000040302D1023A012A03D8E27A012AB3D880
:1053000013B9A37C032BAFD8237DF8B1012BABD10C
:10531000237E012BA8D818B36378D90702D500F0F3
:1053200077F920B36378227D03F01803082B2ED180
:10533000022A1CD103213046FEF70EF9054660B360
:105340000EF028FA002834D00C268EE7022B8BD0E2
:10535000A37D013B022B87D8E37D0F2BD8D983E7B0
:1053600000F0E2F9820707D4237D022B01D1112638
:105370007BE7A37D022BFAD000F0D6F94307CBD40C
:10538000237D032BF3D0A37D032BC5D1EFE7022AA6
:10539000D0D0237F002BCDD0E9E703213046FEF7A4
:1053A0009FF80546002843D0224B93F96C100EF06D
:1053B00044FB002130460EF08CFF28BB28460EF03F
:1053C000ECFC21463870E07428460EF0CEFBE37EFC
:1053D0000646002B3FF449AF00287FF446AF024653
:1053E000E96C6846FEF70AFA3246E86C01210BF0D8
:1053F000FDFAE96C68460422FEF700FA32463146AF
:10540000E86C0BF0F3FA30E740300DF0CCFF0028E9
:10541000D4D0637813F0330F7FF426AFA67D2846EF
:10542000296A0EF0DCFCFFF7A5FB8642C6D08BE7AD
:1054300007261AE74C05002130B502798BB00346E8
:10544000042A4FD84088B0F5804F4BD82649002415
:105450001144ADF800408DF808408A7C4D7B42F045
:1054600010028DF8244042EA4502CD7D097F42EAD0
:10547000850242EAC102694602F01F028DF800204F
:10548000BDF80020ADF809201A888DF80E00000A3A
:105490008DF80B20120A8DF80D408DF80C208DF838
:1054A0000F008DF810405A7BD3F807008DF81120BB
:1054B0005A79059002A88DF812209A798DF8132058
:1054C000B3F80B209B7BADF818208DF81A307F23A2
:1054D0008DF81B304FF00113CDE90734FFF7BEFE06
:1054E0000BB030BD1220FBE75CFF010102780346E0
:1054F00072B1427862B142881A2A09D982881A2A7E
:1055000006D90068034A106000209B88938070478A
:10551000122070474C05002102680020014B9A615F
:10552000704700BF4C0500210378A3F10A02112A3D
:105530009BBF024A00201220937370474C05002144
:10554000014B5874002070474C050021014B9874A2
:10555000002070474C050021024B1B6803B118471F
:1055600011207047FC0F002108B5052000F09AF8C3
:1055700005F0B2FC014B024A9A6608BD4C050021B9
:10558000E949000108B50122054B1A7104F0DCF865
:1055900004F0AEFE0CF0A2FBBDE8084000F014BF22
:1055A000BC05002110B50C20084C00F07BF8282029
:1055B00000F078F804F1080005490CF046FB04F10E
:1055C0000C000449BDE810400CF03FBBBC050021B5
:1055D000600000216800002110B5094C094904F160
:1055E00008000CF032FB04F10C0007490CF02DFB15
:1055F00004F110000549BDE810400CF026BB00BFC7
:10560000BC050021700000217800002180000021ED
:10561000014B1879704700BFBC05002138B5074C15
:105620000D4600F0ADFEA06825600CF006FBFFF70C
:1056300067FB01F04DF80123237538BDBC0500213F
:10564000014B187D704700BFBC05002110B50A4C06
:10565000E0680CF0F2FA20690CF0EFFAFFF704FBB7
:10566000202000F033F8262000F030F8292000F048
:105670002DF80023237510BDBC050021004870479C
:10568000D105002100487047D3060021014B83F863
:1056900019027047BC050021014B93F819027047AD
:1056A000BC050021C208074900F007000123834020
:1056B000885C03438B5404490B78934238BF1346EC
:1056C0000B70704718000021D60700210F4B0121F5
:1056D00010B503EBD002C40800F0070001FA00F097
:1056E000195D21EA0001195509490B78A34205D13A
:1056F000002012F8014914B100B10B7010BD002B4D
:10570000FAD0013B0120DBB2F3E700BF1800002113
:10571000D6070021014BD3E9000170471800002192
:105720000048704720000021054B1868C0F3C022D4
:10573000C0F30020400040EA820040F001007047C2
:105740001800002108B508F005F90023074A32F8CF
:105750002310814205D302EB83029378044A13702D
:1057600008BD01330C2BF2D10023F7E784FF0101C0
:10577000D7070021024B1878072828BF0720704759
:10578000D70700212DE9F04F046898460F4685B0F1
:1057900094F86730164604F1A80994F80FA043EA7C
:1057A000D303D90702D4BAF1260F5FD194F8A850D9
:1057B000002F55D1FFF7B8FF8DF80B00002E51D107
:1057C000FFF7B2FF2B4B8DF80C00D3F800B0BBF104
:1057D000000F0CD0AAF126022846494653425341F5
:1057E0000DF10B02009303ABD847054630B99DF885
:1057F0000B3013B19DF80C0028B90925BAF1260F1A
:105800002AD10020034694F8292132B19B0700F0E9
:1058100002002DD560B302200346FF2284F839210F
:1058200094F8382102F0FF05F2B99DF8382003A959
:1058300084F83B01484684F8382184F83A31A4F8CA
:105840003C818DF80C708DF80D60ADF80E800CF079
:105850005FFA002384F83931284605B0BDE8F08F9F
:105860003846A9E73046ADE73A25F2E71A25F3E7CF
:105870000925F1E70010002110B50468B4F8AA303A
:1058800084F87E11A4F87F3194F82001FFF782F9A3
:1058900084F8810194F82101FFF77CF9044984F828
:1058A000820104F27510BDE810400DF090B800BF01
:1058B000FB1C01012DE9FF4704688946054694F861
:1058C0000EA0AAF1250359425941052A35D1E37B9F
:1058D000272B37D104F10F0799F8018099F802605E
:1058E00008F0070806F0070608F1FF33721E03EA06
:1058F0000803324013431FD130460CF0A1FA60B3C5
:1059000094F82031984228D094F83A21164213D0C6
:10591000BAF1250F21D094F8192116421DD1013872
:10592000013B474AC0B2DBB21044032B00790FD8C9
:105930001A441379834210D9284604B0BDE8F047D1
:105940000CF046BABAF1250F77D104F10E07C3E780
:105950004FF4DD710620FDF70DFA40460CF070FAA9
:1059600040B194F82131834204D094F83B3118EAD5
:10597000030FE1D0B9F8039003AB20463246009301
:1059800041464B460CF069FA2C6878BB94F83831E4
:10599000012B28D1E38804F5347294F82011B4F86F
:1059A0003C010CF0BBFA0646D0B901462846FFF789
:1059B00063FF2B6883F838613E702B6803F10F0298
:1059C000974201D10022DA732B6803F10F0297424C
:1059D0002FD128460DF0D1F9002004B0BDE8F087A2
:1059E0002C23A373E9E784F83801E6E7E388A4F8F9
:1059F000D09209F1FF39A9EB030947F6FD731FFAAD
:105A000089F9994506D92823284684F8313001F0D0
:105A1000FFF8D9E7E37B0D2B02D00A3B012B01D81D
:105A20002A23F1E7BDF80C30A4F8D23229233B70C9
:105A3000CAE7002283F84E20CEE70220CDE700BF60
:105A4000B4FF0101024B002283F832209A8670478E
:105A5000DA070021044B93F83220012A1ABF0360B1
:105A600001200020704700BFDA070021054B0246E5
:105A700093F8321001291BBF01209A86002083F879
:105A800032007047DA070021054B024693F83200D6
:105A900020B1136009B19B8E0B800120704700BFBD
:105AA000DA070021044B002293F832009A8610B1E5
:105AB000012083F832207047DA070021034B93F866
:105AC0003200B0FA80F04009704700BFDA070021C9
:105AD00050B90A4A0120134603F8010B0868C2F8BE
:105AE00001008A889A807047012805D1034B0A6813
:105AF000D8719A608A889A81704700BF1008002187
:105B000050B90B4B187888B1D3F80120B3F80530A1
:105B10000A6001208B807047012806D1044BD87998
:105B200020B19A689B890A60F3E70020704700BFA4
:105B30001008002110B9044B18787047012806BFDF
:105B4000014BD8790020704710080021F7B58A88EA
:105B500000238DF80600ADF8042008680B4A8DF884
:105B600007300146147802F5A872019DD8B284422C
:105B700001D8082007E052F8087F01335668AE428A
:105B800008BF8F42F2D103B0F0BD00BF2008002152
:105B9000084B0146002230B51C7903F20713D0B23E
:105BA000844201D8082004E013F8015F01328D42DD
:105BB000F5D130BD200800212DE9F8432B4C0746D4
:105BC000257904EB000E013D9EF80861EDB2854297
:105BD00025712BD04FEA05184FEA001C08F1080385
:105BE0000CF108090CF1880C2344A144A4440FCB08
:105BF00089E80F0008F1880323440FCB8CE80F00DD
:105C0000631993F808218EF808210622554357435B
:105C100005F5887507F5887760596219E119E05133
:105C200092888A8093F840318EF840313046FFF7F1
:105C3000AFFF082818D12378013BDBB29E422370C6
:105C400012D02B3306F12B0204EBC30304EBC20288
:105C500093E8030082E803002078FFF799FF082803
:105C60001CBF241884F80861BDE8F88320080021CF
:105C7000F0B5254D89B095F8984105F2991168461F
:105C800022460AF08FF9214668460CF0F0F90446E6
:105C9000B8B300EB400102A8C9B2FDF79DFE631E38
:105CA00095F8A1610124DBB295F8981105E0721C0A
:105CB000B2FBF1F001FB1022D6B206F120020DEB8F
:105CC000020010F8202C002AF1D103EB430100F868
:105CD000204C06EB460220312A44694411F8187C16
:105CE00082F8A27111F8177C11F8161C82F8A371C2
:105CF00082F8A411013BAA19DBB282F89941FF2B6B
:105D0000D2D109B0F0BD00BF2008002170B5064611
:105D100088B00C46002A4ED0294A92F8A131D018FA
:105D200090F8991119B9FF212820FDF723F803EB0A
:105D300043010133114491F8A251E57091F8A35148
:105D400091F8A41125716171002180F8991192F8E0
:105D50009811B3FBF1F001FB103382F8A13192F8F6
:105D6000C23123B9174902F5DD700CF02DFE6579BB
:105D70000D220021684605F03F0545F0400565719C
:105D80000AF0A6F8E37804AA69468DF80F30304689
:105D900023798DF80D508DF80E30042309F010FF93
:105DA0009DF81F3023709DF81E3063709DF81D30E4
:105DB000A37008B070BD03216018FDF70DFED6E793
:105DC00020080021715C0001044B1A79824286BFD1
:105DD0001B1893F850010020704700BF20080021D5
:105DE000044B1A79824286BF1B1893F848010020A1
:105DF000704700BF20080021074B00224FF461715B
:105E00001A701A7183F8C32183F8C421A3F8C6114C
:105E100083F8C221704700BF20080021014B83F89E
:105E2000C4017047200800212DE9F04782468946C9
:105E300017469846FFF78AFE08280546064603D00F
:105E4000FFF7A6FE082860D1324C2379072B5ED8D5
:105E5000082D15D12678731C072E237003D96C21C9
:105E60002820FCF787FF06F12B02D9F8000004EB8D
:105E7000C20344F83200B9F8042083F806A09A80DF
:105E8000257907F110026B1C29012371CB1D2344D6
:105E900012F8010DBA4203F8010FF9D1873108F168
:105EA0001003214413F8012D984501F8012FF9D171
:105EB0002544102140460CF020F9102185F84801B6
:105EC00038460CF01AF985F808612679002385F820
:105ED00050013146104885F840310CF0C8F80128CF
:105EE000054607D831460D480CF0C1F8002818BF08
:105EF0000135EDB284F898510025284684F8A15167
:105F0000FFF7B6FE2846BDE8F0871220FBE7072022
:105F1000F9E700BF2008002168090021700900216D
:105F2000064B10B51879013840B2002800DA10BDD0
:105F3000C4B22046FFF740FE601EF5E720080021AE
:105F4000014B83F8C301704720080021014B93F8EF
:105F5000C301704720080021431E4AF2B7129BB2CA
:105F600093429DBF024BA3F8C60101200020704759
:105F700020080021014BB3F8C6017047200800211A
:105F80000A4B30B51C7984420ED9184490F80801A8
:105F90002B3003EBC004A5790D7053F8300010606E
:105FA0000120A388938030BD0020FCE72008002159
:105FB0000246074810B590F8C34124B1017921B1D8
:105FC000083005F00BF8204610BD0C46FBE700BF7B
:105FD000200800212DE9F74F2F4C9A46804689462C
:105FE0002379834256D9231893F8485185F0010547
:105FF000F9B193F85031E3B945F002070135BAF130
:10600000000F18D1FA070AD5062104EB08105246F2
:1060100001FB0841883001F58871FFF777FEBB0767
:1060200034D504EB0810524649460830FFF76EFE9F
:106030002CE02F46E3E794F8A1614FF0010B002D0F
:10604000E0D0A31993F89911019399B90092DAB1AC
:1060500000F00EFB019B06EB4601009A4FEA102C64
:1060600083F899B1214481F8A201000C81F8A3C101
:1060700081F8A401013694F89831013DB6FBF3F1A3
:1060800003FB1166F6B2DAE747F00407384603B0BF
:10609000BDE8F08F0027F9E720080021074B1A79A7
:1060A000824209D91A1892F848212AB9062202FB1D
:1060B000003000F5887070470020704720080021EC
:1060C000064B1A79824281BF1B1893F84001B0FA3F
:1060D00080F0400998BF0020704700BF20080021D1
:1060E000F8B50E4607460621154630460CF005F871
:1060F000044670B10C4B0022187903F23F13D1B261
:10610000884202D801242046F8BD013203F8015F1D
