:04000003000042B106
:020000040000FA
:10000000103A0020B1420000D35100009D42000090
:100010009D4200009D4200009D4200009D42000064
:10002000000000000000000000000000114300007C
:100030009D420000000000009D4200009D42000023
:10004000490D0000490D0000490D0000490D000058
:10005000490D0000490D0000490D0000490D000048
:10006000490D0000490D0000490D0000490D000038
:10007000490D0000490D0000490D0000490D000028
:10047000490D0000490D0000490D000053B94AB96B
:10048000002908BF00281CBF4FF0FF314FF0FF309C
:1004900000F00CB8ADF1080C6DE904CE00F008F8DE
:1004A000DDF804E0DDE9022304B07047704700BFC7
:1004B0002DE9F0478C468E46089E1546044619469F
:1004C000002B40F0D080724547D9B2FA82F74FB185
:1004D000C7F120030EFA07FCBD40BC4020FA03F32D
:1004E00043EA0C0C4FEA154EA8B2230CBCFBFEF8F5
:1004F0000EFB18CC08FB00F943EA0C43994528D9B8
:10050000EB1808F1FF3204D2994502D9A8F1020292
:100510002B44A3EB0903A4B2B3FBFEFC0EFB1C337C
:100520000CFB00F044EA0344A04214D92C190CF14E
:10053000FF3304D2A04202D9ACF102032C44241AA6
:1005400043EA02401EB1FC40002334607360BDE802
:10055000F0874246DDE76346F1E7002A79D0B2FA38
:1005600082F3002B3FD01946C1F1200302FA01F5B6
:1005700000FA01F42EFA03F20EFA01FE20FA03F358
:10058000AFB243EA0E034FEA154EB2FBFEFC0EFB80
:100590001C201A0C0CFB07F842EA004290455AD97D
:1005A000AA180CF1FF3004D2904502D9ACF1020038
:1005B0002A44A2EB08029BB2B2FBFEFC0EFB1C22FB
:1005C0000CFB07F743EA02439F4246D9EB180CF1B4
:1005D000FF3204D29F4202D9ACF102022B44DB1B52
:1005E00042EA004202E0AEEB020301224FEA154E5E
:1005F000AFB2200CB3FBFEFC0EFB1C330CFB07F868
:1006000040EA034398452AD9EB180CF1FF3004D295
:10061000984502D9ACF102002B44A3EB0803A4B225
:10062000B3FBFEFC0EFB1C330CFB07F744EA034450
:10063000A74216D92C190CF1FF3304D2A74202D9D4
:10064000ACF102032C44E41B43EA00400F46114680
:1006500078E71F2188E76046ABE76246BFE7604660
:10066000DBE76346EFE7734506D916B90021084674
:100670006DE7C6E9000EF9E7B3FA83F787B973456A
:1006800001D3824207D8841A6EEB030301209C46F3
:100690001EB900215BE73846FAE7C6E9004CF8E7E7
:1006A000C7F1200CBB4000FA07F422FA0CF520FA3F
:1006B0000CF1BA401D432EFA0CF30EFA07FE4FEA76
:1006C000154941EA0E011FFA85FEB3FBF9F809FB53
:1006D00018300B0C08FB0EFA43EA00439A4540D948
:1006E000EB1808F1FF3004D29A4502D9A8F10200B4
:1006F0002B44A3EB0A0389B2B3FBF9F809FB1833C7
:1007000008FB0EFE41EA03418E452CD9691808F119
:10071000FF3304D28E4502D9A8F10203294443EAEB
:100720000040A1EB0E01A0FB02984145CE46434696
:1007300002D306D14C4504D20138B9EB020E68EB66
:100740000503002EA5D0B4EB0E0261EB030101FA04
:100750000CFC22FA07F3F9404CEA0303C6E9003126
:1007600097E74046C5E74346D9E700000822F0B5C1
:10077000002789B003F029FECB6A0C4603930B6B6C
:10078000064604934B6B684605938B6BCDE9017766
:100790000693CB6B6946079313466A46009703F0AE
:1007A0004EFE31460546304603F049FE216B0544B6
:1007B0000391616B68460491A16B0591E16BCDE9F2
:1007C0000617694603F03BFE31460544304603F008
:1007D00036FE0544206ACDE904770090606A0397ED
:1007E0000190A06A0290A06B0690E06B07903046E3
:1007F00003F025FE0544606AD4F838C00090A06A72
:10080000CDF810C00190E06AD4F83CC00290606B53
:10081000CDE905C00390206A0790304603F00FFE33
:100820000544E06ACDE904770090206B03970190BE
:10083000606B0290206A0690A06A0790304603F031
:10084000E5FD236B2D1A0093636B30460193A36B78
:100850000293E36B0393636A0693E36A07930823A7
:1008600003F0D4FD636B2D1A0093A36B3046019304
:10087000E36B0293236A0393636A0493A36ACDE94B
:100880000537236B0793082303F0C0FDA36B2D1AD4
:100890000093E36B3046CDE90137636A0393A36AA3
:1008A0000493E36A0593636B0793082303F0AEFD9B
:1008B0002D1A10D50823314630460C4A03F0BFFDEF
:1008C0002D18F7D409B0F0BD082331463046074A49
:1008D00003F09CFD2D1A002DF6D108223146034865
:1008E00003F07FFD0128EFD1ECE700BFC854000002
:1008F0002DE9F04F002503689DB003934368DFF8AE
:10090000B89104938368DDE903470593C3680693B0
:100910000369DDE905AC0793436908938369DDE961
:10092000072B0993C3699E460A93099B009351F8CC
:1009300025600CAB96FA86F843F8258059F8046BCD
:100940004FEAF22383EAB213464483EA72633344E4
:10095000009E02EA0B0826EA020686EA08063344ED
:10096000734487EA0A064FEA743E8EEAB40E2640C4
:1009700007EA0A0886EA08068EEAB45E0135B6443C
:10098000102D03EB0C067344D446DDF800E040F074
:1009900084804A490B91294601350DF1700E05F00E
:1009A0000F0C0EEB8C0C5CF840CC01F00F094FEAF9
:1009B000BC48CDF804C088EAFC1801F10E0C0CF01C
:1009C0000F0C0EEB8C0C5CF840CC09314FEAFC4E5E
:1009D000CDF808C08EEA7C4E01F00F010DF1700CCD
:1009E0000CEB81010CEB890951F8401C59F840CC03
:1009F000402D8C44019988EAD1080299C4448EEABA
:100A0000912EF44406EA02084FEAF62E2BEA06017C
:100A100081EA08018EEAB61EDDF82C808EEA766E39
:100A2000714458F804EF49F840CC71446144DDF852
:100A300000C04FEA733E614484EA070CCDF82C8075
:100A40008EEAB30E0CEA030C04EA07088EEAB35EE2
:100A50008CEA080CF4448C4401EB0A0ECDF800B08B
:100A6000BA4622D103996144016004991944059B57
:100A7000416023448360069B3B44C360079B7344EF
:100A80000361089B33444361099B134483610A9BC0
:100A90005B44C3611DB0BDE8F08FBA46CDF800B02D
:100AA000274693461C46324641E793462746324640
:100AB0001C46764663466EE7C453000000540000AF
:100AC0002DE9F047058B0446280717460CD5012968
:100AD0000CBF45F0100545F02005258387F31188EC
:100AE000BFF36F8FBDE8F087022905F0070540F0DE
:100AF0009480204604F089F8052864D801A353F8AF
:100B000020F000BFDD0A00001B0C0000C70B000036
:100B1000890B0000A30B0000B50B000001F00703D8
:100B20005A1F012A1FD8002221F00701062BD4F8F2
:100B3000008089B2C4E9002209D1434603E0628BF8
:100B4000013262831B68002BF9D141F0020120467B
:100B5000218304F05AF84FF0000900286DD041F0CD
:100B60002001218369E0042B0AD121F0070189B219
:100B70002046218304F049F810B141F0200121837F
:100B80004FF00008C14658E02369D3F80090238B4A
:100B900023F0070343F006034FF000082383464683
:100BA0004BE02369D3F80490238B23F0070343F031
:100BB0000403F1E72369D3F80890238B23F007039C
:100BC00043F00503E8E74FF00008C146E7E70122DC
:100BD00043F00803238387F31188BFF36F8F002A44
:100BE0003BD1B8F1000F4AD1B9F1000F02D0204635
:100BF0002C49C847EFF31187202383F31288BFF3F2
:100C00006F8F238B23F008039BB22383D9063FD534
:100C100023F01002228303F007056669218B002E62
:100C2000BFF67CAF00239946D4F8008021F007017D
:100C3000C4E9003341F001012183238B03F0070A4B
:100C4000AA4502D0A268002AC1D1B8F1000F02D192
:100C5000B9F1000FDAD00022BAE7A1680029C0D0AC
:100C60000D680029BDD03346524620464F68B8472C
:100C70001DB12B6829461D46F3E72B46FAE741468E
:100C8000334652462046D8F8008003F0ADFFA8E76F
:100C90009A067FF523AF23F02002228303F0070595
:100CA00027E700BF434C0000002210B50C4B1C7816
:100CB00084420FD00132042A03F11003F7D16FF000
:100CC000010010BDD2685078C00706D5107820B951
:100CD0000B60F6E7DA68002AF4D16FF01200F0E753
:100CE00028530000002318460649D1F89020C2F38B
:100CF0000722934200DB7047C1F89830C1F8A0008A
:100D00000133F6E700ED00E0002807DB012341098D
:100D1000034A00F01F00834042F82130704700BFB3
:100D200000E100E000280CDB01220649430900F045
:100D30001F008240203341F82320BFF34F8FBFF3C1
:100D40006F8F704700E100E0EFF30583034A103B2B
:100D500002EBC301496852F833000847885A000083
:100D600030B50F4AD2F89030C3F30723013B9842C5
:100D700013D80C7A0B6864F304031D46CB6864092E
:100D800023F01F0343EA440343F00103C2F8980031
:100D9000C2F89C50C2F8A03030BD6FF01500FBE7E0
:100DA00000ED00E0254B264A4FF47A611A600122DB
:100DB000244B2548C3F80424D0F82436C3F3080292
:100DC000C3F309434B4382F480722049883201FB0C
:100DD00002334FF4FA215B00B3FBF1F201FB123353
:100DE0001B49B3F57A3F28BF0132C1F80429D0F876
:100DF00020364FF47A60C3F30802C3F30943434338
:100E000040F6C41082F4807202F2172200FB023313
:100E10004FF47A701B0AB3FBF0F200FB1233002090
:100E2000B3F5FA7F4FF0010328BF0132C1F81C2748
:100E3000C1F80009C1F80036704700BFE400002087
:100E40000020A107002008E000C0FF00B80B0080D0
:100E500000001250084B70B5C31A0D4607499B108D
:100E6000044659434022064803F059FF2B460146E9
:100E70002046BDE870401847B0100020B76DDBB6C3
:100E80007C520000402373B50B4C0093041B0B46AF
:100E90000D460A49A41061430646094A094803F071
:100EA00069FF014628B130462B4602B0BDE87040CC
:100EB000184702B070BD00BFB0100020B76DDBB6A0
:100EC000E94D00007C520000014B1B68184700BF31
:100ED000A0100020402370B51E49044681F8053457
:100EE0001D4B1A79002A2ED11C4A1A6001221A7150
:100EF0001B4B187938BB1B481A7118601A4B1879AC
:100F000008BB1A4D1A711D60194BC3F840040B6AD7
:100F10009B0603D440F20510FFF7F6FE2369ABB140
:100F20001C220021184604F088F901251C22114ECC
:100F30000564066124690021A01804F07EF90020F0
:100F4000E662E56470BD6FF00400FBE76FF015002A
:100F5000F8E700BF00E100E0A0100020E111000070
:100F6000A8100020C90E000004110020FB4D000055
:100F700000E01050AC5300000023024A0020C1E9F9
:100F80000023704700D0170000487047A4530000AA
:100F9000024B0B6001231360704700BF9C5300009D
:100FA000024B034A0020C3F80C25704700B00450E0
:100FB00080000080064BD3F840231C2A05D1D3F8CB
:100FC0004403431E5842584170470020704700BFF9
:100FD00000C0FF0003689A070CD50368DB070DD536
:100FE0000922074BC3F80C250F22C3F80425012260
:100FF0001A60FEE7034B0360EF3B0360704700BFDE
:1010000000801050F000FA50042370B50D4C42F2ED
:101010001075C4F808330123636100230A4EC4F835
:101020000831D4F8083146F00106D4F84C34DB031B
:1010300007D5064B1868064BB0FBF3F0B047013DEF
:10104000F3D170BD00E0105010530000E400002008
:1010500040420F0010B51D4B1D4CD3F84C14D3F873
:101060004C2411F4803F19D002F00302012A01D070
:101070008AB90022154BC3F840240022C3F8082186
:10108000D3F8082101221A6122688AB9D3F808210D
:10109000002AFBD014E0FFF7B7FFEAE7D3F84824B3
:1010A000D107E6D5D3F850249207F4D422681AB1B8
:1010B0000422C3F8042310BDD3F80821002AFBD072
:1010C0000022C3F80821D3F80831F4E700E01050FB
:1010D00004110020012303FA00F010F0670F0AD07A
:1010E000064B5B68DB4303F0670303420CBF6FF002
:1010F0001500002070474FF0FF307047400000207F
:10110000124B70B553F82050013053F82060AE42B6
:1011100000D870BD6C68B4B1237EDB0711D463695D
:1011200053B12046984738B10028B8BF4042FF2845
:10113000A8BFFF20E3681870E268537843F001030A
:1011400053700835E3E72B689847FAE784530000AB
:1011500030B500250D4C0E49207A020102F1A04263
:1011600002F562220B1893F85430C2F82C550C2269
:1011700002FB031322681875DA6062681A610122A3
:101180008B68824013438B6030BD00BFD0000020CD
:10119000400000200C22104B014602FB00330020CF
:1011A00030B4D3E90E529863EFF31180202484F316
:1011B0001288BFF36F8F1C6C04F0C00444F002046B
:1011C0001C6480F31188BFF36F8F1DB12B4630BCB8
:1011D0000248184730BC7047B01000207C52000015
:1011E000022808D0042808D1044B186C10F007001E
:1011F00003D1FFF7CFBF0120FBE77047B0100020FD
:101200002C232DE9F3411E4D0F4603FB0055EB68DF
:101210002E89D5F820801E440423314640460DEB2C
:10122000030203F01BFD044620B10124204602B056
:10123000BDE8F08146F60813BDF804206D899A4296
:101240001AD1BDF806309D4201D00324EEE70423F5
:1012500040460DEB0302A91903F000FD0028E4D17C
:1012600046F60713BDF804209A42EED1BDF80630C9
:101270002B4433443B60D9E7002DF1D0E5E700BFB4
:10128000241000202DE9F84F0746884691469A46DB
:101290000026234C234D0A9BB34201D8002010E0C6
:1012A0000A9B3846A3EB060BBBF5806F28BF4FF4B3
:1012B000806B1D4A5B4606EB090103F0CFFC10B1C1
:1012C0000120BDE8F88F5B464046174A06EB0A014D
:1012D00003F0E6FC0028F3D1144B5E44C3F800464B
:1012E000C3F80446C3F80846C3F80C46C3F81046D2
:1012F000C3F81446C3F81846C3F81C46C5F80046A0
:10130000C5F80446C5F80846C5F80C46C5F81046A9
:10131000C5F81446C5F81846C5F81C46BBE700BF1B
:101320003546526E00901050000100200080105091
:101330002DE9F04F81460F469A46144685B0002AA3
:1013400052D08368994257D25B1A934254D3C068F3
:1013500003F0FAFB8346484603F0B8FC102201462E
:10136000684603F06AFFCBF10008E019BAF1000FFC
:1013700007D007EA0808A0EB0B07214D214C224EAD
:1013800004E008EA0008F8E7A7EB0B0747452BD075
:101390005B466A463946484603F082FC28BBC5F8DE
:1013A0000046C5F80446C5F80846C5F80C46C5F819
:1013B0001046C5F81446C5F81846C5F81C46C6F8C8
:1013C0000046C6F80446C6F80846C6F80C46C6F8F5
:1013D0001046C6F81446C6F81846C6F81C46BAF1B8
:1013E000000F05D04745CFD8002005B0BDE8F08FED
:1013F0005F44B845CAD8F7E74FF0FF30F5E700BFC4
:10140000008010503546526E0090105038B50D4B8C
:101410000546C068DC6D03F097FB844203D2E868A0
:1014200003F092FB044640F216226243A96864422C
:101430005032224001232846891AFFF779FFC00F56
:1014400038BD00BF24100020F0B51F4F85B03E6AA4
:101450000546F06803F078FB40F2162358436B7999
:10146000FA6D012B12BFB22300231146B4682F7905
:10147000A4F1500407F1FF3702FB074418BF5343A0
:10148000A4EB00041C442B6818BF5100013BF0681A
:1014900001FB034403F058FB0746304603F016FCFB
:1014A00010220146684603F0C8FE2B796A468DF883
:1014B000003021463B46304603F0F2FB003818BFAF
:1014C000012005B0F0BD00BF24100020031E70B540
:1014D0001FDB114EB3421CD8C3F5BE1303F5805376
:1014E0009A4216D87AB140F201130C4CC4F8003578
:1014F00059B103F097FEBFF35F8FD4F818344FF45F
:101500008073C4F80035002070BDFF2103F095FE04
:10151000F1E76FF01500F7E7FFCF170000B00450B8
:1015200010B50C1E10461A460CDB084B9C4209D81D
:10153000C4F5BE1404F58054A24203D803F072FE31
:10154000002010BD6FF01500FBE700BFFFCF1700B4
:1015500030B5816885B0103921F00F04054603F0DD
:10156000B5FB10220146684603F067FE102268466C
:10157000064903F057FE10236A462146284603F029
:101580008FFB003818BF012005B030BD9255000018
:1015900010B4EFF31180202282F31288BFF36F8F13
:1015A0002B490B6843F0020413F001030C6017D0C1
:1015B000284BD3F80C3413F4803311D0EFF311819E
:1015C00082F31288BFF36F8F234A136C03F0C003BA
:1015D00043F00203136481F31188BFF36F8F01237B
:1015E00080F31188BFF36F8F1BB1002010BCFFF791
:1015F000D1BD184AC2F81031D2F81011C2F8183112
:10160000D2F81811C2F81431D2F81431134BD3F8B0
:1016100040331C2B04BF012393600023C2F8003128
:10162000D2F80031012313600D4B1B6853B9094BED
:10163000D3F80021002AFBD00022C3F80021D3F800
:10164000003102E07123C2F8043310BC704700BFC0
:101650000011002000E01050B010002000C0FF007A
:10166000A8100020F8B5EFF31186202383F3128829
:10167000BFF36F8F194A136823F00201116013F052
:10168000010222D17121164B42F21074C3F80813E3
:1016900001215960C3F80021D3F80021114A124DED
:1016A000D2F840230E4F1C2A08BFD96045F001052F
:1016B000D7F80C3413F480330CD00C4B18680C4B57
:1016C000B0FBF3F0A847013CF2D186F31188BFF3D9
:1016D0006F8FF8BD074A5371F7E700BF0011002074
:1016E00000E0105000C0FF0010530000E400002094
:1016F00040420F00A810002019462DE9F0474E4F38
:101700000023D7E90045101B61EB050141F6846217
:10171000FEF7B4FE41F68462E0FB0245C7E90045EE
:10172000464F0646387AFFF7D5FC804688BBA4189A
:1017300045F10005FFF70CFDEFF31181202383F342
:101740001288BFF36F8F3A7A3D4B920043F80280C4
:101750003B7AC5F313051B0103F1A04303F5622394
:10176000C3F82045C3F8245581F31188BFF36F8F68
:1017700001233A7A334903FA02F2D1E8EF4F1443D6
:10178000C1E8E04F0028F8D13A7A93402E4AC2F8D7
:1017900024333246EFF31185202383F31288BFF3FD
:1017A0006F8FDFF8A890DFF8A880D9F80000C8F89C
:1017B0000060484508BF0020264EDFF89CA0D6E90F
:1017C000001720B1C46894420FDDA41AC46000233E
:1017D000511847EBE277C6E90017C8F8003085F3E7
:1017E0001188BFF36F8FBDE8F087D0E90032136036
:1017F0005A600023611847EBE477C6E90017C0E997
:101800000033C0F80CA085F31188BFF36F8F836895
:101810009847EFF31185202383F31288BFF36F8F6E
:10182000D8F80020D9F80000121B484508BF002056
:10183000C8F80020C3E700BFF8000020D000002057
:1018400000210E50C800002000200E50DC000020B7
:101850009C100020F000002001000080F8B5012657
:10186000324C334DD4F80C3303F0710343B90125E6
:101870002E4C304ED4F80C3303F00C035BBBF8BD98
:10188000B3FA83F30021C3F11F039A0002F58072BB
:1018900092B202F1A04202F58712116006FA03F734
:1018A000042B1268D8B2C4F8087308D0062B10D0E5
:1018B0002B689847D4F80C3303F07103D6E7022362
:1018C0006B71C4F81411D4F814312023C4F8043314
:1018D000EEE76971ECE7B3FA83F30027C3F11F0366
:1018E0009A0002F5807292B202F1A04202F58712CC
:1018F000176005FA03F1022B1268D8B2C4F8081376
:1019000010D1D4F84C34D4F84C349B070AD10423BA
:10191000C4F84054C4F804332561D4F80C3303F000
:101920000C03ABE733689847F7E700BF00E01050BF
:10193000A8100020041100202DE9F74F4022AB4BE6
:10194000AB4C83F8E423AB4BD3F8182722F4403296
:10195000C3F818272278002A73D1D3F8101521F084
:101960000201C3F81015D3F8101541F00101C3F8B6
:1019700010150521C3F8A4160421C3F8AC160723DB
:10198000672101F001000244013BD2B24FEA51014C
:10199000F7D1052A5BD119464FF0010C944E002572
:1019A0006720CFB204E00CFA02F220EA020001350F
:1019B00090FAA0F25FFA85FEBE45B2FA82F2F2D347
:1019C000013132750529224482F8547006F10C0663
:1019D000E5D10121002588489A0801FA02F212F0A7
:1019E000670F18BF1D500433302BF5D1E420FFF7EB
:1019F0008BF9804B8149D3F8102503F5C07322F091
:101A00000202C3F8902340F6FF72C3F8A821002217
:101A10001A60A3F5807004338B420260F8D101276D
:101A2000744D774E2F663068764BB0FBF3F05D2334
:101A30005843754B3B4398472770D5F810359F079F
:101A400008D56FF07705284603B0BDE8F08F6FF03A
:101A50008B05F8E7D5F8103543F00203C5F81035CB
:101A6000D5F8482712F0010202BFD5F8483743F0F5
:101A70000103C5F848375F4BD3F84017D3F8441734
:101A80004800F9D42AB9D3F8482722F00102C3F854
:101A900048275C4A3368B3FBF2F3564A03EB43131F
:101AA000002B00F09D80D2F84017D2F8441749006F
:101AB0002AD44FF0FF330193EFF31186202383F3F1
:101AC0001288BFF36F8F019B6268134001930199E5
:101AD000E1B1B1FA81F20123C2F11F029340D84370
:101AE00001AD21EA0303D5E8EF7F8F4204D1C5E8B9
:101AF000EC3FBCF1000FF6D1E9D16368002503404B
:101B00006360424B1A7203E0013BC9E76FF00B05BB
:101B100086F31188BFF36F8F002D64D14FF0010859
:101B20003A4EA368377A4FF0FF3208FA07F843EAD3
:101B30000803A3606FF04043DFF8B8903449D1E95F
:101B400000AB524573EB0B00F9D341F684620023DE
:101B500050465946FEF792FC2E49BAEB02026BEB57
:101B60000303C1E900230C22E31993F854303846EB
:101B700002FB0343284A1F75DA6000221A61C9F884
:101B80002483FFF7A7FA044600287FF45CAFFFF731
:101B9000DFFAEFF31181202383F31288BFF36F8FF5
:101BA000327A154B92009C5041F68462337A09EBED
:101BB0000313C3F8282581F31188BFF36F8F012326
:101BC000327A164903FA02F2D1E8EF4F1443C1E822
:101BD000E04F0028F8D1327A9340C9F8243332E735
:101BE0006FF073052FE76FF00B052CE700E100E0C5
:101BF0004000002000200E5000210E50B0210E5059
:101C0000E400002040420F0000530000D0000020FC
:101C100040270E50F8000020F9160000C8000020F0
:101C20000121F8B54E4BD3E8EF2FC3E8E01F0028A1
:101C3000F9D1002A3ED14B4B996099685A6001F066
:101C400003010129DA6035D1DA609A68032A31D8B4
:101C5000EFF31184202282F31288BFF36F8F4FF6C7
:101C6000FF754149888E00F00702C88EA84235D022
:101C7000062A33D8DFE802F01232043212321200A0
:101C800001230130C88684F31188BFF36F8F8BB1B5
:101C900000233449354802F0A7FF0BE0002018600C
:101CA000086AC0B9C1E90733C2B9224602212F48E8
:101CB000FEF706FFEFF3058292B1EFF311812023C7
:101CC00083F31288BFF36F8F01220026012520279E
:101CD000274B284C2EE003600B62E5E70023D2E798
:101CE000254B1B78002BE8D00421214BC3F80813A7
:101CF0001146EAE772B686F31188BFF36F8FBFF320
:101D00004F8F20BF81F31188BFF36F8F62B6D3F876
:101D1000400410F0FF000DD1D3F808C1BCF1000F52
:101D200008D0C3F80801D3F80801C3F84054C4F838
:101D3000A0711D61D3F84CC4D3F84C041CF4803F4F
:101D4000D8D000F003000128D4D12AB181F3118842
:101D5000BFF36F8F0020F8BD0422C3F80423F9E716
:101D60009810002088100020B0100020CC10002017
:101D700000E0105000E100E00C12002030B50D46EC
:101D8000816887B0102302AA1039044602F066FF6A
:101D9000002802DA012007B030BD1022204602A937
:101DA00003F02DF800283FD11022204902A803F0AB
:101DB00029FA00280CBF012302232B70A1680123FC
:101DC000203921F00F0120460DF10702203902F0E1
:101DD00045FF0028DEDB9DF80730204603F00F02A8
:101DE0001B096A702B7101220DF1070103F007F83E
:101DF00010B96B78042B03D901236B7000232B716E
:101E0000A2682046203A22F00F02103AA91C03F0E3
:101E100008F80028BED1A2682046203A22F00F021E
:101E2000E91C02F0FEFFB6E70323C6E79255000067
:101E300030B585B06946012003F097F9002839D103
:101E400002A9022003F091F9012808BF03234FF0F3
:101E5000000104BF8DF808308DF80B309DF80000AC
:101E60009DF80840204B1A78042A05D0052A23D172
:101E7000421E18BF012272B35A78042A05D0052ADF
:101E800021D1621E18BF01222AB39A78042A03D0F6
:101E90009DF8035095421ED1DA78042A03D09DF8AC
:101EA0000B50954217D11A79042A10D15879831E04
:101EB000022B16D9FF2014E0A2EB000CDCF100028B
:101EC00042EB0C02D7E7151B6A426A41DCE79DF83A
:101ED00002509542EAD00131032903F10603C2D131
:101EE000012005B030BD00BF725A00001FB50A4B7B
:101EF0006A461C6A1023A1682046103902F0AEFE23
:101F000038B910226846054903F07CF9204604B030
:101F100010BD0024FAE700BF2410002092550000F5
:101F200000222DE9F04F8FB00446CDE90A2202F0DD
:101F300001FADFF8D88200283BD0B54DD8F8003040
:101F4000AB4203D110460BA9FFF75AF9D8F82C3051
:101F5000AB4203D101200AA9FFF752F9DDE90A23B8
:101F60009A4284BF13460B92A3604FF0000BD8F83F
:101F70002420526803925A460399CDF818B00A44B7
:101F80009A420BF1010BF7D3204602F0D3F908B3C4
:101F900040F216220021D8F85C30534303F150027E
:101FA000D8F82830013B0398014491420AD2013B02
:101FB000F9E7FFF79BFF04F1080102F065FEA36853
:101FC0000B93D2E75B4505D80123E37100200FB0E6
:101FD000BDE8F08FD8F84C308E4A02936368D8F889
:101FE000209003F0FF23934217D12368012B14D1D3
:101FF00002980CA9FFF7C2FE9DF83030032B0CD1DC
:102000000298FFF703FA029803F0A1F8A16802987A
:1020100003F077F80298FFF79BFA6379012B40F001
:102020008480DA467C4D7D4F7D4E79E0C5F80076A0
:10203000C5F80476C5F80876C5F80C76C5F81076AC
:10204000C5F81476C5F81876C5F81C76C6F800767B
:10205000C6F80476C6F80876C6F80C76C6F8107688
:10206000C6F81476C6F81876C6F81C76069A236861
:102070000232D21A524551D3D8F82420012B1168CC
:1020800052F83A0002EBCA0252F8082CA0EB010009
:10209000A2EB0102059004922DD1E2680793022A77
:1020A00026D04846FFF7B2F9D8F84C000CA9FFF744
:1020B00065FEE279012A0DD0D9F808108DF82720A5
:1020C000203921F00F014846079B0DF127022039E6
:1020D00002F0EAFF9DF83330012B02D1484603F0AD
:1020E00036F84846A16803F00CF84846FFF730FA86
:1020F0000298FFF78BF9039B494600934846DDE9B8
:102100000423FFF7BFF82046FFF79EF92368013349
:10211000236018B1434A1368013313600AF1FF3A90
:10212000BAF1000F82D10123236002234FF0010A8C
:10213000394E3A4D3A4F6371DA453FF647AFC6F82C
:102140000056C6F80456C6F80856C6F80C56C6F827
:102150001056C6F81456C6F81856C6F81C56C7F8D6
:102160000056C7F80456C7F80856C7F80C56C7F803
:102170001056C7F81456C7F81856C7F81C562368E7
:10218000534540D8D8F82410D8F8500051F83A20D8
:102190004FEACA0305920A68083B0492C2580068D5
:1021A000121A207901282CD1CB580399029800915A
:1021B000049906925B1A4946FFF764F82046FFF738
:1021C00043F90223069A237118B116490B680133AB
:1021D0000B60039B484600931346DDE90412521A34
:1021E0000299FFF74FF82046FFF72EF923680133D5
:1021F00023600123237130B10A4A1368013313604D
:1022000001E00228E5D00AF1010A95E72410002038
:102210003DB8F39600010004008010503546526E20
:1022200000901050000500202DE9F7432F4E07467F
:102230000D460024B0464FF02C091DB1284602F08F
:1022400079F808B1224643E0FFF750FE30B901208B
:102250000CB1002F31D003B0BDE8F08301A902F02A
:1022600013FD03460028F2D1D8F8242001985168C4
:102270001A460A44904203F10103FAD86A79012A06
:102280001DD1002CDED128682246984298BF2146F5
:1022900009FB028020233246006A02F0DFFC00289E
:1022A000D5D11DB13268124B9A421CD1631C022B4E
:1022B0004FF0010406F12C06BFD10020CBE7022A23
:1022C000C0D12A68012A05D99A42BBD884F00102FC
:1022D0000021DDE7B6D124B12A79023A18BF0122E4
:1022E000F6E72246D4E74FF0FF30B1E72410002094
:1022F0003DB8F3962DE9F04F0027ADF5477DCDE9C8
:10230000050170220021A6A802F097FF904C914B86
:10231000914DCDE9A643914B914ECDE9A853914BF8
:10232000059ACDE9AA63904B904DAC9303F1745399
:10233000A3F52303A3F69243AD93059B52891B8912
:102340008B4C1344059A8B4ED2F80C909944B945A6
:102350002DD8A6A912A802F015FE069BFBB1059B7D
:1023600006981C89DB68A6AA1C442146042302F0B7
:1023700075FC089098B946F60812BDF89812059BAE
:1023800091425B8967D1BDF89A12994207D1042323
:102390000698A6AA214402F061FC00285DD04FF007
:1023A000FF33049304980DF5477DBDE8F08FA9EB4A
:1023B0000708B8F5807F28BF4FF48078C5F800463D
:1023C000C5F80446C5F80846C5F80C46C5F81046D9
:1023D000C5F81446C5F81846C5F81C46C6F80046A8
:1023E000C6F80446C6F80846C6F80C46C6F81046B5
:1023F000C6F81446C6F81846C6F81C464346394681
:102400005D4A069802F02AFC82460028C7D1C346DE
:10241000594BBBF1010B01D2474498E7C09A511CBC
:10242000C09113F8010B02F546726A443F2902F885
:10243000580CEED9B0A9A6A80393FEF759FAAE9AA4
:10244000AF9912F5007241F10001CDE9AE21039B75
:10245000CDF800A3DDE7002BA1D146F60713BDF8A8
:1024600098229A429BD1059B44485B89C16D2344C5
:102470000993099ABDF89A32134440F216220A933E
:10248000436A5B6802FB01315A424F311140826A54
:10249000406D013A5A434343521A5B1A9A4228BF8D
:1024A0001A460A9B93423FF67AAF231D4FF0FF3442
:1024B00003930494039B0A9A934280F0D582059B70
:1024C0005B892BB1039B099A934204BF04330393A6
:1024D0000423039906988AAA02F0C0FB00287FF41F
:1024E0005EAF039ABDF82832111D099ABDF82A8201
:1024F0008A4209D84FF6FF75214830F8022BAA42CC
:102500003FF44DAF9A42F8D1102B0AD0222B00F0A5
:102510009B80012B36D0039A08F104031A440392DE
:10252000C8E7B8F1200F7FF43AAF43460698A6AA51
:1025300002F094FB00287FF432AF4246A6A912A80D
:1025400002F060FE00287FF42AAF01230893E2E73F
:1025500067E6096A85AE67BB72F36E3C3AF54FA534
:102560007F520E518C68059BABD9831F00801050A1
:102570003546526E009010500C110020241000209F
:1025800074550000B8F1200F3FF609AF4346069896
:10259000A6AA02F063FB044600287FF400AF5A2588
:1025A000014670228AA802F048FE1F4B1F4A2049AC
:1025B000CDE98A231F4B2048CDE98C131F4B204EB9
:1025C000CDE98E031F4B909303F17453A3F52303BE
:1025D000A3F692439193A49B5A1CA49216F8011B54
:1025E00003F546736B443F2A03F8C81C0CD994A921
:1025F0008AA8FEF77DF9929B939A13F5007342F136
:102600000002CDE99232A494013DE4D28AA97AA8CD
:1026100002F0B8FC4246A6A97AA802F0F3FD041E17
:1026200018BF0124644276E785AE67BB67E6096A96
:1026300072F36E3C3AF54FA57F520E518C68059BA4
:10264000065A0000ABD9831F002C7FF464AFB8F1A9
:10265000800F3FF6A4AE43460698A6AA02F0FEFA03
:1026600000287FF49CAEC1490DAD0D913023284662
:1026700062AA5B3102F025FC002840F0AD811368AE
:102680000D9E28461E44314630236AAA02F019FCEA
:10269000002840F0A1810D9FF31B002B40F39C818B
:1026A0003B7828467A9313687BAA1F443946062351
:1026B0007AAC02F006FC002840F08E810D9A616829
:1026C000A26053189F420D9340F07381A84B0C22D7
:1026D00000211B688AA89847D4F80490B9F1070F25
:1026E00040F07A814A46A349A06802F08BFD002899
:1026F00040F072818B9A082A40F06E819E498C9836
:1027000002F080FD002840F067810DAF03233146C1
:10271000384662AA02F0D5FB002840F05D811368BC
:10272000002B00F059810D9D591E11602A78002A56
:1027300040F052812B446A1C9E420D9240F04C8125
:10274000412940F04981A6AB03EB080623603146DE
:10275000302320468AAA02F0B4FB002840F03C81D6
:102760007A9B8A9A0DF5F47B13449E42C0F0348123
:10277000324659466AA802F053FC002840F02C81EA
:102780003246594672A802F04BFC0490002840F0F3
:1027900023816B78042B40F01F81202239906190B7
:1027A0006990A91C584602F0B1F95AAF202205F1F0
:1027B000220182A802F0AAF962AC202238466AA956
:1027C00002F0A4F9204672A9202202F09FF9082104
:1027D000384601F0C7FD002840F0FE80204601F099
:1027E000C1FD0646002840F0F7800A466348394696
:1027F00001F0F7FD012840F0EF80082221465F48F4
:1028000001F0EFFD01280B9040F0E6802AAC0DF1BD
:10281000680A0823594A204601F090FF50460821D3
:102820008AAD219601F093FD202212A902F06EF9E3
:10283000082351462846224601F026FE29465046E6
:102840004E4A01F0B3FE082339462846224601F0DD
:102850001BFE2946494A22A801F0A8FE0822484F3B
:102860005946284601F0B1FD82A992A801F0ADFDBC
:10287000394642A801F0A9FD07F120014AA801F05C
:10288000A4FD2946204607920092A7F1400342AAE0
:1028900001F07AFEA7F14402009292AB2A464AA9BF
:1028A00042A802F0CAF821462046079BA7F1400241
:1028B00001F044FF2246A7F14403284692A902F002
:1028C0009EF807995046CDE910B5CDE90E6701F0A5
:1028D00061FD0799054622A801F05CFDA842B8BF3A
:1028E000284685B205F1FF3B0FFA8BFB594650464F
:1028F00001F047FD5946824622A801F042FD00380A
:1029000018BF0120BAF1000A18BF4FF0010A0EAB40
:102910004AEA400A53F82A10079A32A801F055FDF6
:1029200020313AA801F051FD1146204601F00FFD7B
:102930000B9B023D2360A7F140032DB20793002DAE
:1029400050DA0823214620460E4A32AD01F0F6FE49
:10295000224628460C4B3AA902F051F80822294693
:10296000064801F03EFD012815D00FE0065A000090
:10297000685300006A5A0000615A0000E8540000E1
:1029800008550000C8540000C4540000082328461D
:10299000384A01F03BFD5AA955F8293051F8292051
:1029A000B9F1010983EA020346EA0306F4D2B6B19B
:1029B00012E0525C0DAD8A920133394628468BAA4B
:1029C0000D9302F04FFA38B90D9B8B9A8C931344F8
:1029D0009F420D933FF480AE4FF0FF3304934FF0CE
:1029E000FF3498E5244B22463AA932A801F02AFF89
:1029F00029461AA801F0C5FC2946074622A801F07D
:102A0000C0FC031E18BF0123381E18BF012040EA76
:102A100043000EAB53F8201019B3082242A801F06E
:102A2000D4FC4AA8203101F0D0FC01462246124BCA
:102A300042A801F0E4FF082342AA009332A9079BB1
:102A400052A801F0A1FD0C4B32AA00934AA93AAB5F
:102A500042A801F0F2FF21462046074B52AA01F09E
:102A600041FE013D2DB26AE7089B012B7FF497AC34
:102A700098E400BFE8540000C45400002DE9F0477A
:102A80004FF02C0808FB00F8DFF89490454209EB62
:102A90000806376A05F02C054D4404468A46042290
:102AA0002946384602F0ABF910B93069C30613D590
:102AB00054B13846FEF7AAFC9AF80730042B06D129
:102AC000D9F82000FEF7A2FC0120BDE8F087FFF74F
:102AD000AFF90428F8D1F3E759F80820114B9A42CE
:102AE00008D0002CF0D0002338461946BA68FEF70B
:102AF0001FFCE9E7F26833899B18F2D27289D21879
:102B0000EFD2316A8B689A42EBD240F60C631842DE
:102B1000E7D12846FFF7EEFB0028D6D0E1E700BF5B
:102B2000241000203DB8F3962DE980480127B84BCA
:102B30008DB003201F70FEF7E3FA0420FEF7E0FAE1
:102B4000B44DB54BB54EC3F80056C3F80456C3F8A0
:102B50000856C3F80C56C3F81056C3F81456C3F8F9
:102B60001856C3F81C56C6F80056C6F80456C6F8E0
:102B70000856C6F80C56C6F81056C6F81456C6F8CD
:102B80001856C6F81C56A64C60220021204602F0BA
:102B900054FB384604F12001FEF786F8A8B902205C
:102BA00004F14C01FEF780F878B94FF0B2089D4A65
:102BB000384602F5B26308A962622365CDF8208029
:102BC00002F093F910B1012054E1FEE7089B0220C6
:102BD000226D08A9A362CDF8208002F086F90028B2
:102BE00000F0D28084F8587000210846FFF71CFBE3
:102BF0000028E8D1D4F82880676DB84502D07B1C46
:102C00009845E0D1B8F1B20FDDD800239946626A49
:102C1000216D043204319F4240F0BE80236AD8689F
:102C200001F092FFE36CD86801F08EFFB84505D93A
:102C3000636A03EBC7035B684B45C4D10123089368
:102C400003F101230993002304A9206ACDE90A3383
:102C5000FFF794F8E06C06A9FFF790F89DF81030A4
:102C6000012B40F0A2809DF81230032B40F09D8094
:102C70009DF81830012B00F098800223D4F82090A2
:102C80000B9399F80030013B012B9CD840F2162A97
:102C9000E26DD9F80C00019201F056FF4FF0FF38B9
:102CA000D346D9F80830019A503B0AFB10335A4FEB
:102CB0000093D3B20393C7F80056C7F80456C7F879
:102CC0000856C7F80C56C7F81056C7F81456C7F878
:102CD0001856C7F81C56C6F80056C6F80456C6F86B
:102CE0000856C6F80C56C6F81056C6F81456C6F85C
:102CF0001856C6F81C56039B009ACDF804B00BF189
:102D0000FF3B1BFB03214846012306AA01F0A6FF57
:102D10000028FFF658AF0122484606A902F06FF8D6
:102D200020B9019BB8F1FF3F08BF9846BAF1010AEC
:102D3000C1D1B8F1FF3F09D0B8F1B10F74DC08F18F
:102D40000103089340F20113ADF82430D9F80810BC
:102D50000123203921F00F01484606AA203901F04D
:102D60007DFF00287FF42FAF0122484606A902F01C
:102D700046F810B101238DF818309DF8183003F093
:102D80000F038DF8273012E0089B6365236AD8682B
:102D900001F0DAFEE06527E752F8339051F833008E
:102DA00081457FF410AF013335E700230B9308A86A
:102DB00001F0C0FA80F0010008A9C0B2FFF734FAB0
:102DC00000287FF400AF08A801F0B4FA002840D131
:102DD00008A8FFF7A5F89DF8273084F85830033B82
:102DE000012B05D802F0D2F910B1FF2384F8583036
:102DF0009DF82730023B022B05D802F091F910B163
:102E0000FF2384F8583094F85830FF2B1CD1FEE78C
:102E10000C1200203546526E008010500090105069
:102E200024100020040500200223A8F1B2088DF828
:102E300025304FEA680308F00108013308F1010862
:102E400008938DF8248081E700210846FFF7ECF90C
:102E5000B9E69DF82760012E19D1FEF7E9FF831E20
:102E6000022B054604D8304608A9FFF707FE00B933
:102E70002846C0B2042884F858008DF8270010D8DE
:102E8000012813D822D0FF2384F858301EE00120F7
:102E900008A9FFF7F3FD10B99DF82700EAE7052020
:102EA000E8E70528EFD102F071F90DE008A8FFF777
:102EB00037F894F85830DA1E012A0CD802F066F977
:102EC0000028E0D102F02CF90028DCD194F8583029
:102ED000FF2B04D1FEE7023B012BF7D8F2E70021DC
:102EE000012B06910CD100210846FFF7C7FD0546CE
:102EF00058B9069B01330693069B012B0ED0FEE7C3
:102F00000846FFF791F90028EDD04FF0FF35102269
:102F1000002108A802F091F925B1FEE7236A5B6859
:102F20000293F4E7914BD3F874250F2A40F0E9801F
:102F3000D3F86C250F2A40F0E4804FF4F84102F5F5
:102F4000F91202F6F672C3F86855C3F86C25C3F897
:102F50007015C3F874252389029A854F854C134454
:102F60003B60234653F8046F6722F64328464FF030
:102F7000010EA846DFF800C206F06706CCF8282349
:102F8000002E40F0BF80E420FDF7CCFE7A4BD3F852
:102F9000482722F00102C3F84827D3F8102522F071
:102FA0000102C3F81025D3F8102522F00202C3F85D
:102FB000102501225A669A662670EFF311822023AB
:102FC00083F31288BFF36F8F6C48818E01F0070185
:102FD000022940F0C080C38E013B9BB2C386002B08
:102FE00040F0B9801C30FDF76BFD654B654A1B68EE
:102FF0004FF47A70B3FBF2F35843634B4FF0000881
:1030000043F001039847DFF88491DFF884A1614D14
:103010004FF0FF3B59F8044BC4F30830C4F808B331
:10302000FDF780FE0123E3620023C4F85031D4F899
:103030005021C4F84C31D4F84C21C4F82431D4F8D0
:103040002421C4F80035D4F8042608A80892D4F83E
:103050000C260992D4F810260A92D4F808260B926E
:103060001A46C4F804B6C4F80CB6C4F810B6C4F8CE
:1030700008B650F8041B4B1C10D05F2901F01F0349
:103080004FEA51146CD85AF8241001EB8301D1F89F
:1030900080302B4043F00203C1F880300132042A13
:1030A000E7D108F10108B8F1030FB1D101224FF0C7
:1030B000FF31394B5A60DA60C3F80813BFF36F8FE2
:1030C00072B60023354A03F120000133102B42F879
:1030D0002010F8D14FF0FF3106F160030136102EB9
:1030E00042F82310F8D100242D4BC3F80444FDF717
:1030F000F9FD84F30B8884F30A882A4B38689847D3
:10310000FEE7FEE7A1680EFA00F202EA010515F0FB
:10311000670F1CBF9143A1606168CD4305F067054F
:10312000154215D00CEB0015C5F82C85F5070FD509
:10313000C140C9070CD4616842EA0105D3E8EF9F9A
:10314000894504D1C3E8EA5FBAF1000FF6D1F2D1A4
:103150007608013014E782F31188BFF36F8F44E7DC
:103160000022203352F82330FFDE00BF00B00450AD
:10317000841000204000002000200E50B0100020DD
:10318000E400002040420F00F0520000785300009D
:103190006C530000F0F0FCFF00E0105000E100E094
:1031A000002008E001000020F7B5284B284CD3F898
:1031B0002C6304F188070EB903B0F0BD96FAA6F0AF
:1031C0000123B0FA80F08340DA43224926EA03065D
:1031D000231893F85450830019440C2303FB054330
:1031E000DB6873B3D7E8EF3F03EA020CC7E8EECF22
:1031F000BEF1000FF6D1C340DB0719D5020102F181
:10320000A04202F56222D2F82435D2F82025D1F866
:1032100000C0BCF1000FCED04FF0000CC1F800C0D0
:103220000C2101FB054529690091E9688847C2E73F
:1032300005F10C0304EBC30C54F83320DCF8043024
:10324000E5E70A68002AB6D00B60B4E700200E500C
:103250004000002000210E502DE9F04F8B46914692
:103260001C46002595B0029099F8000008B9284640
:1032700043E225280CD05946029B98470028C0F20B
:103280003C8209F1010301350493DDF81090EBE76E
:10329000182200210EA801F0D0FF99F801A0BAF180
:1032A000250F53D00022964694461746164609F13C
:1032B0000100014610F8013B2B2B75D06ED8202B56
:1032C00074D0232B75D02AB19DF8402042F04002E3
:1032D0008DF84020BEF1000F05D09DF8402042F04F
:1032E00020028DF84020BCF1000F05D09DF8402051
:1032F00042F010028DF840202FB19DF8402042F09E
:1033000008028DF840202EB19DF8402042F00402C2
:103310008DF840209DF8402002F04400442803D15D
:1033200022F040028DF840209DF840202A2B42F0E8
:1033300080028DF8402040F0A5809DF841204B1C74
:1033400042F001028DF8412000274BE04FF00008C9
:10335000474609F1020304939DF84120D60740F146
:10336000498154F8047B002F06DA9DF840107F4213
:1033700041F004018DF84010500740F1428154F8AB
:10338000048BB8F1000F80F23F819DF8412022F0BC
:1033900002028DF841204FF0FF3835E12D2B0BD084
:1033A000302B90D1012284E7012782E74FF0010CF6
:1033B0007FE74FF0010E7CE701267AE713460CFB0E
:1033C0000707303F1A4612F8010BA0F13006092E0C
:1033D000F4D99942B8D09DF84020F90F61F3410229
:1033E0008DF840201A782E2A0CBF012100219DF86B
:1033F000412061F341028DF841204FD15A782A2AA9
:1034000045D04FF000080A2601331A4612F8011B76
:10341000A1F13000092844D99DF84020C2F34001B1
:1034200041EAD87161F341028DF840201A786C2A84
:1034300058D03CD8682A42D06A2A5CD04C2A62D044
:1034400013F801AB9DF84120BAF1780F049311D81D
:10345000BAF16D0F64D8BAF1690F0BD8BAF1570FF2
:103460007CD8BAF1410F00F0AF80AAF14502022AE0
:1034700040F2AA809DF8402042F001028DF84020E1
:10348000002295E00B4600274FF00A0C9AE79DF8C2
:103490004120023342F004028DF841204FF0000831
:1034A000C4E706FB08181346A8F13008ADE7742AF4
:1034B00025D07A2AC4D106219DF841200CE05A7803
:1034C000682A9DF8412006D1012161F3C6028DF8DA
:1034D00041200233B4E7022161F3C6028DF8412096
:1034E0000133ADE75A786C2A9DF8412001D10421BF
:1034F000EBE70321F0E705219DF84120ECE70721E8
:103500009DF84120E8E7BDF8402022F4F04222F087
:10351000020242F4804242F00202ADF84020DFE7AE
:103520000121AAF16E00C0B2814040F28240014206
:1035300025D111F0240F50D1CB079BD503209DF846
:10354000421002F07802A2F1400C60F30201DCF1BB
:1035500000028DF8421042EB0C0229E00120AAF192
:103560005801C9B200FA01F111F4624F2CD111F4E3
:10357000043F27D140F6010001423FF47BAF022116
:103580009DF8420002F07802402A61F3020008BF71
:103590009DF840108DF8420004BF41F001018DF804
:1035A0004010003A18BF0122BAF1630F18BF002281
:1035B0009DF84010C1F34000024362F341018DF8D1
:1035C0004010C9E60146DBE704219DF8422061F383
:1035D00002028DF842200122EAE703209DF8421002
:1035E00002F0780260F30201003A18BF01228DF860
:1035F0004210DDE79DF940100029A8BF4FF0FF37CA
:10360000BAE691077FF5C7AE9DF842109DF84120BC
:1036100001F007010139C2F3C302032952D8DFE8E0
:1036200001F0022A6149D11E042904D8DFE801F023
:10363000190F0F191900012A54F8041B15D0022A7A
:1036400015BF084608B2C11741F3C03110E0E01DB4
:1036500020F007000446406854F8081BCDE90E101E
:1036600030E054F8041BC817F8E748B241F3C01122
:10367000CDE90E0126E0D11E042904D8DFE801F0CF
:10368000130B0B131300012A54F8041B0FD0022A4A
:1036900008BF89B20CE0E11D21F007010C46496822
:1036A00054F8080BE4E7002154F8040BE0E7C9B232
:1036B0000020D3E7073424F00704D4E90001CDE962
:1036C0000E0108349DF8401011F0030618D04E4644
:1036D000049BB3420AD8A6EB0906002E30460CDB49
:1036E0003544D2E554F8041B0E91EBE7594616F821
:1036F000010B029B98470028EADA15B0BDE8F08F6D
:10370000BAF1780F3FF6C1ADBAF1620F18D8BAF12D
:10371000250F49D0BAF1580F7FF4B7ADDDE90E019E
:103720000DF13603009310AA08AB8DF843A001F009
:1037300013FA119B81469DF843A0129A039398E0D7
:10374000AAF1630015283FF6A0AD01A656F820F0B7
:10375000A3380000BD3800008B3200008B3200001F
:103760008B3200008B320000BD3800008B3200002D
:103770008B3200008B3200008B320000E7380000F3
:10378000E33800003D3800008B3200008B3200002F
:10379000B93700008B320000E33800008B320000A4
:1037A0008B320000E338000059465046029B984790
:1037B0000028A2DB013568E5B8F1000FDDF838908C
:1037C00034DB002019F800200AB180452CD10026F6
:1037D000324609EB0003059303969DF8421011F061
:1037E0001003069300F09C800230039B49061844A6
:1037F00048BF8018002F40F3A8809DF840203F1A52
:103800005307C2F3800800F1A080500640F1C18048
:1038100046B159463046029B98470028FFF66DAFE7
:10382000464601353022B5E00130CBE7484601F08D
:10383000E2FCB9F1000F3FF428ADC8E70E9800286C
:1038400065D070238DF843300DF13603009310AA34
:1038500008AB002101F080F9002681464FF0780A7C
:10386000119B129A03939DF8423043F010038DF898
:1038700042300DF13600B8F1000FA0EB09000ADB71
:103880009DF84010804521F040018DF8401002D98C
:10389000A8EB0003039306B101300DF13603059345
:1038A0009BE700260E9A0DF121038DF820200120C0
:1038B0003246039605930DF120098EE70A075DBF96
:1038C000C1F300114901CEB22B26DDE90E12002A08
:1038D000BFF624AF494262EB42022D26CDE90E121B
:1038E0001CE700261AE70E9B072A3FF6CEACDFE85E
:1038F00002F00C04060C08080C0C1D70C5E41D80B9
:10390000C3E4EA17C3E90052BFE41D60BDE4384BCD
:1039100006460246039005930520A3F105095CE7DE
:103920000B0748BF013060E7104607925946029BDB
:1039300098470028079AFFF6E0AE4146002908F1B3
:10394000FF38F1DC3D4447466D1A3EB159463046DA
:10395000029B98470028FFF6D0AE01359DF8422023
:10396000D10601D4130707D559463020029B98474A
:103970000028FFF6C2AE0135069B3BB159465046C2
:10398000029B98470028FFF6B8AE0135039E2E44EF
:103990000AE02022B846D0E759463020029B9847DB
:1039A0000028FFF6AAAE0135731B002BF4DC4E464F
:1039B000059BB34214D8A6EB0906002E3046FFF64D
:1039C0009CAE35442F447B1B002B7FF75EAC5946E1
:1039D0002020029B98470028FFF68FAE0135F2E7C2
:1039E000594616F8010B029B98470028E0DA84E656
:1039F000A75500000FB41FB506AB53F8042B039373
:103A0000002104480091FFF727FC05B05DF804EBA6
:103A100004B07047554B000005460C4608B599B1F7
:103A2000D1E9012313480968FFF7E4FFD4E904232F
:103A3000E1681148FFF7DEFFE1691048FFF7DAFFA0
:103A4000A1690F48FFF7D6FF012D05D1EFF30581DE
:103A50000C481039FFF7CEFFEFF31183202383F3D7
:103A60001288BFF36F8FEFF3118283F31288BFF3D5
:103A70006F8FFEE7A8550000D855000008560000DB
:103A8000185600004756000070B5264C26480E46D2
:103A90001546FFF7AFFFA36AD80640D52348FFF7C6
:103AA000A9FF1120A36A190703D52148FFF7A2FF38
:103AB00012201C4CA36A9A070FD51E48FFF79AFFE5
:103AC000616BA36A1B0607D51B48FFF793FF1EB166
:103AD000A36A23F08003A3621320124CA36ADE07BB
:103AE00003D51648FFF786FF1420A36A9C0603D56A
:103AF0001348FFF77FFF15200A4B9A6AD10658BF7B
:103B00009A6A9A6A920642BF5A6A22F400525A622C
:103B10009A6A42F0FF029A6200232B7070BD102057
:103B2000C0E700BF00ED00E05B56000072560000E9
:103B3000A6560000BA560000D3560000EA56000010
:103B40000A57000070B5244C24480E461546FFF76E
:103B500051FFA36AD90435D52148FFF74BFF172041
:103B6000A36A1A0503D51F48FFF744FF18201A4C13
:103B7000A36A9B050FD51C48FFF73CFFA16BA36A06
:103B8000180407D51948FFF735FF1EB1A36A23F4BF
:103B90000043A3621920104CA36A590503D51448A9
:103BA000FFF728FF1A20A36ADA050DD51148FFF7A1
:103BB00021FF1B20084A936A43F47F43936200234A
:103BC0002B7070BD1620CBE7A36A9B04F2D50A4880
:103BD000FFF710FF1C20EDE700ED00E03A57000072
:103BE00051570000A6560000635700007D570000A3
:103BF00093570000AF5700000A57000010B5204C43
:103C00002048FFF7F7FEA36A990137D51E48FFF752
:103C1000F1FE1E20A36ADA0103D51C48FFF7EAFE75
:103C20001F20174CA36ADB0203D51948FFF7E2FEF9
:103C30000220A36A1C0303D51648FFF7DBFE2120F0
:103C40000F4CA36A590303D51348FFF7D3FE222074
:103C5000A36A9A0303D51148FFF7CCFE2320084C32
:103C6000A36ADB0303D50E48FFF7C4FE2420A36A32
:103C70006FEA03436FEA1343A36210BD1D20C9E737
:103C800000ED00E0C8570000E1570000F5570000C4
:103C9000105800003B5800005A580000805800009F
:103CA0009B5800002DE9F0415C4B05465F680026FB
:103CB0008AB0C7F3080486F31188BFF36F8F02F050
:103CC0007F43B3F17F4F06D102F00C03082B13D1D1
:103CD0005348FFF78FFE002635464FF00008E31EDD
:103CE0008DF80780092B00F28680DFE803F00A7A5E
:103CF0007E7584848484848210074CBF0D4601261F
:103D0000EBE74848454CFFF775FE8DF80780E36AFE
:103D10009A0704D54448FFF76DFE00242AE0E36AC1
:103D2000002B01DA4148F6E7E36A5B00F5D540482D
:103D3000FFF760FE6369AA6943F480736361BFF3B0
:103D40004F8FBFF36F8F32F8023C626922F48072AA
:103D50006261BFF34F8FBFF36F8F03F47F42B2F501
:103D60005F4F1FD1DBB2022B1CD129683148FFF70E
:103D700041FE2C689DF80730002B4BD120222946AC
:103D800002A801F04FFA099B002E40D0C3F30802AD
:103D900022B96FEA53236FEA43230993204602A90D
:103DA000FFF73AFE1D4B9A6AD2B232B101210DF1F2
:103DB00007022846FFF768FE11E09A6A12F47F4F67
:103DC00006D001210DF107022846FFF7BBFE06E0F1
:103DD0009B6AB3F5803FA0D32846FFF70FFF044648
:103DE000C8E700210DF10702E3E700210DF107020A
:103DF000EAE711488FE7114B17F4F87F1049114893
:103E000008BF1946A4F11002FFF7F4FD85E76FF330
:103E10000803C2E70AB0BDE8F08100BF00ED00E092
:103E2000F558000021590000395900005B59000085
:103E30006A5900008A590000A7590000C7580000BD
:103E4000DC580000CC59000010B572B6002484F391
:103E50001388FCF747FF23464FF0FF300C4A03F16D
:103E600020010133102B42F82100F8D100234FF03C
:103E7000FF30074A03F160010133102B42F82100A3
:103E8000F8D162B6BFF34F8FBFF36F8F10BD00BF85
:103E900000E100E08FB59E4A9E4B22F07F029A60BF
:103EA000BFF34F8FBFF36F8FD3F888209A4822F467
:103EB0007002C3F88820994A0021121A01F0BDF956
:103EC0009748984A9849121A01F0ACF99748984ACD
:103ED0009849121A01F0A6F90023202040F20F128F
:103EE000954CE1180133934281F80003F9D1002089
:103EF000FDF706F9914B03F5006282F3088883F31E
:103F00000A880021E022834B8D4E83F82220D97746
:103F100019765976997683F820105A6A42F4E0228D
:103F20005A6283F823105A6942F010025A615A69A2
:103F300042F480625A615A6922F008025A611022E2
:103F40001A614FF0FF329A62DA62D3F8902012F4CD
:103F50007E4F29D0BFF35F8F7A4AC3F89410C3F81D
:103F6000C02002227848C3F89810C3F89C20C3F8F8
:103F7000A0000120C3F8980000F10050C3F89C0095
:103F800000F57F3000F2E230C3F8A0003270D3F8C1
:103F90009000C0F30720824230DB0522C3F8942052
:103FA000BFF34F8FBFF36F8F684934784D68A446D5
:103FB0001DB11F2D44D86FF0150401203470FDF79A
:103FC0009FF80220FDF79CF8002383F30B88604CD8
:103FD000604DA4F5205686F30B8884F309880020F1
:103FE00004498847184619461A46A8470248804798
:103FF000FEE70000D7510000E5510000C3F898200B
:10400000C3F8A0100132C2E7C7F898002046D7F8DD
:10401000A03003F01F031343C7F8A03000F05DFE8B
:104020006FE0C7F89800D7F89C30604663F304054A
:10403000C7F89C50F2E7D145F3D100F04EFEBCE743
:10404000E806B8D10B68DA06B5D143E800F21D44A2
:1040500012F4803F5FFA82F805F1FF3A08BF6FF073
:1040600015084AE800F2D703D0B2A4D54045A2D142
:104070004445A0DD274FC7F89880D7F89C20C7F8A3
:104080009880D7F8A09022F01F02934249F01F09B0
:10409000D1D0013BD14523F01F02B5D0C7F898809D
:1040A000D7F8A030204603F01F031343C7F8A03011
:1040B00000F013FE10F1160F3FF47DAFC7F89880A3
:1040C000D7F89C209DF8083009F1FF3962F304030A
:1040D0008DF80830D7F8A030009525F01F059DF821
:1040E00008204D445B08A5EB0A05013063F3471235
:1040F00025F01F056946C0B28DF808200395FCF72E
:104100002FFE10F1160F3FF456AF441C55E700BFC9
:104110000000000000ED00E0F00000201012002080
:1041200040000020EC000020406300000000002060
:10413000400000200063000000E100E0103A002091
:104140000D120020AAFF4400E1CF1700B853000071
:10415000103A0020292B000008B50123414A4248AB
:10416000C2F80038414AD2F840231C2A04BF404A12
:10417000C2F80C34FCF72EFF0830FCF72BFF083098
:10418000FCF728FF0830FCF725FF00F5F470FCF77A
:1041900021FF384AD2F88C3043F44063C2F88C30A7
:1041A0000022D30003F57F0303F54043D3F8001446
:1041B00001310AD0D3F8001439B1D3F80014013218
:1041C000D3F80434402A0B60EBD1264BD3F84024BB
:1041D000002A42D0FCF7EEFE48B1244BD3F834233A
:1041E000254B9A429EBF1F4B244AC3F84026FCF73A
:1041F000E1FE18B1224B234AC3F8AC27FCF7DAFEE4
:1042000048B13422174BC3F82426D3F83C2622F4B5
:104210000022C3F83C261C4BD3F80026D20744BF2B
:104220006FF00102C3F80026184BD3F8182522F0CE
:104230000302C3F81825D3F8182542F00302C3F887
:1042400018250C4AD2F88C3043F44063C2F88C3005
:1042500000220F4BC3F8D42608BDC822C3F840245F
:10426000B8E700BF0000125000C50D5000C0FF00AD
:104270000030055000ED00E0001D0A1840E0A91EC6
:1042800000A0085078000A0400E0105000B004506C
:1042900000600D5030BFFFF7FDBF00BFEFF3088097
:1042A000EFF3098101B57246FFF7FCFC01BD00BFC9
:1042B000002080F31488BFF36F8F002080F30A88FA
:1042C00080F30B880F4880F30888FFF745FF002034
:1042D0000D490860BFF34F8FFFF7B6FD202080F334
:1042E00011880A484FF40061401880F30988EFF301
:1042F00014800221084380F31488BFF36F8FFFF707
:10430000C9FD0000103A002094ED00E0103A0020B2
:104310001EF0040F0CBFEFF30880EFF309808169F2
:1043200011F8021C0229FFD001B5724600F04CFFC3
:1043300001BD00BF4379012B07D10368012B04D1D4
:104340000079431E584258417047002070470023AF
:1043500010B51C465AB2914200DC10BD40F8234013
:104360000133F7E700231A4610B55CB2A14203DC23
:10437000B2FA82F0400910BD50F8234001332243C5
:10438000F3E701234A1150F8220001F01F018B408E
:10439000184070474B1E10B55BB2041D1A0603D4BB
:1043A0005A1E54F8221071B101335BB24BB103F1C4
:1043B0008042013A50F82220B2FA82F2C2EB431353
:1043C0009BB218B210BD1346E8E7002310B55CB2EB
:1043D000A24200DC10BD51F8234040F823400133D5
:1043E000F5E710B5013A52B2130601D5002010BD11
:1043F00050F8224051F822309C4205D802F1FF3299
:10440000F2D24FF0FF30F2E70120F0E7F0B50024E0
:1044100006469C46204665B2AC4500DCF0BD51F82E
:10442000247052F824303D1AED1AAF4218BF002014
:1044300046F8245038BF40F001000134EBE7F0B5F6
:1044400000240646204665B2AB4200DCF0BD51F8C0
:10445000247052F824503D440544AF4218BF002058
:1044600046F8245088BF40F001000134EBE70023F8
:1044700000EB8101884200D3704751F8042D43EAD4
:1044800052030B60D307F5E72DE9F74F00273C46B1
:104490003D464FFA87F9994516DB4FF0FF364FF04E
:1044A000000806EB43060196019F53FA88FE4FFA77
:1044B0008EFEBE455FFA88F628DB00EBC30040F8AD
:1044C000044C03B0BDE8F08F4FF0000EF04602EB55
:1044D000870A51F82EC05AF804694FF0000BACFB64
:1044E000066C36195CEB050C28BF4FF0010B0EF182
:1044F000010E34464FFA8EF6B1456546D844E8DAE7
:1045000040F82740454664460137C2E7A9460025E2
:10451000013676B202EB8E0A77B2BB4205DC40F878
:104520002E4008F101084C46BEE76FF003077743C1
:1045300051F826C05AF807704FF0000BA7FB0C7C0F
:104540003F195CEB090C28BF4FF0010BE1463C46DC
:104550005D440136E0E770B59DF910601D463346B5
:104560000446FFF76CFF30B9324621462846FFF774
:1045700038FF012807D033462A4621462046BDE8A9
:104580007040FFF743BF70BD70B59DF910601D46C8
:1045900033460446FFF73AFF38B133462A462146F0
:1045A0002046BDE87040FFF74ABF70BD2DE9F04FCF
:1045B0001D46A7B006ABCDE904310290294610464E
:1045C0009046FFF7E7FEC0EB851424B22146002C8D
:1045D000B8BF04F11F01634203F01F0316AF384652
:1045E00041F3471104F01F0658BF5E42FFF7AFFECC
:1045F000002E4FEA81002CDD002213463844C6F11C
:10460000200E9D421AD80126AB00039307EB8503C9
:10461000019305F1FF3826AB4FEA450903EB880803
:10462000002C55DA26AB03EB86062A4656F8881C82
:104630000298FFF7CAFE27B0BDE8F08F58F823C0F4
:1046400001330CFA06F10A4340F8042B2CFA0EF25F
:10465000D7E72A4641463844FFF7B7FED3E75AF872
:10466000883C53F8212026AB03EB810353F8403CF0
:104670006344D31A34BF4FF0010B4FF0000B9A4242
:1046800004D0BBF1000C18BF4FF0010C5EF8882C71
:10469000013042F8213041B24945E0DBA6EB0C0382
:1046A0005E42294638465E41FFF7E1FE039B2946FC
:1046B00098336B4453F8402C58F8403C019843EA37
:1046C000C273013C48F8403C24B2FFF7D0FEA7E794
:1046D000002026AB86F0010E844603EB860A03EB2E
:1046E0008E0ED8E730B505461C4691B0684693F962
:1046F0000030FFF7C9FE69462846D4F8AC30984729
:1047000011B030BD70B50368054613F001061446BC
:1047100005D013460A460146FFF791FE064621469C
:104720002846FFF7A4FE46B104F18042013A55F84D
:10473000223043F0004345F8223070BDF0B50F46FB
:104740000646A1B01946384615461C46FFF70AFE34
:1047500028B1304621B0BDE8F040FFF7F8BD224651
:1047600039466846FFF731FE294608A8FFF72DFEB7
:1047700010A82146FFF7EBFD012318A81093FFF7BF
:10478000E6FD2246684608A9FFF72BFE30B922460F
:10479000304610A9FFF719FE21B0F0BD009BDA07E3
:1047A00009D421466846FFF762FE2246294610A832
:1047B000FFF7A8FFE5E7089BDB0707D4214608A819
:1047C000FFF755FE2246294618A8F1E7012823469F
:1047D0001CD108AA69466846FFF718FE21466846BC
:1047E000FFF745FE224618A910A8FFF7FAFD013091
:1047F00005D110A923462A460846FFF720FE10A936
:104800002346084618AAFFF701FECEE76A4608A825
:10481000FFF7FCFD214608A8FFF729FE224610A954
:1048200018A8FFF7DEFD013005D118A923462A4656
:104830000846FFF704FE18A92346084610AAFFF70A
:10484000E5FDBFE72DE9F04793F90060044689468E
:1048500092B03146104615461F46FFF783FD0028EB
:1048600040F095803B464A4649460AA8FFF73AFF82
:104870003B4621460AAA02A8FFF734FF0AAA1146BE
:1048800010463B46FFF72EFF3B462A464946484620
:10489000FFF728FF07F104083B462A462946284629
:1048A000FFF720FF43462A46214620460096FFF7A1
:1048B00052FE43462A46294628460096FFF74BFEFD
:1048C00043462A46214628460096FFF75DFE3B46B2
:1048D0002A4621462046FFF705FF43462246214649
:1048E00028460096FFF737FE43462A4621462046D3
:1048F0000096FFF730FE2368DB074BD53346424670
:1049000021462046FFF79BFD824631462046FFF7B1
:10491000AEFD06F18043013B54F8232042EACA72FF
:1049200044F823203B46224621462846FFF7DAFE7C
:1049300043462946284602AA0096FFF725FE43462D
:104940002946284602AA0096FFF71EFE02A908463D
:1049500043462A460096FFF717FE3B46214620466F
:1049600002AAFFF7BFFE0AAA434610462146009658
:10497000FFF70AFE324629462046FFF726FD494644
:104980002846FFF722FD48460AA9FFF71EFD12B090
:10499000BDE8F08731462046FFF769FDC2E72DE903
:1049A000F0418AB0044615460E461C22002103A899
:1049B00000F043FC032395F900803246314620463F
:1049C00002932F1D2B46FFF78DFE3B4621462046C6
:1049D00002AACDF80080FFF7D7FD2B4632462146CC
:1049E0002046FFF77FFE3B4621462046CDF800805B
:1049F00005F18402FFF7AFFD0AB0BDE8F081F0B524
:104A00001C46074615460E4689B011466846FFF714
:104A100069FE23466A4639463846FFF763FE234659
:104A20002A4669466846FFF75DFE23466A463146D8
:104A30003046FFF757FE09B0F0BD2DE9F0478AB0C8
:104A4000DDF848A01446564680461D46894616F9AC
:104A5000047B02463346214602A80097FFF794FDE7
:104A600002AA534611461046FFF73CFE5346414604
:104A7000404602AAFFF736FE53462146204602AAC8
:104A8000FFF730FE33464A46294628460097FFF78F
:104A90007BFD53462A46294602A8FFF723FE02A9BA
:104AA0003346424608460097FFF76EFD02A933469B
:104AB000224608460097FFF767FD334642462146E7
:104AC00020460097FFF760FD534622464946484678
:104AD000FFF708FE33464146204602AA0097FFF73B
:104AE00053FD5346224629462846FFF7FBFD334631
:104AF0004A46294628460097FFF746FD3A46204693
:104B000002A9FFF762FC0AB0BDE8F087F8B50E46CF
:104B1000D11C48BF911D144641F38701FFF717FCD4
:104B20000025671E6AB2A24205F1010500DBF8BD4F
:104B3000BB1A23F00301B25C03F00303DB009A40CD
:104B4000435813434350EDE708B58368DB68984743
:104B5000006808BD002070472DE9F84F9A46D378C9
:104B600081466F2B0F461546A3F1410B2BD026D85B
:104B7000582B14BF0A261026DDF828803246002361
:104B800048463946FBF77AFC092A08F1FF38D4B2C7
:104B90001ED83034B145E4B277F1000788F8004000
:104BA00001D3D04511D82B789B0605D5082E15D1F9
:104BB000AB7843F00803AB704046BDE8F88F03F0D4
:104BC000F703702BD5E70826D6E781460F46D5E7D1
:104BD000BBF1190F94BF37345734DBE7102EEBD1FC
:104BE000AB7843F01003E6E730B400258C68CB6067
:104BF00004F00304032C14BF2C464C688D6014B1E0
:104C0000A44630BC604730BC7047038B13F00703E9
:104C100006D10368002B18BF032008BF002070478F
:104C2000022B05D1408BB0FA80F04009800070471C
:104C3000012B04D10368002B18BF0520EDE70020ED
:104C4000704710B4EFF31182202484F31288BFF36D
:104C50006F8F416110BC0121FBF732BF002930B4D6
:104C600004460DDB806888420AD9401A834207D87F
:104C7000E0686468214484682468A44630BC6047C6
:104C80006FF0150030BC704710B484680A46203CB1
:104C900024F00F04A4F13001042310BCFFF7DEBFA1
:104CA000002930B404460DDB806888420AD9401AD6
:104CB000834207D8E0686468214484686468A44635
:104CC00030BC60476FF0150030BC704708B5C06855
:104CD0008368DB689847407908BD30B50C684B683D
:104CE00085B00A894D890094013B24F01F042344B8
:104CF00002F01F0242EA451223F01F0369468DF8B5
:104D000008200393FCF72CF805B030BD0C22036992
:104D1000C9B202FB0133186C00F00700704770B590
:104D20000346C9B20069EFF31186202484F3128888
:104D3000BFF36F8F0C2505FB0104246C14F0C00435
:104D400001D0A24210D1012205FB01000264002023
:104D500086F31188BFF36F8F28B95B6803EBC1033B
:104D60005B689847002070BD4FF0FF30F0E780226D
:104D7000FFF7D5BFF8B5069F05460469C9B2EFF342
:104D8000118C202080F31288BFF36F8F0C2606FB56
:104D90000146306C00F0070EBEF1010F11D13764EF
:104DA00000268CF31188BFF36F8F46B90C2000FBEF
:104DB0000144C4E90E236B6853F8313098473046FC
:104DC000F8BD00F0C00087420CBF6FF077064FF0CF
:104DD000FF36E6E713B580240094FFF7CBFF02B05F
:104DE00010BD6FF08500704710B41C240069CBB271
:104DF00004FB0300002110BC1047FCF765B838B570
:104E000015460C4659B1FFF761FF2146254411F8BC
:104E1000013B834203D1A942F9D1012038BD0020D2
:104E2000FCE738B50C460123114622460546FFF73C
:104E300015FF00280FDB012221462846FFF7DFFF80
:104E400018B103230020237038BD2378012B14BF31
:104E500002230123F6E70120F6E703460020184766
:104E6000FCF7D2B870B504680D1B002D02DC6FF0A2
:104E70005F0070BD94F900602378002E0ADB631C8C
:104E80000360237813600368C91A13688B42EED855
:104E90000020EEE703F07F035C1E032C0ED89D423A
:104EA000E5DD002414600468013B013404605E1CED
:104EB0001568E8D0247844EA0524F3E76FF063002E
:104EC000D7E770B404680E1B002E07DD26789E42DB
:104ED00008D10134046070BCFFF7C4BF6FF05F00FD
:104EE00070BC70476FF06100FAE72DE9F04F87B0B2
:104EF0000E46C0B203A91746FBF7D6FE04460028AB
:104F00003AD1039B002B37D0D3E9018AD86804A992
:104F1000836805AA5B69D6F800909847059B2546EB
:104F20000193214623460498C2440430019A9142D9
:104F300004D13360204607B0BDE8F08F4FF0000C7D
:104F4000D0F800E050F8042C944502D30131083029
:104F5000ECE7A8450CD8AA45EBD999450FD907EB42
:104F6000C302A5EB080B47F833B0C2F804E00133E5
:104F700075440CF1010CE5E76FF01504DAE76FF00A
:104F80000B04D7E7F8B50C468A6E0546D1E908311F
:104F9000D0001B1841F10001C4E908318021501CE8
:104FA00038282244A0664FF0000782F8281004F148
:104FB00028060BD9C0F140023946304400F03DF9D3
:104FC00020463146FBF794FC3846A766C0F138020C
:104FD0000021304400F031F9236A626A1BBA12BA28
:104FE0003146C4E918232046FBF782FC2B1D211F04
:104FF000243551F8042F0433100E03F8080C100C5C
:1050000003F8070C100A03F8060C03F8052CAB4252
:10501000EFD170220021204600F00FF90120F8BDE9
:105020002DE9F3410C46074611460223204601AA0A
:10503000FFF747FF0546E8B9019E1F2E0ED9202233
:1050400038462368A6F12001194400F0EBF82368E4
:1050500033442360284602B0BDE8F081C6F1200841
:1050600001464246384600F0E8F83246216807EB30
:105070000800EAE76FF00205ECE7084611461A4619
:1050800021B103431B0701D1FCF720BA6FF01500D3
:10509000704741EA02030846C3F30B0109B9FCF764
:1050A00015BA6FF0150070472DE9FF471D460646FB
:1050B000C0680F469046FFF747FD6C1E044440420F
:1050C0000440102C1AD83046FFF700FE82462A46CC
:1050D0004146684600F0A6F85146621B0DEB0500FC
:1050E00000F0ABF823466A4639463046FFF7D8FD54
:1050F000003818BF012004B0BDE8F0874FF0FF3042
:10510000F9E7042307B5019181680DEB030220390B
:1051100021F00F013039FFF7C7FF03B05DF804FB42
:1051200007B5012001A9FBF7BFFD70B90123019864
:105130006A4681688DF80030203921F00F0110395E
:10514000FFF7B2FF03B05DF804FB0120FAE701238B
:1051500007B5816801AA203921F00F018DF80430CC
:10516000FFF7A2FF03B05DF804FB13B50C46C0B215
:1051700001A9FBF799FD30B92146019802B0BDE8BD
:105180001040FCF7FBBD012002B010BD1FB501208F
:1051900001A9FBF789FD10B1012004B010BD019CED
:1051A00002A92046FCF7EAFD0028F5D19DF80B3056
:1051B000032BF2D12046FFF7CAFFEEE700210120C2
:1051C00008B5FEF729FC704708B501460068FEF7F0
:1051D00023FCFFF75FB861B662B680F31188BFF3B6
:1051E0006F8F7047EFF31180202383F31288BFF392
:1051F0006F8F70477047034600201A5C02B97047F2
:105200000130FAE710B55AB10139841810F8012BB2
:1052100011F8013FA04201D09A42F7D0D01A10BD38
:105220001046FCE710B5431E0A44914200D110BD60
:1052300011F8014B03F8014FF7E70346C9B20244E6
:10524000934200D1704703F8011BF9E764B2FF7F76
:1052500001000000A50D0000000000003919000049
:1052600000000000000000007C520000211C000033
:10527000000000000000000098520000F9590000F2
:1052800018530000CC520000E8000020B0100020AD
:10529000D50E000000000000E059000000000000F2
:1052A000B4520000EA00002000000000A10F00003E
:1052B00000000000211500007B500000935000000A
:1052C000890F0000790F0000910F0000E34D0000EE
:1052D0006F4D0000D54D0000000000000D4D000096
:0852E0000000000000000000C6
:1052F0000338FDD8704700000000000000000000E7
:105300000338FDD8704700000000000000000000D6
:105310000338FDD8704700009115000065160000A5
:1053200055100000614E0000000000000000000069
:1053300000F8000098520000010000000000010089
:1053400000200B00985200000200000000200C001A
:1053500000200B00985200000300000000401700DE
:1053600000900000985200003B52000000A0105036
:1053700000820D500004055000A0045000600C5045
:105380000040105054520000645200006C52000063
:10539000745200007C5200007C5200007D0100002D
:1053A000001000001000000001FF0000850E00004A
:1053B000550E00000000000000000020400000002A
:1053C00006000100982F8A4291443771CFFBC0B587
:1053D000A5DBB5E95BC25639F111F159A4823F92C0
:1053E000D55E1CAB98AA07D8015B8312BE85312419
:1053F000C37D0C55745DBE72FEB1DE80A706DC9BDA
:1054000074F19BC1C1699BE48647BEEFC69DC10F85
:10541000CCA10C246F2CE92DAA84744ADCA9B05CC1
:10542000DA88F97652513E986DC631A8C82703B084
:10543000C77F59BFF30BE0C64791A7D55163CA0692
:1054400067292914850AB72738211B2EFC6D2C4D9E
:10545000130D385354730A65BB0A6A762EC9C2818C
:10546000852C7292A1E8BFA24B661AA8708B4BC222
:10547000A3516CC719E892D1240699D685350EF44C
:1054800070A06A1016C1A419086C371E4C77482703
:10549000B5BCB034B30C1C394AAAD84E4FCA9C5B79
:1054A000F36F2E68EE828F746F63A5781478C884CA
:1054B0000802C78CFAFFBE90EB6C50A4F7A3F9BEAC
:1054C000F27871C608200001FFFFFFFFFFFFFFFF1A
:1054D000FFFFFFFF000000000000000000000000D0
:1054E00001000000FFFFFFFF512563FCC2CAB9F3B2
:1054F000849E17A7ADFAE6BCFFFFFFFFFFFFFFFF8B
:1055000000000000FFFFFFFF96C298D84539A1F4C4
:10551000A033EB2D817D0377F240A463E5E6BCF870
:1055200047422CE1F2D1176BF551BF376840B6CB3B
:10553000CE5E316B5733CE2B169E0F7C4AEBE78E37
:105540009B7F1AFEE242E34F4B60D2273E3CCE3BAC
:10555000F6B053CCB0061D65BC86987655BDEBB34E
:10556000E7933AAAD835C65A454800009F4900003B
:105570006D07000001000200100011001200200061
:1055800021002200230024003000310032003300CB
:10559000FFFF10002DE15D29410B8D77679C110FF6
:1055A0001F8A286E696C290072302F61313A2020E1
:1055B000307825303878202072312F61323A20201F
:1055C000307825303878202072322F61333A20200D
:1055D0003078253038780A0072332F61343A202031
:1055E000307825303878207231322F69703A202097
:1055F000307825303878207231342F6C723A202080
:105600003078253038780A0020787073723A20207C
:105610003078253038780A004661756C74696E6799
:1056200020696E737472756374696F6E206164644F
:105630007265737320287231352F7063293A2030D8
:1056400078253038780A00556E68616E646C656440
:10565000204952516E3A2025640A002A2A2A2A2A11
:10566000204D5055204641554C54202A2A2A2A2A9A
:105670000A002020537461636B696E672065727243
:105680006F722028636F6E74657874206172656133
:10569000206D69676874206265206E6F7420766182
:1056A0006C6964290A002020556E737461636B690C
:1056B0006E67206572726F720A0020204461746107
:1056C000204163636573732056696F6C6174696F01
:1056D0006E0A0020204D4D4641522041646472659F
:1056E00073733A20307825780A002020496E73744D
:1056F00072756374696F6E204163636573732056BE
:10570000696F6C6174696F6E0A002020466C6F616E
:1057100074696E672D706F696E74206C617A792080
:1057200073746174652070726573657276617469F3
:105730006F6E206572726F720A002A2A2A2A2A2046
:10574000425553204641554C54202A2A2A2A2A0AD7
:10575000002020537461636B696E67206572726FFD
:10576000720A002020507265636973652064617459
:105770006120627573206572726F720A0020204288
:1057800046415220416464726573733A2030782533
:10579000780A002020496D70726563697365206422
:1057A00061746120627573206572726F720A0020E5
:1057B00020496E737472756374696F6E20627573BD
:1057C000206572726F720A002A2A2A2A2A205553EB
:1057D000414745204641554C54202A2A2A2A2A0A64
:1057E0000020204469766973696F6E206279207A9F
:1057F00065726F0A002020556E616C69676E656482
:10580000206D656D6F7279206163636573730A0043
:105810002020537461636B206F766572666C6F77BE
:105820002028636F6E746578742061726561206EE4
:105830006F742076616C6964290A0020204E6F2005
:10584000636F70726F636573736F7220696E7374C8
:1058500072756374696F6E730A002020496C6C6501
:1058600067616C206C6F6164206F66204558435FF0
:1058700052455455524E20696E746F2050430A00B1
:105880002020496C6C6567616C20757365206F66BC
:105890002074686520455053520A002020417474DA
:1058A000656D707420746F2065786563757465200C
:1058B000756E646566696E656420696E7374727571
:1058C0006374696F6E0A0052657365727665642051
:1058D000457863657074696F6E2028005370757227
:1058E000696F757320696E746572727570742028A3
:1058F0004952512000535053454C20696E20746822
:1059000072656164206D6F646520646F6573206EDD
:105910006F7420696E646963617465205053500A26
:10592000002A2A2A2A2A2048415244204641554C1E
:1059300054202A2A2A2A2A0A002020427573206627
:1059400061756C74206F6E20766563746F7220745D
:1059500061626C6520726561640A002020446562A2
:105960007567206576656E740A0020204661756C47
:105970007420657363616C6174696F6E2028736550
:10598000652062656C6F77290A00415243485F4584
:105990005843455054207769746820726561736F6D
:1059A0006E2025780A0A002A2A2A2A2A20446562BB
:1059B0007567206D6F6E69746F72206578636570AE
:1059C00074696F6E202A2A2A2A2A0A002A2A2A2A79
:1059D0002A20257320256429202A2A2A2A2A0A0017
:1059E0007272616D2D636F6E74726F6C6C65724054
:1059F000353030346230303000636C6F636B40316F
:105A00003065303030003059301306072A8648CED2
:105A10003D020106082A8648CE3D030107034200E5
:105A200004C7C03E66D831BC8ACB97CDA1E00EFF3B
:105A3000A83232AC9F9B3C81FE06BE656A9B7E7F8E
:105A40002634F174E6F08528A288A05821449850A5
:105A500050E2221647DE7A9182B7AAEB8EBB53AE94
:105A6000AD2A8648CE3D030107002A8648CE3D0276
:105A700001000401040304020401040104030104FD
:105A8000030401040000000000000000BD510000FC
:105A900000000000BD51000000000000BD510000EA
:105AA00000000000BD51000000000000BD510000DA
:105AB00000000000BD51000000000000BD510000CA
:105AC00000000000BD51000000000000BD510000BA
:105AD00000000000BD51000000000000BD510000AA
:105AE00000000000BD51000000000000BD5100009A
:105AF00000000000BD51000000000000BD5100008A
:105B000000000000BD51000000000000BD51000079
:105B100000000000BD51000000000000BD51000069
:105B200000000000BD51000000000000BD51000059
:105B300000000000BD51000000000000BD51000049
:105B400000000000BD51000000000000BD51000039
:105B500000000000BD51000000000000BD51000029
:105B600000000000BD51000000000000BD51000019
:105B700000000000BD51000000000000BD51000009
:105B800000000000BD51000000000000BD510000F9
:105B900000000000BD51000000000000BD510000E9
:105BA00000000000BD51000000000000BD510000D9
:105BB00000000000BD51000000000000BD510000C9
:105BC00000000000BD51000000000000BD510000B9
:105BD00000000000BD51000000000000BD510000A9
:105BE00000000000BD51000000000000BD51000099
:105BF00000000000BD51000000000000BD51000089
:105C000000000000BD51000000000000BD51000078
:105C100000000000BD51000000000000BD51000068
:105C200000000000BD51000000000000BD51000058
:105C300000000000BD51000000000000BD51000048
:105C400000000000BD51000000000000BD51000038
:105C500000000000BD51000000000000BD51000028
:105C600000000000BD51000000000000BD51000018
:105C700000000000BD51000000000000BD51000008
:105C800000000000BD51000000000000BD510000F8
:105C900000000000BD51000000000000BD510000E8
:105CA00000000000BD51000000000000BD510000D8
:105CB00000000000BD51000000000000BD510000C8
:105CC00000000000BD51000000000000BD510000B8
:105CD00000000000BD51000000000000BD510000A8
:105CE00000000000BD51000000000000BD51000098
:105CF00000000000BD51000000000000BD51000088
:105D000000000000BD51000000000000BD51000077
:105D100000000000BD51000000000000BD51000067
:105D200000000000BD51000000000000BD51000057
:105D300000000000BD51000000000000BD51000047
:105D400000000000BD51000000000000BD51000037
:105D500000000000BD51000000000000BD51000027
:105D600000000000BD51000000000000BD51000017
:105D700000000000BD51000000000000BD51000007
:105D800000000000BD51000000000000BD510000F7
:105D900000000000BD51000000000000BD510000E7
:105DA00000000000BD51000000000000BD510000D7
:105DB00000000000BD51000000000000BD510000C7
:105DC00000000000BD51000000000000BD510000B7
:105DD00000000000BD51000000000000BD510000A7
:105DE00000000000BD51000000000000BD51000097
:105DF00000000000BD51000000000000BD51000087
:105E000000000000BD51000000000000BD51000076
:105E100000000000BD51000000000000BD51000066
:105E200000000000BD51000000000000BD51000056
:105E300000000000BD51000000000000BD51000046
:105E400000000000BD51000000000000BD51000036
:105E500000000000BD51000000000000BD51000026
:105E600000000000BD51000000000000BD51000016
:105E700000000000BD51000000000000BD51000006
:105E800000000000BD51000000000000BD510000F6
:105E900000000000BD51000000000000BD510000E6
:105EA00000000000BD51000000000000BD510000D6
:105EB00000000000BD51000000000000BD510000C6
:105EC00000000000BD51000000000000BD510000B6
